:1000000058440020B5D6000001CA011001CA0110F1
:1000100001CA011001CA011001CA011001CA011070
:1000200001CA011001CA011001CA011001CA011060
:1000300001CA011001CA01103FCA0110C0F3C75123
:1000400081B1FF2906D0C110400721F0E04101F144
:100050006051704741020CBF40F4E0016FF0004175
:100060000020704700F0004100020AD0B0FA80FC86
:1000700000FA0CF001F16051A1EB0C5101EBD02121
:1000800040057047C0F3C7517E390EDDC217D1F16C
:10009000200106DD000240F00040C84010445040FE
:1000A0007047D04380F00040704700207047000048
:1000B00062F30F2262F31F4200B500BF13009646A1
:1000C0009446103928BFA0E80C50FAD85FEA417C6A
:1000D00028BF0CC048BF40F8042BC90728BF20F830
:1000E000022B48BF00F8012B00BD0000006801078B
:0E00F00001D50420704700F0030070477047F0
:100100003C0000000000000000000000340100007E
:1001100000000000000000000100000000000000DE
:1001200000000000000000000000000001000000CE
:100130000000000008000000000000003400000083
:100140000000000000000000680100000000000046
:10015000000000000100000000000000010000009D
:100160000000000000000000080000000000000087
:1001700030000000000000000000000098010000B6
:10018000040000000000000001000000FFFFFFFF6E
:10019000FF00000001000000080000000000000057
:1001A0002C0000000000000000000000C40100005E
:1001B000040000000000000001000000FFFFFFFF3E
:1001C000FFFFFFFF080000000000000034050000F2
:1001D000E401000099A1011095A70110A5C201102A
:1001E00009B2011045B80110000000000000000035
:1001F0002E000000280000000000000000000000A9
:10020000140200000000000000000000FFFFFFFFDC
:1002100000000000080000000000000030050000A1
:100220003002000069C201106DC101101FC201102F
:1002300095BA01100000000000000000300000002E
:10024000300500005402000075C20110A9B601106B
:100250009DBF011049B60110000000000000000021
:100260003100000024000000000000000000000039
:1002700080020000000000000000000000000000FC
:100280000800000000000000240000000000000042
:1002900000000000A40200000000000000000000B8
:1002A0000000000008000000000000002400000022
:1002B0000000000000000000C80200000000000074
:1002C0000100000000000000080000000000000025
:1002D00000000000B40D0020040000000000000039
:1002E000000000002000000070010000300000004D
:1002F0001C020000EC0D00200400000000000000C3
:10030000000000000C000000300400001800000095
:1003100040020000F40D0020040000000000000076
:100320000000000024000000480400001800000045
:1003300000000000340E0020040000000000000057
:100340000000000010000000A00100002C000000D0
:10035000CC0100003C0E0020040000000000000062
:1003600000000000200000006402000024000000E3
:10037000FFFFFFFF5C0E00200400000000000000F3
:100380000000000028000000880200002400000097
:10039000FFFFFFFF640E00200400000000000000CB
:1003A00000000000580000003C0100003400000084
:1003B000FFFFFFFF6C0E00200400000000000000A3
:1003C00000000000100000006004000018000000A1
:1003D000FFFFFFFF740E002004000000000000007B
:1003E000000000001C000000AC020000240000001F
:1003F000FFFFFFFF7C0E0020040000000000000053
:100400000000000038000000F40100002800000097
:10041000FFFFFFFFE40E00200400000000000000CA
:100420000000000054000000000100003C0000003B
:100430001800000000000000000000004004000060
:10044000080000000000000018000000000000008C
:100450000000000058040000080000000000000038
:100460001800000000000000000000007004000000
:1004700008000000000000000200000010D700008B
:03048000FF7F00FB
:100484000100000000000C0000000D00320000001C
:1004940002000000BC0D002000020000A1D40000F6
:1004A40001CA011000000000000000000800000064
:1004B40000002000FC0D002001000000440E00207C
:1004C4000800000000000000000000000000000020
:1004D400000000000000000001000000840E002065
:1004E4000600000001000000EC0E002000000000E7
:0C04F400000000000002000000000000FA
:0F0502002A0001002500300031002E0001000109
:10051200004004000000F4D60000000000000000CB
:100522000000000001000000030087C4011038052C
:10053200000038050000000000008000000080007C
:10054200000000000000440E00205F800000200038
:100552000000CCD6000004D500000DC301106337A3
:1005620000006537000099C801109BC80110000007
:1005720000008204000074D200008CD200005CD221
:0B05820000000800090001000000015B
:10059000000000000000000000000000000000005B
:1005A00045320000A532000025310000CF320000A6
:1005B0008D31000041310000CD31000011330000C9
:1005C000DD7F00005B8300005F8300000800000007
:1005D0002400000018000000280000002000000097
:1005E0003C0000000C00000034000000DFF800F0C8
:1005F000D9C10110DFF800F025B10110DFF800F0DB
:100600006DA90110DFF800F0D9B6011000B58FB068
:1006100008233C2200216846FFF7E8FFDFF8540E6C
:1006200000F1EC0107914FF4167201210892069136
:1006300000236A460FF2C5119C30FFF7DBFF0FB0B5
:1006400000BD10B5012886B0DFF8284E04D002287E
:1006500064D004286FD089E001F0CAFDC00609D437
:10066000FF206075002020750122617D012000F0CF
:10067000DAF97BE000202075607DFF28F4D004A922
:10068000012001F06FFE9DF8100058B90FF2E00054
:1006900003F055F804F1780003F090F9002003F01E
:1006A00054FA35E080282FD0002003F04EFA0020C5
:1006B00003F03BFD7F21002003F0E4FA9DF81000D9
:1006C000C0F3410003F05DFB9DF81000C0F3C100D2
:1006D00003F0B0FB0020A065E06520666066A066C0
:1006E000E0666063A063E063012104F19C0001F017
:1006F000C3FF04F1780003F048F99DF810004106AB
:1007000006D50121217503E0607D08B10121E17565
:100710009DF81000802829D0607527E004A901F019
:1007200021FE9DF8101001EB810189B204F17800DF
:1007300003F046F91AE004F1280101F013FE206BE2
:10074000FFF77CFCCDE90201E06AFFF777FCCDE919
:100750000001A06AFFF772FC02460B460FF2200070
:1007600002F0EDFF01210E2004F0B6F906B010BD35
:10077000414852532053746F702E0A0D0000000040
:10078000476F7420426F617264204D61672043613E
:100790006C6962726174696F6E2044617461203AA1
:1007A0002025662C2025662C2025660A0D000000D9
:1007B00010B50FF23800DFF8584D02F0C0FF0021ED
:1007C00061751422002000F02EF9617D01220120C4
:1007D00000F029F90020A07503F0ABF903F0B2F99D
:1007E00000206063A063E063E07410BD4148525391
:1007F0002052657365742E0A0D0000002DE9F04348
:1008000089B002A800210022002380E80E00DFF852
:10081000041D082401250A68ADF81440ADF81650EF
:1008200005A8904701F032FD04F005FBDFF8444CC9
:10083000DFF8E47CDFF8E48C04F55675284601F017
:100840004DFD284604F01FFB0020019000904FF45E
:100850007A731A460FF2F11104F1780003F070F880
:10086000FFF7A6FF01226421022000F0DCF804F16A
:100870009C0500F0CFF80020608204F551794FF418
:10088000F070FFF7BBFE02AE0CE004F1780003F05D
:100890008EF818B904F1780003F077F84FF47A7005
:1008A000FFF7ACFEA07D00285ED0029801F098FA18
:1008B000FFF7E8FB20804146706804F0C7FBFFF7B4
:1008C000E1FB60804146B06804F0C0FBFFF7DAFB53
:1008D000A080A21DA06D00900C21BDF80000E0805A
:1008E000BDF902002081E06D00F08CF8206E00F070
:1008F00081F8002004F0D0FA206C0090A21DBDF811
:100900000000E0800C21BDF902002081606C00F045
:1009100079F8A06C00F06EF8032004F0BDFA207D99
:1009200038B9606B00F05EF8A06B00F06BF8E06B1C
:1009300006E0E06C00F056F8206D00F063F8606DA2
:1009400000F058F83888810703D5E07C40F040007B
:10095000E07422461421002001F0CAFCE07C00F083
:10096000FE00E0740021A175E07D20B10021E17559
:100970006163A163E16303F0DDF818B3002003F0C5
:1009800064F9C0071ED5607D00B34946002003F01E
:1009900095FA04F24A31002003F033FA04F5547159
:1009A000002003F013FC48B1022803D0002003F01C
:1009B000BCFB07E06420FFF721FE03E002A94846E4
:1009C00000F047F8607D00287FF45FAF04F1780005
:1009D00002F0EDFF18B104F1780002F0EFFF00F033
:1009E00019F85FE70090BDF80000E080BDF9020053
:1009F000208170470090BDF80000E081BDF9020041
:100A0000208270470090BDF800006081BDF90200AF
:100A1000A08170474FF0FF31284601F02DBE0146FE
:100A20000C2004F059B830B5154685B004460A4686
:100A300029466846FFF73CFB6A462946204601F0F6
:100A400057FC05B030BD0000DFF8C41A01208875DE
:100A500070472DE9F04F95B0054689460BA8242133
:100A600004F060FBFFF7CEFD08900BACB5F9000079
:100A7000DFF8006A03F08CFA0B904FF00008B5F92C
:100A8000020003F085FA6060B5F9040003F080FA13
:100A9000A060B5F9060003F05DFAE060B5F9080062
:100AA00003F058FA2061B5F90A0003F053FA6061C7
:100AB000B5F90E0003F09CFAA061B5F90C0003F043
:100AC00097FAE061B5F9100003F092FADFF8501AD6
:100AD00004F0BCFA2062B16AA06904F027FB054665
:100AE000E069F16AA56104F021FB0746206A316BD9
:100AF000E76104F01BFBF564376520627065E1680F
:100B00006569276901F058F901F05EF901F019F9FA
:100B100000F03CFD01F018F901F07DFB00F0D2FC83
:100B20000B99A568676801F046F901F04DF901F0ED
:100B300008F900F02BFD01F007F901F06CFB054608
:100B4000DFF8E00901F028F90746DFF8DC0901F0D9
:100B500023F900F0B7FC0A90DFF8D019DFF8D0597C
:100B6000AA6D384604F022FB98BF4FF07E5700F084
:100B70009DFC0AD2FFF762FADFF8B829DFF8B8392E
:100B800004F026FB04F0E0FB02463846114604F070
:100B90000FFC38BF3A46AA65104601F0D5F800F0C0
:100BA0009DFC079059462F79D4F804A0781C287131
:100BB000584604F04BFA00900B9901F0FDF801F053
:100BC000BDF8009000F086FC01F0B8F8A1688246FC
:100BD00001F0F2F801F0B5F801F01DFB00F072FC35
:100BE00005F14C0141F827000321287990FBF1F130
:100BF00001EB4101401A2871002705F14C00DFF894
:100C00003C1950F8270004F0E5FB01F0E2F87F1CE6
:100C1000032F8046F1DB0898696CCDF82480401AD8
:100C2000263004F055FCDFF81819DFF8188904F0B5
:100C3000D1FB30674F46206AD4F80CA0DFF8089942
:100C40000490E0690390A0690290606901902069B6
:100C50000090A068FFF7F2F900F0A3FC04F074FB29
:100C600005906068FFF7EAF900F09BFC04F06CFB6C
:100C7000059A059006920B98FFF7E0F900F091FCB9
:100C800004F062FB069A0599534600F09FFCFFF7BB
:100C9000B9FC68644FF0804AD6F81880D6F81C90EA
:100CA00001F09DF800F023FC01F048F80090316A53
:100CB00001F082F801F05CF800F014FC01F058F843
:100CC000FFF7BCF9CDE90001306A01F06DF881460B
:100CD000706A01F085F801F052F801F072F8FFF740
:100CE000ADF9DDE9002304F001FCDFF86028DFF84E
:100CF000603804F06DFA04F027FB3860B169306A9F
:100D000004F0A4F98046F169706A04F09FF9014685
:100D1000404604F00BFA01F054F8FFF78FF904F0A5
:100D20006FFC04F011FB7860D6F81880D6F820909C
:100D300001F055F80090F16901F03EF801F018F863
:100D400000F0D5FB01F014F800F0CCFB00F0F6FF4A
:100D5000FFF774F9CDE90001F06901F041F8804630
:100D6000706A01F021F801F034F801F02AF8FFF779
:100D700065F9DDE9002304F0B9FB04F0E5FAB86099
:100D8000DFF8D017386804F011FA0AD8FFF756F9DF
:100D9000DFF8B827DFF8C03704F01AFA04F0D4FA05
:100DA00038603868DFF8B487DFF8B497FFF746F9A2
:100DB00000F0F7FB04F0C8FA38607868FFF73EF9F6
:100DC00000F0EFFB04F0C0FA7860B868FFF736F97E
:100DD00000F0E7FB04F0B8FAB860216A63692269A1
:100DE0000291E1690191A1690091E16804F07CFD43
:100DF0000A98FFF723F907468946DFF8240700F031
:100E000097FFFFF71BF921F0004100F057FB524616
:100E1000DFF8503705F09CFA21D2697914290DDDED
:100E2000B07C58B90FF2506002F089FC0898A864B1
:100E30000120B0740020B065F065306668796428E0
:100E4000B8BF401C14DBB07C022814D00FF2346011
:100E500002F075FC0220B0740120F07509E0B07C4E
:100E600028B10FF22C6002F06AFC0020B074002060
:100E70006871B07C022800F07B8210A902910FA853
:100E80000EA90190009162692169E068DFF8D876C7
:100E9000012300F0A8FF0CA90BAA0DA80191009254
:100EA000029063692269E168012000F0E1FFA06817
:100EB000FFF7C4F8DFF8B426DFF8B43604F088F999
:100EC00004F042FA394602460B98DFF8443EA2602D
:100ED00004F06EFA05D2194604F068F99CBF0020B0
:100EE0000B90606800F0E3FA05D2194604F05EF951
:100EF0009CBF0020606000F0D9FA05D2194604F0CA
:100F000055F99CBF0020A0600B990798DFF8048E6C
:100F1000DFF8049E04F09AF8A96B05F031FA00F0AE
:100F2000DDFA834661680798C4F80CB004F08EF8C7
:100F3000E96B05F025FA00F0D1FA8246A16807981E
:100F4000C4F810A004F082F8296C05F019FA00F03A
:100F5000C5FA07466761C5F838B0C5F83CA02F64EC
:100F60005846FFF76BF800F01CFB04F0EDF90B900E
:100F700000F024FB00F015FB04F0E6F96060384651
:100F8000FFF75CF800F00DFB04F0DEF9A060002034
:100F900030647064B064B16D376ED6F85CA000F058
:100FA0000BFF834600F00CFF00F0C2FE00F00CFFC8
:100FB00000F0C7FE01F02FF90290B07C002840F04D
:100FC00047816F690B98DFF854ADDFF854BDFFF728
:100FD00035F800F0F6FA00F08FFA00F0D1FA04F0DC
:100FE000B3F9E0606068FFF729F8CDE90001686AAD
:100FF000FFF724F800F080FA00F0C2FA04F0A4F938
:101000002061A068FFF71AF8CDE90001686BFFF7CF
:1010100015F852465B4605F025FA00F0B1FA04F0E7
:1010200093F960613946384604F010F8696A07465A
:1010300000F0C2FE00F088FE696B074600F0BCFEBF
:1010400000F082FE01F0E7F8074602994FF07E506B
:1010500004F0C0F980F00040FEF7F0FF04F074F9EE
:10106000DFF8F81D009183463846FEF7E7FF424659
:101070004B4605F0F7F902460B460020DFF8E01D6D
:1010800005F0C2FA04F060F9009900235A4600F016
:10109000C3FFDFF8D01D03F0D9FF07466969E06898
:1010A00005F06EF900F092FE00F018FAE060696A4F
:1010B000206905F065F900F089FE00F00FFA206163
:1010C000696B606905F05CF900F080FE00F006FADB
:1010D0006061E0680E993064206970646069B06492
:1010E00000F0F5F9B16D05F04BF9B0652169306F8D
:1010F000DFF8749D03F0AAFFF16D05F041F9834616
:101100006169306FC6F85CB003F0A0FF316E05F086
:1011100037F90746706E3766FEF790FFCDE900019C
:10112000B06DFEF78BFF00F03CFA00F0C3F904F05D
:101130000BF97066B06EFEF781FFCDE900015846ED
:10114000FEF77CFF00F02DFA00F0B4F904F0FCF893
:10115000B066F06EFEF772FF00F033FA00F021FA8D
:1011600000F0A8F904F0F0F800218246E068DFF80A
:10117000FC9CC6F86CA004F019F84FF0333803D289
:10118000B06D04F015F907D3E06804F011F90AD244
:10119000B06D04F00BF806D2FEF750FF00F001FA34
:1011A00004F0D2F803E0B06D716E03F0BFFFB065DC
:1011B0000021206903F0FAFF03D2584604F0F8F842
:1011C00007D3206904F0F4F80AD2584603F0EEFF82
:1011D00006D2FEF733FF00F0E4F904F0B5F802E0C0
:1011E000B16E00F0C2FDF0650021606903F0DEFF22
:1011F00003D2384604F0DCF807D3606904F0D8F86D
:101200000AD2384603F0D2FF06D2FEF717FF00F0ED
:10121000C8F904F099F803E03846514603F086FF18
:101220003066B07CA0B9B16D00F051F9716B05F07A
:10123000A7F87063F16D00F04AF9B16B05F0A0F802
:10124000B063316E00F043F9F16B05F099F8F0638B
:1012500005F1080228780B9942F82010401C2870EC
:1012600000F01CF928700027002068616869FEF70B
:10127000E5FE804605F1080000F099F900F042F91A
:10128000424600F01CF904F05FF87F1C032F6861F0
:10129000ECDB05F118026878616842F82010401C08
:1012A000687000F0FBF86870002700206862686AC8
:1012B000FEF7C4FE804605F1180000F078F900F052
:1012C00021F9424600F0FBF804F03EF87F1C032FA2
:1012D0006862ECDB05F12802A878A16842F82010CA
:1012E000401CA87000F0DAF8A870002400206863A1
:1012F000686BFEF7A3FE074605F12800894650F803
:101300002400FEF79BFE00F0FDF800F0D7F804F093
:101310001BF8641C032C6863EADB4FF082410998D8
:1013200004F046F809D2A87970B90121A971F07CBE
:1013300040F00100F074B17506E0DFF8481D03F0DD
:1013400035FF9CBF0020A871F07C01061AD4706F95
:101350004FF07E5104F02CF814D2F07C40F0800065
:10136000F0740FF6605002F0EAF90120B07509E060
:10137000002002900190009062692169E0680023DA
:1013800000F031FDB16D346EF56D00F015FD00F02B
:10139000FDF800F0D9FC0546204600F036FE00F0CE
:1013A000EBFC00F038FF00F08DF8DFF8DC1C776E06
:1013B00003F0FCFE044639D84FF0785000F025FECB
:1013C000FEF73CFEDFF8C42CDFF8C43C05F04AF819
:1013D000D6F858A004460D4600F0F0F800F0ECF8FE
:1013E00000F0D9F800F0C6F803F0AEFFB065D6F80B
:1013F0005CA000F0E3F800F0DFF800F0CCF800F0BB
:10140000B9F803F0A1FFF065D6F860A000F0D6F8B7
:1014100000F0D2F800F0BFF800F0ACF803F094FF51
:101420003066DFF8704CDFF8705C08E04FF07E51FA
:1014300003F0BEFF1BD2DFF8644CDFF8645C384673
:10144000FEF7FCFD00F0A7F803F07EFF7066B06EBB
:10145000FEF7F4FD00F09FF803F076FFB066F06E43
:10146000FEF7ECFD00F097F803F06EFFF06615B0A4
:10147000BDE8F08F540200205374656164792E0A30
:101480000D000000536C6565702E0A0D0000000011
:101490004D6F76696E672E0A0D0000000321C0B201
:1014A00090FBF1F101EB4101401A704710463946BB
:1014B00003F07EBFDDE9002303F08ABE3A464B46C7
:1014C00003F086BE01464FF07E5003F083BF306FBD
:1014D00003F0BCBD5146504603F0B8BD4FF07C51FF
:1014E00003F0B4BD0090716A084603F0AFBD0090F0
:1014F0004946484603F0AABD02460B4650465946A7
:1015000004F0B0BF0022DFF89C3B05F07DB800007E
:1015100054020020980B00205A0700200000C84207
:10152000000080BF00007A430000FA430100803FC2
:10153000B0050020FCA9F1D24D62503F00004040B0
:101540000050C347399D52A246DF913F182D4454A5
:10155000FB210940DB0F4940FB2119C0F8C1631A88
:10156000DCA54C40E17AB43F6F12833A3D0AD7A321
:10157000703DF2BF02460B464046494605F068B949
:1015800002460B46DDE9000105F062B90746284630
:10159000294603F05BBD02460B462046294604F06F
:1015A00061BF02460B464046494604F05BBF894690
:1015B00050F82700FEF742BD804689465046FEF7A8
:1015C0003DBDCDE900013846FEF738BD2DE9F04FAD
:1015D00005469BB0DFF8D00A249E259F446ADFF8B9
:1015E000CCBA8946816903919246C16902919846B5
:1015F000016A0298019100F0CFFB80F0004000905A
:10160000494600F0D5FB00F0B3FB0090514600F0D6
:10161000BCFB00F0ADFB00F0F3FC0E90294600F09F
:10162000B8FB009000F0C3FB00F088FB0090494637
:1016300000F0ABFB00F09CFB00F0E2FC0D90494693
:1016400000F0A7FB0090514600F0C6FB00F090FBB5
:101650000090294600F099FB00F070FB00F0D0FCF0
:101660000C9000F095FB8246029800F09DFB00F084
:1016700068FB8146019800F08FFB0146484603F065
:1016800055FD00F0BDFC0B900021404605F052F9DD
:1016900008D1304605F04EF904D1384605F04AF934
:1016A00000F0E882DDF8A090279DDDF898A000F01A
:1016B00096FB8346304600F0ACFC00F039FB8346D5
:1016C00000F083FB00F034FB00F0A5FD83464046AC
:1016D00000F096FC18905946304603F0B7FC249071
:1016E0005946384603F0B2FC2590FFF7F3FE064654
:1016F000FFF74DFF00F01FFB064600F054FB00F023
:101700001AFB00F088FD0646504600F082FC269049
:101710003146284603F09AFC054600F079FC8146E4
:10172000039900F03CFB0646269800F072FC0890F6
:101730002946304603F08AFC8246304600F034FBEE
:101740008346029900F02BFB0746269800F03EFBEB
:1017500017960A978046019900F021FB07460997E2
:1017600000F051FC1690314600F022FB1590214606
:10177000384603F06BFC1990039900F01DFB0690AE
:10178000039900F029FB1090039900F011FB0F90D2
:10179000214600F0FEFA1390029900F00DFB049030
:1017A000029900F005FB1290214600F015FB059010
:1017B000019900F001FB0646019800F026FC11900B
:1017C000214600F0E2FA07462699069803F03EFC0F
:1017D00000902146FFF77FFE00F0CAFA00905946BC
:1017E00000F0E6FA00F0AAFA00902699049803F0B7
:1017F0002DFC00F0A3FA0090294600F0C3FA0199ED
:1018000003F024FC00F09AFA0090494600F0BAFA7E
:1018100000F0FBFB00F092FA00903146269803F0AE
:1018200015FC00F0A5FA00903946269803F00EFC4E
:1018300000F09EFA07902146089803F007FC0090FC
:101840002946069803F002FC00F078FA0090594609
:1018500000F0C2FA00F08CFA8346019800F0C0FA5A
:1018600000F066FA8346049800F096FA00F07CFADD
:101870008346284600F0CDFB00F05AFA83460998CB
:1018800000F092FA00F0C1FB00F052FA83462846BD
:1018900000F09CFA00F068FA079900F08CFA0090CA
:1018A0005946584603F0D2FB00F048FAFEF7C6FB53
:1018B00005F04EF803F048FD8346029800F081FAE7
:1018C0008246089900F074FA00F045FA82460698BC
:1018D00000F06AFA00F035FA8246404600F095FBC7
:1018E00000F02FFA8246049800F05EFA00F033FA16
:1018F0008246099800F050FA00F087FB00F021FAC8
:10190000824600F085FB00F026FA8246484600F049
:101910005DFA00F016FA82464FF0804000F070FB4E
:101920001490514600F03BFA80460F99059804F058
:1019300027FD00F065FB00904FF07C50049903F008
:10194000F5FB314603F0F2FB00F03BFA00F0F6F94C
:10195000494603F0EBFB0890139900F0F9F900F009
:101960004FFB81461099119804F00AFD00F029FA06
:1019700000F005FA294603F0D9FB079031464FF0F5
:101980007C5003F0D3FB394603F0D0FB00F038FB6A
:10199000054605980F9903F0C9FB00F012FA00F014
:1019A000EBF906904FF08040059903F04FFB074696
:1019B0001598394603F0BAFB189904F0E1FC13902E
:1019C0004FF08040109903F041FB199904F0D8FCC6
:1019D000249903F0ABFB0590594600F0E9F9054660
:1019E000029800F0EEF9129000F0E1F911900599DB
:1019F00000F0C8F981461399099803F027FB00F01D
:101A0000BEF981462698069903F090FB119903F0E0
:101A10001DFB00F0B4F98146584600F0F6FA00F0DC
:101A200096F900F0EAFA00F0AAF98146089800F069
:101A3000B3F900F0A4F981464FF0804000F0E9FAD4
:101A40000646049900F0ABF900F0CEFA01463046A4
:101A500003F06CFB259904F093FC1090384615991F
:101A600003F064FB189903F061FB0F9000F090F90C
:101A700004902146FFF72FFD82460F99169803F038
:101A8000E5FA07460599179803F0E0FA00F05CF9CB
:101A900007464FF08146029800F0BBFA109903F018
:101AA000D5FA00F051F9074600F05AF900F089F92B
:101AB00000F04AF90746049800F05EF900F09DFA3C
:101AC00000F042F90546584600F09FFA0746029892
:101AD00000F086F900F08DFA089903F0B7FA00F0EB
:101AE0004BF90546039800F08BFA0746029800F080
:101AF00087FA83460599169803F0A8FA009013997F
:101B0000179803F0A3FA00F019F90090314600F09D
:101B10004FF9109903F09AFA00F010F90090149917
:101B200000F046F9049980F0004003F0FFFA00F05D
:101B300016F900F06EFA00F001F90646584600F07A
:101B400000F900F05AFA00F0F6F80646019800F0A5
:101B500047F900F04EFA089903F078FA00F0EBF834
:101B600082460F9900F00EF906460599099803F090
:101B70006DFA00F0E0F88046149800F046FA00F0A4
:101B8000E6F800F0ECF800F044FA00F022F906461E
:101B90001198394603F0CAFA0799DFF8147503F073
:101BA00055FA00F0C8F80646089800F029FA00F047
:101BB000C2F8804600F0F7F80646FFF7E8FC00F0B0
:101BC000BAF800F0FCF800F0B6F8064600F007F9A5
:101BD00000F0B1F800F01FFB064600F019FA00F023
:101BE000F5F801460E9803F0A1FA0E90314628460A
:101BF00003F02CFA00F0EAF801460D9803F096FA8B
:101C00000D903146FFF767FC00F0E0F801460C98B4
:101C100003F08CFA0C903146404603F017FA00F0BE
:101C2000D5F801460B9803F081FA0B900E98FEF759
:101C300005FA024621F000430020894904F008FE1D
:101C400005460D980E46FEF7F9F900F06BF80546CB
:101C50000C980E46FEF7F2F900F064F805460B9872
:101C60000E46FEF7EBF900F05DF803F06DFBDFF8D0
:101C700038144867DFF83004066F0E9800F0C9F991
:101C8000039904F07DFB05460D9800F0C2F9029916
:101C900004F076FB07460C9800F0BBF9019904F0BC
:101CA0006FFB82460B9800F0B4F900F09AF90446F5
:101CB000FFF76DFC064600F088F800F03CF800F0F5
:101CC0007EF800F038F80646204600F09EF900F055
:101CD00032F800F0A0FA0646284600F09AF9DFF83C
:101CE000C8138861384600F094F9DFF8BC23D0614E
:101CF000504600F08EF9DFF8B0130862204600F07D
:101D000088F9DFF8A42350621BB0BDE8F08F000013
:101D10006E1283BA9A99999999992340B81E85EBC6
:101D200051B8DE3F21F000412A46334603F050BA55
:101D3000594604F025BB314604F022BB009904F05B
:101D40001FBB514604F01CBB394604F019BB0146C9
:101D5000129803F0EBB90146504603F0E7B9064686
:101D60000698269903F0E2B90146584603F0DEB919
:101D70000146009803F0DAB9294604F001BB494650
:101D800004F0FEBA0A9803F061B9204603F05EB988
:101D90005146039803F05AB9294603F057B94FF05A
:101DA000804003F053B94846494603F04FB95146C5
:101DB000019803F04BB98346084603F047B906463D
:101DC0005046514603F042B982463846394603F040
:101DD0003DB9414604F0D4BA029803F037B9404601
:101DE000414603F033B92DE9F041032BA8BF02238C
:101DF00002DA002B48BF0123AE4FD7F824C0069E5D
:101E0000BCEB030348BFDB1C002E1CBF079D002D4D
:101E10004FF00C0E0ED0089C64B10EFB03F357F884
:101E20000380C6F800803E1DF6582E6007F10805B5
:101E3000EB5823600EFB0CF3F850381DC15007F12E
:101E400008000CF10101C250032091FBF0F000EBFF
:101E50004000081A7862BDE8F0810000CDCCCC3F8C
:101E60000000F03F0000A0409999993F3333D33FE1
:101E70002DE9F14F8C4FD7F81CB0D7F818A00C46BD
:101E80008AB015461E46504600F0BAF88046386AB9
:101E9000FFF797FF8146786AFFF793FF824658461F
:101EA00000F0AEF808905946386A03F0CFF8049075
:101EB0005946786A03F0CAF80390396AFFF77CFF45
:101EC0008346396A786A03F0C1F80290796AFFF7AD
:101ED00073FF01909DF8280058B17748FFF780FF05
:101EE00080467548FFF760FF81467348FFF769FF3A
:101EF000824607944FF08044149F059606955846F5
:101F000000F083F80546059800F07FF80090214620
:101F1000069803F09BF806464FF07E50294603F0E2
:101F200005F98346019800F070F8FFF71DFF00F0F7
:101F300064F883460498FFF704FF00F06AF8FFF79F
:101F4000F7FE83460398494603F0F0F8009903F042
:101F50007DF8FFF7EDFE38602146089803F076F82B
:101F600000F042F80746079800F04FF883460498BF
:101F7000514603F0DBF800F043F88246019800F088
:101F800044F800F036F8069903F060F8FFF7D9FE40
:101F900004460298FFF71DFF009903F057F800F080
:101FA00020F8159908604946039804F0E9F900F013
:101FB00027F804460298414603F0B8F800F029F8E3
:101FC00000F00FF804463846294603F0AFF80599AB
:101FD00003F03CF800F005F8169908600BB0BDE876
:101FE000F08F214604F0CCB901464FF07E5003F04B
:101FF0009DB80146384603F099B8079903F026B812
:10200000594603F023B84FF08040214603F01EB834
:102010004846314603F01AB82DE9F0420C461D46F9
:10202000114603F083F806462046FEF707F80246FD
:102030000B462248224904F0E7FA074689461E4823
:10204000FFF7E7FFFFF7E5FF0646FFF7DCFFFFF7C7
:10205000DCFF0146304603F0BDF9FDF7EFFF04F069
:10206000F1FC3A464B4604F0FDF906460F46284679
:10207000FDF7E4FF32463B4603F0AAF8BDE8F04224
:1020800003F062B90100C84118B7D1382D431CEBE9
:10209000E2363A3FAE47E17A14AEEF3F0AD7A3707B
:1020A0003D0AEF3F00000840540200208FC2F53E79
:1020B0009A99193FDC320020000080BF2BF697DD93
:1020C0009387D93F52656164792E0A0D00000000A4
:1020D00001B513460A460121684604F0FBFC02BD27
:1020E00038B55A4B1870581C002404E011F8015BF5
:1020F00000F8015B641CE5B29542F7D3521CD1B2E3
:10210000BDE83440184604F0C7BC2DE9F84F074637
:102110004F4C0020207060804FF4807801F012FD59
:1021200001F0F3FCF8064FF0010922D5002001F080
:10213000E4FE18B1207840F0100020700125E8B2CC
:1021400001F0DBFE80B16E1E608809FA06F10843DB
:10215000608045F08000C0B201F0CFFE20B1608801
:1021600008FA06F6064366806D1C062DE7DB01F0D3
:10217000CCFCB80639D5002002F005F818B120785B
:1021800040F02000207001254FF6FF770FF2C80BBA
:102190006E1E608809FA06FA10EA0A0F20D0E8B22B
:1021A00001F0F1FF40B92946584601F0C8FA6088AD
:1021B00087EA0A010840608008FA06F66088304223
:1021C0000ED045F08000C0B201F0DDFF40B92946D5
:1021D0000FF29C0001F0B3FA60887E4006406680F2
:1021E0006D1C062DD4DB01F090FC2078BDE8F28F49
:1021F00017480078704716484088704730B500226D
:1022000006E08418835C65788554921C6370D2B2B2
:102210008A42F6DB30BD10B501460E4CA4EB6104DA
:102220004FF07C5002F012FF214602F00FFF2146D2
:1022300002F00CFF01464FF07F5002F077FF21467D
:10224000BDE8104002F002BF000000009033002003
:1022500060340020DF59375F4465766963655B252C
:10226000645D204D616720646561642E0A0D000085
:102270004465766963655B25645D2D32204D616739
:1022800020646561642E0A0D0000000010B584B062
:102290000820ADF800000421ADF802109048914CE0
:1022A00001788900019168468F490A6890470028A3
:1022B00014BF00200298A060010008BF13200BD0BB
:1022C0004FF6FF7004F078FC0FF2202310220A2151
:1022D00004F12C0004F0D1FE04B010BD814A516815
:1022E00019B900B1506000207047112070470000FC
:1022F0003EB50B460025114604281A46794C2ED8C7
:10230000DFE800F0031A1F2D2400142B25D104F15F
:102310000C0005F001FA0FF285000290FF210A225D
:102320000191009204F12C03A068002204F10C0139
:1023300004F05CFC054613E0012B0ED108782070F8
:102340000EE0012B09D10878607009E00C2B04D154
:1023500004F1200005F0E0F902E0182500E0022574
:1023600028463EBD10B500240B4604285D4912D80E
:10237000DFE800F0030608110B0014220C3106E020
:10238000087800E04878187006E00C2220311846E2
:1023900005F0C2F900E00224204610BDF8B50D4654
:1023A0000026287AC10617461C4601D50820F2BD32
:1023B000069808B10B20F2BD6946284605F0FFF9E2
:1023C000012802D126800120F2BDBDF800004AF6A6
:1023D0003121401A05D0401E012806D9801E0AD09E
:1023E00011E014202080142208E001202080E868F9
:1023F0000178397009E00C2121800C22E968384607
:1024000005F08AF901E026800A263046F2BD2DE962
:10241000FE430E468046307A0024810691461F46D0
:1024200048BF08202BD402A9304605F0C8F901287E
:1024300025D0BDF808100A982A4D42F60212891AD2
:1024400041D048F22F12891A18D0491E04D0491ED3
:1024500017D0491E25D041E040BB012F24D1F1689F
:1024600099F800000870F068A84207D10122686856
:1024700000281FBF01680029104688472046BDE894
:10248000FE8398B9012F0FD199F8000008B9802474
:10249000F4E7F1680870691CF0688842EED1022206
:1024A000E5E718B90C2F03D00D24E7E70B24E5E787
:1024B000F06805F120018842E0D10C22494605F080
:1024C0002BF90422D3E70121019100903B464A46B3
:1024D0003146404604F0F6FB0446CFE70A24CDE738
:1024E000C00B00200C060020980B00209D2300004C
:1024F0000F24000000000000DFF800F013C10110FD
:10250000DFF800F0F5C00110DFF800F049BA011063
:10251000DFF800F025C20110DFF800F0C1C20110A1
:10252000DFF800F0E3BF0110DFF800F0B5C10110E3
:10253000DFF800F0D5C00110DFF800F095C0011001
:10254000DFF800F00DA80110DFF800F0BDBE0110AB
:10255000DFF800F021C10110DFF800F02DBF0110FD
:10256000DFF800F0E1B50110DFF800F0D5C201108E
:10257000DFF800F0D9C20110DFF800F0F1C501105A
:10258000DFF8DC00007D704738B5DFF8DC00DFF8ED
:10259000D4500068EFF3118480F31188A8680021FB
:1025A000FFF7CAFF6969081AA969814238BF00208C
:1025B00084F3118832BD00002DE9F041DFF8A80056
:1025C000DFF8A0400768EFF3118887F31188A0684F
:1025D0000121FFF7B1FF0121A1830021E18365699A
:1025E00021682268461B801A691A884204D200209A
:1025F000A08388F311882AE088F31188002005E081
:102600004519361A29460120FFF79AFF8642F7D26C
:10261000EFF3118887F31188E18B012903D1294653
:102620000020FFF78DFFA16910F1010F08BF0846D8
:1026300003D0801B814238BF08464119FFF784FF51
:10264000012020840020A083256088F31188BDE844
:10265000F08101617047808A7047FFF765BF000015
:10266000A40100207801002034D700000446DFF8E0
:10267000CC000068704700002DE9F84F04460D4675
:10268000FFF73EFF0646FFF7F2FFEFF3118780F3F7
:102690001188D4F80880A84502D187F3118847E053
:1026A000002DDFF8A49007D5DFF8C40000684FF0D4
:1026B000000A00EB090B06E0012000FA05FAD9F840
:1026C000180000EBC50B207D012822D12046FFF722
:1026D0003FFF206CFFF710FF28B1D9F80400E16834
:1026E0008843C9F80400D9F81000A04207D1C9F8FE
:1026F00014B02146DBF80000FFF7AFFF03E02146EE
:102700005846FFF711FFD9F804004AEA0000C9F85B
:102710000400A560C4F80CA0C4F840B0002D44BF6C
:102720000020C9F814000120A9F8080087F31188D7
:102730003046FFF7E9FE4046BDE8F28F34D700008F
:10274000DFF83010096870470001002010280ED310
:10275000A0F11002DFF82010520901EB82011038BD
:10276000012200F01F0002FA00F0C1F88002704759
:10277000E805000034D7000000E000E005F036B8BE
:1027800080B5002301223421DFF8E80905F0ECFAD6
:1027900000B10120C0B202BDDFF8BC1A0A680028EF
:1027A00012BF42F00100500840000860704700006E
:1027B0007047FEE710B582B0042005F009FB02283F
:1027C00018BF03280DD1032000901C234FF0405266
:1027D0000021DFF8A00905F0A4FABDE816400420A6
:1027E00066E0DFF89419DFF8940A09680C18DFF83E
:1027F0008C19DFF88C0A0968B0FBF1F12046FFF76D
:102800008BFE2046BDE81640FFF78ABE80B5DFF894
:1028100070090078DFF86C0901688908890041F0C7
:102820000101016005F0E1FA05F06BFBDFF85819D2
:10283000002008600220DFF88C190968C968884701
:10284000DFF8540A016849084900016000F017FAEE
:10285000042000F00FF900F0B2BC000000220129B2
:1028600004D1012807D1DFF8600903E0012802D173
:10287000DFF82C0A026810467047DFF8000A00797A
:102880007047000005F0C6BA10B5DFF83C160968BD
:10289000EFF3118481F31188DFF8E019C988012072
:1028A000012908BFFFF76CFF84F3118810BD0000F9
:1028B00030B5DFF81416DFF888390A68EFF31181B4
:1028C00082F31188B0FA80F2C2F11F02D25CB0FA32
:1028D00080F4C4F11F04551EE55405D1DFF89C298E
:1028E000136823EA0000106081F3118830BD0000F6
:1028F0002DE9F041FFF724FFEFF3118481F31188F4
:10290000DFF88019425C531E435444D1DFF8781934
:10291000DFF8788901EB80052E786F88300618D5AE
:10292000D8F80010096A38468847D8F80010896A34
:1029300038468847D8F80010096B38468847DFF8D2
:10294000501901200860DFF84C0900688007FAD5AB
:1029500014E0700606D5DFF8B01951F827100020F2
:1029600088470BE0D8F80010896938468847D8F8BE
:102970000010496B384688470228F8D106F03F001E
:102980003F2818BFFFF7B4FF687800F03F003F28EA
:1029900018BFFFF7ADFF84F31188BDE8F08110B5D3
:1029A00008B1140001D1032010BD8160C260036131
:1029B0000146DFF8E828DFF84C0912681018FFF725
:1029C000CBFD002010BD0000F8B50446DFF8F80488
:1029D000DFF8B0180068EFF3118580F31188625CAE
:1029E000531C6354002A3ED1DFF89C1801EB840786
:1029F000387800F03F003F2818BFFFF7E5FF7878F0
:102A000000F03F003F2818BFFFF7DEFF7E883878D0
:102A1000DFF87878010613D53968C96930468847E8
:102A20003968496A304688473968C96A30468847F4
:102A300000F038F8DFF85C0800688007FAD512E08B
:102A4000400606D5DFF8C01851F826100120884747
:102A500009E039684969304688473968496B30462A
:102A600088470128F9D185F311882046BDE8F24056
:102A700005F060BCDFF850140A68EFF3118182F3AF
:102A80001188DFF8F827136803431360B0FA80F069
:102A9000C0F11F00DFF8A827835C5B1C835481F31F
:102AA00011887047DFF8E8170120086070470000C0
:102AB0002DE9F04F83B04FF0000800210128C146F6
:102AC0008A4618BF022412D1DFF8FC03DFF83478FD
:102AD0000268EFF3118082F311883A79012A06BF68
:102AE00002223A71012180F3118809B10624BDE068
:102AF000FFF706FD0090012000F0E6F8040002D088
:102B000001203871AFE0FFF713FDDFF828180190BE
:102B1000C1F80090012005F05BF9012804D10020E4
:102B200005F0E8FB4FF00108DFF8E047DFF8545705
:102B3000216889680020884700F0A1F8687C08B106
:102B40004FF00109287C08B149F00209E87B08B17F
:102B500049F00409E87ADFF8306718B1A16AF08D0E
:102B6000096B8847A87A18B1A16A708D096B8847EC
:102B7000FFF798FF49F02000A16A89698847012082
:102B8000FFF70AFE3878C00748BF4FF0010A12D499
:102B9000DFF89807FDF7AAFA8346BBF1040FF7D0D8
:102BA00000F067F88008800008600321A26CDFF85D
:102BB0007C0752689047002005F0F6FB00F05FF8B4
:102BC000A06A806B8047BAF1000F0AD1A26CDFF8CF
:102BD0005C0752685946904700F04BF840F00300FC
:102BE00008600120216889688847DFF84407006889
:102BF0008006FAD5B8F1000F1CBF012005F07AFB62
:102C0000A16A496948468847A16A496B484688478E
:102C10000128F9D1E87A18B1A16AF08DC96A88470C
:102C2000A87A18B1A16A708DC96A8847FFF73AFF80
:102C30000020FFF7B1FD03203871042000F044F8B4
:102C4000DFF8F0160120086000F019F805F0BAFC72
:102C5000082000F039F80446012038710198FFF788
:102C60007FFC05F03AFC0098FFF74EFC2046BDE8DB
:102C7000FE8FDFF8D006DFF8CC1600687047DFF86B
:102C8000A80600687047000038B58F48DFF8745612
:102C90000068EFF3118480F31188E888012803D1DC
:102CA00005F00CF90020E88084F3118831BD0000A4
:102CB00010B5FFF745FDEFF3118481F31188FFF79D
:102CC00047FC84F3118810BD38B500F02AF80818C5
:102CD000FFF712FC002540B9204600F008F820B1AB
:102CE000DFF86806006880470225284632BD70B5C7
:102CF00000F017F80D182846FFF736FC0646B068B6
:102D0000204206D03169F26820469047C0B20128BF
:102D100006D03046FFF72CFC0646AE42EFD100202D
:102D200070BDDFF8781509680446DFF8D8057047EC
:102D300030BF704770B505F041FCDFF840552E6894
:102D400006F00C000C284BD0700727D4FFF71CFCB2
:102D5000044600210120FFF781FDA0421ED2DFF8CA
:102D6000C00300684519DFF814040668DFF8D805C9
:102D70000068B0FBF6F0211A2846FFF7CDFB284685
:102D8000FFF7CEFB4FF47A70B0FBF6F20021012082
:102D9000FFF78EFE2846FFF7BBFB23E030071FD46A
:102DA000DFF8F404DFF8E444DFF87C55F10601684D
:102DB0005ABF4908490041F001010160DFF884056C
:102DC000016841F00301016020202168896988477A
:102DD00028682068806B804701202860286801E00F
:102DE000FFF7A6FF05F0EEFBBDE8704005F0A0BBC5
:102DF00010B50C1805F0E2FB401E8041C00FDFF853
:102E000060150A68002AFCD0246801220A6008B113
:102E100005F0D8FB204610BD80B50420FFF72AFE40
:102E20000820FFF727FE0E20FFF7CEFDDFF8200574
:102E3000DFF820150068C0F3815003280CBF012083
:102E400000200880DFF8100502680AB1012002BDE9
:102E5000DFF8103540221A600122C261002048606C
:102E600002BD10B5DFF85C13DFF8F04482B00968EA
:102E70000968202088470F202060072341F61D5055
:102E800060604FF4C0720220009000F0C9F8DFF8D3
:102E9000D8040121016001688907FCD50121216165
:102EA000DFF8B0442188012907D100210161022007
:102EB000202100F091F8012004E00121002000F021
:102EC0008BF80220606013BD34D700002DE9F0417B
:102ED000DFF89804DFF87C4482B0016842688A43D6
:102EE000426001616068002804BFBDE8F341FFF75C
:102EF000B8BF0128DFF878141AD102206060086892
:102F00004BF2F52148436188000A11B1002161802C
:102F100006E0DFF860140968090210EB1120400890
:102F2000DFF854140860000C4860012088600CE051
:102F300002280FD10868B0F5C06F02D10020606090
:102F400045E00321616000F06FF80121BDE8FC411C
:102F5000002041E003283DD1002060600868A0F512
:102F6000C065A06800F0B2F80646284600F0AEF84A
:102F700086422CDAA669284600F0ACF88019A061D8
:102F8000E56860697B4E85420ED0A769A7F1100005
:102F900000F09CF880462069103800F097F88045D2
:102FA00002DABFB200970BE0ADB2009508234FF4F0
:102FB0007F423021304604F0B4FE206980B2009098
:102FC00012234FF4F8020421304604F0AAFEBDE8B3
:102FD000F3418AE0BDE8F38170B50D46DFF89C430C
:102FE00082B0032121600021DFF8946331603168F1
:102FF0008907FCD480B200900523602200F010F80D
:103000000120306030688007FCD5A5610020206079
:103010000821DFF85003C16001600120206073BD0A
:103020000021544804F07DBE70B50646514C82B074
:1030300030212046FFF7DCFEDFF81853C0F30720ED
:10304000E86004212046FFF7D3FEC0F384402861E6
:10305000A6F5C060A8602E6900F03CF88019A86150
:10306000A969E868022909DA401E6FF03F03984217
:10307000B8BF184610310BD5002109E01E2908DB26
:10308000401C4028A8BF3F2010392029A8BF1F217D
:10309000A9616861082380B200904FF47F4230211B
:1030A00000F011F80120009011234FF4003200F0DD
:1030B00009F8A86980B2009012234FF4F80200F0DA
:1030C00001F873BD0421204604F02BBE002848BF40
:1030D0004042704700284CBF6FF00101022101EB14
:1030E0004000032190FBF1F0704780B5DFF87802D3
:1030F0000021016001688907FCD400210160416062
:103100000120DFF8541208600E20FFF7F1FB0820C1
:10311000FFF7CEFBBDE802400420FFF7C9BB00006B
:1031200018D7000010B504460020D4E90A2347F65A
:10313000906105F04FFA012928BF4FF0FF3010BD14
:1031400010B50C4605F0BEFA011D201AB0F1004F73
:1031500005D8081BB0F1004F38BF8C4200D20C4696
:10316000DFF820221268526A2146BDE81040012093
:103170001047000000A00C401CD7000038D700000A
:103180007034002004400340401009402DE9F04114
:1031900080460A46D8E90A01D8E90C45A0FB026737
:1031A00001FB0277A6196F41340C002244EA074163
:1031B0004046FFF7C5FFC8E90E67BDE8F0814FF054
:1031C000FF3002BDA001001028D70000F8B5054669
:1031D000DFF8B801DFF8B8610068DFF8B871EFF325
:1031E000118480F31188306840F080003060012045
:1031F000B96849688847F96A096A142088472869C4
:10320000B0F5802F34BF0421010CBA68526A012046
:1032100090473A681268232100209047B968C9692D
:1032200001208847306820F4E02040F4803030608E
:10323000306840F00100306084F31188F1BD000077
:1032400034340020DFF85401036840680022002174
:1032500010185941704700000C200840DFF8241175
:10326000DFF8240110B509684468496801208847DF
:103270006069A169BDE8104008470000880F002080
:10328000A0860100C4330020A4D20000B8010010C1
:1032900028200860282008408C21084020D7000002
:1032A0002CD70000F8B504460D46FFF7CBFFD4E954
:1032B0000A6732463B4605F08DF93DB1A6FB002377
:1032C00006FB013307FB0033C4E90C23F2BD38B51C
:1032D000DFF8BC40DFF8C0502068400840002060A4
:1032E000206840F0800020600120E062E06A2968E8
:1032F000496801208847696A096A14208847E06A9A
:1033000031BD0000880F0020A80D002090010010A2
:1033100080B500F004F8000C40EA014002BDDFF87F
:10332000800000688EE700002C2009400040034028
:10333000141009400C40094009B9DFF86810FFF784
:103340001BB900002422084030D7000024D7000019
:10335000B43F00506C0F002004800C400C400C4027
:1033600000800C402C500C4034600C4028500C4025
:1033700008400C40102009403C600C4000400C40CC
:1033800038600C408C010010E401002034D70000AC
:1033900000200940840100108C0100100820094021
:1033A000EC010020A0010000DFF8FC14096821B145
:1033B0000A898242FAD1084670470020704700BF50
:1033C00013B5044604F0CFFF18B1002000F002F856
:1033D00006E008E0009001AB22464FF0FF31704755
:1033E00000F00DF816BD4FF0FF3016BD00F007F8E5
:1033F0000EBD08B582B00023009302ABF6E777B5A7
:103400008DB01C461498ADF8180000250F9828B907
:103410002FE10EAA0DA800F07BF96D1C00F034F925
:10342000080000F020812529F3D100F02DF92D2985
:1034300005D10120ADF8060000F026F902E00020D9
:10344000ADF80600302904D10120049000F01CF9E9
:1034500001E000200490002000904FF0FF30029027
:103460000A202A2918D12168216051F8042B2160F3
:10347000009200F01AF9009A002A11D50122ADF845
:103480000620009A524200920AE0009A00FB0211C4
:103490003039009100F009F9A1F130020A2AF4D381
:1034A0002E291DD1002102910F990F9A0978521CE3
:1034B0002A290F9210D100F0F2F80291002944BF9E
:1034C0000020029000F0E0F80AE0029A00FB0211EE
:1034D0003039029100F0E9F8A1F130020A2AF4D360
:1034E000049808B1009804906C2918BF4C2905D1A4
:1034F0000120ADF8040000F0C7F802E00020ADF8AC
:10350000040008A807900CA80590002003906429E7
:1035100018BF69290DD1BDF818000028FFD000F0B0
:10352000B8F86FF009030298049A8242B8BF049079
:1035300019E00A2375291FBF1023782908236F2952
:1035400003D1BDF8180038B906E0702913D10493EF
:1035500020682060016814E000F09BF8049A02984B
:103560008242B8BF0490049A059800F0A4F807902E
:103570000599081A2FE0632919D120682060016895
:103580000FE0001D206010230598082200F093F83A
:10359000401E079040200799087005980799401A27
:1035A00019E0001D206007980170012013E07329C5
:1035B00013D100F074F8079111B90FF2BC00079015
:1035C000079805F091F80390029810F1010F1ED0B2
:1035D000039988421BDA039019E00F98401E0F9060
:1035E0000E98022813D3029810F1010F02D00E9901
:1035F000884201D30E9800E0401CDFF8B4623668C0
:1036000002906B4622460FA90DA8B04745190098B5
:103610000399401A0090BDF8060038B902E000F0A6
:103620002FF86D1C0098401E0090F8D50398411E9D
:10363000039150B10798401C07900EAA10F8011D85
:103640000DA800F065F86D1CF0E7BDF80600002835
:103650003FF4E4AE0098401E00903FF5DFAE00F06E
:103660000FF86D1CF6E70D9810B10D990020087049
:10367000284610B070BD0000286E756C6C290000E3
:103680000EAA20210DA843E00F9810F8011B0F90FF
:103690007047206820600168001D20607047206826
:1036A000206050F8041B206070470F990F9A09782A
:1036B000521C0F927047F0B500240025002B44BF28
:1036C0005B42002902D54942521E2D25B1FBF3F67B
:1036D0000FF2280703FB1611641CC95D00F8011DD9
:1036E00031460029F2D19442BEBF302100F8011DBD
:1036F000641CF8DB0DB100F8015DF0BD30313233F0
:10370000343536373839616263646566000000001D
:1037100010B50C46116802290BD3491E11600168CF
:1037200019B14A1C02600C7010BD04F01CFE00B1FF
:1037300000E010BD2046BDE8104004F012BE0EB4FB
:1037400000B501A9FFF73BFE5DF810FBDFF864113F
:10375000096808470000DFF86001006800470120A1
:103760007047FEE7704710B50446606808B901204D
:1037700010BD0B460146206848A200F077F8A1680A
:103780004118A16061680129A4BF081A6060002087
:1037900010BD00003EB50D464249098814468142DD
:1037A000034628BF0FF21C1210D2404909888142FB
:1037B00007D3FFF7F9FD21464268284600F056F886
:1037C0003EBD3549098831B90FF204122146284619
:1037D00000F04CF83EBD394B0095002C48BF47F631
:1037E000FF740021029101946A461B68344998478E
:1037F00002983EBD2DE9F843170048BF47F6FF7712
:1038000004468846002664B3208818B13A46FFF77C
:10381000C1FF0646B91B012922DB208820B120A266
:10382000404600F023F88619A068C8B1656875B1F4
:10383000284604F059FFA7EB0609401D814506DB29
:103840002B460FF2A002494600F00EF88619B91B6C
:10385000122905DBA3680FF2940200F005F886191F
:103860003046BDE8F28300004046FFE708B478B573
:1038700004001ABF2668002E00260D4605AB304610
:10388000FFF7B7FD854238BF681E16B121684118A1
:10389000216072BC5DF808FB8A05000025730000FA
:1038A0003A20000012050000F80F002080040000FC
:1038B00044D700003CD7000040D7000048D70000A4
:1038C000673700007B6D6F64756C652325647D0030
:1038D0007B6D6F64756C652D726F70653A25787DB0
:1038E00000000000222573222C2000006C696E6508
:1038F0002025643A20000000DFF800F041AC011000
:10390000DFF800F085C10110DFF800F079B5011093
:10391000DFF800F0F5B80110DFF800F0A9C10110E0
:1039200000B583B00821ADF800100522ADF80220E3
:10393000019000F001F807BD68464F490A6810473A
:103940002DE9F04389B08046894617461D46109CF4
:10395000119E0823242200216846FFF7D1FF474922
:1039600006964FF47A700A68B0FBF2F0454305956D
:103970004743ADF810406B463A4649464046FFF78C
:10398000C3FF404609B0BDE8F083FEF7C9BD38B5B6
:1039900004460D46FEF75FFE10B12046FEF7B8FD67
:1039A00000F027F82046BDE83240FEF7B9BD80B5EB
:1039B000FEF751FE00B10120C0B202BDFEF7A8BD66
:1039C00070B504460D46FEF746FE20B12046FEF7D0
:1039D0009FFD012600E0002600F00BF82946204656
:1039E000FEF737FE26B12046BDE87040FEF798BDD1
:1039F00070BD224A10684FF47A71B1FBF0F0454374
:103A000029462046FEF788BD10B504460021FFF781
:103A10007FFF204610BD70B50C460421164684B0C9
:103A20000546ADF802100C2208200192ADF8000006
:103A3000FFF782FF58B9029949B18E602846FEF718
:103A400073FD14B12046FFF757FF012003E0304615
:103A5000FFF766FF002004B070BD10B50446FEF706
:103A60004BFD38B92046FFF757FF8468FFF758FF32
:103A7000204610BD002010BD980B002038D7000054
:103A800070B5054605F00F04062C15DA14B9682147
:103A9000012013E0DFF83468B07FA04207D000F0C7
:103AA00044F848B100F02CF8B47703F042F8AC4287
:103AB00014BF6921682100E0BBE00020BDE8704030
:103AC00003F015B810B500F00F04062C14DA20002E
:103AD00002D10C2101200BE000F027F860B100F0CA
:103AE0000FF8DFF8E807847703F023F80C210020B3
:103AF000BDE8104002F0FBBF03F01BF8002010BD32
:103B00000120A040C0B202F0D5BF10B5DFF8BC471D
:103B1000A17F49B100F009F810B1002002F0CAFFFE
:103B200003F007F80020A07710BD7021002002F0FC
:103B3000DEBF08E080B5042004F0DBFF012818BFD9
:103B4000002002BD00BF0020FFE770B5054605F06C
:103B50000F04AC421CBFA41DE4B2FFF791FF002884
:103B600058D0DFF868670020B077311930550873F6
:103B700001228020707706F11D016B20FEF7B0FA5C
:103B80003CB9002000F04EF8052000F044F8002079
:103B900006E0042000F046F8062000F03CF804207F
:103BA0007077012206F11D011920FEF799FA02F043
:103BB000C0FF284600F0A1F904002AD02846FFF7EC
:103BC0005FFF00B935E0707EC000B076012206F1DB
:103BD0001A011C20FEF784FAF07EC0003077012223
:103BE00006F11C011B20FEF77BFA02F0A2FFDFF8B2
:103BF000E0160A684FF4FA60B0FBF2F0FCF7FEFC46
:103C0000284600F041FA284600F08FFA284600F0D6
:103C100002FA204670BD7077012206F11D011D20B9
:103C2000FEF75EBA7077012206F11D011A20FEF739
:103C300057BA02F07EFF002070BD3F20607701225E
:103C400004F11D016C20FEF74BBA10B582B004469A
:103C500000208DF80000FFF76DFF18B902F069FF32
:103C6000002016BD00F043F948B1012269463A2010
:103C7000FEF72EFA08B98DF8000002F05AFF9DF801
:103C8000000016BD2DE9F04D82B08A468046FFF750
:103C900051FF08F00F0500282F4642D0062F40DACA
:103CA000BE1DF6B2474518BF3746DFF82046E05D37
:103CB000E8B9BAF1000F1AD0AB46C34518BFB346F6
:103CC000FFF738FF88B14046FFF7DAFE78B100F021
:103CD000B9F950B1FFF7B1FF002104F80B1020B182
:103CE00000F043F808B100F046F802F022FF04F8B3
:103CF00007A0E05D002833D0454518BF3546404653
:103D0000615DC9436177FFF7BBFE60B3FFF797FFC3
:103D100002F00FFF655DAD09FFF70CFF05F001052F
:103D200010B902F006FF1EE00121404600F092F9B2
:103D3000C8B14046FFF7C6FE58B1002D19BF162086
:103D40008DF8000000218DF8001000F0B9FA02F0A3
:103D5000F0FE5FEA080006D0002100F07BF902E0E7
:103D6000404600F058F9BDE8F38D012204F11A0134
:103D70001C20FEF7B5B9012204F11D013A20FEF71F
:103D8000A7B9F8B5DFF844750546787E0126012409
:103D9000A84201D10120F2BDE800B876FFF7CAFEC3
:103DA00018B902F0C6FE0020F2BD00F028F8002885
:103DB000F9D0012207F11A011C20FEF791F900F059
:103DC00063F8002CEFD07D760124204600F005F842
:103DD000641C062CF9DB3046F2BD10B500F030F95A
:103DE00000B989E600F083F840B10122DFF8E4145D
:103DF0001C20FEF775F900F05EF8204610BD00208B
:103E00003EE638B504460D46FFF794FE00B970E073
:103E100000F06DF868B1062229463B20FEF758F9FC
:103E200000F049F8200003D006212846FEF7E6F905
:103E3000204632BDF8B5DFF894740546F87E0126B9
:103E40000124A84201D10120F2BDFFF773FE18B989
:103E500002F06FFE0020F2BDFFF7D1FF98B1E8003D
:103E60003877012207F11C011B20FEF739F900F019
:103E70000BF804B1FD760024204600F00AF8641C1B
:103E8000062CF9DB3046F2BD08B90026002402F00A
:103E900050BE10B500F0D4F800B92DE600F027F8B8
:103EA00040B10122DFF830141B20FEF719F900F0B1
:103EB00002F8204610BD044602F03BBE38B5044669
:103EC0000D46FFF737FE00B913E000F010F868B1B7
:103ED000062229464320FEF7FBF8FFF7ECFF2000FF
:103EE00003D006212846FEF789F9204632BD204638
:103EF000C6E502F01EFE002032BD10B500F0A0F8AD
:103F0000A8B1FFF7F4FFB0B1DFF8C043207E28B1BD
:103F1000002121764CF2503000F00EF800F014F839
:103F20007520FEF7D5F810B1607F712800D0E3E569
:103F300002F0FFFD012010BDDFF894130A68B0FB0A
:103F4000F2F0FCF75BBB6077012204F11D017047C2
:103F50000000000080B504F02BFEDFF87023537ED4
:103F6000032B13D8DFE803F002060A0E0022DFF865
:103F70006C330AE00022DFF8683306E00022DFF845
:103F8000643302E000224FF07D5339E0002002BD8F
:103F900080B5DFF83823D37E032B27D8DFE803F082
:103FA000020A121A04F004FE00F030F80022DFF8D2
:103FB000383316E004F0FCFD00F028F80022DFF8AA
:103FC0002C330EE004F0F4FD00F020F80022DFF8BE
:103FD000203306E004F0ECFD00F018F80022DFF8D2
:103FE000143302F03FFA01F0AFF90146084602BD72
:103FF00080B504F0DDFD00F009F80022DFF8F832AA
:1040000002F030FABDE8044001F09EB900224FF002
:104010007C5302F027BA10B500F012F858B1062C04
:1040200009DAFFF764FF50B1A84CFFF706FE10B1A4
:104030004F2000F008F8BDE8104002F07ABD10BD36
:10404000044677E509206077012204F11D016B2009
:10405000FEF746B810B50C4600F00F01062900DB4C
:104060004AE5FFF70DFD60B1202004B122209749F9
:10407000487701221D313720FEF732F8FFF71BFF8A
:1040800000E00024204610BDF8B5FFF7D9FF04F08A
:104090000F0618B9BDE8F14002F04BBD00F06EF814
:1040A000002829D0A6421CBFB61DF6B200F063F866
:1040B000F0B1864D914F0F20687700F028F800F09E
:1040C0001CF8032239461020FEF702F860B1387858
:1040D00005EB46018030088407EB46007978803193
:1040E0008180B9788031818300F017F802F021FDDA
:1040F0002046BDE8F44044E0F1BD75490A6842F24B
:104100001070B0FBF2F0FCF779BA16216977012242
:1041100005F11D010A20FDF7E3BF012068770122A8
:1041200005F11D010B20FDF7DBBF70B5FFF788FF20
:1041300004F00F0618B9BDE8704002F0FABCA642C0
:104140001CBFB61DF6B200F019F898B100F013F8D4
:1041500058B15E4DFFF7E1FFFFF7CFFFA85D4106C5
:1041600001D5FFF7D2FF02F0E4FC200002D0BDE849
:10417000704006E070BD2046FFF7A4BC0121204638
:1041800068E7002166E738B5FFF75AFFA0B1FFF7EF
:10419000F5FFD0B1FFF7EFFF4D494C4DFFF7AEFFF4
:1041A000FF206877012205F11D010020FDF790FF37
:1041B00010B1687F482800D09BE602F0BAFC2000CE
:1041C0001CBF0021FFF746FF012032BD2DE9F04161
:1041D000804608F00F04062C84B00F460ADA4445E6
:1041E0001CBFA41DE4B2394D2E1906203073FFF711
:1041F000A1FC18B902F09DFC00205EE000203073A5
:104200005FEA08000AD00121FFF724FF10B905205A
:10421000307301E0307B08B101204EE04046FFF7EB
:1042200051FC012269460220FDF752FF002835D0DB
:104230009DF80000C1072FD5072201A90320FDF733
:1042400047FF38B301A881790A0720D4BDF80410CC
:10425000398005EB4405B0F902207A80B0F90410EA
:10426000B980B7F90030B5F9200043431B123B80F9
:10427000224B1D1D35F91400424312127A8003EBC4
:104280004402B2F91C0041430912B98008E003213D
:10429000317305E0042002E0022000E001203073C9
:1042A00016208DF8000000F00BF802F042FC1CB163
:1042B00000214046FFF7CEFE307B04B0BDE8F08120
:1042C000012269460A20FDF70BBF00006C0D00209B
:1042D00038D70000860D0020880D00200000103F18
:1042E0000000203F0000303F00406F4000407F4012
:1042F00000408F4000409F4000C0B240503200203C
:1043000010B504F067FC002420B104F096FC0446CC
:1043100004F06DFCDFF88C28506891680843D16880
:10432000084303D154609460D46015E01078401CB9
:10433000C0B2032190FBF1F101EB4101401A107072
:10434000101D137840F82340516890684118D068D8
:1043500041180322B1FBF2F4204610BD00B58FB026
:1043600008233C2200216846FCF740F9DFF83C08AE
:1043700000F1500107914FF440720121089206911B
:1043800000236A460FF22931FCF734F90FB000BD63
:1043900030B585B002F0D0FB04F066FC04F02AFCD6
:1043A00004F02BFD0FF25150DFF8FC5704F01DFD17
:1043B0000FF2495004F01DFDDFF8F40704F092FD00
:1043C00030B94FF4804004F0E8FE0120E87403E0C7
:1043D0000FF2EC70FFF7B3F90FF6242105F1580046
:1043E00004F0E0FA286518B90FF60000FFF7A7F906
:1043F0006FF07E00687401210020A874ADF80210EF
:104400000820DFF8B0170A68ADF80000684690474A
:10441000BDF8040028830298E86405F18800FFF7DE
:10442000F3FA6865002104200190009100234FF405
:104430007A720FF2F56105F16400FFF781FA01214C
:104440001F2002F041FF0021ADF80C1001208DF873
:1044500001008DF800000821ADF80A104FF44870F3
:10446000ADF808000021ADF806106420ADF8040096
:104470000121ADF802100DF1010240F2053004F007
:10448000A7FE03AA022140F2063004F0A1FEDFF8E5
:10449000282700F019FB2A460E2140F2073004F0CD
:1044A00097FE6A4601214FF4447004F091FE0DF12D
:1044B0000A02022140F2113004F08AFE02AA02210F
:1044C00040F2123004F084FE0DF10602022140F2A7
:1044D000133004F07DFE01AA02214FF4457004F070
:1044E00077FE0DF10202022140F20F3004F070FE5F
:1044F0000FF6BC020A21002002F0DFFDA0210620F9
:1045000002F0E2FEA021072002F0DEFEA02108203A
:1045100002F0DAFEA021092002F0D6FE4FF0FF30B3
:1045200002F0C8FD4FF0FF3002F0A4FD05F0F4FAF0
:10453000FF22302105F11C00FBF7BAFD05F11C023A
:104540003021802003F09EF848B10FF2D470FFF7BD
:10455000F6F805F11C023021802003F0A8F80020B5
:104560006875FFF7CDFE00F09EF940F67562904247
:104570000FD20FF28C60FFF7E2F80A2400F099F9ED
:10458000641EFBD10FF28860FFF7D9F8022005F016
:10459000D5FB0B2003F062F80FF620021121012059
:1045A00005F0C2FA0FF6280422460521022005F084
:1045B000BBFA22460521052005F0B6FA0FF61802CF
:1045C0001421032005F0B0FA0FF62C020821042074
:1045D00005F0AAFA0FF614020921062005F0A4FA44
:1045E000012000F069F93020FDF78FFD0446302CE2
:1045F00006D100F05EF90FF22860FFF7A0F807E09F
:104600000A2100F057F921460FF22860FFF797F8CA
:10461000FDF7F1FD01460FF24060FFF790F8A88B1F
:104620004FF6FF71884204D10FF24860FFF787F818
:1046300027E080070CD405F120020C210420FDF7AF
:1046400057FE0420FBF7FDFFE88A40F00200E882F5
:10465000287F410715D405F12C020F21042005F015
:1046600049FC05F13B020F21052005F043FC042025
:1046700001F096F8052001F093F8E88A40F0040074
:10468000E88205F051FD01F05FF805F1940004F0B7
:104690006EFF002002F0B2FC288BC0B202F0ABFC2F
:1046A000286D0FF2E14104F02EFA05B030BD000094
:1046B0002DE9FE4FFFF76CFE0FF204610FF2F4508C
:1046C0000FF228650FF2485A0FF2086B0FF23058BC
:1046D000DFF8E064DFF8D074FFF731F84FF6FF79C8
:1046E0000FE00221002004F0C0FC0221002004F0B1
:1046F000D1FC0221002004F086FC0028F1D104F056
:104700006DFC0820ADF800000A21ADF802104FF052
:10471000FF300190684631688847002862D109213E
:104720000820ADF80210ADF80000684631688847EF
:10473000BDF80610029C80BBBDF80400102804BF21
:104740003A8B914216D12078912807D0B02802BF29
:10475000217904F1080002F06AFE0BE060780E286F
:1047600002BFA18841F20540814203D1A06890F9BF
:10477000031079748CB10820ADF80000032106E025
:10478000607800F0C3F80820ADF800000521ADF80E
:1047900002100194684631688847786DFDF7ACFED9
:1047A000E0B9786DFFF759F90400F6D020780128B8
:1047B000E6D00228E7D16178A0780C290BD0E2D3AB
:1047C0000E2901D004D3DEE7797D08437875DAE756
:1047D00000F0E6FFD7E7FBF734FFD4E705F0C0FCB5
:1047E00001F0C8F8798B480749D54FF6FB700140B6
:1047F0007983387C062812BF022807F16400FFF78E
:10480000C4F8387C06280ED10221B974ADF80090A6
:10481000694640F20E3004F01BFEBDF8000048452A
:1048200018BF02F0CAFE387C022805D10321B974F2
:104830000120012100F054F9387D00B3FFF760FD3D
:1048400000F031F880B2B0F5616F18D24046FEF743
:1048500076FF002000F030F80A2400F02AF8641EE9
:10486000FBD1387C062804D104F09AFE5846FEF7A6
:1048700066FF5046FEF763FF022005F05FFA798B72
:1048800008077FF53EAF4FF6F7700140798304F0DB
:104890009EFB04F098FBC0F30020002802D02846BD
:1048A000FEF74DFF25E740004FF47A71B0FBF1F0C1
:1048B00070470521012013E110B5BB4C0100206DAC
:1048C0000FD00122042104F0FEF80120BB4920751D
:1048D0000A68BDE810404CF25030B0FBF2F0FBF734
:1048E0008DBE0022042104F0EEF80020207510BDDA
:1048F0000146002201201EE170470000AA48418BBA
:1049000041F008014183C06CFEF7F6BF7FB5054654
:10491000401E07280FF29C34A34E00F2C980DFE846
:1049200000F00449C773735DC7BCFFF7C2FF02A95B
:104930004FF4417004F08CFD02A94A789DF80800FC
:104940008DF801208DF8000000208A788DF8022073
:1049500000228DF804208DF803204A798DF8072075
:104960000A79C9788DF806208DF805106A46082165
:1049700005F0DAF89DF808109DF808008E4ACB087B
:1049800001EB13731B09A1EB03110009D17490749F
:104990000A28ACBF5721302108189074D07C0A280F
:1049A000ACBF572130210818D07400F08DF80FF2F9
:1049B000BC317BE006F16400FEF7F9FF18B906F19F
:1049C0006400FEF7E2FF307D10B90120FFF774FFAD
:1049D000002000F0DFF80FF2A03167E006F164007C
:1049E000FEF7E5FF18B906F16400FEF7CEFF306D63
:1049F0000022012104F067F80FF2883100F069F815
:104A00000420FEF737F853E000F0B2F80FF28031DF
:104A100000F05FF8B07C02280AD00FF2803100F07D
:104A200058F80020FFF748FF0420FDF741FF3FE062
:104A3000747D0120002CB0743AD0E0070DD506F14A
:104A400020010420FDF78EFCB18B4FF6FD70014074
:104A5000B183F08A40F00200F082A00706D506F18B
:104A60002C01042005F086FA00F024F8600706D532
:104A700006F13B01052005F07DFA00F01BF806F178
:104A80001C023021802002F012FE18B10FF2B42077
:104A9000FEF755FE002070750AE000F069F8306DF1
:104AA0000122012104F00FF80FF2FC2100F011F8AF
:104AB00035747FBDB18B4FF6FB700140B183F08A36
:104AC00040F00400F08270471D214FF4427004F062
:104AD0007FBB2046FEF733BE0A46014602202AE08D
:104AE0002DE9F04104460D4600262F4F16E0386DA3
:104AF0000122214603F0E7FF304A106844F62061A6
:104B0000B1FBF0F84046FBF779FD386D00222146F5
:104B100003F0D9FF4046FBF771FD761CF0B2A842C6
:104B2000E5D3BDE8F08100001F494A8B104348835C
:104B3000C86CFEF7E1BE70B50D460421164684B080
:104B40000446ADF80210032208200192ADF80000DF
:104B5000684618490A68904748B9029A3AB11470F1
:104B6000557096701048C16C406DFEF754FF7FBDC4
:104B700080B5FBF71DFE00F077FEBDE8014005F0B3
:104B80001DBB000011B10A2902D0704705F0CDBA53
:104B900000F0C9BE044A50730E2140F2073004F001
:104BA00017BB0000EC33002044070020D025002074
:104BB00030CD0000980B0020DC07002038D7000023
:104BC000436F6E74726F6C6C65725F53656E736F5A
:104BD00072436F6E74726F6C6C6572496E6974208B
:104BE0004661696C65642E0A0D00000050494E5FF5
:104BF0006F70656E204661696C65642E0A0D000059
:104C00004C6F7720506F7765722121210A0D0000CB
:104C100053797374656D2048616C742E0A0D000021
:104C200073656C66546573744D6170205061737365
:104C30002E0A0D0073656C66546573744D617020A7
:104C40004661696C656428476F74203A307825782E
:104C5000292E0A0D000000004669675465737452DE
:104C60006573756C74203A20307825303478200ACA
:104C70000D0000004469646E742066696E64204310
:104C8000616C6962726174696F6E20646174612025
:104C9000696E20466C6173682C204D6179206361D8
:104CA000757365206F6666736574206572726F72C6
:104CB0002E0A0D004C43443A25730A0D00000000F3
:104CC000436F6E74726F6C6C657220537461727492
:104CD00000000000426C7565746F6F746820446951
:104CE00073636F6E6E6563742E0A0D0053656E7389
:104CF0006F7220436F6E74726F6C6C6572204F76AA
:104D00006572666C6F77206572726F72206861736E
:104D1000206F63637572726564210D0A00000000E4
:104D2000436F6E74726F6C6C65725F526561644341
:104D3000616C6962726174696F6E204572726F7224
:104D40000A0D0000436F6E74726F6C6C65725F5376
:104D5000746F726543616C6962726174696F6E2011
:104D60004572726F722E0A0D00000000496E697460
:104D700069616C697A65640041647665727469730F
:104D8000696E6700436F6E6E656374656400000052
:104D900057616974696E672E2E2E0000506F77651B
:104DA00072206F66662E00004572726F72000000FE
:104DB0004672656520577269746500004343323658
:104DC00035302046726565577269746500000000D1
:104DD0004E2E412E00000000312E302E312028446E
:104DE000656320313720323031372900535049452F
:104DF000204C41420000000050434220322E30003F
:104E000001088086002007C0040080800A2007C0B7
:104E1000FF000000E0B50821ADF800100422ADF855
:104E200002200190684635490A68904708B1002081
:104E30000EBD02980EBD38B5314D324C2878800039
:104E4000FFF7E8FF206028788000FFF7E3FF216884
:104E50006060002918BF002801D1132032BD4FF631
:104E6000FF75284601F0A8FE6168284601F0A4FEFF
:104E700004F1200001B0BDE830400FF248131022C9
:104E8000072102F0FAB8204A116819B900B1106080
:104E900000207047112070473EB50B4611460FF2B7
:104EA0006D05184C10B103280CD01CE00C2B18D148
:104EB0000C2204F1080002F02FFC00F016F804F1B7
:104EC00008010AE00C2B0CD10C2204F1140002F0B2
:104ED00023FC00F00AF804F11401206801F086FEBA
:104EE0003EBD18203EBD02203EBD07210091FF209F
:104EF0000295019004F1200300227047980B0020D6
:104F0000C00B0020DC0C002058340020F8B50D4602
:104F10000026287AC10617461C4601D50820F2BD96
:104F2000069808B10B20F2BD6946284602F047FCFE
:104F3000012802D126800120F2BDBDF800004AF60A
:104F40003D21401A01D0401E07D10C2020800C22A8
:104F5000E968384602F0E0FB01E026800A26304688
:104F6000F2BD2DE9F0410D4684B00446287A0027B1
:104F700081061646984648BF08201FD402A9284635
:104F800002F01DFC012819D0BDF8080042F60211FC
:104F9000401A05D048F23B11401A01280DD90BE008
:104FA0000A98009001210191434632462946204645
:104FB00001F088FE074600E00A27384604B0BDE845
:104FC000F08100000D4F0000634F00000000000062
:104FD000F0B40246106895681318506803EB50044B
:104FE000C00721D54D441FE0F0BC02F10C00704712
:104FF00013F8017B05F8017B491EF9D1A0B1B60871
:1050000013F8011B06F00306032E08BF13F8016B0B
:1050100001EB06214942801C294405D011F8016B9F
:1050200005F8016B401EF9D1A342DDD013F8016BE6
:1050300016F0030104BF13F8011BC91C30090F2827
:10504000DAD113F8010B0F30D6E70000FF2212EA85
:10505000D05C1DBF12EAD153944593422BE09C448F
:10506000D30780EA01021A4043EA002043EA012103
:10507000A1FB0030C04238BF40007CF17F010BDB58
:10508000FE294ADA5B0842EAC15153EA006373F130
:10509000004C51EB10207047D1F1080CDCF12001DD
:1050A0002FDB5B0810FA01F10B4320FA0CF073F1CF
:1050B00000415041704794451CBF02EAD1539342CE
:1050C00080EA010202F000421DD0400019D04900E0
:1050D00017D05BB9634514D00902B1FA81F3994046
:1050E000BCEB030CC00140F00040C1E70002B0FA85
:1050F00080FC10FA0CF0B3EB0C0CC90141F000413C
:10510000B6E71000704740000AD0490008D010F1FF
:10511000807F94BF11F1807F02E042F0FF40704732
:10512000D04370470022FAF7C7BF000090EA010F92
:1051300041F12C8181F00041421A3CBF801A89184C
:105140004FF0004CC0F3C752FF2A24D0C1F3C7531D
:1051500013B3D21AD2F1190327DD4CEA01214CFA1C
:1051600003F321EA0303D140C20D4CEA00204018AA
:1051700034BF20EA0C004CEA5000D20553EA006329
:1051800073EB0C0C52EB1020420012F1807F38BF01
:105190007047C00DC0057047490212BF9A4200EB2C
:1051A0005120F8E7D2F11703D9D570474FF0807C32
:1051B0001CEB400F94BF1CEB410F05E040EA010CD3
:1051C0001CEB0C0F01D28142704718BF8842704718
:1051D00070B44FF0004591EA030F41F141836B40F9
:1051E000841A71EB030604D26E40001BB141121900
:1051F00073414FF4001C1CEB410F34BF7CEB4306A2
:1052000082E00C0DA4EB1356362E7BDC012E45EA12
:10521000C32341DC43EA525312BFD20292025B081D
:10522000240545EAC12141EA5051D2EBC020994101
:1052300025D407D1B0FA80F610FA06F162D000202A
:10524000203608E0B1FA81F6B140C6F1200220FA1A
:1052500002F21143B0404FEAF474B4EB465434F018
:1052600001064FEA74040AD8D6F50016760D04F04C
:105270000044F04061FA06F25040F1404840C00A54
:1052800040EA415021F0004128BF5FEA500550F14B
:10529000000044EBD12135E0DB0A45EAC121C90A0F
:1052A000B6F120050EDD42EA0242120CC5F12006DD
:1052B00003FA06F6EB4042EA06056D42984161F1B9
:1052C00000010DE062FA06F5F240554063FA06FC73
:1052D00082EA0C02F3405A406D42904161EB0301B7
:1052E00011F4801F05D1641E620502D06D0040419B
:1052F000494121F48011430875F1004350F1000049
:1053000041EB045170BC70471CEB410F15D223F0E8
:10531000004352EA43060BD04FEA4C0CBCEB410F62
:1053200004D80C0D661E342EB7DDEBE7801A9941C8
:1053300050EA410608BF0021E4E708BF1CEB430F19
:1053400028BF6FF00001DDE701F000428B1AA3F1E6
:105350006051B1F5801F0ADBB1F17F6F1FD242EAC5
:10536000C102C10071F1004142EB507070470B1552
:10537000C3F10903212B10D2890241EA9051800226
:105380000128494141F0004121FA03F0C3F1200313
:10539000994071F1004150417047100070476FF023
:1053A000000013EB103F5CBF000E42EAC050704794
:1053B0004FF0807C1CEB400F94BF1CEB410F05E0CD
:1053C00040EA010C1CEB0C0F01D28842704718BF59
:1053D0008142704710B5FF2313EAD0541DBF13EA72
:1053E000D1529C429A4239E0A41ADA0780EA0103BA
:1053F000134042EA012142EA0020421A3CBF641EE7
:1054000001EB4202090AB2FBF1FE01FB1E2212026D
:10541000B2FBF1F001FB10226EF30F201202B2FB7F
:10542000F1FE4EEA00207F3406DDFE2C24DA53EA3A
:10543000500050EBC45010BDD4F1020401FB1E22F9
:1054400040F08071192C1DDC21FA04F0C4F1200415
:10545000A140114371F10042584110BD9C421ABF56
:1054600003EAD1529A420FE080EA010E0EF00043A7
:10547000400004D0490016D143F0FF4010BD490060
:1054800008BFD343180010BD9C4205D1D21AF7D0F3
:1054900001F00041484010BD4A0212BF0846484092
:1054A00000F0004010BD4AB90902B1FA81F2914002
:1054B00044B1A418C00140F000409EE7C90141F08A
:1054C000004152420002B0FA80F4A040141B94E75D
:1054D00000280AD0B0FA80F18840D1F19D01C905B9
:1054E000020672F1004241EB102070472DE9F04CAA
:1054F000044658004015401C83B00D4643D0680058
:105500004015401C3FD0C80F1ABF25F000450826A3
:105510000026D80F1CBF23F0004386F0060619466C
:105520000027B94207DA4FF0004BB81A6BEB0101C4
:10553000CDE9000101E0CDE900212946B94220462C
:1055400004DA4FF0004B381A6BEB0101DDE900ABD8
:105550008B4509DC01DB824506D2104619462246FE
:105560002B4601F051F83DE023F0004B00200021D4
:1055700022F000078B4508BF874235D020462946D8
:1055800001F042F830E048004015401C04D1090306
:1055900002D0204629462FE058004015401C04D177
:1055A000190302D01046194626E058004015401C49
:1055B00009D1190307D168004015401C03D1290304
:1055C00008BF0C4901D000200021EE0F18BF0826AB
:1055D000DA0F18BF86F006066B005B155B1C03D163
:1055E0002A0301D186F00206324603B0BDE8F04C32
:1055F00004F026BE0000F03F03B0BDE8F08C0000D0
:105600002DE9704C044648004015401C84B00D46FE
:1056100001D1090324D125F000430020002124F00A
:1056200000028B4208BF82421AD0E80F1ABF25F051
:1056300000450826002629460022914204DA4FF050
:105640000043101B63EB01014FF079539342BCBF41
:105650004FF0004060EB03039942924603DA2EBB01
:105660002046294667E0DFF8D4B00020594622469C
:105670002B4601F0EDF8CDE9000100225B46204603
:105680002946FFF7A5FDDDE9002300F0EBFE01F060
:105690005FF9CDE902012A492A4851450ADA4FF05B
:1056A0000043BAEB000063EB010103E085F0004129
:1056B000204640E0CDE9000129465145204605DA63
:1056C0004FF00043BAEB000063EB0101DDE900237A
:1056D0008B4207DB01DC824204D3DDE90223204652
:1056E00029461AE0D345BCBF4FF0004161EB0B0BDC
:1056F00029465145204605DA4FF00043BAEB000039
:1057000063EB01018B4510DB01DC82450DD3DDE944
:10571000020186F0020622462B4600F075FF324653
:1057200004B0BDE8704C04F08BBDAFF300804FF0C7
:10573000FF306FF0004104B0BDE8708C0000F03F16
:105740009EA0E63FCD3B7F661CB504F0A1FBDFF8D1
:10575000004B04F1AC0004F0C3FB0020019000906A
:105760004FF47A7364220FF2853104F18800FEF75A
:10577000E7F801226421022000F059F9FCF73BFD13
:10578000A08204F168020F21042004F0B3FB04F1AD
:1057900078020F21052004F0ADFBBDE8134063E063
:1057A00038B5DFF8AC4A012804F1880506D0022894
:1057B00035D0042841D0052849D031BDFCF71BFD68
:1057C00038B9FF20207001222178012000F02FF944
:1057D00031BD2078FF28F6D06946012004F0CAFBCD
:1057E0009DF8000060B92846FEF7E8F80C22002179
:1057F000002000F01CF900F073F80120A0710AE00D
:105800000320A0719DF80000800900F00100607184
:105810002846FEF7BAF89DF80000207031BD6946B1
:1058200004F0A8FB9DF800100A20414391FBF0F121
:1058300089B22846FEF7C4F831BD04F1680104F0CE
:1058400099FB0FF67C20FDF77AFF022108E004F1B6
:10585000780104F08FFB0FF68820FDF770FF04211C
:105860000E20FFF739F931BD2DE9F843DFF8E049A3
:10587000002020700C22002100F0D9F800F030F850
:105880000020A070607004F188052846FEF78FF8AC
:1058900010B12846FEF792F80020A071FEF74AF9F1
:1058A000E0B100270FF698280FF69C26F55DA08A38
:1058B00005420CD018F807904846FEF746F9A08A32
:1058C00010EA052F1CBF49F08000FEF73EF97F1C4F
:1058D000052FEBDBFEF719F900206082BDE8F183AC
:1058E000217801220120A2E0F0B5DFF864793C794B
:1058F000C4B9079E069D059C4FF0010C87F804C0B3
:10590000DFF850C9CCF82800CCF81010CCF81420DF
:10591000CCF81830CCF81C40CCF82050CCF82460DF
:1059200000203871F0BD70B5DFF82449658A4FF664
:10593000FE600540FAF766FE06460A2003F0A6F868
:1059400080B9DFF814090168711A42F211729142AC
:1059500007D344F6206245F00105914238BF45F473
:1059600080750660B4F91200A84202D06582012059
:10597000A07070BDF8B500F068F8DFF8D458A878CA
:10598000002848D00021A970DFF8D0180878F8B9AD
:105990000024DFF8CC6805EB0410406AFAF772FBCC
:1059A000C7B21820604330444069FAF76BFBC0B2BD
:1059B00005F1080140EA072021F81400641C052CB9
:1059C000E9DB05F108020C21002004F093FA22E043
:1059D0000024DFF89068E0B2308404EB44003044E7
:1059E00090F90010C27B42EA01227284641C90F993
:1059F0000110027C42EA0122B28406F1200290F9F1
:105A00000210407C40EA0120F0840C21002004F0C8
:105A100071FA052CDFDB687820B100216970BDE8E0
:105A2000F1407BE0F1BD01460D20FFF755B83EB5D2
:105A3000154604460A4629466846FAF739FB6A467F
:105A40002946204604F056FA37BD2DE9F843DFF821
:105A50000078F87858BB0121F970B879C10724D5CE
:105A600000250FF6DC080FF6E006745DB88A0442E4
:105A700014D018F805904846FEF767F8B879810702
:105A800003D578214846FEF7FDF8B88A10EA042FBE
:105A900004D0782149F08000FEF7F4F86D1C052D44
:105AA000E3DBFEF732F80020B8710020F870694699
:105AB0000120FCF757FC3878A8B1FEF73BF8002826
:105AC0001CBF9DF80000002803D1FFF7CDFE002089
:105AD00009E007F188042046FDF769FF10B9204668
