:10000000584400203DD2000001CA011001CA01106D
:1000100001CA011001CA011001CA011001CA011070
:1000200001CA011001CA011001CA011001CA011060
:1000300001CA011001CA01103FCA0110C0F3C75123
:1000400081B1FF2906D0C110400721F0E04101F144
:100050006051704741020CBF40F4E0016FF0004175
:100060000020704700F0004100020AD0B0FA80FC86
:1000700000FA0CF001F16051A1EB0C5101EBD02121
:1000800040057047C0F3C7517E390EDDC217D1F16C
:10009000200106DD000240F00040C84010445040FE
:1000A0007047D04380F00040704700207047000048
:1000B00062F30F2262F31F4200B500BF13009646A1
:1000C0009446103928BFA0E80C50FAD85FEA417C6A
:1000D00028BF0CC048BF40F8042BC90728BF20F830
:1000E000022B48BF00F8012B00BD0000006801078B
:0E00F00001D50420704700F0030070477047F0
:100100003C0000000000000000000000340100007E
:1001100000000000000000000100000000000000DE
:1001200000000000000000000000000001000000CE
:100130000000000008000000000000003400000083
:100140000000000000000000680100000000000046
:10015000000000000100000000000000010000009D
:100160000000000000000000080000000000000087
:1001700030000000000000000000000098010000B6
:10018000040000000000000001000000FFFFFFFF6E
:10019000FF00000001000000080000000000000057
:1001A0002C0000000000000000000000C40100005E
:1001B000040000000000000001000000FFFFFFFF3E
:1001C000FFFFFFFF080000000000000034050000F2
:1001D000E401000099A1011095A70110A5C201102A
:1001E00009B2011045B80110000000000000000035
:1001F0002E000000280000000000000000000000A9
:10020000140200000000000000000000FFFFFFFFDC
:1002100000000000080000000000000030050000A1
:100220003002000069C201106DC101101FC201102F
:1002300095BA01100000000000000000300000002E
:10024000300500005402000075C20110A9B601106B
:100250009DBF011049B60110000000000000000021
:100260003100000024000000000000000000000039
:1002700080020000000000000000000000000000FC
:100280000800000000000000240000000000000042
:1002900000000000A40200000000000000000000B8
:1002A0000000000008000000000000002400000022
:1002B0000000000000000000C80200000000000074
:1002C0000100000000000000080000000000000025
:1002D00000000000D00D002004000000000000001D
:1002E000000000002000000070010000300000004D
:1002F0001C020000080E00200400000000000000A6
:10030000000000000C000000300400001800000095
:1003100040020000100E0020040000000000000059
:100320000000000024000000480400001800000045
:1003300000000000500E002004000000000000003B
:100340000000000010000000A00100002C000000D0
:10035000CC010000580E0020040000000000000046
:1003600000000000200000006402000024000000E3
:10037000FFFFFFFF780E00200400000000000000D7
:100380000000000028000000880200002400000097
:10039000FFFFFFFF800E00200400000000000000AF
:1003A00000000000580000003C0100003400000084
:1003B000FFFFFFFF880E0020040000000000000087
:1003C00000000000100000006004000018000000A1
:1003D000FFFFFFFF900E002004000000000000005F
:1003E000000000001C000000AC020000240000001F
:1003F000FFFFFFFF980E0020040000000000000037
:100400000000000038000000F40100002800000097
:10041000FFFFFFFF000F00200400000000000000AD
:100420000000000054000000000100003C0000003B
:100430001800000000000000000000004004000060
:10044000080000000000000018000000000000008C
:100450000000000058040000080000000000000038
:100460001800000000000000000000007004000000
:1004700008000000000000000200000098D2000008
:03048000FF7F00FB
:100484000100000000000C0000000D00320000001C
:1004940002000000D80D0020000200000DD0000072
:1004A40001CA011000000000000000000800000064
:1004B40000002000180E002001000000600E002043
:1004C4000800000000000000000000000000000020
:1004D400000000000000000001000000A00E002049
:1004E4000600000001000000080F002000000000CA
:0C04F400000000000002000000000000FA
:0F0502002A0001002500300031002E0001000109
:100512000040040000007CD2000000000000000047
:100522000000000001000000030087C4011038052C
:10053200000038050000000000008000000080007C
:10054200000000000000600E0020AF8200002000CA
:10055200000054D2000070D000000DC301102B38EF
:1005620000002D38000099C801109BC8011000003E
:10057200000082040000E0CD0000F8CD0000C8CDEC
:0B05820000000800090001000000015B
:10059000000000000000000000000000000000005B
:1005A0000D3300006D330000ED3100009733000083
:1005B000553200000932000095320000D9330000A6
:1005C0002D820000AB850000AF8500000800000010
:1005D0002400000018000000280000002000000097
:1005E0003C0000000C00000034000000DFF800F0C8
:1005F000D9C10110DFF800F025B10110DFF800F0DB
:100600006DA90110DFF800F0D9B6011000B58FB068
:1006100008233C2200216846FFF7E8FFDFF830049A
:1006200000F1EC0107914FF4167201210892069136
:1006300000236A460FF2C5119C30FFF7DBFF0FB0B5
:1006400000BD10B5012886B0DFF8044404D00228AC
:1006500064D004286FD089E001F02EFEC00609D4D2
:10066000FF206075002020750122617D012000F0CF
:10067000D8F97BE000202075607DFF28F4D004A924
:10068000012001F0D3FE9DF8100058B90FF2E000F0
:1006900003F0B9F804F1780003F0F4F9002003F056
:1006A000D6FA35E080282FD0002003F0D0FA0020C1
:1006B00003F0ADFD7F21002003F064FB9DF81000E6
:1006C000C0F3410003F0DDFB9DF81000C0F3C10052
:1006D00003F030FC0020A065E06520666066A0663F
:1006E000E0666063A063E063012104F19C0002F016
:1006F00027F804F1780003F0ACF99DF810004106EA
:1007000006D50121217503E0607D08B10121E17565
:100710009DF81000802829D0607527E004A901F019
:1007200085FE9DF8101001EB810189B204F178007B
:1007300003F0AAF91AE004F1280101F077FE206B1A
:10074000FFF77CFCCDE90201E06AFFF777FCCDE919
:100750000001A06AFFF772FC02460B460FF2200070
:1007600003F051F801210E2004F0C4F906B010BDC9
:10077000414852532053746F702E0A0D0000000040
:10078000476F7420426F617264204D61672043613E
:100790006C6962726174696F6E2044617461203AA1
:1007A0002025662C2025662C2025660A0D000000D9
:1007B00010B50FF23800DFF8844D03F024F8002163
:1007C00061751422002000F02CF9617D01220120C6
:1007D00000F027F90020A07503F00FFA03F02AFAC1
:1007E00000206063A063E063E07410BD4148525391
:1007F0002052657365742E0A0D0000002DE9F04348
:1008000089B002A800210022002380E80E00DFF852
:10081000301D082401250A68ADF81440ADF81650C3
:1008200005A8904701F096FD04F0F7FA884CDFF830
:10083000147DDFF8A88D04F55675284601F0B2FD49
:10084000284604F012FB0020019000904FF47A73C8
:100850001A460FF2F11104F1780003F0D5F8FFF712
:10086000A7FF01226421022000F0DBF804F19C05BF
:1008700000F0CEF80020608204F551794FF4F0705A
:10088000FFF7BCFE02AE0CE004F1780003F0F3F8D1
:1008900018B904F1780003F0DCF84FF47A70FFF730
:1008A000ADFEA07D00285DD001F016FCFFF7EAFB4D
:1008B00020804146706804F0BBFBFFF7E3FB6080DB
:1008C0004146B06804F0B4FBFFF7DCFBA080A21D3A
:1008D000A06D00900C21BDF80000E080BDF9020081
:1008E0002081E06D00F08CF8206E00F081F800208F
:1008F00004F0C4FA206C0090A21DBDF80000E08056
:100900000C21BDF902002081606C00F079F8A06C28
:1009100000F06EF8032004F0B1FA207D38B9606B66
:1009200000F05EF8A06B00F06BF8E06B06E0E06CA6
:1009300000F056F8206D00F063F8606D00F058F894
:100940003888810703D5E07C40F04000E0742246FF
:100950001421002001F030FDE07C00F0FE00E07486
:100960000021A175E07D20B10021E1756163A163E3
:10097000E16303F057F918B3002003F0E6F9C0076C
:100980001ED5607D00B34946002003F017FB04F23A
:100990004A31002003F0B5FA04F55471002003F049
:1009A0008FFC48B1022803D0002003F030FC07E0A0
:1009B0006420FFF723FE03E002A9484600F04AF84E
:1009C000607D00287FF460AF04F1780003F053F8F5
:1009D00018B104F1780003F055F800F019F860E759
:1009E0000090BDF80000E080BDF902002081704752
:1009F0000090BDF80000E081BDF902002082704740
:100A00000090BDF800006081BDF90200A081704730
:100A10004FF0FF31284601F093BE01460C2004F050
:100A200069B830B5154685B004460A462946684679
:100A3000FFF73EFB6A462946204601F0BDFC05B0A3
:100A400030BD0000DFF8F41A0120887570470000FF
:100A5000540200202DE9F04F9FB0054689460DA8AD
:100A6000242104F051FBFFF7CDFD0B900DACB5F93F
:100A70000000DFF8C86A03F005FB0D904FF0000896
:100A8000B5F9020003F0FEFA6060B5F9040003F066
:100A9000F9FAA060B5F9060003F0D6FAE060B5F9FE
:100AA000080003F0D1FA2061B5F90A0003F0CCFA8E
:100AB0006061B5F90E0003F015FBA061B5F90C00FB
:100AC00003F010FBE061B5F9100003F00BFBDFF859
:100AD000101B04F0ADFA2062B16AA06904F018FBA3
:100AE0000546E069F16AA56104F012FB0746206A39
:100AF000316BE76104F00CFBF564376520627065CB
:100B0000E1686569276901F0BBF901F0C1F901F0FD
:100B100078F900F091FD01F077F901F0E0FB00F0C9
:100B200041FD0A900D99A568676801F0A9F901F0E7
:100B3000AFF901F066F900F07FFD01F065F901F011
:100B4000CEFB0546DFF89C0A01F08AF90746DFF87C
:100B5000980A01F085F900F025FD1690DFF88C1A4F
:100B6000DFF88C5AAA6D384604F012FB98BF4FF09C
:100B70007E5700F013FD0AD2FFF760FADFF8742AFF
:100B8000DFF8743A04F016FB04F0D0FB0246384656
:100B9000114604F0FFFB38BF3A46AA65104601F043
:100BA00033F900F00BFD09902F790A99D4F808A0C9
:100BB000D4F804B0781C287101F062F900900D9906
:100BC00001F05EF901F01AF901F06AF901F016F985
:100BD00001F059F901F00CF901F081FB00F0E2FCA1
:100BE00005F14C0141F827000321287990FBF1F130
:100BF00001EB4101401A2871002705F14C00DFF894
:100C0000FC1950F8270004F0D7FB414604F052FCD1
:100C10007F1C032F8046F0DB0B98696CCDF8308089
:100C2000401ACDF82090263004F0B6FCDFF8D01939
:100C3000DFF8D089DFF8D09904F0BEFB3067206A76
:100C4000E7680490E0690390A069029060690190F0
:100C500020690090A068FFF7F1F900F0F8FC04F0BB
:100C600065FB82466068FFF7E9F900F0F0FC04F0EC
:100C70005DFB83460D98FFF7E1F900F077FC04F087
:100C800055FB3B465246594600F0FDFCFFF7BAFCC7
:100C900068644FF08049B169306A04F0C9F90746C9
:100CA000F169706A04F0C4F901F0C2F801F0E0F8EB
:100CB000FFF7C4F904F07EFC04F038FB08994860A3
:100CC000B769D6F824B0D6F82080D6F81CA001F079
:100CD000E0F8009000F06EFC01F0AEF800904146A4
:100CE000404604F0A5F901F0A7F801F0D9F801F0A9
:100CF00085F8FFF7A3F9CDE90001384601F0C5F802
:100D0000074601F0DCF901F07FF801F0B1F8FFF7D8
:100D100095F9DDE9002304F0F1FC04F007FB0899E4
:100D200088600898876800F0A1FC04F081FF804685
:100D3000089840688946FFF781F929F00043424648
:100D400004F07AFF04F0F2FA0899486008984168C4
:100D500003910846FFF772F98046894604F068FF60
:100D600082468B4600F082FC2BF00043524604F092
:100D700063FF04F0DBFA08998860089881680291A3
:100D80000846FFF75BF907468B4604F053FFCDE9B1
:100D90001C014046494604F04DFFCDE91A01384692
:100DA000594604F045FFCDE918014046494604F094
:100DB0003FFFCDE906013846594604F03BFFCDE937
:100DC00004014046494604F033FF82468B464046C4
:100DD000494604F02FFFCDE90001A769DFF82C8810
:100DE000DFF82C9800F042FC52465B4604F024FFEA
:100DF000824600F037FCDDE9002304F01DFF524677
:100E000000F0C1FB04F092FAFFF718F900F036FC8D
:100E1000DDE91C2304F010FFDDE91A2304F00CFFC8
:100E20000746E06900F01FFCDDE9182304F004FF29
:100E300000F0A8FB074600F015FCDDE9062304F0EE
:100E4000FBFEDDE9042304F0F7FE00F09BFB04F059
:100E50006DFAFFF7F3F8DDE9002304F04FFC04F02E
:100E600065FAFFF7EBF800F0F2FB04F05FFA089F79
:100E700038600398FFF7E2F800F0E9FB04F056FA57
:100E80000746089847600298FFF7D8F800F0DFFBA4
:100E900004F04CFA089988606168A268E3680691DA
:100EA0000792216A0D9A04910592E1690391A16963
:100EB0000291616901912169009108990A68394696
:100EC00005F05CF81698FFF7B9F8894607460A99C5
:100ED000DFF80C0704F0EEFAFFF7B0F821F000415C
:100EE00000F058FB4FF08042DFF8283705F09CFCFB
:100EF00021D2697914290DDDB07C58B90FF2486010
:100F000002F081FC0B98A8640120B0740020B06549
:100F1000F065306668796428B8BF401C14DBB07C8B
:100F2000022814D00FF22C6002F06DFC0220B07485
:100F30000120F07509E0B07C28B10FF2246002F0C6
:100F400062FC0020B07400206871B07C022800F0C0
:100F5000748212A9029111A810A9019000916269EE
:100F60002169E068DFF8B076012300F09EFF0EA94A
:100F70000DAA0FA801910092029063692269E168AD
:100F8000012000F0D7FFA068FFF758F8DFF88C26A3
:100F9000DFF8383E04F00EF904F0C8F9394602468D
:100FA0000D98DFF82C3EA26004F0F4F905D2194642
:100FB00004F0EEF89CBF00200D90606800F0EFFA9E
:100FC00005D2194604F0E4F89CBF0020606000F0F0
:100FD000E5FA05D2194604F0DBF89CBF0020A060BA
:100FE0000D990998DFF8EC8DDFF8EC9D04F020F8FE
:100FF000A96B04F05FFA00F0E1FA83466168099892
:10100000C4F80CB004F014F8E96B04F053FA00F0E3
:10101000D5FA8246A1680998C4F810A004F008F82F
:10102000296C04F047FA00F0C9FA07466761C5F871
:1010300038B0C5F83CA02F645846FEF7FFFF00F01B
:1010400006FB04F073F90D9000F015FB00F0FFFAB9
:1010500004F06CF9606000F009FB00F0F8FA04F0AD
:1010600065F9A060002030647064B064B16D376EC3
:10107000D6F85CA000F004FF00F005FF00F0B8FE19
:1010800000F006FF00F0BDFE01F029F90290B07CEF
:10109000002840F042816F690D98DFF840ADDFF81D
:1010A00040BDFEF7CBFF00F0E9FA00F08BFA00F04C
:1010B000BDFA04F03BF9E0606068FEF7BFFFCDE9E0
:1010C0000001686AFEF7BAFF00F07CFA00F0AEFAA1
:1010D00004F02CF92061A068FEF7B0FFCDE9000113
:1010E000686BFEF7ABFF52465B4604F0A5FD00F0CF
:1010F0009DFA04F01BF960613946384603F098FF09
:10110000696A00F0BCFE00F07FFE696B00F0B7FE7C
:1011100000F07AFE01F0E3F8074602994FF07E50A6
:1011200004F04AF980F00040FEF788FF04F0FEF872
:10113000DFF8EC1D0091834600F098FA00F016FAF3
:1011400002460B460020DFF8DC1D05F085FB04F0AD
:10115000EDF8009900235A4600F0C2FFDFF8C81DE1
:1011600003F066FF07466969E06804F0A3F900F040
:1011700091FE00F023FAE060696A206904F09AF9B0
:1011800000F088FE00F01AFA2061696B606904F0D3
:1011900091F900F07FFE00F011FA6061E0681099AB
:1011A0003064206970646069B06400F000FAB16D69
:1011B00004F080F9B0652169306FDFF8709D03F0AD
:1011C00037FFF16D04F076F983466169306FC6F838
:1011D0005CB003F02DFF316E04F06CF90746706EC1
:1011E0003766FEF72BFFCDE90001B06DFEF726FF55
:1011F00000F02DFA00F0CAF904F098F87066B06EAD
:10120000FEF71CFFCDE900015846FEF717FF00F07E
:101210001EFA00F0BBF904F089F8B066F06EFEF734
:101220000DFF00F02BFA00F012FA00F0AFF904F015
:101230007DF800218246E068DFF8F49CC6F86CA0D7
:1012400003F0A6FF4FF0333803D2B06D04F0A2F8DC
:1012500007D3E06804F09EF80AD2B06D03F098FF5F
:1012600006D2FEF7EBFE00F0F2F904F05FF803E0BF
:10127000B06D716E03F04CFFB0650021206903F082
:1012800087FF03D2584604F085F807D3206904F09D
:1012900081F80AD2584603F07BFF06D2FEF7CEFE55
:1012A00000F0D5F904F042F802E0B16E00F0BDFDA7
:1012B000F0650021606903F06BFF03D2384604F04B
:1012C00069F807D3606904F065F80AD2384603F07C
:1012D0005FFF06D2FEF7B2FE00F0B9F904F026F87F
:1012E00003E03846514603F013FF3066B07CA0B9E6
:1012F000B16D00F05CF9716B04F0DCF87063F16DB6
:1013000000F055F9B16B04F0D5F8B063316E00F020
:101310004EF9F16B04F0CEF8F06305F1080228787D
:101320000D9942F82010401C287000F023F9287015
:101330000027002068616869FEF780FE804605F19D
:10134000080000F08AF900F043F9424600F023F962
:1013500003F0ECFF7F1C032F6861ECDB05F1180242
:101360006878616842F82010401C687000F002F94B
:101370006870002700206862686AFEF75FFE80469A
:1013800005F1180000F069F900F022F9424600F07A
:1013900002F903F0CBFF7F1C032F6862ECDB05F141
:1013A0002802A878A16842F82010401CA87000F01C
:1013B000E1F8A870002400206863686BFEF73EFE29
:1013C000074605F12800894650F82400FEF736FE4E
:1013D00000F0FEF800F0DEF803F0A8FF641C032C18
:1013E0006863EADB4FF082410C9803F0D3FF09D227
:1013F000A87970B90121A971F07C40F00100F07466
:10140000B17506E0DFF8441D03F0C2FE9CBF00206A
:10141000A871F07C01061AD4706F4FF07E5103F072
:10142000B9FF14D2F07C40F08000F0740FF65C50ED
:1014300002F0E9F90120B07509E000200290019066
:10144000009062692169E068002300F02EFDB16D13
:10145000346EF56D00F014FD00F0EEF800F0D4FCF1
:101460000546204600F031FE00F0EAFC00F037FFB0
:1014700000F098F8DFF8D81C776E03F089FE044678
:1014800039D84FF0785000F020FEFEF7D7FDDFF896
:10149000C42CDFF8C43C04F0CFFBD6F858A00446B7
:1014A0000D4600F0E8F800F0E4F800F0CAF800F0AB
:1014B000B7F803F03BFFB065D6F85CA000F0DBF8AE
:1014C00000F0D7F800F0BDF800F0AAF803F02EFF06
:1014D000F065D6F860A000F0CEF800F0CAF800F091
:1014E000B0F800F09DF803F021FF3066DFF86C4C97
:1014F000DFF86C5C08E04FF07E5103F04BFF1AD22E
:10150000DFF8604CDFF8605C00F0B0F800F099F8AC
:1015100003F00CFF7066B06EFEF790FD00F091F8DE
:1015200003F004FFB066F06EFEF788FD00F089F866
:1015300003F0FCFEF0661FB0BDE8F08F54020020FF
:101540009C0B00205E0700205374656164792E0AAD
:101550000D000000536C6565702E0A0D0000000040
:101560004D6F76696E672E0A0D00000042464B46AD
:1015700004F062BB0321C0B290FBF1F101EB410129
:10158000401A70473A465B4603F014BEDDE900237B
:1015900003F010BE3A464B4603F00CBE10463946E7
:1015A00003F0F8BE01464FF07E5003F005BF306FE8
:1015B00003F03EBD5146504603F03ABD4FF07C511A
:1015C00003F036BD02460B465046594604F034BB84
:1015D0000022DFF8983B05F03FB900000000C84248
:1015E000000080BF00007A430000FA430100803F02
:1015F000B0050020FCA9F1D24D62503F00004040F0
:101600000050C347399D52A246DF913FF8C1631A8B
:10161000DCA54C40E17AB43F6F12833A3D0AD7A370
:1016200002460B464046494605F03ABA02460B468A
:10163000DDE9000105F034BA07462846294603F0E3
:10164000F7BC02460B462046294604F0F5BA02468E
:101650000B464046494604F0EFBA894650F8270049
:10166000FEF7ECBC206A8B46FEF7E8BC3846FEF776
:10167000E5BC804689465046FEF7E0BCCDE9000156
:101680003846FEF7DBBC2DE9F04F05469BB0DFF88E
:10169000E00A249E259F446ADFF8D8BA894681690A
:1016A00003919246C16902919846016A029801919C
:1016B00000F0D6FB80F000400090494600F0DCFBD3
:1016C00000F0BAFB0090514600F0C3FB00F0B4FB01
:1016D00000F0F6FC0E90294600F0BFFB009000F0F1
:1016E000CAFB00F08BFB0090494600F0B2FB00F013
:1016F000A3FB00F0E5FC0D90494600F0AEFB009026
:10170000514600F0CAFB00F097FB0090294600F01C
:10171000A0FB00F073FB00F0D3FC0C9000F09CFBEE
:101720008246029800F0A4FB00F06BFB8146019812
:1017300000F096FB0146484603F0EAFC00F0C0FCCE
:101740000B900021404605F01DFA08D1304605F007
:1017500019FA04D1384605F015FA00F0E882DDF8F0
:10176000A090279DDDF898A0404600F0B6FC834687
:10177000304600F0AEFC00F03BFB834600F089FBF6
:1017800000F036FB00F0ABFD834600F098FC1890AB
:101790005946304603F04CFC24905946384603F035
:1017A00047FC2590FFF706FF0646FFF746FF00F0CF
:1017B00022FB064600F05BFB00F01DFB00F08FFDF6
:1017C0000646504600F085FC26903146284603F038
:1017D0002FFC054600F07CFC8146039900F043FB9A
:1017E0000646269800F075FC08902946304603F01E
:1017F0001FFC8246304600F03BFB8346029900F016
:1018000032FB0746269800F045FB17960A9780465C
:10181000019900F028FB0746099700F054FC169048
:10182000314600F029FB15902146384603F000FCB4
:101830001990039900F024FB0690039900F02DFB0A
:101840001090039900F018FB0F90214600F005FB63
:101850001390029900F014FB0490029900F00CFB25
:101860001290214600F019FB0590019900F008FB49
:101870000646019800F029FC1190214600F0E9FA93
:1018800007462699069803F0D3FB00902146FFF700
:1018900092FE00F0D1FA0090594600F0EDFA00F007
:1018A000ADFA00902699049803F0C2FB00F0A6FA66
:1018B0000090294600F0CAFA019903F0B9FB00F044
:1018C0009DFA0090494600F0C1FA00F0FEFB00F0DE
:1018D00095FA00903146269803F0AAFB00F0ACFA86
:1018E00000903946269803F0A3FB00F0A5FA079074
:1018F0002146089803F09CFB00902946069803F0C7
:1019000097FB00F07BFA0090594600F0C6FA00F011
:1019100093FA8346019800F0E0FB00F069FA8346F1
:10192000049800F09DFA00F07FFA8346284600F004
:10193000D0FB00F05DFA8346099800F099FA00F0B8
:10194000C4FB00F055FA8346284600F0A3FA00F0E5
:101950006BFA0799834600F093FA00F0A1FA00F0C1
:101960004DFAFEF76BFB05F01BF903F0DFFC834635
:10197000029800F08AFA8246089900F07DFA00F099
:101980004AFA8246069800F073FA00F03AFA824664
:10199000404600F09AFB00F034FA8246049800F0CA
:1019A00067FA00F038FA8246099800F059FA00F018
:1019B0008CFB00F026FA824600F08AFB00F02BFA3E
:1019C0008246484600F066FA00F01BFA82464FF065
:1019D000804000F075FB1490514600F044FA8046B8
:1019E0000F99059803F066FD00F06AFB00904FF038
:1019F0007C50049903F08CFB314603F089FB00F026
:101A000044FA00F0FBF9494603F082FB0890139971
:101A100000F0FEF900F054FB81461099119803F094
:101A200049FD00F032FA00F00EFA294603F070FB8F
:101A3000079031464FF07C5003F06AFB394603F0C3
:101A400067FB00F03DFB054605980F9903F060FB2E
:101A500000F01BFA00F0F4F906904FF08040059971
:101A600003F0E6FA07461598394603F051FB18993A
:101A700003F020FD13904FF08040109903F0D8FA46
:101A8000199903F017FD249903F042FB059059467C
:101A900000F0F2F90546029800F0F7F9129000F014
:101AA000EAF91190059900F0D1F981461399099846
:101AB00003F0BEFA00F0C7F981462698069903F0B4
:101AC00027FB119903F0B4FA00F0BDF9814658469E
:101AD00000F0FBFA00F09BF900F0EEFA00F0B3F929
:101AE0008146089800F0BCF900F0ADF981464FF04E
:101AF000804000F0EEFA0646049900F0B4F900F0D8
:101B0000D6FA0146304603F003FB259903F0D2FCD8
:101B100010903846159903F0FBFA189903F0F8FA7B
:101B20000F9000F099F904902146FFF744FD82469A
:101B30000F99169803F07CFA07460599179803F059
:101B400077FA00F061F907464FF08146029800F0FD
:101B5000C0FA109903F06CFA00F056F9074600F04D
:101B60005FF900F092F900F04FF90746049800F091
:101B700067F900F0A1FA00F047F90546584600F071
:101B8000A4FA074600F0A8FA00F052F9089903F009
:101B90004FFA00F055F90546039800F091FA074610
:101BA000029800F08DFA83460599169803F040FAE2
:101BB00000901399179803F03BFA00F01FF900907A
:101BC000314600F059F9109903F032FA00F016F995
:101BD0000090149900F050F9049980F0004003F04F
:101BE00097FA00F01CF900F074FA00F007F90646C5
:101BF000584600F006F900F05FFA00F0FCF80646DF
:101C0000019800F06AFA00F013F9089903F010FA4D
:101C100000F0F1F882460F9900F018F90646059990
:101C2000099803F005FA00F0E6F88046149800F0F1
:101C30004CFA00F0ECF800F0F2F800F04AFA4146F5
:101C400003F038FC06461198394603F061FA07990B
:101C5000DFF8247503F0ECF900F0CDF8064608989B
:101C600000F02EFA00F0C7F8804600F000F90646B2
:101C7000FFF7E3FC00F0BFF8064600F005F900F0BE
:101C8000BAF80646404600F028FA00F0B4F800F032
:101C900026FB064600F01CFA00F0FCF801460E9800
:101CA00003F036FA0E903146284603F0C1F900F0F1
:101CB000F1F801460D9803F02BFA0D903146FFF72D
:101CC0007AFC00F0E7F801460C9803F021FA0C903A
:101CD0003146404603F0ACF900F0DCF801460B98C1
:101CE00003F016FA0B900E98FEF7A8F9024621F0C1
:101CF000004300208B4904F0D3FE05460D980E46A4
:101D0000FEF79CF900F06EF805460C980E46FEF7BB
:101D100095F900F067F805460B980E46FEF78EF928
:101D200000F060F803F002FBDFF844144867DFF8C6
:101D30004004066F0E9800F0CCF9039903F0BAFB4B
:101D400005460D9800F0C5F9029903F0B3FB07466C
:101D50000C9800F0BEF9019903F0ACFB82460B9899
:101D600000F0B7F900F0A0F90446FFF766FC06465C
:101D700000F08FF800F03FF8064600F085F800F01C
:101D80003AF80646204600F0A0F900F034F800F0DA
:101D9000A6FA0646284600F09CF9DFF8D4138861BD
:101DA000384600F096F9DFF8C823D061504600F0BD
:101DB00090F9DFF8BC130862204600F08AF9DFF8DA
:101DC000B02350621BB0BDE8F08F0000703DF2BF41
:101DD0006E1283BA9A99999999992340B81E85EB06
:101DE00051B8DE3F21F000412A46334603F0E2B904
:101DF000594603F05FBB314603F05CBB009903F02A
:101E000059BB514603F056BB394603F053BB01465C
:101E1000129803F07DB90146504603F079B90646A1
:101E20000698269903F074B90146584603F070B934
:101E30000146384603F06CB90146009803F068B9D2
:101E4000294603F037BB494603F034BB0A9803F038
:101E5000EFB8204603F0ECB85146039803F0E8B819
:101E6000294603F0E5B84FF0804003F0E1B848465A
:101E7000494603F0DDB85146019803F0D9B807464A
:101E8000084603F0D5B883465046514603F0D0B813
:101E900082463846394603F0CBB8029803F0C8B8FA
:101EA00000905946584603F0C3B82DE9F041032B82
:101EB000A8BF022302DA002B48BF0123AF4FD7F897
:101EC00024C0069EBCEB030348BFDB1C002E1CBFD6
:101ED000079D002D4FF00C0E0ED0089C64B10EFB38
:101EE00003F357F80380C6F800803E1DF6582E60B5
:101EF00007F10805EB5823600EFB0CF3F850381D72
:101F0000C15007F108000CF10101C250032091FB00
:101F1000F0F000EB4000081A7862BDE8F0810000A4
:101F2000CDCCCC3F0000F03F0000A0409999993FF4
:101F30003333D33F2DE9F14F8D4FD7F81CB0D7F88D
:101F400018A00C468AB015461E46504600F0B8F858
:101F50008046386AFFF799FF8146786AFFF795FF58
:101F60008246584600F0ACF808905946386A03F0AB
:101F70005FF804905946786A03F05AF80390396A7A
:101F8000FFF77EFF8346396A786A03F051F80290C2
:101F9000796AFFF775FF01909DF8280058B17848DD
:101FA00000F09BF880467648FFF762FF8146744850
:101FB000FFF76BFF824607944FF08044149F05960D
:101FC0000695584600F081F80546059800F07DF822
:101FD00000902146069803F02BF806464FF07E50FD
:101FE000294603F095F88346019800F06EF8FFF754
:101FF0001BFF00F061F883460498FFF702FF00F032
:1020000068F8FFF7F5FE83460398494603F080F829
:10201000009903F00DF8FFF7EBFE386021460898B1
:1020200003F006F800F043F80746079800F04DF873
:1020300083460498514603F06BF800F041F882465D
:10204000019800F042F8FFF7F3FE069902F0F0FF66
:10205000FFF7D7FE04460298414603F02BFA009999
:1020600002F0E6FF00F020F8159908604946039851
:1020700003F020FA00F024F804460298414603F0E9
:1020800047F800F026F800F00FF8044638462946D5
:1020900003F03EF8059902F0CBFF00F005F8169921
:1020A00008600BB0BDE8F08F214603F003BA01468B
:1020B0004FF07E5003F02CB8079902F0B9BF4046AC
:1020C000594602F0B5BF4FF08040214602F0B0BF44
:1020D0004846314602F0ACBF0298414602F0A8BF24
:1020E0002DE9F0420C461D46114603F011F8064654
:1020F0002046FDF7A3FF02460B462248224904F082
:10210000ABFB074689461E48FFF7E3FFFFF7E1FFF9
:102110000646FFF7D8FFFFF7D8FF0146304603F029
:102120004BF9FDF78BFF04F0B5FD3A46FFF71FFAB8
:1021300006460F462846FDF781FF32463B4603F030
:1021400039F8BDE8F04203F0F1B800000100C841E1
:1021500018B7D1382D431CEBE2363A3FAE47E17A4F
:1021600014AEEF3F0AD7A3703D0AEF3F00000840CE
:10217000540200208FC2F53E9A99193FD0320020B8
:10218000000080BF2BF697DD9387D93F52656164CD
:10219000792E0A0D0000000001B513460A46012100
:1021A000684604F0BFFD02BD38B55A4B1870581C84
:1021B000002404E011F8015B00F8015B641CE5B247
:1021C0009542F7D3521CD1B2BDE83440184604F012
:1021D0008BBD2DE9F84F07464F4C002020706080E2
:1021E0004FF4807801F026FD01F0F3FCF8064FF083
:1021F000010922D5002001F000FF18B1207840F03D
:10220000100020700125E8B201F0F7FE80B16E1ECB
:10221000608809FA06F10843608045F08000C0B28A
:1022200001F0EBFE20B1608808FA06F606436680EE
:102230006D1C062DE7DB01F0CCFCB80639D500207B
:1022400002F013F818B1207840F02000207001252A
:102250004FF6FF770FF2C80B6E1E608809FA06FA78
:1022600010EA0A0F20D0E8B201F0FFFF40B929467A
:10227000584601F0C8FA608887EA0A010840608081
:1022800008FA06F6608830420ED045F08000C0B2F1
:1022900001F0EBFF40B929460FF29C0001F0B3FAC0
:1022A00060887E40064066806D1C062DD4DB01F000
:1022B00090FC2078BDE8F28F1748007870471648E8
:1022C0004088704730B5002206E08418835C65784A
:1022D0008554921C6370D2B28A42F6DB30BD10B5D1
:1022E00001460E4CA4EB61044FF07C5002F0A0FEBE
:1022F000214602F09DFE214602F09AFE01464FF073
:102300007F5002F005FF2146BDE8104002F090BE6C
:10231000000000008433002060340020DF59375F64
:102320004465766963655B25645D204D6167206463
:102330006561642E0A0D00004465766963655B255E
:10234000645D2D32204D616720646561642E0A0D45
:102350000000000010B584B00820ADF80000042192
:10236000ADF802109048914C0178890001916846BF
:102370008F490A689047002814BF00200298A06087
:10238000010008BF13200BD04FF6FF7004F03CFD96
:102390000FF2202310220A2104F12C0004F095FFF3
:1023A00004B010BD814A516819B900B150600020D5
:1023B00070471120704700003EB50B4600251146BE
:1023C00004281A46794C2ED8DFE800F0031A1F2D96
:1023D0002400142B25D104F10C0005F0C5FA0FF2EE
:1023E00085000290FF210A220191009204F12C0342
:1023F000A068002204F10C0104F020FD054613E062
:10240000012B0ED1087820700EE0012B09D108783D
:10241000607009E00C2B04D104F1200005F0A4FA4F
:1024200002E0182500E0022528463EBD10B5002434
:102430000B4604285D4912D8DFE800F003060811B6
:102440000B0014220C3106E0087800E04878187080
:1024500006E00C222031184605F086FA00E002243E
:10246000204610BDF8B50D460026287AC10617464D
:102470001C4601D50820F2BD069808B10B20F2BD1C
:102480006946284605F0C3FA012802D126800120BA
:10249000F2BDBDF800004AF63121401A05D0401EB9
:1024A000012806D9801E0AD011E0142020801422B1
:1024B00008E001202080E8680178397009E00C21EB
:1024C00021800C22E968384605F04EFA01E02680AA
:1024D0000A263046F2BD2DE9FE430E468046307A8C
:1024E0000024810691461F4648BF08202BD402A92C
:1024F000304605F08CFA012825D0BDF808100A985E
:102500002A4D42F60212891A41D048F22F12891A36
:1025100018D0491E04D0491E17D0491E25D041E0CD
:1025200040BB012F24D1F16899F800000870F068D1
:10253000A84207D10122686800281FBF016800294E
:10254000104688472046BDE8FE8398B9012F0FD179
:1025500099F8000008B98024F4E7F1680870691C54
:10256000F0688842EED10222E5E718B90C2F03D0BB
:102570000D24E7E70B24E5E7F06805F12001884228
:10258000E0D10C22494605F0EFF90422D3E70121FE
:10259000019100903B464A463146404604F0BAFC61
:1025A0000446CFE70A24CDE7C40B00200C06002028
:1025B0009C0B002065240000D724000000000000D0
:1025C000DFF800F013C10110DFF800F0F5C00110D2
:1025D000DFF800F049BA0110DFF800F025C2011061
:1025E000DFF800F0C1C20110DFF800F0E3BF011016
:1025F000DFF800F0B5C10110DFF800F0D5C0011020
:10260000DFF800F095C00110DFF800F00DA8011010
:10261000DFF800F0BDBE0110DFF800F021C10110AD
:10262000DFF800F02DBF0110DFF800F0E1B5011078
:10263000DFF800F0D5C20110DFF800F0D9C20110B8
:10264000DFF800F0F1C50110DFF8DC00007D704715
:1026500038B5DFF8DC00DFF8D4500068EFF3118400
:1026600080F31188A8680021FFF7CAFF6969081A7A
:10267000A969814238BF002084F3118832BD00006F
:102680002DE9F041DFF8A800DFF8A0400768EFF37C
:10269000118887F31188A0680121FFF7B1FF01219C
:1026A000A1830021E183656921682268461B801AA5
:1026B000691A884204D20020A08388F311882AE096
:1026C00088F31188002005E04519361A29460120B3
:1026D000FFF79AFF8642F7D2EFF3118887F311884C
:1026E000E18B012903D129460020FFF78DFFA16965
:1026F00010F1010F08BF084603D0801B814238BF8C
:1027000008464119FFF784FF012020840020A083A0
:10271000256088F31188BDE8F08101617047808AE7
:102720007047FFF765BF0000A4010020780100207A
:10273000BCD200000446DFF8CC00006870470000FF
:102740002DE9F84F04460D46FFF73EFF0646FFF71A
:10275000F2FFEFF3118780F31188D4F80880A845C1
:1027600002D187F3118847E0002DDFF8A49007D548
:10277000DFF8C40000684FF0000A00EB090B06E028
:10278000012000FA05FAD9F8180000EBC50B207DEE
:10279000012822D12046FFF73FFF206CFFF710FFF2
:1027A00028B1D9F80400E1688843C9F80400D9F8D1
:1027B0001000A04207D1C9F814B02146DBF8000090
:1027C000FFF7AFFF03E021465846FFF711FFD9F8A6
:1027D00004004AEA0000C9F80400A560C4F80CA08F
:1027E000C4F840B0002D44BF0020C9F814000120F7
:1027F000A9F8080087F311883046FFF7E9FE404644
:10280000BDE8F28FBCD20000DFF8301009687047D5
:102810000001002010280ED3A0F11002DFF82010D4
:10282000520901EB82011038012200F01F0002FA68
:1028300000F0C1F880027047E8050000BCD200003B
:1028400000E000E005F0FAB880B500230122342151
:10285000DFF8E80905F0B0FB00B10120C0B202BD0D
:10286000DFF8BC1A0A68002812BF42F001005008C5
:1028700040000860704700007047FEE710B582B066
:10288000042005F0CDFB022818BF03280DD103203A
:1028900000901C234FF040520021DFF8A00905F002
:1028A00068FBBDE81640042066E0DFF89419DFF805
:1028B000940A09680C18DFF88C19DFF88C0A09688B
:1028C000B0FBF1F12046FFF78BFE2046BDE8164035
:1028D000FFF78ABE80B5DFF870090078DFF86C0971
:1028E00001688908890041F00101016005F0A5FB3C
:1028F00005F02FFCDFF85819002008600220DFF8EF
:102900008C190968C9688847DFF8540A01684908C2
:102910004900016000F017FA042000F00FF900F000
:10292000B2BC00000022012904D1012807D1DFF840
:10293000600903E0012802D1DFF82C0A0268104682
:102940007047DFF8000A00797047000005F08ABB85
:1029500010B5DFF83C160968EFF3118481F3118894
:10296000DFF8E019C9880120012908BFFFF76CFFD3
:1029700084F3118810BD000030B5DFF81416DFF8BD
:1029800088390A68EFF3118182F31188B0FA80F276
:10299000C2F11F02D25CB0FA80F4C4F11F04551ECC
:1029A000E55405D1DFF89C29136823EA0000106084
:1029B00081F3118830BD00002DE9F041FFF724FFBD
:1029C000EFF3118481F31188DFF88019425C531E04
:1029D000435444D1DFF87819DFF8788901EB80059A
:1029E0002E786F88300618D5D8F80010096A384656
:1029F0008847D8F80010896A38468847D8F8001008
:102A0000096B38468847DFF8501901200860DFF865
:102A10004C0900688007FAD514E0700606D5DFF887
:102A2000B01951F82710002088470BE0D8F80010A3
:102A3000896938468847D8F80010496B3846884776
:102A40000228F8D106F03F003F2818BFFFF7B4FF77
:102A5000687800F03F003F2818BFFFF7ADFF84F310
:102A60001188BDE8F08110B508B1140001D1032030
:102A700010BD8160C26003610146DFF8E828DFF81D
:102A80004C0912681018FFF7CBFD002010BD0000A4
:102A9000F8B50446DFF8F804DFF8B0180068EFF383
:102AA000118580F31188625C531C6354002A3ED167
:102AB000DFF89C1801EB8407387800F03F003F28CE
:102AC00018BFFFF7E5FF787800F03F003F2818BFF8
:102AD000FFF7DEFF7E883878DFF87878010613D5B7
:102AE0003968C969304688473968496A3046884735
:102AF0003968C96A3046884700F038F8DFF85C0862
:102B000000688007FAD512E0400606D5DFF8C01845
:102B100051F826100120884709E039684969304694
:102B200088473968496B304688470128F9D185F3D1
:102B300011882046BDE8F24005F024BDDFF85014AE
:102B40000A68EFF3118182F31188DFF8F827136820
:102B500003431360B0FA80F0C0F11F00DFF8A8272C
:102B6000835C5B1C835481F311887047DFF8E8179E
:102B700001200860704700002DE9F04F83B04FF04E
:102B8000000800210128C1468A4618BF022412D13C
:102B9000DFF8FC03DFF834780268EFF3118082F38A
:102BA00011883A79012A06BF02223A71012180F385
:102BB000118809B10624BDE0FFF706FD0090012051
:102BC00000F0E6F8040002D001203871AFE0FFF712
:102BD00013FDDFF828180190C1F80090012005F0DE
:102BE0001FFA012804D1002005F0ACFC4FF00108C9
:102BF000DFF8E047DFF854572168896800208847EC
:102C000000F0A1F8687C08B14FF00109287C08B1F8
:102C100049F00209E87B08B149F00409E87ADFF8D5
:102C2000306718B1A16AF08D096B8847A87A18B18E
:102C3000A16A708D096B8847FFF798FF49F0200063
:102C4000A16A896988470120FFF70AFE3878C00722
:102C500048BF4FF0010A12D4DFF89807FDF746FA93
:102C60008346BBF1040FF7D000F067F880088000BE
:102C700008600321A26CDFF87C07526890470020AF
:102C800005F0BAFC00F05FF8A06A806B8047BAF1EB
:102C9000000F0AD1A26CDFF85C07526859469047D2
:102CA00000F04BF840F003000860012021688968BB
:102CB0008847DFF8440700688006FAD5B8F1000FAE
:102CC0001CBF012005F03EFCA16A496948468847BF
:102CD000A16A496B484688470128F9D1E87A18B1BA
:102CE000A16AF08DC96A8847A87A18B1A16A708D67
:102CF000C96A8847FFF73AFF0020FFF7B1FD0320BC
:102D00003871042000F044F8DFF8F0160120086064
:102D100000F019F805F07EFD082000F039F80446AF
:102D2000012038710198FFF77FFC05F0FEFC009848
:102D3000FFF74EFC2046BDE8FE8FDFF8D006DFF837
:102D4000CC1600687047DFF8A806006870470000DE
:102D500038B58F48DFF874560068EFF3118480F3BC
:102D60001188E888012803D105F0D0F90020E88017
:102D700084F3118831BD000010B5FFF745FDEFF376
:102D8000118481F31188FFF747FC84F3118810BD8B
:102D900038B500F02AF80818FFF712FC002540B9F2
:102DA000204600F008F820B1DFF868060068804788
:102DB0000225284632BD70B500F017F80D182846D8
:102DC000FFF736FC0646B068204206D03169F2684B
:102DD00020469047C0B2012806D03046FFF72CFCB1
:102DE0000646AE42EFD1002070BDDFF878150968C5
:102DF0000446DFF8D805704730BF704770B505F05E
:102E000005FDDFF840552E6806F00C000C284BD06D
:102E1000700727D4FFF71CFC044600210120FFF7B0
:102E200081FDA0421ED2DFF8C00300684519DFF81B
:102E300014040668DFF8D8050068B0FBF6F0211A24
:102E40002846FFF7CDFB2846FFF7CEFB4FF47A70FC
:102E5000B0FBF6F200210120FFF78EFE2846FFF7B7
:102E6000BBFB23E030071FD4DFF8F404DFF8E444B1
:102E7000DFF87C55F10601685ABF4908490041F066
:102E800001010160DFF88405016841F00301016080
:102E9000202021688969884728682068806B8047DE
:102EA00001202860286801E0FFF7A6FF05F0B2FCCA
:102EB000BDE8704005F064BC10B50C1805F0A6FC28
:102EC000401E8041C00FDFF860150A68002AFCD060
:102ED000246801220A6008B105F09CFC204610BD60
:102EE00080B50420FFF72AFE0820FFF727FE0E20FA
:102EF000FFF7CEFDDFF82005DFF820150068C0F3EE
:102F0000815003280CBF012000200880DFF8100545
:102F100002680AB1012002BDDFF8103540221A60B4
:102F20000122C2610020486002BD10B5DFF85C13C9
:102F3000DFF8F04482B009680968202088470F2034
:102F40002060072341F61D5060604FF4C0720220DC
:102F5000009000F0C9F8DFF8D80401210160016891
:102F60008907FCD501212161DFF8B04421880129BE
:102F700007D1002101610220202100F091F80120F9
:102F800004E00121002000F08BF80220606013BDF6
:102F9000BCD200002DE9F041DFF89804DFF87C4452
:102FA00082B0016842688A4342600161606800281B
:102FB00004BFBDE8F341FFF7B8BF0128DFF878147C
:102FC0001AD10220606008684BF2F52148436188FD
:102FD000000A11B10021618006E0DFF86014096881
:102FE000090210EB11204008DFF854140860000CAF
:102FF0004860012088600CE002280FD10868B0F515
:10300000C06F02D10020606045E00321616000F0E4
:103010006FF80121BDE8FC41002041E003283DD1CB
:10302000002060600868A0F5C065A06800F0B2F8F4
:103030000646284600F0AEF886422CDAA6692846F5
:1030400000F0ACF88019A061E56860697B4E8542AC
:103050000ED0A769A7F1100000F09CF88046206907
:10306000103800F097F8804502DABFB200970BE005
:10307000ADB2009508234FF47F423021304604F072
:1030800078FF206980B2009012234FF4F8020421E7
:10309000304604F06EFFBDE8F3418AE0BDE8F381FD
:1030A00070B50D46DFF89C4382B0032121600021FA
:1030B000DFF89463316031688907FCD480B20090F6
:1030C0000523602200F010F801203060306880078E
:1030D000FCD5A561002020600821DFF85003C16005
:1030E00001600120206073BD0021544804F041BFFD
:1030F00070B50646514C82B030212046FFF7DCFE09
:10310000DFF81853C0F30720E86004212046FFF7DA
:10311000D3FEC0F384402861A6F5C060A8602E6984
:1031200000F03CF88019A861A969E868022909DA69
:10313000401E6FF03F039842B8BF184610310BD5C0
:10314000002109E01E2908DB401C4028A8BF3F20C1
:1031500010392029A8BF1F21A9616861082380B206
:1031600000904FF47F42302100F011F801200090D0
:1031700011234FF4003200F009F8A86980B20090E2
:1031800012234FF4F80200F001F873BD0421204629
:1031900004F0EFBE002848BF4042704700284CBFF3
:1031A0006FF00101022101EB4000032190FBF1F0DF
:1031B000704780B5DFF87802002101600168890757
:1031C000FCD40021016041600120DFF85412086046
:1031D0000E20FFF7F1FB0820FFF7CEFBBDE8024011
:1031E0000420FFF7C9BB0000A0D2000010B50446C0
:1031F0000020D4E90A2347F6906105F013FB01296A
:1032000028BF4FF0FF3010BD10B50C4605F082FB13
:10321000011D201AB0F1004F05D8081BB0F1004F76
:1032200038BF8C4200D20C46DFF820221268526A66
:103230002146BDE8104001201047000000A00C40CE
:10324000A4D20000C0D2000070340020044003402B
:10325000401009402DE9F04180460A46D8E90A01AC
:10326000D8E90C45A0FB026701FB0277A6196F4164
:10327000340C002244EA07414046FFF7C5FFC8E985
:103280000E67BDE8F0814FF0FF3002BDA0010010D5
:10329000B0D20000F8B50546DFF8B801DFF8B86134
:1032A0000068DFF8B871EFF3118480F3118830689B
:1032B00040F0800030600120B96849688847F96AA9
:1032C000096A142088472869B0F5802F34BF04218B
:1032D000010CBA68526A012090473A6812682321AB
:1032E00000209047B968C96901208847306820F4F8
:1032F000E02040F480303060306840F00100306001
:1033000084F31188F1BD000034340020DFF854014B
:1033100003684068002200211018594170470000DE
:103320000C200840DFF82411DFF8240110B50968EB
:1033300044684968012088476069A169BDE8104078
:1033400008470000A40F0020A0860100D43300200D
:1033500010CE0000B8010010282008602820084086
:103360008C210840A8D20000B4D20000F8B5044671
:103370000D46FFF7CBFFD4E90A6732463B4605F01E
:1033800051FA3DB1A6FB002306FB013307FB0033D6
:10339000C4E90C23F2BD38B5DFF8BC40DFF8C050FB
:1033A0002068400840002060206840F080002060D5
:1033B0000120E062E06A2968496801208847696A5B
:1033C000096A14208847E06A31BD0000A40F00207C
:1033D000C40D00209001001080B500F004F8000C2E
:1033E00040EA014002BDDFF8800000688EE700007F
:1033F0002C20094000400340141009400C400940B3
:1034000009B9DFF86810FFF71BB900002422084053
:10341000B8D20000ACD20000B43F0050880F0020AA
:1034200004800C400C400C4000800C402C500C40A0
:1034300034600C4028500C4008400C4010200940DB
:103440003C600C4000400C4038600C408C01001087
:10345000E4010020BCD200000020094084010010DB
:103460008C01001008200940EC010020A0010000A0
:10347000DFF8FC14096821B10A898242FAD10846B2
:1034800070470020704700BF13B5044605F093F85D
:1034900018B1002000F002F806E008E0009001AB4F
:1034A00022464FF0FF31704700F00DF816BD4FF087
:1034B000FF3016BD00F007F80EBD08B582B000233E
:1034C000009302ABF6E777B58DB01C461498ADF8C3
:1034D000180000250F9828B92FE10EAA0DA800F0BA
:1034E0007BF96D1C00F034F9080000F020812529DB
:1034F000F3D100F02DF92D2905D10120ADF80600FA
:1035000000F026F902E00020ADF80600302904D1D1
:103510000120049000F01CF901E00020049000203C
:1035200000904FF0FF3002900A202A2918D121681C
:10353000216051F8042B2160009200F01AF9009AE2
:10354000002A11D50122ADF80620009A52420092BD
:103550000AE0009A00FB02113039009100F009F9ED
:10356000A1F130020A2AF4D32E291DD100210291A3
:103570000F990F9A0978521C2A290F9210D100F046
:10358000F2F80291002944BF0020029000F0E0F818
:103590000AE0029A00FB02113039029100F0E9F8CA
:1035A000A1F130020A2AF4D3049808B100980490DB
:1035B0006C2918BF4C2905D10120ADF8040000F09A
:1035C000C7F802E00020ADF8040008A807900CA896
:1035D000059000200390642918BF69290DD1BDF81A
:1035E00018000028FFD000F0B8F86FF00903029827
:1035F000049A8242B8BF049019E00A2375291FBFBC
:103600001023782908236F2903D1BDF8180038B991
:1036100006E0702913D1049320682060016814E04B
:1036200000F09BF8049A02988242B8BF0490049A72
:10363000059800F0A4F807900599081A2FE063296F
:1036400019D12068206001680FE0001D2060102360
:103650000598082200F093F8401E07904020079933
:10366000087005980799401A19E0001D2060079816
:103670000170012013E0732913D100F074F8079151
:1036800011B90FF2BC000790079805F055F90390A7
:10369000029810F1010F1ED0039988421BDA0390A3
:1036A00019E00F98401E0F900E98022813D302982D
:1036B00010F1010F02D00E99884201D30E9800E05C
:1036C000401CDFF8B462366802906B4622460FA9B0
:1036D0000DA8B047451900980399401A0090BDF80D
:1036E000060038B902E000F02FF86D1C0098401E6B
:1036F0000090F8D50398411E039150B10798401CE3
:1037000007900EAA10F8011D0DA800F065F86D1CB9
:10371000F0E7BDF8060000283FF4E4AE0098401E34
:1037200000903FF5DFAE00F00FF86D1CF6E70D9846
:1037300010B10D9900200870284610B070BD00002F
:10374000286E756C6C2900000EAA20210DA843E09C
:103750000F9810F8011B0F907047206820600168D7
:10376000001D206070472068206050F8041B206016
:1037700070470F990F9A0978521C0F927047F0B555
:1037800000240025002B44BF5B42002902D549429A
:10379000521E2D25B1FBF3F60FF2280703FB16117D
:1037A000641CC95D00F8011D31460029F2D1944224
:1037B000BEBF302100F8011D641CF8DB0DB100F81C
:1037C000015DF0BD3031323334353637383961621E
:1037D000636465660000000010B50C46116802299C
:1037E0000BD3491E1160016819B14A1C02600C70AC
:1037F00010BD04F0E0FE00B100E010BD2046BDE8C1
:10380000104004F0D6BE0EB400B501A9FFF73BFE90
:103810005DF810FBDFF86411096808470000DFF865
:1038200060010068004701207047FEE7704710B54F
:103830000446606808B9012010BD0B4601462068A7
:1038400048A200F077F8A1684118A16061680129D9
:10385000A4BF081A6060002010BD00003EB50D46F0
:103860004249098814468142034628BF0FF21C12C0
:1038700010D240490988814207D3FFF7F9FD21465C
:103880004268284600F056F83EBD3549098831B9EE
:103890000FF204122146284600F04CF83EBD394B89
:1038A0000095002C48BF47F6FF7400210291019457
:1038B0006A461B683449984702983EBD2DE9F84393
:1038C000170048BF47F6FF7704468846002664B3D2
:1038D000208818B13A46FFF7C1FF0646B91B0129F7
:1038E00022DB208820B120A2404600F023F8861970
:1038F000A068C8B1656875B1284605F01DF8A7EB4A
:103900000609401D814506DB2B460FF2A002494601
:1039100000F00EF88619B91B122905DBA3680FF217
:10392000940200F005F886193046BDE8F2830000E5
:103930004046FFE708B478B504001ABF2668002E99
:1039400000260D4605AB3046FFF7B7FD854238BF70
:10395000681E16B121684118216072BC5DF808FB31
:103960008A050000257300003A20000012050000BF
:103970001410002080040000CCD20000C4D200004B
:10398000C8D20000D0D200002F3800007B6D6F64D9
:10399000756C652325647D007B6D6F64756C652D8A
:1039A000726F70653A25787D000000002225732231
:1039B0002C2000006C696E652025643A2000000010
:1039C000DFF800F041AC0110DFF800F085C1011014
:1039D000DFF800F079B50110DFF800F0F5B801105C
:1039E000DFF800F0A9C1011000B583B00821ADF8DF
:1039F00000100522ADF80220019000F001F807BD8B
:103A000068464F490A6810472DE9F04389B080465F
:103A1000894617461D46109C119E0823242200212A
:103A20006846FFF7D1FF474906964FF47A700A6857
:103A3000B0FBF2F0454305954743ADF810406B46A7
:103A40003A4649464046FFF7C3FF404609B0BDE845
:103A5000F083FEF7C9BD38B504460D46FEF75FFE9C
:103A600010B12046FEF7B8FD00F027F82046BDE86B
:103A70003240FEF7B9BD80B5FEF751FE00B101201E
:103A8000C0B202BDFEF7A8BD70B504460D46FEF7F4
:103A900046FE20B12046FEF79FFD012600E00026ED
:103AA00000F00BF829462046FEF737FE26B12046E7
:103AB000BDE87040FEF798BD70BD224A10684FF413
:103AC0007A71B1FBF0F0454329462046FEF788BDE8
:103AD00010B504460021FFF77FFF204610BD70B5EA
:103AE0000C460421164684B00546ADF802100C229F
:103AF00008200192ADF80000FFF782FF58B9029943
:103B000049B18E602846FEF773FD14B12046FFF7D9
:103B100057FF012003E03046FFF766FF002004B0A6
:103B200070BD10B50446FEF74BFD38B92046FFF7CF
:103B300057FF8468FFF758FF204610BD002010BDD6
:103B40009C0B0020C0D2000070B5054605F00F04A4
:103B5000062C15DA14B96821012013E0DFF860683B
:103B6000B07FA04207D000F044F848B100F02CF834
:103B7000B47703F006F9AC4214BF6921682100E074
:103B8000D7E00020BDE8704003F0D9B810B500F0D0
:103B90000F04062C14DA200002D10C2101200BE0C6
:103BA00000F027F860B100F00FF8DFF81408847710
:103BB00003F0E7F80C210020BDE8104003F0BFB887
:103BC00003F0DFF8002010BD0120A040C0B203F0D8
:103BD00099B810B5DFF8E847A17F49B100F009F8BE
:103BE00010B1002003F08EF803F0CBF80020A0778E
:103BF00010BD7021002003F0A2B880B5DFF8C40723
:103C0000006801220C2105F086F8DFF8BC27DFF8F8
:103C1000BC171068B1FBF0F0FCF7F0FCBDE8024007
:103C2000002014E080B50C2005F08BF8012818BFA7
:103C3000002002BD10B5DFF88C47211D04F10C00F7
:103C400004F0D8FF20600020BDE81040FFE770B509
:103C5000054605F00F04AC421CBFA41DE4B2FFF7FB
:103C600073FF002856D0DFF858670020B07731196D
:103C70003055087301228020707706F11D016B20FA
:103C8000FEF792FA3CB9002000F04CF8052000F055
:103C900042F8002006E0042000F044F8062000F07E
:103CA0003AF804207077012206F11D011920FEF771
:103CB0007BFA03F066F8284600F09FF9040028D04C
:103CC0002846FFF741FF00B933E0707EC000B076B0
:103CD000012206F11A011C20FEF766FAF07EC000F0
:103CE0003077012206F11C011B20FEF75DFA03F07C
:103CF00048F8DFF8D4160A684FF4FA6000F0DCFAEE
:103D0000284600F03BFA284600F081FA284600F0E9
:103D1000FCF9204670BD7077012206F11D011D20BF
:103D2000FEF742BA7077012206F11D011A20FEF754
:103D30003BBA03F026F8002070BD3F2060770122D7
:103D400004F11D016C20FEF72FBA10B582B00446B5
:103D500000208DF80000FFF765FF18B903F011F897
:103D6000002016BD00F043F948B1012269463A200F
:103D7000FEF712FA08B98DF8000003F002F89DF87A
:103D8000000016BD2DE9F04D82B08A468046FFF74F
:103D900049FF08F00F0500282F4642D0062F40DAD1
:103DA000BE1DF6B2474518BF3746DFF81446E05D42
:103DB000E8B9BAF1000F1AD0AB46C34518BFB346F5
:103DC000FFF730FF88B14046FFF7BEFE78B100F044
:103DD000B3F950B1FFF7B1FF002104F80B1020B187
:103DE00000F043F808B100F046F802F0CAFF04F80A
:103DF00007A0E05D002833D0454518BF3546404652
:103E0000615DC9436177FFF79FFE60B3FFF797FFDE
:103E100002F0B7FF655DAD09FFF704FF05F001058E
:103E200010B902F0AEFF1EE00121404600F08CF90F
:103E3000C8B14046FFF7AAFE58B1002D19BF1620A1
:103E40008DF8000000218DF8001000F0B3FA02F0A8
:103E500098FF5FEA080006D0002100F075F902E043
:103E6000404600F052F9BDE8F38D012204F11A0139
:103E70001C20FEF799B9012204F11D013A20FEF73A
:103E80008BB9F8B5DFF838750546787E0126012430
:103E9000A84201D10120F2BDE800B876FFF7C2FECA
:103EA00018B902F06EFF0020F2BD00F028F80028DB
:103EB000F9D0012207F11A011C20FEF775F900F074
:103EC00063F8002CEFD07D760124204600F005F841
:103ED000641C062CF9DB3046F2BD10B500F02AF95F
:103EE00000B96DE600F083F840B10122DFF8E0147C
:103EF0001C20FEF759F900F05EF8204610BD0020A6
:103F000022E638B504460D46FFF78CFE00B970E096
:103F100000F06DF868B1062229463B20FEF73CF917
:103F200000F049F8200003D006212846FEF7CAF920
:103F3000204632BDF8B5DFF888740546F87E0126C4
:103F40000124A84201D10120F2BDFFF76BFE18B990
:103F500002F017FF0020F2BDFFF7D1FF98B1E80093
:103F60003877012207F11C011B20FEF71DF900F034
:103F70000BF804B1FD760024204600F00AF8641C1A
:103F8000062CF9DB3046F2BD08B90026002402F009
:103F9000F8BE10B500F0CEF800B911E600F027F831
:103FA00040B10122DFF82C141B20FEF7FDF800F0D1
:103FB00002F8204610BD044602F0E3BE38B50446C0
:103FC0000D46FFF72FFE00B913E000F010F868B1BE
:103FD000062229464320FEF7DFF8FFF7ECFF20001A
:103FE00003D006212846FEF76DF9204632BD204653
:103FF000AAE502F0C6FE002032BD10B500F09AF826
:10400000C0B1FFF7F4FFC8B1DFF8B443207E40B180
:10401000002121764CF25030DFF8AC130A6800F032
:104020004BF900F00DF87520FEF7B6F810B1607F7F
:10403000712800D0C4E502F0A4FE012010BD607715
:10404000012204F11D01704780B504F0D9FEDFF8AC
:104050007023537E032B13D8DFE803F002060A0E09
:104060000022DFF874330AE00022DFF8703306E044
:104070000022DFF86C3302E000224FF07D5339E07C
:10408000002002BD80B5DFF83823D37E032B27D86C
:10409000DFE803F0020A121A04F0B2FE00F030F872
:1040A0000022DFF8403316E004F0AAFE00F028F802
:1040B0000022DFF834330EE004F0A2FE00F020F816
:1040C0000022DFF8283306E004F09AFE00F018F82A
:1040D0000022DFF81C3301F0AFFD01F027F90146A3
:1040E000084602BD80B504F08BFE00F009F80022FE
:1040F000DFF8003301F0A0FDBDE8044001F016B97F
:1041000000224FF07C5301F097BD10B500F012F87B
:1041100058B1062C09DAFFF76AFF50B1A84CFFF737
:104120000CFE10B14F2000F008F8BDE8104002F07E
:1041300028BE10BD044675E509206077012204F110
:104140001D016B20FEF730B810B50C4600F00F01D2
:10415000062900DB34E5FFF7F7FC60B1202004B14D
:1041600022209749487701221D313720FEF71CF89D
:10417000FFF721FF00E00024204610BDF8B5FFF74F
:10418000D9FF04F00F0618B9BDE8F14002F0F9BDFF
:1041900000F066F8002829D0A6421CBFB61DF6B272
:1041A00000F05BF8F0B1864D934F0F20687700F078
:1041B00020F800F07DF8032239461020FDF7ECFFCF
:1041C00060B1387805EB46018030088407EB460083
:1041D000797880318180B9788031818300F00FF85F
:1041E00002F0CFFD2046BDE8F4403CE0F1BD1621D1
:1041F0006977012205F11D010A20FDF7D5BF0120D5
:104200006877012205F11D010B20FDF7CDBF70B5C8
:10421000FFF790FF04F00F0618B9BDE8704002F0F8
:10422000B0BDA6421CBFB61DF6B200F019F898B199
:1042300000F013F858B1624DFFF7E1FF00F038F8D5
:10424000A85D410601D5FFF7D2FF02F09AFD2000DC
:1042500002D0BDE8704006E070BD2046FFF796BC76
:104260000121204670E700216EE738B5FFF762FFB5
:10427000A0B1FFF7F5FFD0B1FFF7EFFF5249504D66
:1042800000F017F8FF206877012205F11D010020DA
:10429000FDF782FF10B1687F482800D0A9E602F040
:1042A00070FD20001CBF0021FFF74EFF012032BD32
:1042B00045490A6842F21070B0FBF2F0FCF79EB973
:1042C0002DE9F041804608F00F04062C84B00F461B
:1042D0000ADA44451CBFA41DE4B2394D2E1906204C
:1042E0003073FFF79FFC18B902F04BFD00205EE031
:1042F000002030735FEA08000AD00121FFF724FF95
:1043000010B90520307301E0307B08B101204EE088
:104310004046FFF73BFC012269460220FDF73CFFC7
:10432000002835D09DF80000C1072FD5072201A92C
:104330000320FDF731FF38B301A881790A0720D4A3
:10434000BDF80410398005EB4405B0F902207A80ED
:10435000B0F90410B980B7F90030B5F92000434333
:104360001B123B80244B1D1D35F9140042431212D1
:104370007A8003EB4402B2F91C0041430912B98070
:1043800008E00321317305E0042002E0022000E090
:104390000120307316208DF8000000F00BF802F0B9
:1043A000F0FC1CB100214046FFF7CEFE307B04B08C
:1043B000BDE8F081012269460A20FDF7F5BE000044
:1043C000700D0020A80D0020C0D20000A0860100C2
:1043D0008A0D00208C0D00200000103F0000203FBF
:1043E0000000303F00406F4000407F4000408F4061
:1043F00000409F4000C0B2407032002000B58FB036
:1044000008233C2200216846FCF7F0F8DFF8B407E7
:1044100000F1500107914FF440720121089206917A
:1044200000236A460FF20131FCF7E4F80FB000BD3B
:1044300030B585B002F0A8FC04F0F4FC04F074FD83
:1044400004F0DFFD0FF2C940DFF8744704F0D1FD3E
:104450000FF2C14004F0D1FDDFF86C0704F046FE16
:1044600030B94FF4804004F09CFF0120E07403E079
:104470000FF26470FFF7C7F90FF6641104F15800EA
:1044800004F0B8FB206518B90FF27870FFF7BBF99C
:104490006FF07E00607401210020A074ADF802105E
:1044A0000820DFF828170A68ADF800006846904732
:1044B000BDF8040020830298E06404F18800FFF74F
:1044C00007FB6065002104200190009100234FF458
:1044D0007A720FF2716104F16400FFF795FA01211D
:1044E0001F2003F019F80021ADF80C1001208DF801
:1044F00001008DF800000821ADF80A104FF4487053
:10450000ADF808000021ADF806106420ADF80400F5
:104510000121ADF802100DF1010240F2053004F066
:104520005BFF03AA022140F2063004F055FFDFF8DA
:10453000A02600F0D7FA22460E2140F2073004F000
:104540004BFF6A4601214FF4447004F045FF0DF122
:104550000A02022140F2113004F03EFF02AA0221B9
:1045600040F2123004F038FF0DF10602022140F251
:10457000133004F031FF01AA02214FF4457004F01A
:104580002BFF0DF10202022140F20F3004F024FF54
:104590000FF2FC720A21002002F0B7FEA0210620D3
:1045A00002F0BAFFA021072002F0B6FFA0210820E8
:1045B00002F0B2FFA021092002F0AEFF4FF0FF3061
:1045C00002F0A0FE4FF0FF3002F07CFE05F0A8FBE9
:1045D000FF22302104F11C00FBF76AFD04F11C02EC
:1045E0003021802003F076F948B10FF21470FFF704
:1045F0000AF904F11C023021802003F080F9002028
:1046000060750B2003F052F90FF290721121012016
:1046100005F08EFB0FF298752A460521022005F061
:1046200087FB2A460521052005F082FB0FF28872E0
:104630001421032005F07CFB0FF29C72082104205A
:1046400005F076FB0FF284720921062005F070FB5D
:10465000012000F03DF93020FDF7BBFD0546302D6F
:1046600008D105210F2000F049FA0FF2AC50FFF7F6
:10467000CAF808E00A210A2000F040FA29460FF2A1
:10468000AC50FFF7C0F8FDF71AFE01460FF2C0501C
:10469000FFF7B9F8A08B4FF6FF71884204D10FF2F3
:1046A000CC50FFF7B0F827E080070CD404F12002CB
:1046B0000C210420FDF780FE0420FBF7C2FFE08AF6
:1046C00040F00200E082207F410715D404F12C0263
:1046D0000F21042005F068FC04F13B020F210520A6
:1046E00005F062FC042001F0A5FB052001F0A2FB0F
:1046F000E08A40F00400E08205F070FD01F06EFBFE
:1047000004F1940005F037F8002002F09FFD208BA3
:10471000C0B202F098FD206D0FF2854104F01BFB42
:1047200005B030BD000000002DE9F04184B0FFF776
:104730007FFE0FF284510FF274500FF29055DFF8A4
:104740008C74DFF87C64FFF75EF84FF6FF780FE0BB
:104750000221002004F08DFD0221002004F09EFDC6
:104760000221002004F053FD0028F1D104F03AFDAD
:104770000820ADF800000A21ADF802104FF0FF301C
:104780000190684639688847002862D109210820CD
:10479000ADF80210ADF80000684639688847BDF8EA
:1047A0000610029C80BBBDF80400102804BF328BA9
:1047B000914216D12078912807D0B02802BF2179E4
:1047C00004F1080002F05BFF0BE060780E2802BFE6
:1047D000A18841F20540814203D1A06890F90310FD
:1047E00071748CB10820ADF80000032106E06078F8
:1047F00000F098F80820ADF800000521ADF802108F
:104800000194684639688847706DFDF7D9FEE0B9B4
:10481000706DFFF786F90400F6D020780128E6D005
:104820000228E7D16178A0780C290BD0E2D30E29B9
:1048300001D004D3DEE7717D08437075DAE701F03B
:10484000F9FAD7E7FBF7FDFED4E705F0E3FC01F04A
:10485000CBFB718B480727D54FF6FB700140718366
:10486000307C062812BF022806F16400FFF7F1F839
:10487000307C06280ED10221B174ADF80080694663
:1048800040F20E3004F0E8FEBDF80000404518BFCD
:1048900002F0BBFF307C022805D10321B1740F2048
:1048A000012100F02BF9307D718B08077FF560AF97
:1048B0004FF6F7700140718304F08DFC04F087FC23
:1048C000C0F30020002802D02846FEF79CFF47E7EF
:1048D00010B5BB4C0100206D0FD00122142104F053
:1048E0001AFA0120BB4920750A68BDE810404CF255
:1048F0005030B0FBF2F0FBF781BE0022142104F02F
:104900000AFA0020207510BD01460022012020E196
:1049100070470000AA48418B41F008014183C06CF8
:10492000FFF74EB87FB50546401E07280FF27C34CE
:10493000A34E00F2CB80DFE800F0044BC975755F31
:10494000C9BE05210F2000F0D9F802A94FF441702B
:1049500004F082FE02A94A789DF808008DF8012033
:104960008DF8000000208A788DF8022000228DF852
:1049700004208DF803204A798DF807200A79C97838
:104980008DF806208DF805106A46082105F0D0F94B
:104990009DF808109DF808008D4ACB0801EB1373B1
:1049A0001B09A1EB03110009D17490740A28ACBF54
:1049B0005721302108189074D07C0A28ACBF5721A9
:1049C00030210818D07400F08DF80FF280317BE0B0
:1049D00006F16400FFF74FF818B906F16400FFF71D
:1049E00038F8307D10B90120FFF772FF002000F089
:1049F000E0F80FF2643167E006F16400FFF73BF87E
:104A000018B906F16400FFF724F8306D00220F2179
:104A100004F081F90FF24C3100F069F80420FEF740
:104A20008DF853E000F0B2F80FF2443100F05FF877
:104A3000B07C02280AD00FF2443100F058F8002070
:104A4000FFF746FF0420FDF797FF3FE0747D01204C
:104A5000002CB0743AD0E0070DD506F120010420F7
:104A6000FDF7E4FCB18B4FF6FD700140B183F08A95
:104A700040F00200F082A00706D506F12C010420C8
:104A800005F0D2FA00F024F8600706D506F13B01E4
:104A9000052005F0C9FA00F01BF806F11C023021D0
:104AA000802002F02CFF18B10FF27820FEF7ABFE49
:104AB000002070750AE000F069F8306D01220A21CB
:104AC00004F029F90FF2C02100F011F835747FBD10
:104AD000B18B4FF6FB700140B183F08A40F00400C7
:104AE000F08270471D214FF4427004F075BC2046DF
:104AF000FEF789BE0A46014602202AE02DE9F04170
:104B000004460D4600262E4F16E0386D0122214640
:104B100004F001F92F4A106844F62061B1FBF0F867
:104B20004046FBF76BFD386D0022214604F0F3F898
:104B30004046FBF763FD761CF0B2A842E5D3BDE822
:104B4000F08100001E494A8B10434883C86CFEF771
:104B500037BF70B50D460421164684B00446ADF843
:104B60000210032208200192ADF8000068461749A0
:104B70000A68904748B9029A3AB114705570967015
:104B80000F48C16C406DFEF7AAFF7FBD80B5FBF7F3
:104B90000FFE01F0B3F9BDE8014005F069BB00006C
:104BA000042902D0112902D0704705F018BB01F08A
:104BB000F4B9034A50730E2140F2073004F00CBCE4
:104BC00048070020F02500209CC800009C0B002016
:104BD000E0070020C0D20000436F6E74726F6C6CEF
:104BE00065725F53656E736F72436F6E74726F6C34
:104BF0006C6572496E6974204661696C65642E0A41
:104C00000D00000050494E5F6F70656E204661696F
:104C10006C65642E0A0D000073656C6654657374D0
:104C20004D617020506173732E0A0D0073656C66C0
:104C3000546573744D6170204661696C65642847E2
:104C40006F74203A30782578292E0A0D0000000074
:104C500046696754657374526573756C74203A20A5
:104C6000307825303478200A0D0000004469646EE5
:104C7000742066696E642043616C69627261746954
:104C80006F6E206461746120696E20466C61736888
:104C90002C204D6179206361757365206F666673A2
:104CA0006574206572726F722E0A0D004C43443A8F
:104CB00025730A0D00000000436F6E74726F6C6CF8
:104CC00065722053746172740000000053656E7346
:104CD0006F7220436F6E74726F6C6C6572204F76CA
:104CE0006572666C6F77206572726F72206861738F
:104CF000206F63637572726564210D0A0000000005
:104D0000436F6E74726F6C6C65725F526561644361
:104D1000616C6962726174696F6E204572726F7244
:104D20000A0D0000436F6E74726F6C6C65725F5396
:104D3000746F726543616C6962726174696F6E2031
:104D40004572726F722E0A0D00000000496E697480
:104D500069616C697A65640041647665727469732F
:104D6000696E6700436F6E6E656374656400000072
:104D700057616974696E672E2E2E0000506F77653B
:104D800072206F66662E00004572726F720000001E
:104D90004672656520577269746500004343323678
:104DA00035302046726565577269746500000000F1
:104DB0004E2E412E00000000312E302E3120284D85
:104DC0006179203130203230313829005350494543
:104DD000204C41420000000050434220322E30005F
:104DE0000F0880860A088086042007C01408C08047
:104DF000112007C0FF000000E0B50821ADF8001049
:104E00000422ADF802200190684635490A689047AF
:104E100008B100200EBD02980EBD38B5314D324CA0
:104E200028788000FFF7E8FF206028788000FFF7EF
:104E3000E3FF21686060002918BF002801D113201A
:104E400032BD4FF6FF75284601F0DEFF6168284647
:104E500001F0DAFF04F1200001B0BDE830400FF2AC
:104E600048131022072102F030BA204A116819B9FC
:104E700000B1106000207047112070473EB50B460E
:104E800011460FF26D05184C10B103280CD01CE030
:104E90000C2B18D10C2204F1080002F065FD00F083
:104EA00016F804F108010AE00C2B0CD10C2204F1D5
:104EB000140002F059FD00F00AF804F11401206812
:104EC00001F0BCFF3EBD18203EBD02203EBD0721C3
:104ED0000091FF200295019004F120030022704709
:104EE0009C0B0020C40B0020E00C00205834002054
:104EF000F8B50D460026287AC10617461C4601D58E
:104F00000820F2BD069808B10B20F2BD694628467C
:104F100002F07DFD012802D126800120F2BDBDF8FE
:104F200000004AF63D21401A01D0401E07D10C2056
:104F300020800C22E968384602F016FD01E0268048
:104F40000A263046F2BD2DE9F0410D4684B00446F4
:104F5000287A002781061646984648BF08201FD4A5
:104F600002A9284602F053FD012819D0BDF8080017
:104F700042F60211401A05D048F23B11401A0128AE
:104F80000DD90BE00A980090012101914346324669
:104F90002946204601F0BEFF074600E00A273846B2
:104FA00004B0BDE8F0810000F14E0000474F000062
:104FB00000000000F0B402461068956813185068AD
:104FC00003EB5004C00721D54D441FE0F0BC02F1B3
:104FD0000C00704713F8017B05F8017B491EF9D1DD
:104FE000A0B1B60813F8011B06F00306032E08BF94
:104FF00013F8016B01EB06214942801C294405D0BE
:1050000011F8016B05F8016B401EF9D1A342DDD008
:1050100013F8016B16F0030104BF13F8011BC91C40
:1050200030090F28DAD113F8010B0F30D6E7000052
:10503000FF2212EAD05C1DBF12EAD153944593427D
:105040002BE09C44D30780EA01021A4043EA002087
:1050500043EA0121A1FB0030C04238BF40007CF18F
:105060007F010BDBFE294ADA5B0842EAC15153EAB1
:10507000006373F1004C51EB10207047D1F1080C24
:10508000DCF120012FDB5B0810FA01F10B4320FA61
:105090000CF073F100415041704794451CBF02EA87
:1050A000D153934280EA010202F000421DD0400039
:1050B00019D0490017D05BB9634514D00902B1FA81
:1050C00081F39940BCEB030CC00140F00040C1E704
:1050D0000002B0FA80FC10FA0CF0B3EB0C0CC90122
:1050E00041F00041B6E71000704740000AD0490087
:1050F00008D010F1807F94BF11F1807F02E042F070
:10510000FF407047D04370470022FAF7D5BF000038
:1051100090EA010F40F1D48181F00041421A3CBF76
:10512000801A89184FF0004CC0F3C752FF2A24D0D0
:10513000C1F3C75313B3D21AD2F1190327DD4CEAD6
:1051400001214CFA03F321EA0303D140C20D4CEADA
:105150000020401834BF20EA0C004CEA5000D20571
:1051600053EA006373EB0C0C52EB1020420012F177
:10517000807F38BF7047C00DC0057047490212BF1D
:105180009A4200EB5120F8E7D2F11703D9D57047C6
:105190004FF0807C1CEB400F94BF1CEB410F05E0EF
:1051A00040EA010C1CEB0C0F01D28142704718BF82
:1051B0008842704770B44FF0004591EA030F41F107
:1051C00077846B40841A71EB030604D26E40001B97
:1051D000B141121973414FF4001C1CEB410F34BF55
:1051E0007CEB430682E00C0DA4EB1356362E7BDCE1
:1051F000012E45EAC32341DC43EA525312BFD202D7
:1052000092025B08240545EAC12141EA5051D2EBE4
:10521000C020994125D407D1B0FA80F610FA06F1E2
:1052200062D00020203608E0B1FA81F6B140C6F124
:10523000200220FA02F21143B0404FEAF474B4EBBA
:10524000465434F001064FEA74040AD8D6F5001625
:10525000760D04F00044F04061FA06F25040F1404F
:105260004840C00A40EA415021F0004128BF5FEAAF
:10527000500550F1000044EBD12135E0DB0A45EA4E
:10528000C121C90AB6F120050EDD42EA0242120C24
:10529000C5F1200603FA06F6EB4042EA06056D4228
:1052A000984161F100010DE062FA06F5F2405540C7
:1052B00063FA06FC82EA0C02F3405A406D429041C8
:1052C00061EB030111F4801F05D1641E620502D059
:1052D0006D004041494121F48011430875F10043BC
:1052E00050F1000041EB045170BC70471CEB410FC2
:1052F00015D223F0004352EA43060BD04FEA4C0C80
:10530000BCEB410F04D80C0D661E342EB7DDEBE765
:10531000801A994150EA410608BF0021E4E708BF1E
:105320001CEB430F28BF6FF00001DDE701F00042E6
:105330008B1AA3F16051B1F5801F0ADBB1F17F6FC9
:105340001FD242EAC102C10071F1004142EB50702C
:1053500070470B15C3F10903212B10D2890241EAD2
:10536000905180020128494141F0004121FA03F0A7
:10537000C3F12003994071F1004150417047100082
:1053800070476FF0000013EB103F5CBF000E42EA65
:10539000C05070474FF0807C1CEB400F94BF1CEB5B
:1053A000410F05E040EA010C1CEB0C0F01D28842D2
:1053B000704718BF8142704710B5FF2313EAD054DD
:1053C0001DBF13EAD1529C429A4239E0A41ADA076F
:1053D00080EA0103134042EA012142EA0020421A16
:1053E0003CBF641E01EB4202090AB2FBF1FE01FB65
:1053F0001E221202B2FBF1F001FB10226EF30F200D
:105400001202B2FBF1FE4EEA00207F3406DDFE2CD4
:1054100024DA53EA500050EBC45010BDD4F102041A
:1054200001FB1E2240F08071192C1DDC21FA04F0D2
:10543000C4F12004A140114371F10042584110BD54
:105440009C421ABF03EAD1529A420FE080EA010E51
:105450000EF00043400004D0490016D143F0FF4055
:1054600010BD490008BFD343180010BD9C4205D1B0
:10547000D21AF7D001F00041484010BD4A0212BFD5
:105480000846484000F0004010BD4AB90902B1FA90
:1054900081F2914044B1A418C00140F000409EE761
:1054A000C90141F0004152420002B0FA80F4A0402C
:1054B000141B94E790EA010F7FF530AE81F00041B4
:1054C000431A4FF000423EBF5340C01AC91800BFF4
:1054D000D3095FEAD05C13EB400F34BFB3EB410F4D
:1054E00040E07CEBD1530CD342EA012122D8D1EB2E
:1054F000402009D3400A28BF5FEA500140EBCC505E
:105500007047401A15D04002B0FA80F2521C904009
:10551000400A4FEA3C23B3EB026384BF00EB730005
:1055200007E040F400001A16DB07C2F10102D04088
:1055300018437047182BFCDC31FA03F202FA03F32C
:10554000591A38BF42F00102D2EB40203CBF400064
:10555000ACF1010C5FEACC5CC20572F100414CEB8E
:105560005020704713EB400F0FD2C94209D0ACEB6B
:10557000D153022B03DB4902172BDDDD704791432A
:10558000401AC042D5D10020704713EB410FD0D351
:105590006FF000007047000000280AD0B0FA80F1D8
:1055A0008840D1F19D01C905020672F1004241EB2C
:1055B000102070472DE9704C044648004015401CEF
:1055C00084B00D4601D1090324D125F00043002009
:1055D000002124F000028B4208BF82421AD0E80F5B
:1055E0001ABF25F0004508260026294600229142D0
:1055F00004DA4FF00043101B63EB01014FF07953C5
:105600009342BCBF4FF0004060EB030399429246C7
:1056100003DA2EBB2046294667E0DFF8D4B000202D
:10562000594622462B4601F03BFACDE90001002203
:105630005B4620462946FFF7BDFDDDE9002300F06B
:10564000FBFA01F0ADFACDE902012A492A48514599
:105650000ADA4FF00043BAEB000063EB010103E00C
:1056600085F00041204640E0CDE900012946514542
:10567000204605DA4FF00043BAEB000063EB01016E
:10568000DDE900238B4207DB01DC824204D3DDE944
:105690000223204629461AE0D345BCBF4FF0004103
:1056A00061EB0B0B29465145204605DA4FF00043CC
:1056B000BAEB000063EB01018B4510DB01DC824596
:1056C0000DD3DDE9020186F0020622462B4601F0E9
:1056D000C3F8324604B0BDE8704C04F0FDBDAFF332
:1056E00000804FF0FF306FF0004104B0BDE8708CD7
:1056F0000000F03F9EA0E63FCD3B7F662DE9F04CD9
:10570000044658004015401C83B00D4643D0680045
:105710004015401C3FD0C80F1ABF25F00045082691
:105720000026D80F1CBF23F0004386F0060619465A
:105730000027B94207DA4FF0004BB81A6BEB0101B2
:10574000CDE9000101E0CDE900212946B94220461A
:1057500004DA4FF0004B381A6BEB0101DDE900ABC6
:105760008B4509DC01DB824506D2104619462246EC
:105770002B4601F071F83DE023F0004B00200021A2
:1057800022F000078B4508BF874235D020462946C6
:1057900001F062F830E048004015401C04D10903D4
:1057A00002D0204629462FE058004015401C04D165
:1057B000190302D01046194626E058004015401C37
:1057C00009D1190307D168004015401C03D12903F2
:1057D00008BF0C4901D000200021EE0F18BF082699
:1057E000DA0F18BF86F006066B005B155B1C03D151
:1057F0002A0301D186F00206324603B0BDE8F04C20
:1058000004F06ABD0000F03F03B0BDE8F08C00007A
:105810002DE9F04D04460D469046DFF88803DFF889
:10582000881322462B4600F007FA0F4627F0004166
:10583000DFF87823DFF8783300F0F6FF064662D20F
:10584000DFF8703307F000410B4300223946FFF7C1
:10585000B1FC04F069FE5FEA000A51D003F0D0FA0F
:105860000022D54B00F0E8F906460F464FF0A04065
:10587000D24932463B4600F0DFF902460B4620464D
:10588000294601F00DF904460D464FF0C040CC49C1
:1058900032463B4600F0D0F902460B4620462946E8
:1058A00001F0FEF804460D464FF00050C54932465F
:1058B0003B4600F0C1F902460B462046294601F05E
:1058C000EFF804460D460020BF4932463B4600F043
:1058D000B3F902460B462046294601F0E1F804469A
:1058E0000D464FF00050B94932463B4600F0A4F94E
:1058F00002460B462046294601F0D2F804460D46E2
:105900000AF00300ACE068004015401C0CD16800B0
:105910004015401C02D1290340F040814FF0FF3078
:105920006FF00041BDE8F08D25F00041002224F029
:105930000000914208BF904206D1B8F1000F00F07C
:105940002D810024A24D29E139469A4B07F00047EA
:1059500030463B43FFF72EFC0F464900064641EA1E
:10596000D071400000220023994208BF904217D016
:1059700040F23342A2EB5150352804DB06F000061A
:1059800007F000470CE0202803DD2038C74087409F
:1059900000E001D1002603E00128A4BFC6408640F4
:1059A00027F0004126F00000994208BF984251D0EC
:1059B0000020814932463B4600F03EF982468B4644
:1059C0004FF0A0407D4952465B4600F035F9024653
:1059D0000B462046294601F063F804460D464FF079
:1059E000C040774952465B4600F026F902460B4616
:1059F0002046294601F054F804460D464FF0005069
:105A0000704952465B4600F017F902460B462046A5
:105A1000294601F045F804460D4600206A495246E1
:105A20005B4600F009F902460B462046294601F084
:105A300037F804460D464FF00050644952465B4625
:105A400000F0FAF802460B462046294601F028F8F5
:105A500004460D463046394604F066FD00F003006A
:105A600025F0004100229142804404DA4FF00043C7
:105A7000101B63EB01014FF079539342BCBF4FF011
:105A8000004767EB0303994208F0010A05DABAF10F
:105A9000000F7BD000244E4D78E022462B46204656
:105AA000294600F0C9F8BAF1000F06460F4631D07A
:105AB0004848494932463B4600F0BEF8474A484B01
:105AC000FFF778FB32463B4600F0B6F8454A464BB6
:105AD000FFF770FB32463B4600F0AEF8434A444BBA
