:100000005844002031D7000001CA011001CA011074
:1000100001CA011001CA011001CA011001CA011070
:1000200001CA011001CA011001CA011001CA011060
:0C00300001CA011001CA01103FCA0110F2
:10003C005FF0FF0C1CEAD05114BF614506E0C11003
:10004C00400721F0E04101F16051704779B900F0AF
:10005C00004100020AD0B0FA80FC00FA0CF001F169
:10006C006051A1EB0C5101EBD021400570474102CE
:10007C000CBF40F4E0016FF0000100207047FF7FDF
:10008C004100090E7F3915D4D1F11F0114D4400061
:10009C0007D2C00140F00040C84048BF6FF000409C
:1000AC007047C00140F00040C8404CBF4FF00040CA
:1000BC00404270470020704700424FF0004058BF4C
:1000CC00C0437047004000000A18232A242A252A1E
:1000DC00262A272A282A292A2A2A502A02000000FE
:1000EC00D400000070470120704700001000000091
:100100003C0000000000000000000000340100007E
:1001100000000000000000000100000000000000DE
:1001200000000000000000000000000001000000CE
:0C013000000000000800000000000000BB
:10013C003400000000000000000000006801000016
:10014C0000000000000000000100000000000000A2
:10015C00010000000000000000000000080000008A
:04016C00000000008F
:1001700030000000000000000000000098010000B6
:10018000040000000000000001000000FFFFFFFF6E
:10019000FF00000001000000080000000000000057
:1001A0002C0000000000000000000000C40100005E
:1001B000040000000000000001000000FFFFFFFF3E
:0C01C000FFFFFFFF08000000000000002F
:1001CC0034050000E401000099A1011095A701106D
:1001DC00A5C2011009B2011045B8011000000000C1
:0801EC00000000002E000000DD
:1001F40028000000000000000000000014020000BD
:100204000000000000000000FFFFFFFF00000000EE
:080214000800000000000000DA
:10021C00300500003002000069C201106DC10110F0
:10022C001FC2011095BA0110000000000000000070
:04023C00300000008E
:10024000300500005402000075C20110A9B601106B
:100250009DBF011049B60110000000000000000021
:040260003100000069
:1002640024000000000000000000000080020000E4
:100274000000000000000000000000000800000072
:040284000000000076
:10028800240000000000000000000000A40200009C
:10029800000000000000000000000000080000004E
:0402A8000000000052
:1002AC00240000000000000000000000C802000054
:1002BC000000000001000000000000000800000029
:0402CC00000000002E
:1002D00000000000940F0020040000000000000057
:1002E000000000002000000070010000300000004D
:1002F0001C0200009C0F0020040000000000000011
:10030000000000000C000000300400001800000095
:1003100040020000A40F00200400000000000000C4
:100320000000000024000000480400001800000045
:1003300000000000AC0F00200400000000000000DE
:100340000000000010000000A00100002C000000D0
:10035000CC010000B40F00200400000000000000E9
:1003600000000000200000006402000024000000E3
:10037000FFFFFFFFBC0F0020040000000000000092
:100380000000000028000000880200002400000097
:10039000FFFFFFFFC40F002004000000000000006A
:1003A00000000000580000003C0100003400000084
:1003B000FFFFFFFFCC0F0020040000000000000042
:1003C00000000000100000006004000018000000A1
:1003D000FFFFFFFFD40F002004000000000000001A
:1003E000000000001C000000AC020000240000001F
:1003F000FFFFFFFFDC0F00200400000000000000F2
:100400000000000038000000F40100002800000097
:10041000FFFFFFFFE40F00200400000000000000C9
:100420000000000054000000000100003C0000003B
:100430001800000000000000000000004004000060
:080440000800000000000000AC
:100448001800000000000000000000005804000030
:08045800080000000000000094
:100460001800000000000000000000007004000000
:0804700008000000000000007C
:08047800020000008CD7000017
:01048000007B
:040484000100000073
:0404880000000C0064
:04048C0000000D005F
:040490003200000036
:040494000200000062
:04049800280E00200A
:04049C00000200005A
:0404A000D9D40000AB
:0404A40001CA011078
:0404A8000000000050
:0404AC00000000004C
:0404B0000800000040
:0404B4000000200024
:0404B800F00D002023
:0404BC00010000003B
:0404C0005C0F0020AD
:0404C400080000002C
:0404C8000000000030
:0404CC00000000002C
:0404D0000000000028
:0404D4000000000024
:0404D8000000000020
:0404DC00010000001B
:0404E000580E002092
:0404E400060000000E
:0404E800010000000F
:0404EC00240D0020BB
:0404F0000000000008
:0404F4000000000004
:0404F80000020000FE
:0404FC0000000000FC
:020502002A00CD
:020504000100F4
:020506002500CE
:020508003000C1
:02050A003100BE
:02050C002E00BF
:02050E000100EA
:0105100001E9
:02051200704730
:080514000400000070D7000094
:08051C000000000000000000D7
:0405240000000100D2
:0405280000000300CC
:04052C0087C401106F
:04053000380500008A
:040534003805000086
:0405380000000000BF
:04053C00800000003B
:040540008000000037
:0405440000000000B3
:040548005C0F002024
:04054C005B7E0000D2
:040550002000000087
:0405540048D7000084
:040558003CD500008E
:04055C000DC30110BA
:040560002B37000035
:040564002D3700002F
:0405680099C801101D
:04056C009BC8011017
:040570000000000087
:0405740080040000FF
:04057800ACD2000001
:04057C00C4D20000E5
:0405800094D2000011
:0205840008006D
:0205860009006A
:02058800010070
:02058A0000006F
:01058C00016D
:040590000000000067
:040594000000000063
:04059800000000005F
:04059C00000000005B
:0405A0000332000022
:0405A40069320000B8
:0405A800E53000003A
:0405AC009332000086
:0405B00049310000CD
:0405B4000131000011
:0405B800913100007D
:0405BC00D532000034
:0405C000D97D0000E1
:0405C400478100006B
:0405C8004B81000063
:0405CC000800000023
:0405D0002400000003
:0405D400180000000B
:0405D80028000000F7
:0405DC0020000000FB
:0405E0003C000000DB
:0405E4000C00000007
:0405E80034000000DB
:1005EC00DFF800F0D9C10110DFF800F025B10110DF
:1005FC00DFF800F06DA90110DFF800F0D9B601109A
:10060C0000B58FB008233C22002100A8FFF7E8FFBB
:10061C00DFF85C0E00F1EC01079100234FF416712A
:10062C00089100AA012106919C300FF2C511FFF729
:10063C00DBFF0FB000BD10B5012886B0DFF8304EDF
:10064C0004D0022864D004286FD089E001F0ADFDFD
:10065C00C00609D4FF206075002020750122617D41
:10066C00012000F0D9F97BE000202075607DFF2887
:10067C00F4D004A9012001F052FE9DF8100058B9E5
:10068C000FF2E00003F039F804F1780003F076F98A
:10069C00002003F04DFA35E080282FD0002003F025
:1006AC0047FA002003F018FD7F21002003F0CEFA5A
:1006BC009DF81000C0F3410003F04CFB9DF81000B6
:1006CC00C0F3C10003F0A5FB0020A065E065206627
:1006DC006066A066E0666063A063E063012104F1DC
:1006EC009C0001F0A5FF04F1780003F029F99DF8B6
:1006FC001000400606D50120207503E0607D08B18E
:10070C000120E0759DF81000802829D0607527E045
:10071C0004A901F004FE9DF8100000EB800189B2E1
:10072C0004F1780003F02CF91AE004F1280101F02F
:10073C00F6FD206BFFF77CFCCDE90201E06AFFF7C8
:10074C0077FCCDE90001A06AFFF772FC02460B466C
:10075C000FF2200002F0D1FF01210E2004F05DF910
:10076C0006B010BD414852532053746F702E0A0DC1
:10077C0000000000476F7420426F617264204D616D
:10078C00672043616C6962726174696F6E204461A9
:10079C007461203A2025662C2025662C2025660ABB
:1007AC000D00000010B50FF23800DFF8C44C02F059
:1007BC00A4FF002060751422002100F02DF9012205
:1007CC00617D104600F028F90020A07503F095F922
:1007DC0003F0ABF900206063A063E063E07410BD2C
:1007EC00414852532052657365742E0A0D00000067
:1007FC002DE9F04387B003A8002100220B460EC060
:10080C000820ADF800000120DFF8DC1CDFF8604C9C
:10081C000968DFF8D87CDFF8D88CADF8020004F555
:10082C00567500A8884701F00DFD04F088FA28469B
:10083C0001F030FD284604F0AAFA00200190009047
:10084C004FF47A731A460FF2F11104F1780003F0A9
:10085C0053F8FFF7A7FF01226421022000F0DCF817
:10086C0004F19C0500F0CFF80020608204F551796A
:10087C004FF4F070FFF7BCFE03AE0CE004F178000F
:10088C0003F075F818B904F1780003F059F84FF437
:10089C007A70FFF7ADFEA07D00285ED0039801F0C2
:1008AC004AFAFFF7EDFB20804146706804F016FB16
:1008BC00FFF7E6FB60804146B06804F00FFBFFF7E2
:1008CC00DFFBA080A21DA06D00900C21BDF90000E3
:1008DC00E080BDF902002081E06D00F08CF8206E04
:1008EC0000F081F8002004F05BFA206C0090A21D4F
:1008FC00BDF90000E0800C21BDF902002081606C84
:10090C0000F079F8A06C00F06EF8032004F048FABF
:10091C00207D38B9606B00F05EF8A06B00F06BF8CE
:10092C00E06B06E0E06C00F056F8206D00F063F828
:10093C00606D00F058F83888800703D5E07C40F0F3
:10094C004000E07422461421002001F0ACFCE07C55
:10095C0000F0FE00E0740020A075E07D20B10020C6
:10096C00E0756063A063E06303F0D7F818B3002070
:10097C0003F04FF9C0071ED5607D00B34946002037
:10098C0003F088FA04F24A31002003F026FA04F549
:10099C005471002003F0FEFB48B1022803D0002064
:1009AC0003F09AFB07E06420FFF722FE03E003A9A3
:1009BC00484600F046F8607D00287FF45FAF04F1F4
:1009CC00780002F0D4FF18B104F1780002F0D6FFE1
:1009DC0000F019F85FE70090BDF90000E080BDF968
:1009EC000200208170470090BDF90000E081BDF944
:1009FC000200208270470090BDF900006081BDF9B3
:100A0C000200A08170474FF0FF31284601F010BE64
:100A1C0001460C2004F001B830B5154685B00446EB
:100A2C000A46294600A804F0C5FA00AA2946204621
:100A3C0001F039FC05B030BDDFF8341A012088759F
:100A4C0070472DE9F24F94B005460AA8242104F012
:100A5C00CFFA002006900AACFFF7CEFD0890DFF825
:100A6C00106AB5F9000003F07BFA0A90B5F90200A0
:100A7C0003F076FA6060B5F9040003F071FAA06037
:100A8C00B5F9060003F04EFAE060B5F9080003F082
:100A9C0049FA2061B5F90A0003F044FA6061B5F92E
:100AAC000E0003F08DFAA061B5F90C0003F088FA82
:100ABC00E061B5F9100003F083FADFF8381A04F09E
:100ACC000DFA2062B16AA06904F096FA0546E06955
:100ADC00F16AA56104F090FA0746206A316BE76170
:100AEC0004F08AFAF564376520627065E16865691F
:100AFC00276901F03AF9804601F045F901F047F910
:100B0C0001F05EFA01F004F901F062FB00F0D4FC94
:100B1C000A99A5686768804601F027F9814601F0BB
:100B2C0032F901F004F901F04BFA01F0F1F801F09F
:100B3C004FFB0546DFF8C00901F00BF90746DFF85B
:100B4C00BC0901F006F900F0B7FC0990DFF8B01908
:100B5C00DFF8B059AA6D384604F0C2FA98BF4FF0CE
:100B6C007E5700F0A1FC0AD2FFF762FADFF8982951
:100B7C00DFF8983904F0C6FA04F038FB0246384620
:100B8C00114604F07BFB38BF3A46AA65104601F0CB
:100B9C00BFF800F099FC079041462F79D4F80890E3
:100BAC00D4F804A0781C2871404604F097F90A99EF
:100BBC0001F0DAF801F0A6F801F0DFF801F0A2F884
:100BCC0001F0D6F801F0A1F801F002FB00F074FC82
:100BDC0005EB87010027C8640321287990FBF1F10C
:100BEC0001EB4101401A287105EB8700DFF8201951
:100BFC00C06C04F055FB069904F0D0FB7F1C032F4E
:100C0C000690F1DB0898696CDFF808A9DFF808B9E1
:100C1C00401A263004F00EFCDFF8001904F040FBFB
:100C2C003067206AE7680490E0690390A06902903D
:100C3C006069019020690090A068FFF7F9F900F055
:100C4C0091FC04F0D3FA81466068FFF7F1F900F0EB
:100C5C0089FC04F0CBFA05900A98FFF7E9F95246A3
:100C6C005B4604F0F7FB04F0C1FA05993B464A4693
:100C7C0000F094FCFFF7C0FC68644FF0804AB76941
:100C8C00D6F81C9001F07FF8834601F072F801F061
:100C9C0039F8316A01F068F801F041F801F063F8B5
:100CAC0001F03DF8FFF7C4F9CDE90001306A01F01D
:100CBC0061F88146706A01F067F801F038F801F0CC
:100CCC005EF8FFF7B5F9DDE9002304F095FCDFF8D9
:100CDC005028DFF8503804F015FA04F087FA14990C
:100CEC000860B169306A04F0F9F80746F169706A76
:100CFC0004F0F4F801F017F801F041F8FFF798F957
:100D0C0004F0E0FC04F072FA14994860B769D6F864
:100D1C00209001F038F8F16901F026F800F0FFFF9F
:100D2C00834601F026F800F0FAFF01F01CF800F001
:100D3C00E9FFFFF77DF9CDE90001F06901F024F836
:100D4C000746706A01F016F800F0E2FF01F017F8A0
:100D5C00FFF76EF9DDE9002304F04EFC04F046FACF
:100D6C00149988601498DFF8C017006804F0B8F97B
:100D7C000BD8FFF75DF9DFF8A827DFF8B03704F0E0
:100D8C00C1F904F033FA149908601498DFF8A077CD
:100D9C000068DFF8A0B7FFF74BF900F0DDFB04F0BB
:100DAC0025FA1499086014984068FFF741F900F08F
:100DBC00D3FB04F01BFA1499486014988068FFF771
:100DCC0037F900F0C9FB04F011FA14998860216A14
:100DDC00636922690291E1690191A1690091E1685D
:100DEC0004F0B6FD0998FFF723F907468B46DFF8A8
:100DFC00040700F0CCFFFFF71BF921F000413A4645
:100E0C005B4604F07FF94FF08042DFF82C3705F099
:100E1C00B9FA21D2687915280DDBB07C58B90FF2DC
:100E2C00546002F06AFC0898A8640120B074002099
:100E3C00B065F065306668796428B8BF401C14DB77
:100E4C00B07C022814D00FF2386002F056FC02205D
:100E5C00B0740120F07509E0B07C28B10FF22C6061
:100E6C0002F04BFC0020B07400206871B07C0228AA
:100E7C0000F07B820FA802900EA801900DA80090A4
:100E8C0062692169E068DFF8B476012300F08AFF1B
:100E9C000CA802900BA801900AA800906369226923
:100EAC00E168012000F0C0FFA068FFF7C1F8DFF88F
:100EBC00402EDFF8403E04F025F904F097F939464E
:100ECC0002460A98DFF8303EA26004F0D7F905D24A
:100EDC00194604F005F99CBF00200A90606800F0E8
:100EEC00E4FA05D2194604F0FBF89CBF00206060C0
:100EFC0000F0DAFA05D2194604F0F2F89CBF002093
:100F0C00A0600A990798DFF8F48DDFF8F49D03F0E0
:100F1C00E5FFA96B04F042FA00F0D6FA834661684B
:100F2C000798C4F80CB003F0D9FFE96B04F036FA5B
:100F3C0000F0CAFA8246A1680798C4F810A003F022
:100F4C00CDFF296C04F02AFA00F0BEFA074667615F
:100F5C00C5F838B0C5F83CA02F645846FFF768F8C0
:100F6C0000F00CFB04F042F90A9000F00FFB00F0CB
:100F7C0005FB04F03BF960603846FFF759F800F0C8
:100F8C00FDFA04F033F9A060002030647064B064A2
:100F9C00B16D376ED6F85CA000F0E7FE00F0EDFE08
:100FAC0000F0B0FE00F0EEFE00F0AFFE01F010F924
:100FBC000290B07C002840F046816F690A98DFF8F7
:100FCC0050AEDFF850BEFFF733F800F0E2FA00F055
:100FDC00C9FA00F0BBFA04F009F9E0606068FFF7A9
:100FEC0027F8CDE90001686AFFF722F800F0BAFA99
:100FFC0000F0ACFA04F0FAF82061A068FFF718F8DA
:10100C00CDE90001686BFFF713F852465B4604F01C
:10101C0021FA00F09BFA04F0E9F86061394600F01F
:10102C0092FE696A074600F0A0FE00F071FE696B43
:10103C00074600F09AFE00F06BFE01F0C9F8074677
:10104C0002994FF07E5004F02BF980F00040FEF72F
:10105C00EFFF04F0CBF8DFF8C01D00918346384653
:10106C00FEF7E6FF42464B4604F0F4F902460B4607
:10107C000020DFF8A81D05F09DF904F0B7F80099E1
:10108C0000235A4600F0A1FFDFF8941D03F026FF61
:10109C0007466969E06804F081F900F075FE00F01C
:1010AC0013FAE060696A206904F078F900F06CFECC
:1010BC0000F00AFA2061696B606904F06FF900F0C6
:1010CC0063FE00F001FA6061E068E1683064206959
:1010DC0070646069B06400F0F4F9B16D04F05EF90D
:1010EC00B0652169306FDFF83C9D03F0F7FEF16DC0
:1010FC0004F054F983466169306FC6F85CB003F0B4
:10110C00EDFE316E04F04AF90746706E3766FEF755
:10111C008FFFCDE90001B06DFEF78AFF00F02EFACB
:10112C0000F0C6F904F062F87066B06EFEF780FF4E
:10113C00CDE900015846FEF77BFF00F01FFA00F0E6
:10114C00B7F904F053F8B066F06EFEF771FF00F0DB
:10115C0020FA00F013FA00F0ABF904F047F8002184
:10116C008246E068DFF8189EC6F86CA003F0B8FF62
:10117C004FF0333803D2B06D04F080F807D3E06839
:10118C0004F07CF80AD2B06D03F0AAFF06D2FEF789
:10119C004FFF00F0F3F904F029F803E0B06D716E25
:1011AC0003F02AFFB0650021206903F099FF03D2F8
:1011BC00584604F063F807D3206904F05FF80AD2AC
:1011CC00584603F08DFF06D2FEF732FF00F0D6F939
:1011DC0004F00CF802E0B16E00F0A2FDF065002105
:1011EC00606903F07DFF03D2384604F047F807D35B
:1011FC00606904F043F80AD2384603F071FF06D256
:10120C00FEF716FF00F0BAF903F0F0FF03E03846E2
:10121C00514603F0F1FE3066B07CA0B9B16D00F020
:10122C0050F9716B04F0BAF87063F16D00F049F984
:10123C00B16B04F0B3F8B063316E00F042F9F16BAE
:10124C0004F0ACF8F063002728780A9905EB8002CB
:10125C00401C9160287000F01FF928700020686114
:10126C006869FEF7E5FE804605F10800894650F8EE
:10127C002700FEF7DDFE00F031F900F029F903F04C
:10128C00B5FF7F1C032F6861EADB00276878616873
:10129C0005EB8002401C9161687000F0FDF86870ED
:1012AC0000206862686AFEF7C3FE804605EB870083
:1012BC0089468069FEF7BCFE00F010F900F008F9D1
:1012CC0003F094FF7F1C032F6862EBDB0027A878E8
:1012DC00A16805EB8002401C9162A87000F0DCF85C
:1012EC00A87000206863686BFEF7A2FE044605EB4D
:1012FC0087008946806AFEF79BFE00F0EFF82246D5
:10130C004B4603F0FFFE03F071FF7F1C032F686355
:10131C00E9DB4FF08241069803F0B0FF0AD2A879BE
:10132C0078B90120A871F07C40F00100F074012024
:10133C00B07506E0DFF8041D03F0D2FE9CBF002060
:10134C00A871F07C00061AD4706F4FF07E5103F038
:10135C0095FF14D2F07C40F08000F0740FF61C5016
:10136C0002F0CBF90120B07509E000200290019049
:10137C00009062692169E068002300F013FDB16DF3
:10138C00346EF56D00F0F1FC00F01AFE00F0C0FCBC
:10139C00054600F011FE294604F000F800F018FF95
:1013AC0000F08AF8DFF8981C776E03F099FE04467B
:1013BC0039D84FF0785000F000FEFEF739FEDFF818
:1013CC00842CDFF8843C04F045F8D6F858A0044689
:1013DC000D4600F0DBF800F0D7F800F0C9F800F08B
:1013EC00AFF803F003FFB065D6F85CA000F0CEF8C0
:1013FC0000F0CAF800F0BCF800F0A2F803F0F6FE1A
:10140C00F065D6F860A000F0C1F800F0BDF800F06F
:10141C00AFF800F095F803F0E9FE3066DFF82C4CDD
:10142C00DFF82C5C08E04FF07E5103F027FF1BD255
:10143C00DFF8204CDFF8205C3846FEF7F9FD00F0B1
:10144C0097F803F0D3FE7066B06EFEF7F1FD00F076
:10145C008FF803F0CBFEB066F06EFEF7E9FD00F0FE
:10146C0087F803F0C3FEF06615B0BDE8F08F0000FE
:10147C00080200205374656164792E0A0D00000087
:10148C00536C6565702E0A0D000000004D6F766977
:10149C006E672E0A0D0000000321C0B290FBF1F123
:1014AC0001EB4101401A70471046394603F0E6BE85
:1014BC00DDE9002303F026BE01464FF07E5003F019
:1014CC00EFBE306F03F00ABD4FF07C5103F006BD48
:1014DC0002460B464046494603F014BE0022DFF894
:1014EC007C3B04F067BF00007C0F0020F20A002058
:1014FC000000C842000080BF00007A430000FA439D
:10150C000100803F740C0020FCA9F1D24D62503FC9
:10151C0000004040399D52A246DF913F0050C34726
:10152C00182D4454FB210940DB0F4940FB2119C005
:10153C00F8C1631ADCA54C40E17AB43F6F12833AD0
:10154C0002460B464046494605F060B802460B463B
:10155C00DDE9000105F05AB802460B4638465946FB
:10156C0003F078BF02460B465046594603F072BF53
:10157C0002460B462046294603F06CBF02460B463A
:10158C004046494603F066BF804689465046FEF702
:10159C004FBDCDE900013846FEF74ABD2DE9F04FAD
:1015AC000546DFF8BC0ADFF8BC9A80699DB00F468F
:1015BC0003901446DFF8A80AC06902909846DFF839
:1015CC00A00A006A01902946DFF8940A466A00F0E6
:1015DC00BDFB80F0004A019800F0D6FB00F09BFBAD
:1015EC008246304600F0E9FC00F095FB00F0C2FBAF
:1015FC000E90294600F0CFFB8246019800F0DDFCEE
:10160C0000F083FB8246304600F0BEFB00F083FB0B
:10161C0000F0B0FB0D9000F0BDFB8246029800F08C
:10162C00CCFC00F078FB8246304600F092FB00F0D8
:10163C006CFB00F09FFB0C90214600F0ACFB0446C9
:10164C00029800F0A1FB00F0A0FC0446019800F009
:10165C0080FB0146204603F0CFFC00F08BFB0B9087
:10166C000021404605F092F8269D08D1284605F049
:10167C008DF804D1279805F089F800F0ED8200F080
:10168C0059FB044600F09DFC00F07FFC27990446B2
:10169C0000F06BFB00F079FC00F09AFD044640462C
:1016AC0000F08BFC804600F079FB0546279800F093
:1016BC0084FC2790289F299CDDF8A89000F063FB00
:1016CC00824600F079FC00F020FB00F051FB00F0AA
:1016DC001CFB00F07DFD8246384600F050FB834633
:1016EC00204600F04CFB0446484600F048FB81467F
:1016FC00039900F023FB824600F02EFB1390214649
:10170C00504603F0EBFB12904946504603F0E6FBC3
:10171C0008904FF08040029903F0E0FB074600F080
:10172C001BFB0790CDF860A00A974FF0804000F0AB
:10173C0038FC074609974FF0804000F03AFC1790B0
:10174C0000F00DFB169000F0FDFA1C90039900F0D0
:10175C000CFB0090039900F0F9FA1190039900F03A
:10176C00FFFA1090314600F016FB1B90029900F026
:10177C00FCFA0590029900F0F3FA1A90314600F049
:10178C00E5FA0F90019900F0F0FA0490314600F060
:10179C00E7FA19903146304603F0A0FB0690594603
:1017AC00009803F09BFB0746129800F002FC00F037
:1017BC00BAFA0746089900F0D3FA00F0A9FA0746DE
:1017CC00059800F0C9FA00F0A3FA07460A9800F051
:1017DC00F4FB00F0E6FB00F09BFA07460A9800F0D9
:1017EC00C9FA00F0E6FB00F093FA0746049800F003
:1017FC00B3FA00F098FA0746069800F0ADFA00F03C
:10180C0092FA8246139800F0D4FB0746009800F039
:10181C00D4FB00F07DFA0746089900F097FA00F027
:10182C0082FA0746079900F09BFA00F071FA074616
:10183C00059800F0C2FB00F076FA0746049800F019
:10184C00BCFB00F065FA0746099800F093FA00F02B
:10185C00B0FB00F05DFA0746069800F0AEFB00F016
:10186C0062FA074600F08AFA00F08CFA00F04DFAA2
:10187C00FEF7DEFB04F098FF03F0B8FC82461299E9
:10188C0000F064FA0746139900F06AFA00F04BFA7C
:10189C000746009800F06EFA00F03AFA07460798EF
:1018AC0000F087FB00F034FA0746059800F062FA66
:1018BC0000F039FA0746099800F07FFB00F079FB3D
:1018CC0000F026FA0746049800F054FA00F02BFAC0
:1018DC000746069800F04EFA00F01AFA07464FF049
:1018EC00804000F04CFA1590394600F027FA14901D
:1018FC0010990F9803F052FD00F041FA00904FF050
:10190C007C50059903F078FB049903F075FB00F00B
:10191C003BFA00F037FB494603F06EFB08901B992D
:10192C001A9803F069FB00F02AFA8146119919986C
:10193C0003F034FD00F028FA00F0F9F9214603F029
:10194C005BFB07904FF07C50049903F055FB069914
:10195C0003F052FB00F013FA04460F98109903F0B1
:10196C004BFB00F011FA00F010FB00904FF08040A0
:10197C000F9903F0B3FA04461698214603F03CFB8A
:10198C0000F005FA13904FF08040119903F0A6FA7D
:10199C001C9903F003FD294603F02EFB069000F082
:1019AC00DEF90546029800F0EFF91290394600F086
:1019BC00D7F9119006990A9803F090FA8146139979
:1019CC00099803F08BFA00F0B2F98146009900F007
:1019DC00A7F9119903F082FA00F0A9F900F0E7FADF
:1019EC000146129803F008FB00F0DEFA00F09FF9B4
:1019FC008146089800F0ADF900F099F981460098FD
:101A0C00594603F0F9FA0F904FF08040049903F017
:101A1C0065FA8346059900F091F900F0BDFA00F0E3
:101A2C007EF9279903F0BAFC10902046169903F022
:101A3C00E3FA414603F0E0FA049000F0ABF980467B
:101A4C00384600F0B6FA83460499179803F046FA24
:101A5C0007460699189803F041FA00F059F9074621
:101A6C004FF08144029800F0A8FA109903F036FA6E
:101A7C0000F04EF907460F9800F06EF900F048F9A7
:101A8C000746284600F083F900F08EFA00F040F982
:101A9C00054600F08DFA0746149900F057F900F04E
:101AAC0042F9089903F01AFA294603F077FC054627
:101ABC00039800F064F90746029800F060F982463A
:101ACC000699179803F00AFA00901399189803F0E6
:101ADC0005FA00F057FA0090214600F041F91099F0
:101AEC0003F0FCF900F04EFA0446159900F038F9B1
:101AFC0080F00040414603F07FFA0F9903F0EEF9B5
:101B0C0000F043FA0446504600F0FCF800F04CFAA2
:101B1C0000F03BFA0446149900F022F900F003F9A6
:101B2C00089903F0DBF900F030FA804604990A9822
:101B3C0003F0D4F904460699099803F0CFF900F0A4
:101B4C0024FA0446159800F034FA0146129803F072
:101B5C0053FA0F9903F0C2F900F017FA04461198E2
:101B6C00394603F049FA00F01FFA00F00EFA044669
:101B7C00089800F004F900F008FA074600F0F9F8AC
:101B8C00044600F01EFA00F000FA044600F0D2F809
:101B9C0000F0FBF9044600F0F6F800F0F6F900F05E
:101BAC0017FB0446484600F008FADFF8BCA400F026
:101BBC00E6F801460E9803F01FFA0E9000F0EEF8CE
:101BCC0000F0DDF801460D9803F016FA0D90214651
:101BDC00404603F083F900F0D2F801460C9803F06C
:101BEC000BFA0C90214600F0AEF800F0C8F8014654
:101BFC000B9803F001FA0B900E98FEF719FA804639
:101C0C000D9821F00045FEF713FA04460C9821F0CC
:101C1C000049FEF70DFA824621F0004700207F496B
:101C2C0042462B4604F0F2FC22464B4603F06AFA7D
:101C3C0052463B4603F066FA04460B980D46FEF7F7
:101C4C00F7F921F0004122462B4603F05BFA03F032
:101C5C00CDFADFF80C144867DFF80404046F0E9813
:101C6C0000F0ABF9039903F099FB07460D9800F0CF
:101C7C00A4F9029903F092FB05460C9800F09DF92B
:101C8C00019903F08BFB83460B9800F096F93146D3
:101C9C0003F084FB064600F076F8044600F091F958
:101CAC0000F073F90446584600F056F800F06DF950
:101CBC000446304600F07DF900F067F900F088FA30
:101CCC000446384600F079F9DFF89413886100F087
:101CDC0065F8E349C861584600F06FF9E0490862BD
:101CEC00304600F06AF9DE4948621DB0BDE8F08F5D
:101CFC003D0AD7A3703DF2BF6E1283BA9A99999997
:101D0C0099992340594603F049BB514603F046BB11
:101D1C00394603F043BB0146504603F06DB901460A
:101D2C00584603F069B90146384603F065B949468F
:101D3C0003F034BB4046414603F0D0B84FF080402E
:101D4C0003F0CCB83146384603F0C8B8029803F01B
:101D5C00C5B8294603F0C2B8594603F0BFB851467E
:101D6C00019803F0BBB8716A8346084603F0B6B815
:101D7C0082464846494603F0B1B883465046514620
:101D8C0003F0ACB882463846394603F0A7B8414652
:101D9C0003F004BB3946039803F0A0B8284621464B
:101DAC0003F09CB82DE9F041032BA8BF022302DA03
:101DBC00002B48BF0123AD4C656AB5EB030C069BA9
:101DCC0048BF0CF1030C002B1CBF079E002E4FF0DC
:101DDC000C0E0DD0089F5FB10EFB0C4CDCF8008094
:101DEC00C3F80080DCF804303360DCF808303B606A
:101DFC000EFB054318605960681C032190FBF1F140
:101E0C0001EB41019A60401A6062BDE8F08100006C
:101E1C00B81E85EB51B8DE3FCDCCCC3F0000F03F77
:101E2C000000A0409999993F2DE9FF4F8C4FFD6917
:101E3C00BC6985B02046FFF78CFF3E6A8046204681
:101E4C0000F0B7F88146786A00F0B7F8824600F0E7
:101E5C00B8F80446284600F0ACF804902946786A95
:101E6C0003F03CF80546304600F0A3F88346786A48
:101E7C0000F09FF80390796AFFF777FF07469DF80B
:101E8C00140050B17A4E404600F093F88046484614
:101E9C0000F08FF800F08BF882464FF080460898DF
:101EAC0000F087F802903146079803F017F801907C
:101EBC003146584603F012F800F06EF80090FFF728
:101ECC0041FF00F065F8069903F008F800905146C0
:101EDC00049803F063FA00F064F800F053F80090F3
:101EEC004946284603F088F8029902F0F7FF00F003
:101EFC0049F812990860204600F05BF800F04CF8A5
:101F0C0000903146069802F0E9FF044604985146C9
:101F1C0003F072F800F051F88246384600F049F8A8
:101F2C0000F036F800F040F8FFF7EFFE0746039894
:101F3C00FFF72DFF029902F0D1FFFFF7E9FE13998D
:101F4C0008602846FFF7F3FE00F037F804460398C4
:101F5C00414603F051F800F024F800F016F804465E
:101F6C00584600F026F800F013F8089902F0B6FF76
:101F7C0000F00BF81499086009B0BDE8F08F000070
:101F8C003333D33F009903F009BA214603F006BA64
:101F9C000146009803F030B801464FF07E5003F034
:101FAC002BB8019902F09ABF079902F097BF8146AE
:101FBC005046314602F092BF2046214602F08EBFB9
:101FCC0007462846294602F089BF2DE9F0420C4607
:101FDC0011461D4603F010F806462046FEF728F879
:101FEC0002460B462348244904F0E4F90746894687
:101FFC001F48FFF7DEFFFFF7DCFF06464FF080407F
:10200C00FFF7DBFFFFF7D9FF0146304603F048F935
:10201C00FEF70EF804F040FC3A464B4603F01AFA71
:10202C0006460F462846FEF703F832463B4603F0B9
:10203C0069F8BDE8F04203F0D9B800000100C841CE
:10204C0018B7D1382D431CEBE2363A3FAE47E17A54
:10205C0014AEEF3F0AD7A3703D0AEF3F00000840D3
:10206C00080200208FC2F53E9A99193FE4320020F5
:10207C00000080BF2BF697DD9387D93F52656164D2
:10208C00792E0A0D0000000001B513460A46012105
:10209C0000A804F055FC02BD38B55A4B1870581CFA
:1020AC00002404E011F8015B00F8015B641CE4B24D
:1020BC009442F7D3511CBDE83440C9B2184604F021
:1020CC0025BC2DE9F84F05464F4C00202070608050
:1020DC004FF4807801F029FD01F0FBFCE8064FF08D
:1020EC00010922D5002001F0EDFE18B1207840F056
:1020FC00100020700127F8B201F0E4FE80B17E1EC2
:10210C00608809FA06F10843608047F08000C0B28D
:10211C0001F0D8FE20B1608808FA06F1084360800F
:10212C007F1C062FE7DB01F0D4FCA8063AD5002073
:10213C0002F00EF818B1207840F020002070012732
:10214C004FF6FF750FF2C80B7E1E608809FA06FA6F
:10215C0010EA0A0F21D0F8B201F0FAFF40B9394663
:10216C00584601F0CAFA608885EA0A010840608086
:10217C0008FA06F6608830420FD047F08000C0B2F3
:10218C0001F0E6FF48B939460FF29C0001F0B5FAB0
:10219C00608885EA0601084060807F1C062FD3DB2F
:1021AC0001F097FC2078BDE8F28F17480078704753
:1021BC0015484088704730B5002206E01418135CAF
:1021CC0065781554921C6370D2B28A42F6DB30BD2E
:1021DC0010B50E49A1EB60044FF07C5102F07EFE6D
:1021EC00214602F07BFE214602F078FE01464FF0BC
:1021FC007F5002F001FF2146BDE8104002F06EBE98
:10220C00000000009833002068340020DF59375F4D
:10221C004465766963655B25645D204D6167206468
:10222C006561642E0A0D00004465766963655B2563
:10223C00645D2D32204D616720646561642E0A0D4A
:10224C000000000010B584B00820ADF80000042098
:10225C00ADF802009049914800780968904C8000D4
:10226C00019000A88847002814BF00200298A060A5
:10227C00010008BF13200BD04FF6FF7004F0CCFB0D
:10228C000FF2202310220A2104F12C0004F018FE76
:10229C0004B010BD82494A681AB900B148600020E8
:1022AC007047112070473EB5134600250A467C4CFA
:1022BC0030B101281CD002281FD0042822D02BE0DA
:1022CC00142927D1194604F10C0005F035F90FF249
:1022DC008900029004F12C03FF20019000220A20B7
:1022EC00009004F10C01A06804F0B0FB054614E06A
:1022FC0001290FD1187820700FE001290AD1187824
:10230C0060700AE00C2905D1194604F1200005F093
:10231C0013F902E0182500E0022528463EBD10B551
:10232C000246084600245E4932B1012A07D0022A2F
:10233C0007D0042A08D00CE014220C3106E00978EE
:10234C0000E04978017005E00C22203105F0F4F82A
:10235C0000E00224204610BDF8B50D460027287A6F
:10236C00C00616461C4601D50820F2BD069808B1D9
:10237C000B20F2BD00A9284605F019F9012802D15D
:10238C0027800120F2BDBDF800004AF63121401A29
:10239C0005D0401E012804D9801E08D00FE014205F
:1023AC0006E001202080E8680078307009E00C20FD
:1023BC0020800246E968304605F0BEF801E027802F
:1023CC000A273846F2BD2DE9FE430E468046307A88
:1023DC000024800691461F4648BF08202AD402A933
:1023EC00304605F0E4F8012824D0BDF808100A980E
:1023FC002B4D42F60212891A40D048F22F12891A3C
:10240C0017D0491E04D0491E16D0491E24D040E0D6
:10241C0038BB012F23D1F16899F800000870F068DF
:10242C00A84206D10120696819B109680A0018BFD1
:10243C0088472046BDE8FE8398B9012F0FD199F843
:10244C00000008B98024F4E7F1680870691CF06892
:10245C008842EED10220E6E718B90C2F03D00D24E8
:10246C00E7E70B24E5E7F06805F120018842E0D1AD
:10247C000C22494605F060F80420D4E701210191B3
:10248C0000903B464A463146404604F03DFB04462C
:10249C00CFE70A24CDE700007C0F00209406002033
:1024AC00A808002065230000D323000000000000D2
:1024BC00DFF800F013C10110DFF800F0F5C00110D7
:1024CC00DFF800F049BA0110DFF800F025C2011066
:1024DC00DFF800F0C1C20110DFF800F0E3BF01101B
:1024EC00DFF800F0B5C10110DFF800F0D5C0011025
:1024FC00DFF800F095C00110DFF800F00DA8011016
:10250C00DFF800F0BDBE0110DFF800F021C10110B2
:10251C00DFF800F02DBF0110DFF800F0E1B501107D
:10252C00DFF800F0D5C20110DFF800F0D9C20110BD
:10253C00DFF800F0F1C50110DFF8DC00007D70471A
:10254C0038B5DFF8DC00DFF8D4500068EFF3118405
:10255C0080F31188A8680021FFF7CAFF6969081A7F
:10256C00A969814238BF002084F3118832BD000074
:10257C002DE9F041DFF8A800DFF8A0400768EFF381
:10258C00118887F31188A0680121FFF7B1FF0121A1
:10259C00A1830021E183656921682268461B801AAA
:1025AC00691A884204D20020A08388F311882AE09B
:1025BC0088F31188002005E04519361A29460120B8
:1025CC00FFF79AFF8642F7D2EFF3118887F3118851
:1025DC00E18B012903D129460020FFF78DFFA1696A
:1025EC0010F1010F08BF084603D0801B814238BF91
:1025FC0008464119FFF784FF012020840020A083A6
:10260C00256088F31188BDE8F08101617047808AEC
:10261C007047FFF765BF0000A4010020780100207F
:10262C00ACD700000446DFF8CC000068704700000F
:10263C002DE9F84F04460D46FFF73EFF0646FFF71F
:10264C00F2FFEFF3118780F31188D4F80880A845C6
:10265C0002D187F3118847E0002DDFF8A49007D54D
:10266C00DFF8C40000684FF0000A00EB090B06E02D
:10267C00012000FA05FAD9F8180000EBC50B207DF3
:10268C00012822D12046FFF73FFF206CFFF710FFF7
:10269C0028B1D9F80400E1688843C9F80400D9F8D6
:1026AC001000A04207D1C9F814B02146DBF8000095
:1026BC00FFF7AFFF03E021465846FFF711FFD9F8AB
:1026CC0004004AEA0000C9F80400A560C4F80CA094
:1026DC00C4F840B0002D44BF0020C9F814000120FC
:1026EC00A9F8080087F311883046FFF7E9FE404649
:1026FC00BDE8F28FACD70000DFF8301009687047E6
:10270C000001002010280ED3A0F11002DFF82010D9
:10271C00520901EB82011038012200F01F0002FA6D
:10272C0000F0C1F880027047E8050000ACD700004B
:10273C0000E000E004F052BF80B5002301223421F8
:10274C00DFF8E40905F008FA00B10120C0B202BDBF
:10275C00DFF8DC1A0A68002812BF42F001005008AA
:10276C0040000860704700007047FEE710B582B06B
:10277C00042005F025FA022818BF03280DD10320E8
:10278C0000901C234FF040520021DFF89C0905F00B
:10279C00C0F9BDE81640042066E0DFF89419DFF8B4
:1027AC00940A09680C18DFF88C19DFF8980A096884
:1027BC00B0FBF1F12046FFF78BFE2046BDE816403A
:1027CC00FFF78ABE80B5DFF870090078DFF8A4093E
:1027DC0001688908890041F00101016005F0FDF9EB
:1027EC0005F087FADFF89019002008600220DFF866
:1027FC008C190968C9688847DFF84C0A01684908D0
:10280C004900016000F017FA042000F00FF900F005
:10281C00AEBC00000022012904D1012807D1DFF849
:10282C00600903E0012802D1DFF8280A026810468B
:10283C007047DFF8000A00797047000005F0E2B934
:10284C0010B5DFF83C160968EFF3118481F3118899
:10285C00DFF8E019C9880120012908BFFFF76CFFD8
:10286C0084F3118810BD000030B5DFF81416DFF8C2
:10287C009C390A68EFF3118182F31188B0FA80F267
:10288C00C2F11F02D25CB0FA80F4C4F11F04551ED1
:10289C00E55405D1DFF89C29136823EA0000106089
:1028AC0081F3118830BD00002DE9F041FFF724FFC2
:1028BC00EFF3118481F31188DFF87C19425C531E0D
:1028CC00435444D1DFF87419DFF8748901EB8005A7
:1028DC002E786F88300618D5D8F80010096A38465B
:1028EC008847D8F80010896A38468847D8F800100D
:1028FC00096B38468847DFF8541901200860DFF867
:10290C00500900688007FAD514E0700606D5DFF888
:10291C00B01951F82710002088470BE0D8F80010A8
:10292C00896938468847D8F80010496B384688477B
:10293C000228F8D106F03F003F2818BFFFF7B4FF7C
:10294C00687800F03F003F2818BFFFF7ADFF84F315
:10295C001188BDE8F08110B508B1140001D1032035
:10296C0010BD8160C26003610146DFF8EC28DFF81E
:10297C004C0912681018FFF7CBFD002010BD0000A9
:10298C00F8B50446DFF8F804DFF8AC180068EFF38C
:10299C00118580F31188625C531C6354002A3ED16C
:1029AC00DFF8981801EB8407387800F03F003F28D7
:1029BC0018BFFFF7E5FF787800F03F003F2818BFFD
:1029CC00FFF7DEFF7E883878DFF87478010613D5C0
:1029DC003968C969304688473968496A304688473A
:1029EC003968C96A3046884700F038F8DFF8600863
:1029FC0000688007FAD512E0400606D5DFF8C0184B
:102A0C0051F826100120884709E039684969304699
:102A1C0088473968496B304688470128F9D185F3D6
:102A2C0011882046BDE8F24005F074BBDFF8501465
:102A3C000A68EFF3118182F31188DFF8F827136825
:102A4C0003431360B0FA80F0C0F11F00DFF8BC271D
:102A5C00835C5B1C835481F311887047DFF8EC179F
:102A6C0001200860704700002DE9F04F4FF000087E
:102A7C000021012883B0C1468A4618BF022412D116
:102A8C00DFF8FC03DFF834780268EFF3118082F38F
:102A9C0011883A79012A06BF02223A71012180F38A
:102AAC00118809B10624BDE0FFF706FD0090012056
:102ABC0000F0E6F8040002D001203871AFE0FFF717
:102ACC0013FDDFF828180190C1F80090012005F0E3
:102ADC0077F8012804D1002005F0FCFA4FF001082A
:102AEC00DFF8E047DFF850572168896800208847F5
:102AFC0000F0A1F8687C08B14FF00109287C08B1FE
:102B0C0049F00209E87B08B149F00409E87ADFF8DA
:102B1C002C6718B1A16AF08D096B8847A87A18B197
:102B2C00A16A708D096B8847FFF798FF49F0200068
:102B3C00A16A896988470120FFF70AFE3878C00727
:102B4C0048BF4FF0010A12D4DFF8980705F01CFBC0
:102B5C008346BBF1040FF7D000F067F880088000C3
:102B6C0008600321A26CDFF87C07526890470020B4
:102B7C0005F012FB00F05FF8A06A806B8047BAF199
:102B8C00000F0AD1A26CDFF85C07526859469047D7
:102B9C0000F04BF840F003000860012021688968C0
:102BAC008847DFF8440700688006FAD5B8F1000FB3
:102BBC001CBF012005F08EFAA16A49694846884776
:102BCC00A16A496B484688470128F9D1E87A18B1BF
:102BDC00A16AF08DC96A8847A87A18B1A16A708D6C
:102BEC00C96A8847FFF73AFF0020FFF7B1FD0320C1
:102BFC003871042000F044F8DFF8F016012008606A
:102C0C0000F019F805F0D6FB082000F039F804465E
:102C1C00012038710198FFF77FFC05F056FB0098F6
:102C2C00FFF74EFC2046BDE8FE8FDFF8D006DFF83C
:102C3C00CC1600687047DFF8C806006870470000C3
:102C4C0038B58F48DFF874560068EFF3118480F3C1
:102C5C001188E888012803D105F028F80020E880C5
:102C6C0084F3118831BD000010B5FFF745FDEFF37B
:102C7C00118481F31188FFF747FC84F3118810BD90
:102C8C0038B500F02AF80818FFF712FC002540B9F7
:102C9C00204600F008F820B1DFF86806006880478D
:102CAC000225284632BD70B500F017F80D182846DD
:102CBC00FFF736FC0646B068204206D03169F26850
:102CCC0020469047C0B2012806D03046FFF72CFCB6
:102CDC000646AE42EFD1002070BDDFF87C150968C6
:102CEC000446DFF8D805704730BF704770B505F063
:102CFC005DFBDFF840552E6806F00C000C284BD01D
:102D0C00700727D4FFF71CFC044600210120FFF7B5
:102D1C0081FDA0421ED2DFF8140400684519DFF8CB
:102D2C0014040668DFF8E0050068B0FBF6F0211A21
:102D3C002846FFF7CDFB2846FFF7CEFB4FF47A7001
:102D4C00B0FBF6F200210120FFF78EFE2846FFF7BC
:102D5C00BBFB23E030071FD4DFF8EC04DFF8E044C2
:102D6C00DFF87C55F10601685ABF4908490041F06B
:102D7C0001010160DFF88405016841F00301016085
:102D8C00202021688969884728682068806B8047E3
:102D9C0001202860286801E0FFF7A6FF05F00AFB78
:102DAC00BDE8704005F0BCBA10B50C1805F0FEFA81
:102DBC00401E8041C00FDFF860150A68002AFCD065
:102DCC00246801220A6008B105F0F4FA204610BD0F
:102DDC0080B50420FFF72AFE0820FFF727FE0E20FF
:102DEC00FFF7CEFDDFF82405DFF824150068C0F3EB
:102DFC00815003280CBF012000200880DFF8140547
:102E0C0002680AB1012002BDDFF8103540221A60B9
:102E1C000122C2610020486002BDDFF8601310B5CA
:102E2C000968DFF8FC4482B00968202088470F202D
:102E3C002060072341F61D5060604FF4C0720220E1
:102E4C00009000F0C9F8DFF8DC0401210160016892
:102E5C008907FCD501212161DFF8B44421880129BF
:102E6C0007D1002101610220202100F091F80120FE
:102E7C0004E00121002000F08BF80220606013BDFB
:102E8C00ACD700002DE9F041DFF89C04DFF880445A
:102E9C0082B0016842688A43426001616068002820
:102EAC0004BFBDE8F341FFF7B8BF0128DFF87C147D
:102EBC001AD10220606008684BF2F5214843618802
:102ECC00000A11B10021618006E0DFF86414096882
:102EDC00090210EB11204008DFF858140860000CB0
:102EEC004860012088600CE002280FD10868B0F51A
:102EFC00C06F02D10020606045E00321616000F0EA
:102F0C006FF80121BDE8FC41002041E003283DD1D0
:102F1C00002060600868A0F5C065A06800F0B2F8F9
:102F2C000646284600F0AEF886422CDAA6692846FA
:102F3C0000F0ACF88019A061E56860697A4E8542B2
:102F4C000ED0A769A7F1100000F09CF8804620690C
:102F5C00103800F097F8804502DABFB200970BE00A
:102F6C00ADB2009508234FF47F423021304604F077
:102F7C00D0FD206980B2009012234FF4F802042196
:102F8C00304604F0C6FDBDE8F3418AE0BDE8F381AC
:102F9C0070B50D46DFF8A04382B0032121600021FB
:102FAC00DFF89863316031688907FCD480B20090F7
:102FBC000523602200F010F8012030603068800793
:102FCC00FCD5A561002020600821DFF85003C1600A
:102FDC0001600120206073BD0021534804F099BDAD
:102FEC0070B50646504C82B030212046FFF7DCFE0F
:102FFC00DFF81C53C0F30720E86004212046FFF7DC
:10300C00D3FEC0F384402861A6F5C060A8602E6989
:10301C0000F03CF88019A861A969E868022909DA6E
:10302C00401E6FF03F039842B8BF184610310BD5C5
:10303C00002109E01E2908DB401C4028A8BF3F20C6
:10304C0010392029A8BF1F21A9616861082380B20B
:10305C0000904FF47F42302100F011F801200090D5
:10306C0011234FF4003200F009F8A86980B20090E7
:10307C0012234FF4F80200F001F873BD042120462E
:10308C0004F047BD002848BF4042704700284CBFA1
:10309C006FF00101022101EB4000032190FBF1F0E4
:1030AC00704780B5DFF87C02002101600168890758
:1030BC00FCD40021016041600120DFF85812086047
:1030CC000E20FFF7F1FB0820FFF7CEFBBDE8024016
:1030DC000420FFF7C9BB000010B504460020D4E95A
:1030EC000A2347F6906105F06DF9012928BF4FF0CE
:1030FC00FF3010BD10B50C4605F0DCF9011D201A8F
:10310C00B0F1004F05D8081BB0F1004F38BF8C420E
:10311C0000D20C46DFF82C221268526A2146BDE818
:10312C00104001201047000000A00C40F8000000E7
:10313C0094D70000B0D70000783400202DE9F0417E
:10314C0080460A46D8E90A01D8E90C45A0FB02677B
:10315C0001FB0277A6196F41340C002244EA0741A7
:10316C004046FFF7C7FFC8E90E67BDE8F0814FF096
:10317C00FF3002BD0440034040100940A001001084
:10318C00A0D70000F8B50546DFF8BC01DFF8BC613C
:10319C000068DFF8BC71EFF3118480F3118830689C
:1031AC0040F0800030600120B96849688847F96AAE
:1031BC00096A142088472869BA68526AB0F5802FCA
:1031CC0034BF0421010C012090473A681268232176
:1031DC0000209047B968C96901208847306820F4FD
:1031EC00E02040F480303060306840F00100306006
:1031FC0084F31188F1BDDFF8600103684068002298
:10320C000021101859417047000000003C34002088
:10321C00DFF83011DFF8280110B5096844684968F7
:10322C00012088476069A169BDE81040084700008B
:10323C000C200840040C0020CC330020DCD2000011
:10324C00B8010010A08601008C21084028200860DD
:10325C0028200840A4D7000098D70000F8B50446F1
:10326C000D46FFF7C8FFD4E90A6732463B4605F026
:10327C00A9F83DB1A6FB002306FB013307FB003385
:10328C00C4E90C23F2BD38B5DFF8C040DFF8C450F8
:10329C002068400840002060206840F080002060DA
:1032AC000120E062E06A2968496801208847696A60
:1032BC00096A14208847E06A31BD0000040C002024
:1032CC00800F00209001001080B500F004F8000C75
:1032DC0040EA014002BDDFF8840000688BE7000083
:1032EC002C20094000400340141009400C400940B8
:1032FC0009B9DFF86C10FFF71BB900002422084055
:10330C002C2009409CD70000A8D70000B43F0050E7
:10331C00400F002004800C4000800C402C500C40CE
:10332C000C400C4034600C4028500C4008400C40C1
:10333C00102009403C600C4000400C4038600C40B0
:10334C00E40100208C010010ACD7000000200940E3
:10335C00840100108C01001008200940EC010020B1
:10336C00A0010000DFF8F814096821B10A89824233
:10337C00FAD10846704700207047000000BF13B513
:10338C00044604F0E0FE18B1002000F002F806E05C
:10339C0008E0009001AB22464FF0FF31704700F07F
:1033AC000DF816BD4FF0FF3016BD00F007F80EBD3E
:1033BC0008B582B00023009302ABF6E777B58DB069
:1033CC001C461498ADF8180000250F9828B92FE169
:1033DC000EAA0DA800F07AF96D1C00F033F9080064
:1033EC0000F020812529F3D100F02CF92D2905D1ED
:1033FC000120ADF8060000F025F902E00020ADF840
:10340C000600302904D10120049000F01BF901E0E2
:10341C0000200490002000904FF0FF3002900A2012
:10342C002A2918D12168216051F8042B21600092BF
:10343C0000F019F9009A002A11D50122ADF80620E6
:10344C00009A524200920AE0009A00FB02113039B5
:10345C00009100F008F9A1F130020A2AF4D32E29C8
:10346C001DD1002102910F990F9A0978521C2A291B
:10347C000F9210D100F0F1F80291002944BF002006
:10348C00029000F0DFF80AE0029A00FB02113039DA
:10349C00029100F0E8F8A1F130020A2AF4D3049862
:1034AC0008B1009804906C2918BF4C2905D1012053
:1034BC00ADF8040000F0C6F802E00020ADF80400FE
:1034CC0008A807900CA805900020642918BF69294A
:1034DC0003900DD1BDF818000028FFD000F0B7F80C
:1034EC006FF009030298049A8242B8BF049019E065
:1034FC000A2375291FBF1023782908236F2903D1AC
:10350C00BDF8180038B906E0702913D1049320686F
:10351C002060016814E000F09AF8049A0298824244
:10352C00B8BF0490049A059800F0A3F80790059989
:10353C00081A2FE0632919D12068206001680FE078
:10354C00001D206010230598082200F092F8401E00
:10355C00079040200799087005980799401A19E0C0
:10356C00001D206007980170012013E0732913D10E
:10357C0000F073F8079111B90FF2B8000790079893
:10358C0004F0AAFF0390029810F1010F1ED00399CA
:10359C0088421BDA039019E00F98401E0F900E988A
:1035AC00022813D3029810F1010F02D00E99884211
:1035BC0001D30E9800E0401CDFF8AC623668029034
:1035CC0000AB22460FA90DA8B047451900980399E6
:1035DC00401A0090BDF8060038B902E000F02EF851
:1035EC006D1C0098401E0090F8D50398411E039165
:1035FC0050B10798401C07900EAA10F8011D0DA899
:10360C0000F064F86D1CF0E7BDF8060000283FF4EC
:10361C00E4AE0098401E00903FF5DFAE00F00EF8CF
:10362C006D1CF6E70D9810B10D9900200870284616
:10363C0010B070BD286E756C6C2900000EAA20218C
:10364C000DA843E00F9810F8011B0F9070472068ED
:10365C0020600168001D206070472068206050F8D1
:10366C00041B206070470F990F9A0978521C0F9217
:10367C007047F0B500240025002B44BF5B420029A5
:10368C0002D54942521E2D25B1FBF3F60FF2280745
:10369C0003FB1611641CC95D00F8011D314600299D
:1036AC00F2D19442BEBF302100F8011D641CF8DB3E
:1036BC000DB100F8015DF0BD3031323334353637A1
:1036CC0038396162636465660000000010B50C4611
:1036DC00116802290BD3491E1160016819B14A1CEB
:1036EC0002600C7010BD04F02EFD00B100E010BDA6
:1036FC002046BDE8104004F024BD0EB400B501A96D
:10370C00FFF73CFE5DF810FBDFF860110968084715
:10371C000000DFF85C010068004701207047FEE7FD
:10372C00704710B50446606808B9012010BD0B46FF
:10373C000146206847A200F077F8A1684118A16003
:10374C0061680129A4BF081A6060002010BD000048
:10375C003EB50D464149098814468142034628BFAF
:10376C000FF21C1210D23F490988814207D3FFF790
:10377C00F9FD21464268284600F056F83EBD3D4909
:10378C00098831B90FF204122146284600F04CF892
:10379C003EBD394B1B680095002C48BF47F6FF74A3
:1037AC0000210291019400AA3449984702983EBD29
:1037BC002DE9F843170048BF47F6FF7704468846C3
:1037CC00002664B3208818B13A46FFF7C1FF0646BD
:1037DC00B91B012922DB208820B11FA2404600F032
:1037EC0023F88619A068C8B1656875B1284604F03D
:1037FC0073FEA7EB0609401D814506DB2B460FF235
:10380C00A002494600F00EF88619B91B122905DBF7
:10381C00A3680FF2940200F005F886193046BDE853
:10382C00F28300004046FFE708B478B504001ABFE5
:10383C002668002E00260D4605AB3046FFF7B8FD76
:10384C00854238BF681E16B121684118216072BCD0
:10385C005DF808FB257300003A200000D000000042
:10386C00EC0F00208A000000BCD70000B4D7000089
:10387C00B8D700008A050000C0D700002F37000021
:10388C007B6D6F64756C652325647D007B6D6F6447
:10389C00756C652D726F70653A25787D000000009F
:1038AC00222573222C2000006C696E652025643A59
:1038BC0020000000DFF800F041AC0110DFF800F050
:1038CC0085C10110DFF800F079B50110DFF800F0C8
:1038DC00F5B80110DFF800F0A9C1011000B583B0F4
:1038EC000821ADF8001001900521ADF8021000A8D8
:1038FC0053490968884707BDF0B589B004460D46A1
:10390C0016461F4608232422002100A8FFF7D6FFE5
:10391C000F984C490968069000AB4FF47A70B0FBD5
:10392C00F1F101FB07F0059001FB06F20E98ADF8E2
:10393C00100029462046FFF7C5FF204609B0F0BD10
:10394C00FEF7CABD38B504460D46FEF760FE10B151
:10395C002046FEF7B9FD00F031F800FB05F12046DA
:10396C00FEF7B6FD2046BDE83240FEF7B5BD80B58A
:10397C00FEF74DFE00B10120C0B202BDFEF7A4BDA2
:10398C0070B504460D46FEF742FE20B12046FEF708
:10399C009BFD012600E0002600F010F84543294667
:1039AC002046FEF795FD29462046FEF72EFE26B151
:1039BC002046BDE87040FEF78FBD70BD21490968F7
:1039CC004FF47A70B0FBF1F0704710B5044600214B
:1039DC00FFF77CFF204610BD70B584B0044608206C
:1039EC00ADF800000D460420ADF802000C2014497F
:1039FC0009680190164600A8884758B9029949B140
:103A0C008E602046FEF76CFD15B12846FFF752FF7D
:103A1C00012003E03046FFF761FF002004B070BDC9
:103A2C0010B50446FEF744FD38B92046FFF752FFA7
:103A3C008468FFF753FF204610BD002010BD000026
:103A4C007C0F0020B0D7000070B5044604F00F05C1
:103A5C00062D18DA15B96821012016E0DFF82C685C
:103A6C00B07FA8420AD000F044F860B10120A84011
:103A7C00C0B202F053FFB57702F08BFFA54214BF22
:103A8C006921682100E0B9E00020BDE8704002F037
:103A9C005EBF10B500F00F04062C16DA14B90C2119
:103AAC0001200EE000F025F878B10120A040C0B252
:103ABC0002F034FFDFF8D407847702F06AFF0C21A0
:103ACC000020BDE8104002F042BF02F062FF00206F
:103ADC0010BD10B5DFF8B447A07F48B100F009F86D
:103AEC0010B1002002F01AFF02F053FF0020A07763
:103AFC0010BD7021002002F02ABF80B501220C21DC
:103B0C00002004F0C8FEDFF88817DFF88807096882
:103B1C0000F004FABDE8024008E080B50C2004F087
:103B2C00CDFE012818BF002002BD00BF0020FFE71A
:103B3C0070B5044604F00F05A5421CBFAD1DEDB2D7
:103B4C00FFF782FF00284AD0DFF840670020B077EB
:103B5C00A919A855087301228020707706F11D0160
:103B6C006B20FEF799FA3DB9002000F040F80520D3
:103B7C0000F036F8002006E0042000F038F80620AB
:103B8C0000F02EF8042000F0A2FA1920FEF784FAB7
:103B9C0002F0FFFE204600F095F905001ED000F063
:103BAC0074F900B92AE0707EC000B07600F0FBF822
:103BBC00F07EC00000F050F902F0EBFEDFF8D016FA
:103BCC0009684FF4FA6000F0A9F9204600F03FFABA
:103BDC00204600F081FA204600F000FA284670BD1D
:103BEC007077012206F11D011D20FEF755BA707782
:103BFC00012206F11D011A20FEF74EBA02F0C9FE91
:103C0C00002070BD6077012204F11D016B20FEF7CE
:103C1C0043BA10B582B0044600208DF80000FFF7BF
:103C2C007CFF18B902F0B5FE002016BD00F02DF98E
:103C3C0048B1012200A93A20FEF726FA08B98DF8FE
:103C4C00000002F0A6FE9DF8000016BD2DE9F0471D
:103C5C0082B00D468046FFF760FF08F00F06002883
:103C6C00344650D0062C4EDAA01D5FFA80F944453C
:103C7C0018BF4C46DFF81476E05D58BB55B3B2461E
:103C8C00C24518BFCA46FFF748FF08B34046FFF7C6
:103C9C00DBFEF8B109207877012207F11D016B20BA
:103CAC00FEF7FAF9A0B13F20787700F04DF800212B
:103CBC000AF8071060B1012207F11A011C20FEF767
:103CCC00EBF928B1012207F11D013A20FEF7DCF9CE
:103CDC0002F05FFEE555E05D002830D0464518BF88
:103CEC004E46F05DC04378774046FFF7ADFE48B3D3
:103CFC0000F02AF802F04DFEF05D800900F001059D
:103D0C00FFF70BFF10B902F044FE1BE00121404607
:103D1C0000F083F9B0B14046FFF7BBFE38B1002D7F
:103D2C0014BF1620002000F0AAFA02F032FEB8F1FF
:103D3C00000F07D00021404600F06FF902E040462A
:103D4C0000F04CF9BDE8F387012207F11D016C204E
:103D5C00FEF7A2B970B5DFF834650446707E012514
:103D6C00A04201D1012070BDE000B076FFF7D5FE76
:103D7C0018B902F00EFE002070BD00F02CF80028DF
:103D8C00F9D000F010F800B9002502F002FE002D69
:103D9C00F1D074760124204600F00BF8641C062C3C
:103DAC00F9DB284670BD012206F11A011C20FEF732
:103DBC0073B910B500F02FF900B986E600F065F87C
:103DCC0040B10122DFF8D0141C20FEF765F900F099
:103DDC005EF8204610BD002036E638B504460D4688
:103DEC00FFF79BFE00B910E000F04FF860B106221F
:103DFC0029463B20FEF748F900F049F81CB1062192
:103E0C002846FEF7D8F9204632BD02F0C2FD00204C
:103E1C0032BD70B5DFF874640446F07E0125A04213
:103E2C0001D1012070BDFFF778FE00B9E6E6FFF77F
:103E3C00D2FF80B1E00000F00FF800B9002502F0CD
:103E4C00A8FD05B1F4760024204600F00CF8641CA3
:103E5C00062CF9DB284670BD3077012206F11C01D7
:103E6C001B20FEF719B910B500F0D5F800B92CE6F7
:103E7C0000F00BF840B10122DFF820141B20FEF7F4
:103E8C000BF900F004F8204610BD2046DCE5044692
:103E9C0002F07FBD38B504460D46FFF73EFE00B973
:103EAC00B3E7FFF7F2FF60B1062229464320FEF785
:103EBC00EBF8FFF7ECFF1CB106212846FEF77BF967
:103ECC00204632BD10B500F0A6F8C0B1FFF7DDFFFB
:103EDC00C8B1DFF8B843207E40B10020DFF8B01342
:103EEC0020764CF25030096800F018F800F00DF80C
:103EFC007520FEF7C9F810B1607F712800D0E4E599
:103F0C0002F047FD012010BD6077012204F11D0174
:103F1C007047DFF87C13096842F21070B0FBF1F0C7
:103F2C00FCF766BB80B504F025FDDFF86023527EFC
:103F3C002AB1022A0AD005D3032A0BD00EE0DFF8EF
:103F4C0060330AE00022DFF85C3306E00022DFF881
:103F5C00583302E000224FF07D532BE0002002BDCD
:103F6C0080B5DFF82823D27E2AB1022A13D00AD3D7
:103F7C00032A18D002BD04F0FDFC00F02AF8002240
:103F8C00DFF8283316E004F0F5FC00F022F80022EC
:103F9C00DFF81C330EE004F0EDFC00F01AF8002200
:103FAC00DFF8103306E004F0E5FC00F012F8002214
:103FBC00DFF8043301F04EFABDE8044001F016B905
:103FCC0080B504F0D7FC00F004F80022DFF8EC32E6
:103FDC00F0E700224FF07C5301F03CBA10B500F032
:103FEC001AF860B1062C0ADAFFF74FFF58B1A74C4C
:103FFC003F2000F009F810B14F20FFF703FEBDE899
:10400C00104002F0C6BC10BD6077012204F11D0106
:10401C006C20FEF741B804467FE510B50C4600F065
:10402C000F01062900DB50E5FFF70EFD60B12020E3
:10403C0004B122209549487701221D313720FEF723
:10404C002BF8FFF724FF00E00024204610BDF8B544
:10405C00FFF7E1FF04F00F05002804BFBDE8F140B5
:10406C0002F097BC00F008F900282FD0A5421CBF25
:10407C00AD1DEDB200F057F820B3844E904F0F20D9
:10408C0000F025F80A20FEF707F8FFF742FF03229D
:10409C0039461020FDF7F8FF60B1387806EB450182
:1040AC008030088407EB4500797880318180B978BD
:1040BC0080318183012000F00AF80B20FDF7ECFF22
:1040CC0002F067FC2046BDE8F4403FE0F1BD70779C
:1040DC00012206F11D01704770B5FFF79CFF04F03B
:1040EC000F06002804BFBDE8704002F052BCA64287
:1040FC001CBFB61DF6B200F0BFF898B100F013F873
:10410C0058B1624D00F01AF8FFF703FF705D4006DE
:10411C0001D500F00BF802F03CFC1CB12046BDE8C8
:10412C00704013E070BD2046FFF7B3BC16206877D3
:10413C00012205F11D010A20FDF7AEBF01206877B1
:10414C00012205F11D010B20FDF7A6BF002164E73C
:10415C0038B5FFF760FFA0B100F08EF8C8B1FFF7DB
:10416C00E2FF4B49494DFFF7D6FEFF20687701224D
:10417C0005F11D010020FDF787FF10B1687F48286D
:10418C0000D042E602F005FC14B1002100F075F8F5
:10419C00012032BD2DE9F041044604F00F05062D37
:1041AC0084B00F460CDAA5421CBFAD1DEDB2DFF892
:1041BC00DC8005EB080606203073FFF7AEFC18B95F
:1041CC0002F0E7FB002054E0002030734CB100F00B
:1041DC0053F810B90520307301E0307B08B1012091
:1041EC0047E0FFF7A0FF012200A90220FDF74CFFDA
:1041FC0098B39DF80000C0072DD5072201A9032014
:10420C00FDF742FF28B301A9887900071FD4BDF838
:10421C000400388008EB4503B1F902007880B1F94D
:10422C000410B980B7F90020B3F920305A431212A8
:10423C003A80234A02EB4502B2F90430584300128B
:10424C007880B2F91C0048430012B88007E00320C4
:10425C0004E0042002E0022000E00120307316206C
:10426C0000F00DF802F095FB15B1002100F005F8F7
:10427C00307B04B0BDE8F08101212046CDE68DF8FD
:10428C000000012200A90A20FDF706BFB80D00208E
:10429C00B0D70000A0860100D20D0020D40D002064
:1042AC000000103F0000203F0000303F00406F40F6
:1042BC0000407F4000408F4000409F4000C0B24013
:1042CC005832002010B504F06BFB002420B104F030
:1042DC009AFB044604F071FBDFF80408416882681D
:1042EC001143C268114303D144608460C46015E07B
:1042FC000178491CC9B2032291FBF2F202EB420293
:10430C00891A0170017800EB81014C604168826868
:10431C00C068511840180321B0FBF1F4204610BDC1
:10432C0000B58FB008233C22002100A8FCF758F9F7
:10433C00DFF8B40700F15001079100234FF44071EE
:10434C00089100AA012106910FF20931FCF74CF9F2
:10435C000FB000BD30B585B002F01EFB04F06AFB57
:10436C0004F02EFB04F021FC0FF2D940DFF8744767
:10437C0004F013FC0FF2D14004F013FCDFF86C07CF
:10438C0004F083FC30B94FF4804004F0DCFD0120D4
:10439C00E07403E00FF26470FFF7AFF90FF66411ED
:1043AC0004F1580004F0E5F9206518B90FF27870A3
:1043BC00FFF7A3F96FF07E0060740020A07400F08A
:1043CC001CFA0120DFF828170968ADF8020000A8D4
:1043DC008847BDF8040020830298E06404F188004B
:1043EC00FFF7F3FA60650023042001904FF47A7212
:1043FC000020009004F164000FF26D61FFF77CFA6D
:10440C0001211F2002F07CFE01208DF801000DF12E
:10441C0001020020ADF80C0001208DF800000820EE
:10442C00ADF80A004FF44870ADF808000020ADF864
:10443C0006006420ADF804000120ADF8020001462E
:10444C0040F2053004F09AFD03AA022140F2063036
:10445C0004F094FDDFF89C2600F0DAFA22460E21D7
:10446C0040F2073004F08AFD00AA01214FF4447099
:10447C0004F084FD0DF10A02022140F2113004F027
:10448C007DFD02AA022140F2123004F077FD0DF1FD
:10449C000602022140F2133004F070FD01AA022141
:1044AC004FF4457004F06AFD0DF10202022140F256
:1044BC000F3004F063FD0FF2FC720A21002002F0B1
:1044CC001FFDA021062002F01BFEA021072002F0F8
:1044DC0017FEA021082002F013FEA021092002F0F3
:1044EC000FFE4FF0FF3002F008FD4FF0FF3002F0EE
:1044FC00E4FC05F0EFF9FF22302104F11C0000F080
:10450C0059FD04F11C023021802002F0CBFF48B190
:10451C000FF21070FFF7F1F804F11C02302180202B
:10452C0002F0D5FF00206075FFF7CCFE0B2002F0E7
:10453C009DFF0FF28C721121012005F0D3F90FF2BF
:10454C0094752A460521022005F0CCF92A4605214E
:10455C00052005F0C7F90FF284721421032005F031
:10456C00C1F90FF298720821042005F0BBF90FF283
:10457C0080720921062005F0B5F9012000F041F9FF
:10458C003020FDF79EFD0546302D06D100F05DF87C
:10459C000FF2A850FFF7B1F808E00A210A2000F04A
:1045AC0040FA29460FF2A850FFF7A7F8FDF700FED6
:1045BC0001460FF2C050FFF7A0F8A08B4FF6FF7129
:1045CC00884204D10FF2C850FFF797F827E0800714
:1045DC000CD404F120020C210420FDF764FE04200D
:1045EC00FCF729F8E08A40F00200E082207F4007C7
:1045FC0015D404F12C020F21042005F0A7FA04F1C4
:10460C003B020F21052005F0A1FA042001F002F96C
:10461C00052001F0FFF8E08A40F00400E08205F08C
:10462C00ADFB01F0CBF804F1940004F07CFE00200B
:10463C0002F007FC208BC0B202F000FC206D0FF2E0
:10464C00814104F042F905B030BD05210F20E8E1AD
:10465C00000000002DE9F04186B0FFF77BFE0FF261
:10466C007C510FF26C500FF28854DFF88464DFF841
:10467C007474FFF742F84FF6FF780FE00221002028
:10468C0004F0C8FB0221002004F0D9FB0221002019
:10469C0004F090FB0028F1D104F074FB00F0ADF8AD
:1046AC000A20ADF802004FF0FF30019000A83168ED
:1046BC008847002860D10820ADF80C000920ADF81F
:1046CC000E0003A831688847BDF81210059D70BB19
:1046DC00BDF81000102804BF388B814216D1287801
:1046EC00912807D0B02802BF297905F1080002F003
:1046FC00B0FD0BE068780E2802BFA88841F2054196
:10470C00884203D1A86890F9030078747DB100F059
:10471C0074F8032005E0687800F09EF800F06DF85E
:10472C000520ADF80200019500A831688847786D26
:10473C00FDF7BEFEE0B9786DFFF772F90500F6D013
:10474C0028780128E7D00228E8D16978A8780C29C4
:10475C000BD0E3D30E2901D004D3DFE7797D0843D6
:10476C007875DBE701F056F8D8E7FBF764FFD5E77F
:10477C0005F020FB01F02AF9788B410729D54FF67B
:10478C00FB7108407883387C062812BF022807F199
:10479C006400FFF7D5F8387C06280ED10220B874D7
:1047AC00ADF8088002A940F20E3004F02DFDBDF8E2
:1047BC000800404518BF02F012FE387C022804D1D4
:1047CC000320B8740121FFF741FF387D08B1FFF7D2
:1047DC0079FD788B01077FF561AF4FF6F7710840D3
:1047EC00788304F0C8FA04F0C2FAC0F30020002861
:1047FC0002D02046FEF781FF48E70820ADF8000004
:10480C00704710B5B74C0100206D0FD00122142158
:10481C0004F041F80120B84920750968BDE8104042
:10482C004CF25030B0FBF1F0FBF7E2BE0022142149
:10483C0004F031F80020207510BD01460022012043
:10484C0019E1000070470000A648418B41F00801B7
:10485C004183C06CFFF72EB87FB5012804460FF2D8
:10486C007036A04D0BD0022845D0042818BF05285F
:10487C006BD0062853D0082800F0B080B9E0FFF7C1
:10488C00E4FE02A94FF4417004F0BEFC9DF8080050
:10489C008DF8000002A900A84A7842708A788270CC
:1048AC0000220271C2704A798DF807200A79C97802
:1048BC008DF80620417100AA0821002005F012F89D
:1048CC009DF808008B4A9DF80810000990740A287E
:1048DC00ACBF572330231818907401F00F010A292C
:1048EC00ACBF57203020D1744018D07400F090F831
:1048FC000FF27C317BE005F16400FFF738F818B952
:10490C0005F16400FFF71CF8287D10B90120FFF7B2
:10491C0078FF002000F0DDF80FF2603167E005F160
:10492C006400FFF724F818B905F16400FFF708F8E4
:10493C00286D00220F2103F0AEFF0FF24C3100F076
:10494C0064F80420FEF772F853E000F0B0F80FF2B0
:10495C00443100F05AF8A87C02280AD00FF24031FA
:10496C0000F053F80020FFF74CFF0420FDF77CFF0C
:10497C003FE06E7D0120002EA8743AD0F0070DD5D3
:10498C0005F120010420FDF7CAFCA88B4FF6FD7140
:10499C000840A883E88A40F00200E882B00706D5F8
:1049AC0005F12C01042005F013F900F024F8700730
:1049BC0006D505F13B01052005F00AF900F01BF8BE
:1049CC0005F11C023021802002F081FD18B10FF29C
:1049DC007820FEF792FE002068750AE000F067F878
:1049EC00286D01220A2103F056FF0FF2C02100F0BE
:1049FC000CF82C747FBDA88B4FF6FB710840A88374
:104A0C00E88A40F00400E88270473046FEF775BE35
:104A1C001D214FF4427004F0B1BA0A46014602203F
:104A2C0029E02DE9F04104460D4600262D4F16E0F5
:104A3C00386D0122214603F02EFF2F49096844F6F8
:104A4C002060B0FBF1F84046FBF7D2FD386D002238
:104A5C00214603F020FF4046FBF7CAFD761CF6B258
:104A6C00AE42E5D3BDE8F0811E494A8B1043488322
:104A7C00C86CFEF71FBF70B584B00446FFF7BDFECF
:104A8C000D460420ADF80200032019490968019075
:104A9C00164600A8884748B9029A3AB11470557066
:104AAC0096701048C16C406DFEF796FF7FBD80B5C7
:104ABC00FBF778FE00F012FFBDE8014005F0A8B945
:104ACC00042902D0112902D0704705F058B900F022
:104ADC0055BF044A50730E2140F2073004F04EBA11
:104AEC00F4330020DC0A0020D8250020A8CB0000DD
:104AFC007C0F0020E80E0020B0D70000436F6E74CE
:104B0C00726F6C6C65725F53656E736F72436F6E10
:104B1C0074726F6C6C6572496E6974204661696C55
:104B2C0065642E0A0D00000050494E5F6F70656E73
:104B3C00204661696C65642E0A0D000073656C6615
:104B4C00546573744D617020506173732E0A0D009F
:104B5C0073656C66546573744D6170204661696C45
:104B6C00656428476F74203A30782578292E0A0D11
:104B7C000000000046696754657374526573756C68
:104B8C0074203A20307825303478200A0D0000004B
:104B9C004469646E742066696E642043616C69625A
:104BAC00726174696F6E206461746120696E204655
:104BBC006C6173682C204D6179206361757365207D
:104BCC006F6666736574206572726F722E0A0D00C3
:104BDC004C43443A25730A0D00000000436F6E7479
:104BEC00726F6C6C657220537461727400000000FB
:104BFC0053656E736F7220436F6E74726F6C6C655D
:104C0C0072204F766572666C6F77206572726F7268
:104C1C0020686173206F63637572726564210D0A7D
:104C2C0000000000436F6E74726F6C6C65725F52A3
:104C3C0065616443616C6962726174696F6E204571
:104C4C0072726F720A0D0000436F6E74726F6C6C2F
:104C5C0065725F53746F726543616C6962726174E3
:104C6C00696F6E204572726F722E0A0D0000000083
:104C7C00496E697469616C697A6564004164766532
:104C8C0072746973696E6700436F6E6E65637465E9
:104C9C006400000057616974696E672E2E2E000047
:104CAC00506F776572206F66662E00004572726FCA
:104CBC0072000000467265652057726974650000C9
:104CCC0043433236353020467265655772697465D8
:104CDC00000000004E2E412E00000000312E302E20
:104CEC003120284170722032302032303138290086
:104CFC0053504945204C4142000000005043422093
:104D0C00322E30000F0880860A088086042007C0E7
:104D1C0014048080112007C0FF000000E0B50821BA
:104D2C00ADF8001001900421ADF8021000A836492E
:104D3C000968884708B100200EBD02980EBD38B531
:104D4C00324D334C28788000FFF7E8FF206028783C
:104D5C008000FFF7E3FF21686060002918BF00287E
:104D6C0001D1132032BD4FF6FF75284601F054FED9
:104D7C006168284601F050FE04F1200001B0BDE846
:104D8C0030400FF24C131022072102F099B8214940
:104D9C000A681AB900B108600020704711207047EA
:104DAC003EB5030010460FF27104194D02D0032BCF
:104DBC000DD01EE00C291AD101460C2205F1080079
:104DCC0002F0BAFB00F017F805F108010BE00C2912
:104DDC000DD101460C2205F1140002F0ADFB00F0E0
:104DEC000AF805F11401286801F030FE3EBD1820C8
:104DFC003EBD02203EBDFF20019002940720009092
:104E0C0005F12003002270477C0F0020940600203F
:104E1C00740B002060340020F8B50D460027287A6A
:104E2C00C00616461C4601D50820F2BD069808B1EE
:104E3C000B20F2BD00A9284602F0B9FB012802D1D3
:104E4C0027800120F2BDBDF800004AF63D21401A32
:104E5C0001D0401E07D10C2020800C22E96830467E
:104E6C0002F06AFB01E027800A273846F2BD2DE9E3
:104E7C00F0410D460446287A0027800684B0164679
:104E8C00984648BF08201FD402A9284602F08FFB81
:104E9C00012819D0BDF8080042F60211401A05D0BD
:104EAC0048F23B11401A01280DD90BE0012001906A
:104EBC0043460A98009032462946204601F024FECB
:104ECC00074600E00A27384604B0BDE8F081000030
:104EDC00254E00007B4E000000000000FF2212EA6D
:104EEC00D05C1DBF12EAD153944593422BE09C44F5
:104EFC00D30780EA01021A4043EA002043EA012169
:104F0C00A1FB0030410038BF40007CF17F010BDB7E
:104F1C00FE294ADA5B0842EAC15153EA006373F195
:104F2C00004C51EB10207047D1F1080CDCF1200142
:104F3C002FDB5B0810FA01F10B4373F1004120FAEF
:104F4C000CF05041704794451CBF02EAD153934278
:104F5C0080EA010202F000421DD0400019D0490045
:104F6C0017D05BB9634514D00902B1FA81F39940AB
:104F7C00BCEB030CC00140F00040C1E70002B0FAEA
:104F8C0080FC10FA0CF0B3EB0C0CC90141F00041A1
:104F9C00B6E71000704740000AD0490008D010F165
:104FAC00807F94BF11F1807F02E042F0FF40704798
:104FBC00D043704762F30F2262F31F4200B500BF6B
:104FCC00130096469446103928BFA0E80C50FAD826
:104FDC005FEA417C28BF0CC048BF40F8042BC907CE
:104FEC0028BF20F8022B48BF00F8012B00BD0000A1
:104FFC000022FFF7E3BF000090EA010F44BF81F0ED
:10500C00004100F0D3B900BF431A4FF000423EBF3D
:10501C005340C01AC91800BFD3095FEAD05C13EB28
:10502C00400F34BFB3EB410F40E07CEBD1530CD3BA
:10503C0042EA012122D8D1EB402009D3400A28BFF3
:10504C005FEA500140EBCC507047401A15D040023B
:10505C00B0FA80F2521C9040400A4FEA3C23B3EB6A
:10506C00026384BF00EB730007E040F400001A16E3
:10507C00DB07C2F10102D04018437047182BFCDC4F
:10508C0031FA03F202FA03F3591A38BF42F0010263
:10509C00D2EB40203CBF4000ACF1010C5FEACC5C91
:1050AC00C20572F100414CEB5020704713EB400FDE
:1050BC000FD24B0009D0ACEBD153022B03DB4902CE
:1050CC00172BDDDD70479143401A4300D5D10020EA
:1050DC00704713EB410FD0D36FF000007047000006
:1050EC004FF0807C1CEB400F94BF1CEB410F05E094
:1050FC0040EA010C5FEA4C0C01D28142704718BFA8
:10510C0088427047F0B44FF0004591EA030C44BF5D
:10511C006B4001F085BA00BF841A71EB030603D211
:10512C00001BB141121973414FF4001C1CEB410FD1
:10513C0034BF7CEB430443E00C0DA4EB1356352E2B
:10514C0050DC45EAC323DB0A45EAC121C912B6F19A
:10515C0020050DDD63FA05F6EB4086EA03051242E5
:10516C0018BF45F00105C01851F100010CD213E035
:10517C0062FA06F5F2405540F3415A40B340F34011
:10518C005A408018594107D349085FEA30005FEA5A
:10519C00350528BF45F0010501F58011420875F170
:1051AC00004250F1000041EB0451F0BC4FF4001CE4
:1051BC001CEB410F38BF70470020090D09057047E3
:1051CC001CEB410F10D252EA43060BD0BCEB410F43
:1051DC0005D80C0DAB43661E342EB5DD02E0AB4397
:1051EC0080185941F0BC7047F0BC70474FEAF17C15
:1051FC00BCF1E04C2CBFBCF5001F11E05FEA4C0C7D
:10520C0034BFBCF17F5F2EE05FEA9C0C4FEA0C1CB4
:10521C004FEA3C0CC10071F100414CEB50707047EF
:10522C00C90241EA5051C00218BF41F0010141F0DE
:10523C0000414FEA6C50C0F10900212810D240EA1D
:10524C00CC7CCCF1200C11FA0CF070F10040CCF1BC
:10525C00200C21FA0CF00CF0004C40EB0C007047C9
:10526C004FEACC707047490011F5001F04D84FEA83
:10527C00CC10FF30C0057047C81770474FF0807CCA
:10528C001CEB400F94BF1CEB410F05E040EA010CF6
:10529C005FEA4C0C01D28842704718BF81427047BC
:1052AC0010B5FF2313EAD0541DBF13EAD1529C4210
:1052BC009A4239E0A41ADA0780EA0103134042EA61
:1052CC00012142EA0020421A3CBF641E01EB42025B
:1052DC00090AB2FBF1FE01FB1E221202B2FBF1F035
:1052EC0001FB10226EF30F201202B2FBF1FE4EEA0C
:1052FC0000207F3406DDFE2C24DA53EA500050EBFC
:10530C00C45010BDD4F1020401FB1E2240F0807188
:10531C00192C1DDC21FA04F0C4F12004A140114326
:10532C0071F10042584110BD9C421ABF03EAD152A0
:10533C009A420FE080EA010E0EF00043400004D0C8
:10534C00490016D143F0FF4010BD490008BFD343BC
:10535C00180010BD9C4205D1D21AF7D001F00041C3
:10536C00484010BD4A0212BF0846484000F00040B9
:10537C0010BD4AB90902B1FA81F2914044B1A418A6
:10538C00C00140F000409EE7C90141F0004152428B
:10539C000002B0FA80F4A040141B94E790EA010FCD
:1053AC0044BF81F00041FFF72FBE00BF421A3CBF43
:1053BC00801A89184FF0004CC0F3C752FF2A24D032
:1053CC00C1F3C75313B3D21AD2F1190327DD4CEA38
:1053DC0001214CFA03F321EA0303D140C20D4CEA3C
:1053EC000020401834BF20EA0C004CEA5000D205D3
:1053FC0053EA006373EB0C0C52EB1020420012F1D9
:10540C00807F38BF7047C00DC0057047490212BF7E
:10541C009A4200EB5120F8E7D2F11703D9D5704727
:10542C00002840F10980F446404200F005F850F0A5
:10543C0000406047002800BF0AD0B0FA80F18840D5
:10544C00D1F19D01C905020672F1004241EB102019
:10545C0070470000B0B581EA030C0CF0004C40F230
:10546C00FF7515EA11541DBF15EA1357AC42AF4234
:10547C0039E0E41923EA455343F48013C90241F09F
:10548C00004141EA505EC7021100A7FB020200284E
:10549C004FF00000EEFB01204FF00001E3FB072171
:1054AC0018BF42F00102401800214941E3FB0E01F4
:1054BC00A4F580640F0302D252004041494154F1DB
:1054CC0001046CDD470872F1004250F1000051EB11
:1054DC000451A1F580115CBF41EA0C01B0BD4CEA4E
:1054EC0005510020B0BD05EA1357AC4214BFAF42C2
:1054FC0041E050EA410E1CBF52EA430E02E0614605
:10550C000020B0BD24423C441BD15FEA070EF6D00C
:10551C00090302BF01460020AEF1140EB1FA81F767
:10552C00AEEB070401FA07FE0C37C7F1200100FAB5
:10553C0007F7C8404EEA000E23EA455343F48013A4
:10554C00A2E733F00043B3FA83F704BFB2FA82FE4A
:10555C0077440B3FE41BB7F1200E2FBF02FA0EF37A
:10556C00BB40C7F1200E22FA0EFE38BF43EA0E03F1
:10557C00BA40641C82E750EA410E14BF52EA430E53
:10558C006FF000014FF4001717EB430F8ABF194659
:10559C0017EB410FB5E74CEA05510020B0BDD4F133
:1055AC000104B4F120070FDAC4F12007520828BF18
:1055BC0042F0010210FA07F501FA07F7E1BF2A439E
:1055CC00E0403843E1400FE0352C98DCC7F1200473
:1055DC0052EA400220FA07F218BF42F0010231FAF7
:1055EC0007F0A1400A43002172F1004250F1000083
:1055FC0051EB0C01B0BD000038B50FB4DDE9020170
:10560C0004F039FC0546DDE9000104F034FC0246E7
:10561C00012DB8BF012A2CDA0198002807D5DDE945
:10562C00000181F00041CDE90001082400E00024D4
:10563C000398002807D5DDE9020181F00041CDE98E
:10564C00020184F00604DDE90201DDE9002300F02B
:10565C0099FE02D200F0AEFE27E0002D06D5DDE962
:10566C000001DDE9022300F0A5FE20E0002000216E
:10567C001DE0022A08BFDDE900011ED0022D08BF83
:10568C00DDE9020119D09542019B07BF00200C49AE
:10569C0000200021002B039B4CBF08240024002B6E
:1056AC0048BF84F00604012A01D184F0020422468A
:1056BC0005B0BDE8304004F0F9BB05B030BD00BF0B
:1056CC000000F03F2DE970480D46C5F30A5240F238
:1056DC00FF739A4283B0044610D0002A04BF2803FB
:1056EC0054EA10300ED020460022002300F04AFE6F
:1056FC003ABF85F000450826002605E0280354EA49
:10570C001030F0D0204655E02946234A234B00F0B8
:10571C0039FE1AD2DFF888B00020594622462B46B3
:10572C0000F074FFCDE9000100225B4620462946BB
:10573C00FFF7E8FCDDE90023FFF78CFE01F034F8FD
:10574C0002460B46204629461DE00122144B00F070
:10575C0019FE27D29B460020594622462B4600F0C4
:10576C0055FFCDE9000100225B4620462946FFF794
:10577C00C9FCDDE90023FFF76DFE01F015F886F09A
:10578C00020622462B4600F015FE324603B0BDE859
:10579C00704804F08BBB00BFCE3B7F669EA0E63FFB
:1057AC000000F03F04F072FC212101604FF0FF304B
:1057BC006FF0004103B0BDE8708800001CB504F028
:1057CC0093F9DFF8C44A04F1AC0004F0B5F90020F9
:1057DC00019000904FF47A7364220FF26D3104F152
:1057EC008800FEF789F801226421022000F04AF9B2
:1057FC00FCF7DEFCA08204F168020F21042004F007
:10580C00A5F904F178020F21052004F09FF9BDE8F9
:10581C00134063E038B5DFF8704A012804F18805BD
:10582C0006D0022835D0042841D0052849D031BDF6
:10583C00FCF7BEFC38B9FF20207001222178012032
:10584C0000F020F931BD2078FF28F6D000A9012006
:10585C0004F0BEF99DF8000060B92846FEF78EF8FA
:10586C000C220021002000F00DF900F06DF8012051
:10587C00A0710AE00320A0719DF80000800900F0DF
:10588C00010060712846FEF75BF89DF8000020705F
:10589C0031BD00A904F09CF99DF800000A21484391
:1058AC0090FBF1F189B22846FEF76AF831BD04F19C
:1058BC00680104F08DF90FF63C20FDF71EFF022164
:1058CC0008E004F1780104F083F90FF64820FDF7A5
:1058DC0014FF04210E20FFF7A0F831BD2DE9F84389
:1058EC00DFF8A449002020700C22002100F0CAF837
:1058FC0000F02AF80020A070607004F1880528469A
:10590C00FEF735F810B12846FEF738F80020A071E4
:10591C00FEF703F9B0B100F00CF9EE5DA08A064277
:10592C0009D000F00CF9A08A10EA062F1CBF49F030
:10593C008000FEF7FDF86D1C052DEEDBFEF7C9F8B7
:10594C0000206082BDE8F18301222178104699E0A5
:10595C0030B5DFF8344925797DB901252571DFF89B
:10596C002C59A86229616A61AB610398E8610498BB
:10597C002862059868620020207130BD70B5DFF890
