:10000000584400209DD6000001CA011001CA011009
:1000100001CA011001CA011001CA011001CA011070
:1000200001CA011001CA011001CA011001CA011060
:1000300001CA011001CA01103FCA0110C0F3C75123
:1000400081B1FF2906D0C110400721F0E04101F144
:100050006051704741020CBF40F4E0016FF0004175
:100060000020704700F0004100020AD0B0FA80FC86
:1000700000FA0CF001F16051A1EB0C5101EBD02121
:1000800040057047C0F3C7517E390EDDC217D1F16C
:10009000200106DD000240F00040C84010445040FE
:1000A0007047D04380F00040704700207047000048
:1000B00062F30F2262F31F4200B500BF13009646A1
:1000C0009446103928BFA0E80C50FAD85FEA417C6A
:1000D00028BF0CC048BF40F8042BC90728BF20F830
:1000E000022B48BF00F8012B00BD0000006801078B
:0E00F00001D50420704700F0030070477047F0
:100100003C0000000000000000000000340100007E
:1001100000000000000000000100000000000000DE
:1001200000000000000000000000000001000000CE
:100130000000000008000000000000003400000083
:100140000000000000000000680100000000000046
:10015000000000000100000000000000010000009D
:100160000000000000000000080000000000000087
:1001700030000000000000000000000098010000B6
:10018000040000000000000001000000FFFFFFFF6E
:10019000FF00000001000000080000000000000057
:1001A0002C0000000000000000000000C40100005E
:1001B000040000000000000001000000FFFFFFFF3E
:1001C000FFFFFFFF080000000000000034050000F2
:1001D000E401000099A1011095A70110A5C201102A
:1001E00009B2011045B80110000000000000000035
:1001F0002E000000280000000000000000000000A9
:10020000140200000000000000000000FFFFFFFFDC
:1002100000000000080000000000000030050000A1
:100220003002000069C201106DC101101FC201102F
:1002300095BA01100000000000000000300000002E
:10024000300500005402000075C20110A9B601106B
:100250009DBF011049B60110000000000000000021
:100260003100000024000000000000000000000039
:1002700080020000000000000000000000000000FC
:100280000800000000000000240000000000000042
:1002900000000000A40200000000000000000000B8
:1002A0000000000008000000000000002400000022
:1002B0000000000000000000C80200000000000074
:1002C0000100000000000000080000000000000025
:1002D00000000000D00D002004000000000000001D
:1002E000000000002000000070010000300000004D
:1002F0001C020000080E00200400000000000000A6
:10030000000000000C000000300400001800000095
:1003100040020000100E0020040000000000000059
:100320000000000024000000480400001800000045
:1003300000000000500E002004000000000000003B
:100340000000000010000000A00100002C000000D0
:10035000CC010000580E0020040000000000000046
:1003600000000000200000006402000024000000E3
:10037000FFFFFFFF780E00200400000000000000D7
:100380000000000028000000880200002400000097
:10039000FFFFFFFF800E00200400000000000000AF
:1003A00000000000580000003C0100003400000084
:1003B000FFFFFFFF880E0020040000000000000087
:1003C00000000000100000006004000018000000A1
:1003D000FFFFFFFF900E002004000000000000005F
:1003E000000000001C000000AC020000240000001F
:1003F000FFFFFFFF980E0020040000000000000037
:100400000000000038000000F40100002800000097
:10041000FFFFFFFF000F00200400000000000000AD
:100420000000000054000000000100003C0000003B
:100430001800000000000000000000004004000060
:10044000080000000000000018000000000000008C
:100450000000000058040000080000000000000038
:100460001800000000000000000000007004000000
:10047000080000000000000002000000F8D60000A4
:03048000FF7F00FB
:100484000100000000000C0000000D00320000001C
:1004940002000000D80D0020000200006DD400000E
:1004A40001CA011000000000000000000800000064
:1004B40000002000180E002001000000600E002043
:1004C4000800000000000000000000000000000020
:1004D400000000000000000001000000A00E002049
:1004E4000600000001000000080F002000000000CA
:0C04F400000000000002000000000000FA
:0F0502002A0001002500300031002E0001000109
:10051200004004000000DCD60000000000000000E3
:100522000000000001000000030087C4011038052C
:10053200000038050000000000008000000080007C
:10054200000000000000600E00200F870000200065
:100552000000B4D60000D0D400000DC30110433B0C
:100562000000453B000099C801109BC80110000023
:1005720000008204000040D2000058D2000028D2BD
:0B05820000000800090001000000015B
:10059000000000000000000000000000000000005B
:1005A000253600008536000005350000AF36000016
:1005B0006D35000021350000AD350000F13600003A
:1005C0008D8600000B8A00000F8A000008000000E2
:1005D0002400000018000000280000002000000097
:1005E0003C0000000C00000034000000DFF800F0C8
:1005F000D9C10110DFF800F025B10110DFF800F0DB
:100600006DA90110DFF800F0D9B6011000B58FB068
:1006100008233C2200216846FFF7E8FFDFF830049A
:1006200000F1EC0107914FF4167201210892069136
:1006300000236A460FF2C5119C30FFF7DBFF0FB0B5
:1006400000BD10B5012886B0DFF8044404D00228AC
:1006500064D004286FD089E001F0BAFFC00609D445
:10066000FF206075002020750122617D012000F0CF
:10067000D9F97BE000202075607DFF28F4D004A923
:10068000012002F05FF89DF8100058B90FF2E00069
:1006900003F045FA04F1780003F080FB002003F03A
:1006A00062FC35E080282FD0002003F05CFC0020A5
:1006B00003F039FF7F21002003F0F0FC9DF81000CB
:1006C000C0F3410003F069FD9DF81000C0F3C100C4
:1006D00003F0BCFD0020A065E06520666066A066B2
:1006E000E0666063A063E063012104F19C0002F016
:1006F000B3F904F1780003F038FB9DF810004106CF
:1007000006D50121217503E0607D08B10121E17565
:100710009DF81000802829D0607527E004A902F018
:1007200011F89DF8101001EB810189B204F17800F5
:1007300003F036FB1AE004F1280102F003F8206B05
:10074000FFF77CFCCDE90201E06AFFF777FCCDE919
:100750000001A06AFFF772FC02460B460FF2200070
:1007600003F0DDF901210E2004F050FB06B010BDAE
:10077000414852532053746F702E0A0D0000000040
:10078000476F7420426F617264204D61672043613E
:100790006C6962726174696F6E2044617461203AA1
:1007A0002025662C2025662C2025660A0D000000D9
:1007B00010B50FF23800DFF8944D03F0B0F90021C6
:1007C00061751422002000F02DF9617D01220120C5
:1007D00000F028F90020A07503F09BFB03F0B6FBA6
:1007E00000206063A063E063E07410BD4148525391
:1007F0002052657365742E0A0D0000002DE9F04348
:1008000089B002A800210022002380E80E00DFF852
:100810009C1C082401250A68ADF81440ADF8165058
:1008200005A8904701F022FF04F083FC884CDFF814
:10083000207DDFF8208D04F55675284601F03EFF37
:10084000284604F09EFC0020019000904FF47A733B
:100850001A460FF2F11104F1780003F061FAFFF784
:10086000A7FF01226421022000F0DCF804F19C05BE
:1008700000F0CFF80020608204F551794FF4F07059
:10088000FFF7BCFE02AE0CE004F1780003F07FFA43
:1008900018B904F1780003F068FA4FF47A70FFF7A2
:1008A000ADFEA07D00285ED0029801F092FAFFF71D
:1008B000E9FB20804146706804F046FDFFF7E2FB4B
:1008C00060804146B06804F03FFDFFF7DBFBA0808D
:1008D000A21DA06D00900C21BDF80000E080BDF9C4
:1008E00002002081E06D00F08CF8206E00F081F8AD
:1008F000002004F04FFC206C0090A21DBDF8000009
:10090000E0800C21BDF902002081606C00F079F8D4
:10091000A06C00F06EF8032004F03CFC207D38B998
:10092000606B00F05EF8A06B00F06BF8E06B06E027
:10093000E06C00F056F8206D00F063F8606D00F098
:1009400058F83888810703D5E07C40F04000E07417
:1009500022461421002001F0BBFEE07C00F0FE00E6
:10096000E0740021A175E07D20B10021E175616393
:10097000A163E16303F0E2FA18B3002003F071FB16
:10098000C0071ED5607D00B34946002003F0A2FCDD
:1009900004F24A31002003F040FC04F554710020B9
:1009A00003F01AFE48B1022803D0002003F0BBFD7B
:1009B00007E06420FFF722FE03E002A9484600F0AA
:1009C00049F8607D00287FF45FAF04F1780003F000
:1009D000DEF918B104F1780003F0E0F900F019F83D
:1009E0005FE70090BDF80000E080BDF902002081C3
:1009F00070470090BDF80000E081BDF90200208240
:100A000070470090BDF800006081BDF90200A08130
:100A100070474FF0FF31284602F01EB801460C2007
:100A200004F0F4B930B5154685B004460A462946A7
:100A30006846FFF73DFB6A462946204601F048FE1E
:100A400005B030BDDFF8041B012088757047000039
:100A5000540200202DE9F04F95B0054689460AA8BA
:100A6000242104F0DDFCFFF7CDFD08900AACB5F9B8
:100A70000000DFF8D86A03F091FC0A904FF00008FC
:100A8000B5F9020003F08AFC6060B5F9040003F0D8
:100A900085FCA060B5F9060003F062FCE060B5F9E2
:100AA000080003F05DFC2061B5F90A0003F058FC72
:100AB0006061B5F90E0003F0A1FCA061B5F90C006E
:100AC00003F09CFCE061B5F9100003F097FCDFF83F
:100AD000881A04F039FC2062B16AA06904F0A4FC11
:100AE0000546E069F16AA56104F09EFC0746206AAC
:100AF000316BE76104F098FCF5643765206270653E
:100B0000E1686569276901F05AFB01F059F901F0C4
:100B100027FB01F06EFB01F02DF901F06CFD00F0F8
:100B2000F3FC0A99A5686768834601F048FB01F069
:100B300047F901F015FB01F05CFB01F01BF901F036
:100B40005AFD0546DFF8140A01F033F90746DFF8CD
:100B5000100A01F02EF900F0D7FC1390DFF8041A08
:100B6000DFF8045AAA6D384604F09EFC98BF4FF097
:100B70007E5700F0BDFC0AD2FFF760FADFF8EC29DF
:100B8000DFF8EC3904F0A2FC04F05CFD02463846C4
:100B9000114604F08BFD38BF3A46AA65104601F0B5
:100BA000E9F801F007FB079059462F79D4F804A023
:100BB000781C2871584604F0C7FB00900A9901F090
:100BC000FEFA01F0D4F8009000F0A6FC01F0CFF896
:100BD000A168824601F0F3FA01F0C2FA01F00BFDC0
:100BE00000F092FC05F14C0141F82700032128791F
:100BF00090FBF1F101EB4101401A2871002705F14A
:100C00004C00DFF8701950F8270004F061FD01F086
:100C1000DCF87F1C032F8046F1DB0898696CCDF867
:100C20002480401A263004F0D1FDDFF84C19DFF89B
:100C30004C8904F04DFD30674F466069D4F80CA034
:100C4000DFF83C9900F0CDFC00F0C0FC04F0FAFCA9
:100C500002906068FFF7F2F900F0B8FC04F0F2FCD3
:100C6000029A029003920A98FFF7E8F900F0AEFCAE
:100C700004F0E8FC039A0299534601F0ADF8206AAB
:100C8000D4F80CA00490E0690390A0690290606918
:100C900000F0A7FC00F09AFC04F0D4FC059060681A
:100CA000FFF7CCF900F092FC04F0CCFC059A05901B
:100CB00006920A98FFF7C2F900F088FC04F0C2FC23
:100CC000069A0599534600F09CFCFFF79BFC68646C
:100CD0004FF0804AD6F81880D6F81C9001F078F8CA
:100CE00000F023FC01F043F80090316A01F067FA4C
:100CF00001F04CF800F014FC01F048F8FFF79EF901
:100D0000CDE90001306A01F052FA8146706A01F0C3
:100D100060F801F042F801F05BFAFFF78FF9DDE9C6
:100D2000002304F061FDDFF85C28DFF85C3804F094
:100D3000CDFB04F087FC3860B169306A04F004FB35
:100D40008046F169706A04F0FFFA0146404604F0FB
:100D50006BFB01F03DFAFFF771F904F0CFFD04F0F1
:100D600071FC7860D6F81880D6F8209001F030F841
:100D70000090F16901F023FA01F008F800F0D5FBCA
:100D800001F004F800F0CCFB00F0F1FFFFF756F99A
:100D9000CDE90001F06901F01CF88046706A01F0AD
:100DA00006FA01F012F801F013FAFFF747F9DDE94E
:100DB000002304F019FD04F045FCB860DFF8CC17FF
:100DC000386804F071FB0AD8FFF738F9DFF8B42768
:100DD000DFF8BC3704F07AFB04F034FC3860386884
:100DE000DFF8B087DFF8B097FFF728F900F0EEFBE7
:100DF00004F028FC38607868FFF720F900F0E6FB83
:100E000004F020FC8246B868C7F804A0FFF716F982
:100E100000F0DCFB04F016FCB860206A636922690C
:100E2000E1680290E0690190A0690090504604F0EA
:100E3000F9FE1398FFF702F907468946DFF818070D
:100E400001F08BF9FFF7FAF821F0004100F058FBB0
:100E50004FF08042DFF8443705F0D2FD21D26979A6
:100E600014290DDDB07C58B90FF2446002F057FE32
:100E70000898A8640120B0740020B065F065306661
:100E800068796428B8BF401C14DBB07C022814D0F9
:100E90000FF2286002F043FE0220B0740120F075CA
:100EA00009E0B07C28B10FF2206002F038FE00208B
:100EB000B07400206871B07C022800F076820FA91F
:100EC00002910EA80DA90190009162692169E06864
:100ED000DFF8CC76012301F091F90BA90AAA0CA83E
:100EE00001910092029063692269E168012001F09A
:100EF000CDF900F079FBDFF8AC26DFF8343E04F0E2
:100F0000E5FA04F09FFB394602460A98DFF8243ED2
:100F1000A26004F0CBFB05D2194604F0C5FA9CBFD1
:100F200000200A90606800F0E4FA05D2194604F047
:100F3000BBFA9CBF0020606000F0DAFA05D21946C7
:100F400004F0B2FA9CBF0020A0600A990798DFF86D
:100F5000E88DDFF8E89D04F0F7F9A96B05F068FD6E
:100F600001F028F9834661680798C4F80CB004F0D2
:100F7000EBF9E96B05F05CFD01F01CF98246A16814
:100F80000798C4F810A004F0DFF9296C05F050FDB3
:100F900001F010F907466761C5F838B0C5F83CA004
:100FA0002F645846FFF74AF800F010FB04F04AFBA4
:100FB0000A9000F01EFB00F009FB04F043FB6060A8
:100FC0003846FFF73BF800F001FB04F03BFBA06064
:100FD000002030647064B064B16D376ED6F85CA0E8
:100FE00001F0EDF8834601F0F2F801F0B6F800F0F8
:100FF000E7FE01F0B5F801F0FEFA0290B07C00289F
:1010000040F043816F690A98DFF834ADDFF834BDF2
:10101000FFF714F800F0F0FA00F08CFA00F0CAFACA
:1010200004F010FBE0606068FFF708F8CDE900010C
:10103000686AFFF703F800F07DFA00F0BBFA04F0ED
:1010400001FB206100F0D0FACDE90001686BFEF7EA
:10105000F5FF52465B4605F05DFD00F0ABFA04F08B
:10106000F1FA6061394600F0A1FE696A01F0A6F864
:1010700000F080FE696B01F0A1F800F07BFE01F04A
:10108000BAFA074602994FF07E5004F021FB80F037
:101090000040FEF7D3FF04F0D5FADFF8AC1C009156
:1010A00083463846FEF7CAFF42464B4605F032FDFE
:1010B00002460B460020DFF8941C05F0FDFD04F00D
:1010C000C1FA009900235A4601F0ABF9DFF8801C01
:1010D00004F03AF907466969E06805F0A9FC00F0F8
:1010E00071FE01F067F8E060696A206905F0A0FC14
:1010F00000F068FE01F05EF82061696B606905F040
:1011000097FC00F05FFE01F055F86061E0680D9912
:101110003064206970646069B06400F0FAF9B16D00
:1011200005F086FCB0652169306FDFF8289C04F07B
:101130000BF9F16D05F07CFC83466169306FC6F8F0
:101140005CB004F001F9316E05F072FC0746706E78
:101150003766FEF773FFCDE90001B06DFEF76EFF55
:1011600000F034FA00F0C8F904F06CFA7066B06E62
:10117000FEF764FFCDE900015846FEF75FFF00F07F
:1011800025FA00F0B9F904F05DFAB066F06EFEF7EA
:1011900055FF00F031FA00F019FA00F0ADF904F053
:1011A00051FA00218246E068DFF8AC9BC6F86CA0DB
:1011B00004F07AF94FF0333803D2B06D04F076FAC8
:1011C00007D3E06804F072FA0AD2B06D04F06CF94B
:1011D00006D2FEF733FF00F0F9F904F033FA03E02A
:1011E000B06D716E04F020F9B0650021206904F043
:1011F0005BF903D2584604F059FA07D3206904F08A
:1012000055FA0AD2584604F04FF906D2FEF716FFF7
:1012100000F0DCF904F016FA02E0B16E00F0A8FF6D
:10122000F0650021606904F03FF903D2384604F00C
:101230003DFA07D3606904F039FA0AD2384604F05F
:1012400033F906D2FEF7FAFE00F0C0F904F0FAF91D
:1012500003E03846514604F0E7F83066B07CA0B9A8
:10126000B16D00F056F9716B05F0E2FB7063F16D42
:1012700000F04FF9B16B05F0DBFBB063316E00F0AD
:1012800048F9F16B05F0D4FBF06305F1080228780A
:101290000A9942F82010401C287000F021F92870AB
:1012A0000027002068616869FEF7C8FE804605F1E6
:1012B000080000F091F900F043F9424600F021F9EE
:1012C00004F0C0F97F1C032F6861ECDB05F1180204
:1012D0006878616842F82010401C687000F000F9DE
:1012E0006870002700206862686AFEF7A7FE8046E3
:1012F00005F1180000F070F900F022F9424600F004
:1013000000F904F09FF97F1C032F6862ECDB05F104
:101310002802A878A16842F82010401CA87000F0AC
:10132000DFF8A870002400206863686BFEF786FE73
:10133000074605F12800894650F82400FEF77EFE96
:1013400000F0FEF800F0DCF804F07CF9641C032CDB
:101350006863EADB4FF08241099804F0A7F909D2EB
:10136000A87970B90121A971F07C40F00100F074F6
:10137000B17506E0DFF8D81D04F096F89CBF002098
:10138000A871F07C01061AD4706F4FF07E5104F002
:101390008DF914D2F07C40F08000F0740FF234101C
:1013A00002F0BDFB0120B07509E000200290019021
:1013B000009062692169E068002300F01FFFB16DB1
:1013C000346EF56D00F0FBFE00F013FF00F0D2FC70
:1013D000054601F01DF800F0DDFC01F00CF900F00D
:1013E00093F8DFF88C1E776E04F05EF8044639D867
:1013F0004FF0785001F00DF8FEF720FEDFF8742E64
:10140000DFF8743E05F086FBD6F858A004460D467A
:1014100000F0EFF800F0EBF800F0D2F800F0C4F8BC
:1014200004F010F9B065D6F85CA000F0E2F800F026
:10143000DEF800F0C5F800F0B7F804F003F9F06545
:10144000D6F860A000F0D5F800F0D1F800F0B8F8B8
:1014500000F0AAF804F0F6F83066DFF8204EDFF866
:10146000205E08E04FF07E5104F020F91BD2DFF837
:10147000144EDFF8145E3846FEF7E0FD00F0A0F8E9
:1014800004F0E0F87066B06EFEF7D8FD00F098F852
:1014900004F0D8F8B066F06EFEF7D0FD00F090F8DA
:1014A00004F0D0F8F06615B0BDE8F08F9C0B00207A
:1014B0005374656164792E0A0D000000536C6565F4
:1014C000702E0A0D000000004D6F76696E672E0ABF
:1014D0000D00000052656164792E0A0D00000000C5
:1014E0000321C0B290FBF1F101EB4101401A7047BA
:1014F0001046394604F0DAB8DDE9002303F0E6BF10
:101500003A464B4603F0E2BF01464FF07E5004F0EE
:10151000DFB8306F03F018BF5146504603F014BFD8
:101520000090716A084603F00FBF00904946484694
:1015300003F00ABF02460B465046594605F0EABA88
:101540000022DFF8B83E05F0B7BB000054020020CF
:101550005E0700200000C842000080BF00007A4300
:101560000000FA430100803FB0050020FCA9F1D241
:101570004D62503F000040400050C347399D52A289
:1015800046DF913F182D4454FB210940DB0F4940B1
:10159000FB2119C0F8C1631ADCA54C40E17AB43FC5
:1015A0006F12833A3D0AD7A302460B46404649468E
:1015B00005F0A6BC02460B46DDE9000105F0A0BC23
:1015C00002460B462046294605F0A4BA02460B46C1
:1015D0004046494605F09EBA894650F82700FEF776
:1015E0002DBD019020690090A068FEF727BD8046C0
:1015F00089465046FEF722BDCDE900013846FEF788
:101600001DBD2DE9F04F05469BB0DFF8880E249EE6
:10161000259F446ADFF880BE89468169039192461E
:10162000C16902919846016A0298019100F0C1FBDC
:1016300080F000400090494600F0B5FD00F0A6FBA8
:101640000090514600F0AFFB00F0A0FB00F0BBFDA6
:101650000E90294600F09FFD0090514600F0A3FD3A
:1016600000F085FB0090494600F09DFB00F08EFBEA
:1016700000F0A9FD0D90494600F08DFD0090514607
:1016800000F0ABFD00F082FB0090294600F08BFBE0
:1016900000F06DFB00F097FD0C9000F07BFD8246A2
:1016A000029800F084FD00F05BFD8146019800F097
:1016B00080FB0146484603F0B7FE00F084FD0B9026
:1016C0000021404605F08EFC08D1304605F08AFC2A
:1016D00004D1384605F086FC00F0DF82DDF8A090EA
:1016E000279DDDF898A000F073FB834600F095FE7F
:1016F00000F033FD834600F064FB00F02EFD00F0A7
:101700007AFF8346404600F05EFD1890594600F08F
:101710003EFD2490594600F049FB2590FFF7FCFE62
:10172000064600F067FD00F01FFB064600F03EFD98
:1017300000F01AFB00F05FFF0646504600F06EFE18
:1017400026903146284603F0FFFD0546484600F046
:1017500065FE8146039900F02FFB0646269800F0AF
:101760005DFE0890294600F012FD8246304600F0EA
:101770001EFD8346029900F01FFB0746269800F0E5
:1017800021FB17960A978046019900F015FB074642
:1017900009974FF0804000F03CFE169000F002FDEB
:1017A0001590214600F002FB1990039900F007FD07
:1017B0000690039900F011FD1090039900F0F3FCDE
:1017C0000F90214600F0E7FC1390029900F0F7FC1F
:1017D0000490029900F0E7FC1290214600F0FDFC15
:1017E0000590019900F0EBFC0646019800F011FE0F
:1017F0001190214600F0D7FA0746269900F0C3FC65
:1018000000902146FFF789FE00F0C0FA009059468B
:1018100000F0C9FC00F0ABFA00902699049803F0A0
:1018200093FD00F0A4FA0090294600F0B9FA01995E
:1018300003F08AFD00F09BFA0090494600F0B0FAF0
:1018400000F0E7FD00F093FA00903146269803F08F
:101850007BFD00F09BFA00903946269803F074FD5A
:1018600000F094FA07902146089803F06DFD00906F
:10187000294600F088FC00F07AFA00F0ACFC00F099
:1018800085FA8346019800F0A4FA00F066FC8346CE
:10189000049800F08EFA00F06AFC834600F0A5FC84
:1018A00000F05BFC8346099800F081FC00F0B1FD7C
:1018B00000F053FC8346284600F084FA00F057FC01
:1018C0000799834600F07BFC00905946584603F088
:1018D0003BFD00F04CFAFEF7B1FB05F091FB03F085
:1018E000B1FE00F07DFC8246089900F05CFC00F03F
:1018F0003AFC8246069800F05AFC00F031FC824621
:10190000404600F086FD00F02BFC8246049800F073
:101910004EFC00F028FC8246099800F04AFA00F0DC
:1019200078FD00F01DFC8246484600F077FD00F08F
:101930001AFC8246484600F045FA00F011FC824647
:101940004FF0804000F03FFC1490514600F034FA14
:1019500080460F99059805F06BF800F034FC009074
:101960004FF07C50049903F05FFD314603F05CFDBD
:1019700000F02EFC00F0FBF9494603F055FD0890FD
:10198000139900F0FBF900F01EFC814610991198A4
:1019900005F04EF800F01CFC00F0FFF9294603F0BA
:1019A00043FD079031464FF07C5003F03DFD394632
:1019B00003F03AFD00F007FC054605980F9903F087
:1019C00033FD00F005FC00F0E5F906904FF0804093
:1019D000059903F0B9FC07461598394603F024FD34
:1019E000189905F025F813904FF08040109903F0F6
:1019F000ABFC199905F01CF8249903F015FD05902E
:101A0000594600F0D0FB054600F0EBFB1290514622
:101A100000F0C9FB1190059900F0C2F981461399B5
:101A2000099803F091FC00F0B8F9814626980699D0
:101A300003F0FAFC119903F087FC00F0AEF981463F
:101A4000584600F0E6FC00F098F900F0DEFC00F0EB
:101A5000A4F98146089800F0ACF900F09EF981469F
:101A60004FF0804000F0DAFC0646049900F0A4F93B
:101A700000F0C6FC0146304603F0D6FC259904F080
:101A8000D7FF10903846159903F0CEFC189903F053
:101A9000CBFC0F9000F07EFB04902146FFF73DFD4C
:101AA00082460F99169803F04FFC07460599179840
:101AB00003F04AFC00F05EF907464FF081460298B9
:101AC00000F0ACFC109903F03FFC00F053F907461E
:101AD00000F058F900F07CFB00F04CF90746049840
:101AE00000F058F900F091FC00F044F90546584622
:101AF00000F08FFC0746029800F06BF900F03BFB0A
:101B0000089903F021FC00F045F9054600F05AFB66
:101B10000746029800F057FB83460599169803F094
:101B200013FC00901399179803F00EFC00F01FF9B6
:101B3000009000F037FB109903F006FC00F017F955
:101B40000090149900F02FFB049980F0004003F0FE
:101B50006BFC00F016F900F061FC00F008F9064695
:101B6000584600F0FDFA00F050FC00F0FDF8064683
:101B7000019800F02EF900F0FEFA089903F0E4FB5A
:101B800000F0F2F882460F9900F00AF9064605992E
:101B9000099803F0D9FB00F0E7F88046149800F0AC
:101BA00038FC00F0EAF800F0ECF800F037FC00F048
:101BB0000CF906461198394603F036FC0799DFF810
:101BC000DC7803F0C1FB00F0CFF80646089800F07F
:101BD000FAFA00F0C9F8804600F0E8FA064600F08C
:101BE00009FB00F0C1F800F0F1FA00F0BDF806467C
:101BF00000F0EEF800F0B8F800F0FDFC06464846AC
:101C000000F00CFC00F0DEF801460E9803F00CFC2E
:101C10000E903146284603F097FB00F0D3F80146BA
:101C20000D9803F001FC0D903146FFF776FC00F0B3
:101C3000C9F801460C9803F0F7FB0C90314640467A
:101C400003F082FB00F0BEF801460B9803F0ECFBBA
:101C50000B900E98FEF7F2F9024621F000430020A7
:101C60003A4905F04DF905460D980E46FEF7E6F99E
:101C700000F074F805460C980E46FEF7DFF900F008
:101C80006DF805460B980E46FEF7D8F900F066F899
:101C900003F0D8FCDFF8FC174867DFF8F807066F99
:101CA0000E9800F0BBFB039904F0C2FE05460D98A8
:101CB00000F0B4FB029904F0BBFE07460C9800F05C
:101CC000ADFB019904F0B4FE82460B9800F0A6FB30
:101CD00000F040FA044600F08DFA064600F071F874
:101CE00000F042F800F072FA00F03EF8064600F00C
:101CF0008FFB00F039F800F07EFC064600F075FA24
:101D0000DFF890178861384600F088FBDFF88427F9
:101D1000D061504600F082FBDFF878170862204659
:101D200000F07CFBDFF86C2750621BB0BDE8F08F41
:101D3000703DF2BF6E1283BA9A999999999923408E
:101D4000B81E85EB51B8DE3FCDCCCC3F0000F03F54
:101D50000000A0409999993F3333D33F21F00041CF
:101D60002A46334603F0B2BB314604F061BE009907
:101D700004F05EBE394604F05BBE0146129803F0E3
:101D800053BB06460698269903F04EBB01460098C1
:101D900003F04ABB294604F04BBE494604F048BE56
:101DA0000A9803F0D1BA204603F0CEBA384603F0C1
:101DB000CBBA294603F0C8BA4FF0804003F0C4BA4A
:101DC00082463846394603F0BFBA414604F030BE79
:101DD0004046414603F0B8BA2DE9F04F804691B035
:101DE000DFF8B0061A9E1B9F8A46816904919346CC
:101DF000C16902919946016A0191416A0298039171
:101E0000FFF7E7FF80F00044019800F0E1F900F0EF
:101E1000B6F9044600F0D6F900F0B1F900F0CAF9BD
:101E20000A904146049803F08FFA0446019800F0A6
:101E3000CAF900F08FF90446039800F0C9F900F0E0
:101E40009EF900F0B7F90446049800F0C1F9054680
:101E5000029800F0B8F90146284603F0E5FA054675
:101E60000398FFF7B6FFFFF795FF00F0A3F90546CB
:101E7000049800F0A8F900F0B3F900F06EF982467A
:101E80000198FFF7A6FF00F06EF900F093F9804685
:101E90004846002105F0A6F808D1304605F0A2F822
:101EA00004D1384605F09EF800F01E8100F07EF95E
:101EB00000F0B2FA00F054F9FFF782FF00F050F999
:101EC00000F099FB8246484600F082F9079000F046
:101ED0005DF91A905146FFF769FF1B904FF080465D
:101EE000049800F09BFA0E90314600F076F90D90C0
:101EF00000F058F90C90314600F04DF981460499F4
:101F000000F04CF98346029900F048F90646019921
:101F100000F044F909904FF0824A00F062F9074658
:101F2000019800F055F90499824600F048F90F90A5
:101F3000029900F044F90690019900F040F90590EB
:101F4000039900F03CF90B905946059803F0FCF911
:101F500000900C99079803F0F7F9FFF708FF00903D
:101F6000594600F010F9FFF702FF83460D991A98C1
:101F700003F0EAF900F0FBF808904FF081400F9968
:101F800003F0E2F983460B9800F048FA00904946C6
:101F9000079803F0D9F9FFF7F9FE00F01CF9FFF7F5
:101FA000E6FE0E9900901A9803F0CEF9FFF7EEFEC8
:101FB000314603F039FA0090394600F0E4F8FFF7B3
:101FC000D6FE00903946059803F0BEF9FFF7CFFE24
:101FD00007461B9800F022FAFFF7CCFE0646019850
:101FE00000F0F1F807460E990798DFF8B0B403F057
:101FF000ABF9FFF7BFFE074609990B9803F0A4F968
:10200000FFF7B8FE07461A9800F0D1F800F0B3F8D1
:10201000099903F009FA0746069800F0D9F8FFF786
:10202000A9FE0746059800F0D3F8FFF7A3FE074680
:1020300009991B9803F088F9FFF79CFE81460699E1
:1020400000F0ACF8039903F07FF907460D99079863
:1020500003F07AF900F08FF80746059900F09EF832
:10206000039903F071F9FFF785FE07460C991A985A
:1020700003F06AF900F07FF8089900F09FF800F08B
:10208000CBF900F06DF8824600F090F800F068F8A7
:10209000FFF796FE00F064F800F0ADFA824608986B
:1020A00000F096F800F08FF801460A9803F0BCF9AA
:1020B0000A9000F06BF800F086F800F060F8044633
:1020C000484600F085F800F07EF80146284603F007
:1020D000ABF90546384600F07BF800F074F801468D
:1020E000404603F0A1F98046DFF8A803066F0A987E
:1020F00000F094F9049904F09BFC0746204600F098
:102100008DF9029904F094FC044600F06EF80199F0
:1021100004F08EFC0546404600F080F9039904F077
:1021200087FC0646FFF74DFE074600F071F9FFF702
:1021300021FE044600F05EF800F00CF8044600F0C2
:102140006CF900F007F811B0BDE8F04F00F053BA99
:102150000100C841214604F06BBC594604F068BC3C
:10216000514604F065BC0146504603F05DB9014696
:10217000584603F059B90146384603F055B90146AF
:10218000204603F051B9069803F0DEB851463046B8
:1021900003F0DAB85146039803F0D6B84FF0814007
:1021A00003F0D2B83146019803F0CEB8484649460C
:1021B00003F0CAB84FF07C5103F0C6B80746084692
:1021C00003F0C2B80398594603F0BEB8064650461D
:1021D000514603F0B9B800905946029803F0B4B8DC
:1021E00083460298514603F0AFB82846314603F0C3
:1021F000ABB807462846294603F0A6B82DE9F041BA
:10220000032BA8BF022302DA002B48BF0123A44FEF
:10221000D7F824C0069EBCEB030348BFDB1C002E8E
:102220001CBF079D002D4FF00C0E0ED0089C64B112
:102230000EFB03F357F80380C6F800803E1DF658E6
:102240002E6007F10805EB5823600EFB0CF3F850E5
:10225000381DC15007F108000CF10101C2500320E4
:1022600091FBF0F000EB4000081A7862BDE8F081C5
:1022700018B7D1382D431CEBE2363A3FAE47E17A2E
:1022800014AEEF3F0AD7A3703D0AEF3F2DE9F14F9F
:10229000804FD7F81CB0D7F818A00C468AB0154666
:1022A0001E465046FFF78FFF8046386AFFF790FFC3
:1022B0008146786AFFF78CFF82465846FFF783FF16
:1022C00008905946386A03F03FF804905946786AF6
:1022D00003F03AF80390396AFFF771FF8346396AD1
:1022E000786A03F031F80290796AFFF768FF01908D
:1022F0009DF8280058B16B48FFF76BFD8046694890
:10230000FFF755FF81466748FFF762FF8246079453
:102310004FF08044149F05960695584600F079F8D2
:102320000546059800F075F800902146FFF72BFF51
:1023300006464FF07E50294603F076F88346019812
:1023400000F067F8FFF713FF00F05FF8834604988A
:10235000FFF706FF00F062F8FFF7FFFE83460398E1
:10236000494603F061F8009902F0EEFFFFF7F5FE31
:1023700038602146089802F0E7FF00F041F8074670
:10238000079800F046F883460498514603F04CF84D
:10239000FFF719FF8246019800F03BF8FFF7EBFECC
:1023A000069902F0D1FFFFF7DBFE04460298FFF723
:1023B0000CFD009902F0C8FFFFF7CCFE15990860EC
:1023C0004946039804F034FBFFF7FDFE04460298EB
:1023D000414603F029F800F021F8FFF7BBFE044660
:1023E0003846294603F020F8059902F0ADFFFFF7C3
:1023F000B1FE169908600BB0BDE8F08F00000840F0
:1024000001464FF07E5003F00FB8079902F09CBFD1
:102410002046214602F098BF82463046314602F0FF
:1024200093BF2DE9F0420C461D46114602F0FCFF19
:1024300006462046FDF702FE02460B461A481B4997
:1024400004F03AFC074689461648FFF7E7FFFFF716
:10245000E5FF06464FF08040FFF7DBFFFFF7D9FFAF
:102460000146304603F034F9FDF7E8FD04F042FE82
:102470003A464B4604F04EFB06460F462846FDF70B
:10248000DDFD32463B4603F021F8BDE8F04203F0A3
:10249000D9B80000540200208FC2F53E9A99193F26
:1024A00000330020000080BF2BF697DD9387D93FD3
:1024B00001B513460A460121684604F063FE02BDD9
:1024C00038B55A4B1870581C002404E011F8015B11
:1024D00000F8015B641CE5B29542F7D3521CD1B2FF
:1024E000BDE83440184604F02FBE2DE9F84F0746EA
:1024F0004F4C0020207060804FF4807801F026FD62
:1025000001F0F3FCF8064FF0010922D5002001F09C
:1025100000FF18B1207840F0100020700125E8B2CB
:1025200001F0F7FE80B16E1E608809FA06F10843DB
:10253000608045F08000C0B201F0EBFE20B1608801
:1025400008FA06F6064366806D1C062DE7DB01F0EF
:10255000CCFCB80639D5002002F013F818B1207869
:1025600040F02000207001254FF6FF770FF2C80BD6
:102570006E1E608809FA06FA10EA0A0F20D0E8B247
:1025800001F0FFFF40B92946584601F0C8FA6088BB
:1025900087EA0A010840608008FA06F6608830423F
:1025A0000ED045F08000C0B201F0EBFF40B92946E3
:1025B0000FF29C0001F0B3FA60887E40064066800E
:1025C0006D1C062DD4DB01F090FC2078BDE8F28F65
:1025D00017480078704716484088704730B5002289
:1025E00006E08418835C65788554921C6370D2B2CF
:1025F0008A42F6DB30BD10B501460E4CA4EB6104F7
:102600004FF07C5002F0A0FE214602F09DFE2146D4
:1026100002F09AFE01464FF07F5002F005FF21467E
:10262000BDE8104002F090BE00000000B43300206E
:1026300074340020DF59375F4465766963655B2534
:10264000645D204D616720646561642E0A0D0000A1
:102650004465766963655B25645D2D32204D616755
:1026600020646561642E0A0D0000000010B584B07E
:102670000820ADF800000421ADF802109048914CFC
:1026800001788900019168468F490A6890470028BF
:1026900014BF00200298A060010008BF13200BD0D7
:1026A0004FF6FF7004F0E0FD0FF2202310220A2104
:1026B00004F12C0005F039F804B010BD814A5168CE
:1026C00019B900B150600020704711207047000018
:1026D0003EB50B460025114604281A46794C2ED8E3
:1026E000DFE800F0031A1F2D2400142B25D104F17C
:1026F0000C0005F069FB0FF285000290FF210A2211
:102700000191009204F12C03A068002204F10C0155
:1027100004F0C4FD054613E0012B0ED108782070AB
:102720000EE0012B09D10878607009E00C2B04D170
:1027300004F1200005F048FB02E0182500E0022526
:1027400028463EBD10B500240B4604285D4912D82A
:10275000DFE800F0030608110B0014220C3106E03C
:10276000087800E04878187006E00C2220311846FE
:1027700005F02AFB00E00224204610BDF8B50D4606
:102780000026287AC10617461C4601D50820F2BD4E
:10279000069808B10B20F2BD6946284605F067FB94
:1027A000012802D126800120F2BDBDF800004AF6C2
:1027B0003121401A05D0401E012806D9801E0AD0BA
:1027C00011E014202080142208E001202080E86815
:1027D0000178397009E00C2121800C22E968384623
:1027E00005F0F2FA01E026800A263046F2BD2DE916
:1027F000FE430E468046307A0024810691461F46ED
:1028000048BF08202BD402A9304605F030FB012830
:1028100025D0BDF808100A982A4D42F60212891AEE
:1028200041D048F22F12891A18D0491E04D0491EEF
:1028300017D0491E25D041E040BB012F24D1F168BB
:1028400099F800000870F068A84207D10122686872
:1028500000281FBF01680029104688472046BDE8B0
:10286000FE8398B9012F0FD199F8000008B9802490
:10287000F4E7F1680870691CF0688842EED1022222
:10288000E5E718B90C2F03D00D24E7E70B24E5E7A3
:10289000F06805F120018842E0D10C22494605F09C
:1028A00093FA0422D3E70121019100903B464A4666
:1028B0003146404604F05EFD0446CFE70A24CDE7EA
:1028C000C40B00200C0600209C0B00207D2700007C
:1028D000EF27000000000000DFF800F013C1011036
:1028E000DFF800F0F5C00110DFF800F049BA011080
:1028F000DFF800F025C20110DFF800F0C1C20110BE
:10290000DFF800F0E3BF0110DFF800F0B5C10110FF
:10291000DFF800F0D5C00110DFF800F095C001101D
:10292000DFF800F00DA80110DFF800F0BDBE0110C7
:10293000DFF800F021C10110DFF800F02DBF011019
:10294000DFF800F0E1B50110DFF800F0D5C20110AA
:10295000DFF800F0D9C20110DFF800F0F1C5011076
:10296000DFF8DC00007D704738B5DFF8DC00DFF809
:10297000D4500068EFF3118480F31188A868002117
:10298000FFF7CAFF6969081AA969814238BF0020A8
:1029900084F3118832BD00002DE9F041DFF8A80072
:1029A000DFF8A0400768EFF3118887F31188A0686B
:1029B0000121FFF7B1FF0121A1830021E1836569B6
:1029C00021682268461B801A691A884204D20020B6
:1029D000A08388F311882AE088F31188002005E09D
:1029E0004519361A29460120FFF79AFF8642F7D289
:1029F000EFF3118887F31188E18B012903D1294670
:102A00000020FFF78DFFA16910F1010F08BF0846F4
:102A100003D0801B814238BF08464119FFF784FF6D
:102A2000012020840020A083256088F31188BDE860
:102A3000F08101617047808A7047FFF765BF000031
:102A4000A4010020780100201CD700000446DFF814
:102A5000CC000068704700002DE9F84F04460D4691
:102A6000FFF73EFF0646FFF7F2FFEFF3118780F313
:102A70001188D4F80880A84502D187F3118847E06F
:102A8000002DDFF8A49007D5DFF8C40000684FF0F0
:102A9000000A00EB090B06E0012000FA05FAD9F85C
:102AA000180000EBC50B207D012822D12046FFF73E
:102AB0003FFF206CFFF710FF28B1D9F80400E16850
:102AC0008843C9F80400D9F81000A04207D1C9F81A
:102AD00014B02146DBF80000FFF7AFFF03E021460A
:102AE0005846FFF711FFD9F804004AEA0000C9F878
:102AF0000400A560C4F80CA0C4F840B0002D44BF89
:102B00000020C9F814000120A9F8080087F31188F3
:102B10003046FFF7E9FE4046BDE8F28F1CD70000C3
:102B2000DFF83010096870470001002010280ED32C
:102B3000A0F11002DFF82010520901EB82011038D9
:102B4000012200F01F0002FA00F0C1F88002704775
:102B5000E80500001CD7000000E000E005F09EB989
:102B600080B5002301223421DFF8E80905F054FC88
:102B700000B10120C0B202BDDFF8BC1A0A6800280B
:102B800012BF42F00100500840000860704700008A
:102B90007047FEE710B582B0042005F071FC0228F2
:102BA00018BF03280DD1032000901C234FF0405282
:102BB0000021DFF8A00905F00CFCBDE81640042058
:102BC00066E0DFF89419DFF8940A09680C18DFF85A
:102BD0008C19DFF88C0A0968B0FBF1F12046FFF789
:102BE0008BFE2046BDE81640FFF78ABE80B5DFF8B1
:102BF00070090078DFF86C0901688908890041F0E4
:102C00000101016005F049FC05F0D3FCDFF858191B
:102C1000002008600220DFF88C190968C96888471D
:102C2000DFF8540A016849084900016000F017FA0A
:102C3000042000F00FF900F0B2BC000000220129CE
:102C400004D1012807D1DFF8600903E0012802D18F
:102C5000DFF82C0A026810467047DFF8000A007996
:102C60007047000005F02EBC10B5DFF83C1609686F
:102C7000EFF3118481F31188DFF8E019C98801208E
:102C8000012908BFFFF76CFF84F3118810BD000015
:102C900030B5DFF81416DFF888390A68EFF31181D0
:102CA00082F31188B0FA80F2C2F11F02D25CB0FA4E
:102CB00080F4C4F11F04551EE55405D1DFF89C29AA
:102CC000136823EA0000106081F3118830BD000012
:102CD0002DE9F041FFF724FFEFF3118481F3118810
:102CE000DFF88019425C531E435444D1DFF8781951
:102CF000DFF8788901EB80052E786F88300618D5CB
:102D0000D8F80010096A38468847D8F80010896A50
:102D100038468847D8F80010096B38468847DFF8EE
:102D2000501901200860DFF84C0900688007FAD5C7
:102D300014E0700606D5DFF8B01951F8271000200E
:102D400088470BE0D8F80010896938468847D8F8DA
:102D50000010496B384688470228F8D106F03F003A
:102D60003F2818BFFFF7B4FF687800F03F003F2806
:102D700018BFFFF7ADFF84F31188BDE8F08110B5EF
:102D800008B1140001D1032010BD8160C26003614D
:102D90000146DFF8E828DFF84C0912681018FFF741
:102DA000CBFD002010BD0000F8B50446DFF8F804A4
:102DB000DFF8B0180068EFF3118580F31188625CCA
:102DC000531C6354002A3ED1DFF89C1801EB8407A2
:102DD000387800F03F003F2818BFFFF7E5FF78780C
:102DE00000F03F003F2818BFFFF7DEFF7E883878ED
:102DF000DFF87878010613D53968C9693046884705
:102E00003968496A304688473968C96A3046884710
:102E100000F038F8DFF85C0800688007FAD512E0A7
:102E2000400606D5DFF8C01851F826100120884763
:102E300009E039684969304688473968496B304646
:102E400088470128F9D185F311882046BDE8F24072
:102E500005F0C8BDDFF850140A68EFF3118182F362
:102E60001188DFF8F827136803431360B0FA80F085
:102E7000C0F11F00DFF8A827835C5B1C835481F33B
:102E800011887047DFF8E8170120086070470000DC
:102E90002DE9F04F83B04FF0000800210128C14612
:102EA0008A4618BF022412D1DFF8FC03DFF8347819
:102EB0000268EFF3118082F311883A79012A06BF84
:102EC00002223A71012180F3118809B10624BDE084
:102ED000FFF706FD0090012000F0E6F8040002D0A4
:102EE00001203871AFE0FFF713FDDFF828180190DB
:102EF000C1F80090012005F0C3FA012804D1002098
:102F000005F050FD4FF00108DFF8E047DFF85457B7
:102F1000216889680020884700F0A1F8687C08B122
:102F20004FF00109287C08B149F00209E87B08B19B
:102F300049F00409E87ADFF8306718B1A16AF08D2A
:102F4000096B8847A87A18B1A16A708D096B884708
:102F5000FFF798FF49F02000A16A8969884701209E
:102F6000FFF70AFE3878C00748BF4FF0010A12D4B5
:102F7000DFF89807FDF7BAF88346BBF1040FF7D0E6
:102F800000F067F88008800008600321A26CDFF879
:102F90007C0752689047002005F05EFD00F05FF866
:102FA000A06A806B8047BAF1000F0AD1A26CDFF8EB
:102FB0005C0752685946904700F04BF840F0030018
:102FC00008600120216889688847DFF844070068A5
:102FD0008006FAD5B8F1000F1CBF012005F0E2FC15
:102FE000A16A496948468847A16A496B48468847AB
:102FF0000128F9D1E87A18B1A16AF08DC96A884729
:10300000A87A18B1A16A708DC96A8847FFF73AFF9C
:103010000020FFF7B1FD03203871042000F044F8D0
:10302000DFF8F0160120086000F019F805F022FE24
:10303000082000F039F80446012038710198FFF7A4
:103040007FFC05F0A2FD0098FFF74EFC2046BDE88E
:10305000FE8FDFF8D006DFF8CC1600687047DFF887
:10306000A80600687047000038B58F48DFF874562E
:103070000068EFF3118480F31188E888012803D1F8
:1030800005F074FA0020E88084F3118831BD000057
:1030900010B5FFF745FDEFF3118481F31188FFF7B9
:1030A00047FC84F3118810BD38B500F02AF80818E1
:1030B000FFF712FC002540B9204600F008F820B1C7
:1030C000DFF86806006880470225284632BD70B5E3
:1030D00000F017F80D182846FFF736FC0646B068D2
:1030E000204206D03169F26820469047C0B20128DC
:1030F00006D03046FFF72CFC0646AE42EFD100204A
:1031000070BDDFF8781509680446DFF8D805704708
:1031100030BF704770B505F0A9FDDFF840552E6847
:1031200006F00C000C284BD0700727D4FFF71CFCCE
:10313000044600210120FFF781FDA0421ED2DFF8E6
:10314000C00300684519DFF814040668DFF8D805E5
:103150000068B0FBF6F0211A2846FFF7CDFB2846A1
:10316000FFF7CEFB4FF47A70B0FBF6F2002101209E
:10317000FFF78EFE2846FFF7BBFB23E030071FD486
:10318000DFF8F404DFF8E444DFF87C55F106016869
:103190005ABF4908490041F001010160DFF8840588
:1031A000016841F003010160202021688969884796
:1031B00028682068806B804701202860286801E02B
:1031C000FFF7A6FF05F056FDBDE8704005F008BD0D
:1031D00010B50C1805F04AFD401E8041C00FDFF805
:1031E00060150A68002AFCD0246801220A6008B130
:1031F00005F040FD204610BD80B50420FFF72AFEF3
:103200000820FFF727FE0E20FFF7CEFDDFF8200590
:10321000DFF820150068C0F3815003280CBF01209F
:1032200000200880DFF8100502680AB1012002BD05
:10323000DFF8103540221A600122C2610020486088
:1032400002BD10B5DFF85C13DFF8F04482B0096806
:103250000968202088470F202060072341F61D5071
:1032600060604FF4C0720220009000F0C9F8DFF8EF
:10327000D8040121016001688907FCD50121216181
:10328000DFF8B0442188012907D100210161022023
:10329000202100F091F8012004E00121002000F03D
:1032A0008BF80220606013BD1CD700002DE9F041AF
:1032B000DFF89804DFF87C4482B0016842688A43F2
:1032C000426001616068002804BFBDE8F341FFF778
:1032D000B8BF0128DFF878141AD1022060600868AE
:1032E0004BF2F52148436188000A11B10021618049
:1032F00006E0DFF860140968090210EB11204008AD
:10330000DFF854140860000C4860012088600CE06D
:1033100002280FD10868B0F5C06F02D100206060AC
:1033200045E00321616000F06FF80121BDE8FC4138
:10333000002041E003283DD1002060600868A0F52E
:10334000C065A06800F0B2F80646284600F0AEF866
:1033500086422CDAA669284600F0ACF88019A061F4
:10336000E56860697B4E85420ED0A769A7F1100021
:1033700000F09CF880462069103800F097F88045EE
:1033800002DABFB200970BE0ADB2009508234FF40C
:103390007F423021304605F01CF8206980B2009051
:1033A00012234FF4F8020421304605F012F8BDE86C
:1033B000F3418AE0BDE8F38170B50D46DFF89C4328
:1033C00082B0032121600021DFF89463316031680D
:1033D0008907FCD480B200900523602200F010F829
:1033E0000120306030688007FCD5A5610020206096
:1033F0000821DFF85003C16001600120206073BD27
:103400000021544804F0E5BF70B50646514C82B027
:1034100030212046FFF7DCFEDFF81853C0F3072009
:10342000E86004212046FFF7D3FEC0F38440286102
:10343000A6F5C060A8602E6900F03CF88019A8616C
:10344000A969E868022909DA401E6FF03F03984233
:10345000B8BF184610310BD5002109E01E2908DB42
:10346000401C4028A8BF3F2010392029A8BF1F2199
:10347000A9616861082380B200904FF47F42302137
:1034800000F011F80120009011234FF4003200F0F9
:1034900009F8A86980B2009012234FF4F80200F0F6
:1034A00001F873BD0421204604F093BF002848BFF3
:1034B0004042704700284CBF6FF00101022101EB30
:1034C0004000032190FBF1F0704780B5DFF87802EF
:1034D0000021016001688907FCD40021016041607E
:1034E0000120DFF8541208600E20FFF7F1FB0820DE
:1034F000FFF7CEFBBDE802400420FFF7C9BB000088
:1035000000D7000010B504460020D4E90A2347F68E
:10351000906105F0B7FB012928BF4FF0FF3010BDC7
:1035200010B50C4605F026FC011D201AB0F1004F25
:1035300005D8081BB0F1004F38BF8C4200D20C46B2
:10354000DFF820221268526A2146BDE810400120AF
:103550001047000000A00C4004D7000020D7000056
:103560008434002004400340401009402DE9F0411C
:1035700080460A46D8E90A01D8E90C45A0FB026753
:1035800001FB0277A6196F41340C002244EA07417F
:103590004046FFF7C5FFC8E90E67BDE8F0814FF070
:1035A000FF3002BDA001001010D70000F8B505469D
:1035B000DFF8B801DFF8B8610068DFF8B871EFF341
:1035C000118480F31188306840F080003060012061
:1035D000B96849688847F96A096A142088472869E0
:1035E000B0F5802F34BF0421010CBA68526A012063
:1035F00090473A681268232100209047B968C9694A
:1036000001208847306820F4E02040F480303060AA
:10361000306840F00100306084F31188F1BD000093
:1036200048340020DFF8540103684068002200217C
:1036300010185941704700000C200840DFF8241191
:10364000DFF8240110B509684468496801208847FB
:103650006069A169BDE8104008470000A40F002080
:10366000A0860100E833002070D20000B8010010ED
:1036700028200860282008408C21084008D7000036
:1036800014D70000F8B504460D46FFF7CBFFD4E988
:103690000A6732463B4605F0F5FA3DB1A6FB00232A
:1036A00006FB013307FB0033C4E90C23F2BD38B538
:1036B000DFF8BC40DFF8C0502068400840002060C0
:1036C000206840F0800020600120E062E06A296804
:1036D000496801208847696A096A14208847E06AB6
:1036E00031BD0000A40F0020C40D00209001001087
:1036F00080B500F004F8000C40EA014002BDDFF89C
:10370000800000688EE700002C2009400040034044
:10371000141009400C40094009B9DFF86810FFF7A0
:103720001BB900002422084018D700000CD7000065
:10373000B43F0050880F002004800C400C400C4027
:1037400000800C402C500C4034600C4028500C4041
:1037500008400C40102009403C600C4000400C40E8
:1037600038600C408C010010E40100201CD70000E0
:1037700000200940840100108C010010082009403D
:10378000EC010020A0010000DFF8FC14096821B161
:103790000A898242FAD1084670470020704700BF6C
:1037A00013B5044605F037F918B1002000F002F80F
:1037B00006E008E0009001AB22464FF0FF31704771
:1037C00000F00DF816BD4FF0FF3016BD00F007F801
:1037D0000EBD08B582B00023009302ABF6E777B5C3
:1037E0008DB01C461498ADF8180000250F9828B924
:1037F0002FE10EAA0DA800F07BF96D1C00F034F942
:10380000080000F020812529F3D100F02DF92D29A1
:1038100005D10120ADF8060000F026F902E00020F5
:10382000ADF80600302904D10120049000F01CF905
:1038300001E000200490002000904FF0FF30029043
:103840000A202A2918D12168216051F8042B21600F
:10385000009200F01AF9009A002A11D50122ADF861
:103860000620009A524200920AE0009A00FB0211E0
:103870003039009100F009F9A1F130020A2AF4D39D
:103880002E291DD1002102910F990F9A0978521CFF
:103890002A290F9210D100F0F2F80291002944BFBA
:1038A0000020029000F0E0F80AE0029A00FB02110A
:1038B0003039029100F0E9F8A1F130020A2AF4D37C
:1038C000049808B1009804906C2918BF4C2905D1C0
:1038D0000120ADF8040000F0C7F802E00020ADF8C8
:1038E000040008A807900CA8059000200390642904
:1038F00018BF69290DD1BDF818000028FFD000F0CD
:10390000B8F86FF009030298049A8242B8BF049095
:1039100019E00A2375291FBF1023782908236F296E
:1039200003D1BDF8180038B906E0702913D104930B
:1039300020682060016814E000F09BF8049A029867
:103940008242B8BF0490049A059800F0A4F807904A
:103950000599081A2FE0632919D1206820600168B1
:103960000FE0001D206010230598082200F093F856
:10397000401E079040200799087005980799401A43
:1039800019E0001D206007980170012013E07329E1
:1039900013D100F074F8079111B90FF2BC00079031
:1039A000079805F0F9F90390029810F1010F1ED065
:1039B000039988421BDA039019E00F98401E0F907C
:1039C0000E98022813D3029810F1010F02D00E991D
:1039D000884201D30E9800E0401CDFF8B4623668DC
:1039E00002906B4622460FA90DA8B04745190098D2
:1039F0000399401A0090BDF8060038B902E000F0C3
:103A00002FF86D1C0098401E0090F8D50398411EB9
:103A1000039150B10798401C07900EAA10F8011DA1
:103A20000DA800F065F86D1CF0E7BDF80600002851
:103A30003FF4E4AE0098401E00903FF5DFAE00F08A
:103A40000FF86D1CF6E70D9810B10D990020087065
:103A5000284610B070BD0000286E756C6C290000FF
:103A60000EAA20210DA843E00F9810F8011B0F901B
:103A70007047206820600168001D20607047206842
:103A8000206050F8041B206070470F990F9A097846
:103A9000521C0F927047F0B500240025002B44BF44
:103AA0005B42002902D54942521E2D25B1FBF3F697
:103AB0000FF2280703FB1611641CC95D00F8011DF5
:103AC00031460029F2D19442BEBF302100F8011DD9
:103AD000641CF8DB0DB100F8015DF0BD303132330C
:103AE000343536373839616263646566000000003A
:103AF00010B50C46116802290BD3491E11600168EC
:103B000019B14A1C02600C7010BD04F084FF00B1B2
:103B100000E010BD2046BDE8104004F07ABF0EB4AE
:103B200000B501A9FFF73BFE5DF810FBDFF864115B
:103B3000096808470000DFF86001006800470120BD
:103B40007047FEE7704710B50446606808B9012069
:103B500010BD0B460146206848A200F077F8A16826
:103B60004118A16061680129A4BF081A60600020A3
:103B700010BD00003EB50D464249098814468142F9
:103B8000034628BF0FF21C1210D240490988814217
:103B900007D3FFF7F9FD21464268284600F056F8A2
:103BA0003EBD3549098831B90FF204122146284635
:103BB00000F04CF83EBD394B0095002C48BF47F64D
:103BC000FF740021029101946A461B6834499847AA
:103BD00002983EBD2DE9F843170048BF47F6FF772E
:103BE00004468846002664B3208818B13A46FFF799
:103BF000C1FF0646B91B012922DB208820B120A283
:103C0000404600F023F88619A068C8B1656875B110
:103C1000284605F0C1F8A7EB0609401D814506DBE3
:103C20002B460FF2A002494600F00EF88619B91B88
:103C3000122905DBA3680FF2940200F005F886193B
:103C40003046BDE8F28300004046FFE708B478B58F
:103C500004001ABF2668002E00260D4605AB30462C
:103C6000FFF7B7FD854238BF681E16B121684118BD
:103C7000216072BC5DF808FB8A0500002573000016
:103C80003A200000120500001410002080040000FB
:103C90002CD7000024D7000028D7000030D7000020
:103CA000473B00007B6D6F64756C652325647D0068
:103CB0007B6D6F64756C652D726F70653A25787DCC
:103CC00000000000222573222C2000006C696E6524
:103CD0002025643A20000000DFF800F041AC01101C
:103CE000DFF800F085C10110DFF800F079B50110B0
:103CF000DFF800F0F5B80110DFF800F0A9C10110FD
:103D000000B583B00821ADF800100522ADF80220FF
:103D1000019000F001F807BD68464F490A68104756
:103D20002DE9F04389B08046894617461D46109C10
:103D3000119E0823242200216846FFF7D1FF47493E
:103D400006964FF47A700A68B0FBF2F04543059589
:103D50004743ADF810406B463A4649464046FFF7A8
:103D6000C3FF404609B0BDE8F083FEF7C9BD38B5D2
:103D700004460D46FEF75FFE10B12046FEF7B8FD83
:103D800000F027F82046BDE83240FEF7B9BD80B507
:103D9000FEF751FE00B10120C0B202BDFEF7A8BD82
:103DA00070B504460D46FEF746FE20B12046FEF7EC
:103DB0009FFD012600E0002600F00BF82946204672
:103DC000FEF737FE26B12046BDE87040FEF798BDED
:103DD00070BD224A10684FF47A71B1FBF0F0454390
:103DE00029462046FEF788BD10B504460021FFF79E
:103DF0007FFF204610BD70B50C460421164684B0E6
:103E00000546ADF802100C2208200192ADF8000022
:103E1000FFF782FF58B9029949B18E602846FEF734
:103E200073FD14B12046FFF757FF012003E0304631
:103E3000FFF766FF002004B070BD10B50446FEF722
:103E40004BFD38B92046FFF757FF8468FFF758FF4E
:103E5000204610BD002010BD9C0B002020D7000084
:103E600070B5054605F00F04062C15DA14B9682163
:103E7000012013E0DFF86068B07FA04207D000F0B7
:103E800044F848B100F02CF8B47703F0AAF9AC423A
:103E900014BF6921682100E0D7E00020BDE8704030
:103EA00003F07DB910B500F00F04062C14DA2000E1
:103EB00002D10C2101200BE000F027F860B100F0E6
:103EC0000FF8DFF81408847703F08BF90C21002039
:103ED000BDE8104003F063B903F083F9002010BD82
:103EE0000120A040C0B203F03DB910B5DFF8E847AB
:103EF000A17F49B100F009F810B1002003F032F9B8
:103F000003F06FF90020A07710BD7021002003F0AE
:103F100046B980B5DFF8C407006801220C2105F01E
:103F20002AF9DFF8BC27DFF8BC171068B1FBF0F006
:103F3000FCF764FBBDE80240002014E080B50C20D3
:103F400005F02FF9012818BF002002BD10B5DFF8D9
:103F50008C47211D04F10C0005F07CF82060002046
:103F6000BDE81040FFE770B5054605F00F04AC4210
:103F70001CBFA41DE4B2FFF773FF002856D0DFF882
:103F800058670020B077311930550873012280201E
:103F9000707706F11D016B20FEF792FA3CB9002004
:103FA00000F04CF8052000F042F8002006E0042064
:103FB00000F044F8062000F03AF80420707701225F
:103FC00006F11D011920FEF77BFA03F00AF92846D5
:103FD00000F09FF9040028D02846FFF741FF00B900
:103FE00033E0707EC000B076012206F11A011C2079
:103FF000FEF766FAF07EC0003077012206F11C0160
:104000001B20FEF75DFA03F0ECF8DFF8D4160A681F
:104010004FF4FA6000F0DCFA284600F03BFA28463C
:1040200000F081FA284600F0FCF9204670BD707758
:10403000012206F11D011D20FEF742BA7077012210
:1040400006F11D011A20FEF73BBA03F0CAF8002062
:1040500070BD3F206077012204F11D016C20FEF746
:104060002FBA10B582B0044600208DF80000FFF78B
:1040700065FF18B903F0B5F8002016BD00F043F94C
:1040800048B1012269463A20FEF712FA08B98DF8C4
:10409000000003F0A6F89DF8000016BD2DE9F04DD4
:1040A00082B08A468046FFF749FF08F00F050028D6
:1040B0002F4642D0062F40DABE1DF6B2474518BF44
:1040C0003746DFF81446E05DE8B9BAF1000F1AD0C0
:1040D000AB46C34518BFB346FFF730FF88B1404633
:1040E000FFF7BEFE78B100F0B3F950B1FFF7B1FFB2
:1040F000002104F80B1020B100F043F808B100F0E3
:1041000046F803F06EF804F807A0E05D002833D00D
:10411000454518BF35464046615DC9436177FFF7A5
:104120009FFE60B3FFF797FF03F05BF8655DAD0995
:10413000FFF704FF05F0010510B903F052F81EE087
:104140000121404600F08CF9C8B14046FFF7AAFEB5
:1041500058B1002D19BF16208DF8000000218DF8F0
:10416000001000F0B3FA03F03CF85FEA080006D054
:10417000002100F075F902E0404600F052F9BDE878
:10418000F38D012204F11A011C20FEF799B90122D6
:1041900004F11D013A20FEF78BB9F8B5DFF8387548
:1041A0000546787E01260124A84201D10120F2BDF6
:1041B000E800B876FFF7C2FE18B903F012F8002045
:1041C000F2BD00F028F80028F9D0012207F11A0109
:1041D0001C20FEF775F900F063F8002CEFD07D7617
:1041E0000124204600F005F8641C062CF9DB30465B
:1041F000F2BD10B500F02AF900B96DE600F083F8C1
:1042000040B10122DFF8E0141C20FEF759F900F05C
:104210005EF8204610BD002022E638B504460D4663
:10422000FFF78CFE00B970E000F06DF868B106226F
:1042300029463B20FEF73CF900F049F8200003D066
:1042400006212846FEF7CAF9204632BDF8B5DFF848
:1042500088740546F87E01260124A84201D1012078
:10426000F2BDFFF76BFE18B902F0BBFF0020F2BDF4
:10427000FFF7D1FF98B1E8003877012207F11C0160
:104280001B20FEF71DF900F00BF804B1FD760024A9
:10429000204600F00AF8641C062CF9DB3046F2BD1B
:1042A00008B90026002402F09CBF10B500F0CEF83B
:1042B00000B911E600F027F840B10122DFF82C1414
:1042C0001B20FEF7FDF800F002F8204610BD044662
:1042D00002F087BF38B504460D46FFF72FFE00B940
:1042E00013E000F010F868B1062229464320FEF7DB
:1042F000DFF8FFF7ECFF200003D006212846FEF789
:104300006DF9204632BD2046AAE502F06AFF002082
:1043100032BD10B500F09AF8C0B1FFF7F4FFC8B194
:10432000DFF8B443207E40B1002121764CF25030BA
:10433000DFF8AC130A6800F04BF900F00DF87520B7
:10434000FEF7B6F810B1607F712800D0C4E502F026
:1043500048FF012010BD6077012204F11D01704764
:1043600080B504F07DFFDFF87023537E032B13D854
:10437000DFE803F002060A0E0022DFF874330AE0D9
:104380000022DFF8703306E00022DFF86C3302E031
:1043900000224FF07D5339E0002002BD80B5DFF8E8
:1043A0003823D37E032B27D8DFE803F0020A121A42
:1043B00004F056FF00F030F80022DFF8403316E03A
:1043C00004F04EFF00F028F80022DFF834330EE04E
:1043D00004F046FF00F020F80022DFF8283306E062
:1043E00004F03EFF00F018F80022DFF81C3302F062
:1043F00091FB01F027F90146084602BD80B504F0A3
:104400002FFF00F009F80022DFF8003302F082FBF2
:10441000BDE8044001F016B900224FF07C5302F0D1
:1044200079BB10B500F012F858B1062C09DAFFF785
:104430006AFF50B1A84CFFF70CFE10B14F2000F0FE
:1044400008F8BDE8104002F0CCBE10BD044675E58A
:1044500009206077012204F11D016B20FEF730B8BE
:1044600010B50C4600F00F01062900DB34E5FFF71C
:10447000F7FC60B1202004B122209749487701223F
:104480001D313720FEF71CF8FFF721FF00E0002464
:10449000204610BDF8B5FFF7D9FF04F00F0618B994
:1044A000BDE8F14002F09DBE00F066F8002829D07A
:1044B000A6421CBFB61DF6B200F05BF8F0B1864D07
:1044C000934F0F20687700F020F800F07DF803226A
:1044D00039461020FDF7ECFF60B1387805EB460156
:1044E0008030088407EB4600797880318180B97884
:1044F0008031818300F00FF802F073FE2046BDE8A2
:10450000F4403CE0F1BD16216977012205F11D015F
:104510000A20FDF7D5BF01206877012205F11D01B2
:104520000B20FDF7CDBF70B5FFF790FF04F00F062D
:1045300018B9BDE8704002F054BEA6421CBFB61DBB
:10454000F6B200F019F898B100F013F858B1624DC6
:10455000FFF7E1FF00F038F8A85D410601D5FFF74D
:10456000D2FF02F03EFE200002D0BDE8704006E01F
:1045700070BD2046FFF796BC0121204670E7002160
:104580006EE738B5FFF762FFA0B1FFF7F5FFD0B1D6
:10459000FFF7EFFF5249504D00F017F8FF20687702
:1045A000012205F11D010020FDF782FF10B1687F97
:1045B000482800D0A9E602F014FE20001CBF00210C
:1045C000FFF74EFF012032BD45490A6842F21070E4
:1045D000B0FBF2F0FCF712B82DE9F041804608F08C
:1045E0000F04062C84B00F460ADA44451CBFA41DF4
:1045F000E4B2394D2E1906203073FFF79FFC18B92D
:1046000002F0EFFD00205EE0002030735FEA08005A
:104610000AD00121FFF724FF10B90520307301E013
:10462000307B08B101204EE04046FFF73BFC012201
:1046300069460220FDF73CFF002835D09DF80000B8
:10464000C1072FD5072201A90320FDF731FF38B399
:1046500001A881790A0720D4BDF80410398005EB40
:104660004405B0F902207A80B0F90410B980B7F996
:104670000030B5F9200043431B123B80244B1D1D25
:1046800035F91400424312127A8003EB4402B2F966
:104690001C0041430912B98008E00321317305E091
:1046A000042002E0022000E00120307316208DF883
:1046B000000000F00BF802F094FD1CB10021404610
:1046C000FFF7CEFE307B04B0BDE8F08101226946E1
:1046D0000A20FDF7F5BE0000700D0020A80D002097
:1046E00020D70000A08601008A0D00208C0D00203C
:1046F0000000103F0000203F0000303F00406F40AE
:1047000000407F4000408F4000409F4000C0B240CA
:104710007032002000B58FB008233C22002168468B
:10472000FBF764FFDFF8B40700F1500107914FF485
:10473000407201210892069100236A460FF201316E
:10474000FBF758FF0FB000BD30B585B002F04CFD4F
:1047500004F098FD04F018FE04F083FE0FF2C94047
:10476000DFF8744704F075FE0FF2C14004F075FEE7
:10477000DFF86C0704F0EAFE30B94FF4804005F032
:1047800040F80120E07403E00FF26470FFF7C7F90E
:104790000FF6641104F1580004F05CFC206518B9B0
:1047A0000FF27870FFF7BBF96FF07E0060740121A3
:1047B0000020A074ADF802100820DFF828170A685E
:1047C000ADF8000068469047BDF8040020830298C9
:1047D000E06404F18800FFF707FB60650021042016
:1047E0000190009100234FF47A720FF2716104F18D
:1047F0006400FFF795FA01211F2003F0BDF80021A6
:10480000ADF80C1001208DF801008DF80000082192
:10481000ADF80A104FF44870ADF808000021ADF86B
:1048200006106420ADF804000121ADF802100DF16E
:10483000010240F2053004F0FFFF03AA022140F21A
:10484000063004F0F9FFDFF8A02600F0D7FA224680
:104850000E2140F2073004F0EFFF6A4601214FF4C9
:10486000447004F0E9FF0DF10A02022140F2113018
:1048700004F0E2FF02AA022140F2123004F0DCFF51
:104880000DF10602022140F2133004F0D5FF01AA17
:1048900002214FF4457004F0CFFF0DF10202022116
:1048A00040F20F3004F0C8FF0FF2FC720A21002022
:1048B00002F05BFFA021062003F05EF8A021072094
:1048C00003F05AF8A021082003F056F8A02109208F
:1048D00003F052F84FF0FF3002F044FF4FF0FF308A
:1048E00002F020FF05F04CFCFF22302104F11C00F7
:1048F000FBF7DEFB04F11C023021802003F01AFAE2
:1049000048B10FF21470FFF70AF904F11C023021CC
:10491000802003F024FA002060750B2003F0F6F9E4
:104920000FF290721121012005F032FC0FF2987500
:104930002A460521022005F02BFC2A4605210520E8
:1049400005F026FC0FF288721421032005F020FCEC
:104950000FF29C720821042005F01AFC0FF28472F9
:104960000921062005F014FC012000F03DF930205B
:10497000FDF7BBFD0546302D08D105210F2000F0C5
:1049800049FA0FF2AC50FFF7CAF808E00A210A20F2
:1049900000F040FA29460FF2AC50FFF7C0F8FDF7DF
:1049A0001AFE01460FF2C050FFF7B9F8A08B4FF680
:1049B000FF71884204D10FF2CC50FFF7B0F827E026
:1049C00080070CD404F120020C210420FDF780FEA6
:1049D0000420FBF736FEE08A40F00200E082207FF0
:1049E000410715D404F12C020F21042005F00CFD21
:1049F00004F13B020F21052005F006FD042001F023
:104A00004DF8052001F04AF8E08A40F00400E08209
:104A100005F014FE01F016F804F1940005F0DBF83F
:104A2000002002F043FE208BC0B202F03CFE206D5D
:104A30000FF2854104F0BFFB05B030BD000000005F
:104A40002DE9F04184B0FFF77FFE0FF284510FF2A1
:104A500074500FF29055DFF88C74DFF87C64FFF728
:104A60005EF84FF6FF780FE00221002004F031FEDF
:104A70000221002004F042FE0221002004F0F7FD94
:104A80000028F1D104F0DEFD0820ADF800000A2175
:104A9000ADF802104FF0FF30019068463968884742
:104AA000002862D109210820ADF80210ADF80000FD
:104AB000684639688847BDF80610029C80BBBDF87F
:104AC0000400102804BF328B914216D1207891281F
:104AD00007D0B02802BF217904F1080002F0FFFFDF
:104AE0000BE060780E2802BFA18841F205408142A8
:104AF00003D1A06890F9031071748CB10820ADF84F
:104B00000000032106E0607800F098F80820ADF876
:104B100000000521ADF80210019468463968884705
:104B2000706DFDF7D9FEE0B9706DFFF786F90400EE
:104B3000F6D020780128E6D00228E7D16178A07865
:104B40000C290BD0E2D30E2901D004D3DEE7717D0E
:104B500008437075DAE700F0A1FFD7E7FBF771FDB6
:104B6000D4E705F087FD01F08CF8718B480727D555
:104B70004FF6FB7001407183307C062812BF02287B
:104B800006F16400FFF7F1F8307C06280ED102210F
:104B9000B174ADF80080694640F20E3004F08CFF2D
:104BA000BDF80000404518BF03F05FF8307C0228D4
:104BB00005D10321B1740F20012100F02BF9307DC4
:104BC000718B08077FF560AF4FF6F7700140718376
:104BD00004F031FD04F02BFDC0F30020002802D0CA
:104BE0002846FEF79CFF47E710B5BB4C0100206D3F
:104BF0000FD00122142104F0BEFA0120BB49207518
:104C00000A68BDE810404CF25030B0FBF2F0FBF700
:104C1000F5BC0022142104F0AEFA0020207510BD6E
:104C200001460022012020E170470000AA48418B84
:104C300041F008014183C06CFFF74EB87FB50546CF
:104C4000401E07280FF27C34A34E00F2CB80DFE831
:104C500000F0044BC975755FC9BE05210F2000F037
:104C6000D9F802A94FF4417004F026FF02A94A784E
:104C70009DF808008DF801208DF8000000208A784A
:104C80008DF8022000228DF804208DF803204A7947
:104C90008DF807200A79C9788DF806208DF805105F
:104CA0006A46082105F074FA9DF808109DF808007E
:104CB0008D4ACB0801EB13731B09A1EB031100090B
:104CC000D17490740A28ACBF572130210818907411
:104CD000D07C0A28ACBF572130210818D07400F0CE
:104CE0008DF80FF280317BE006F16400FFF74FF89A
:104CF00018B906F16400FFF738F8307D10B90120CB
:104D0000FFF772FF002000F0E0F80FF2643167E077
:104D100006F16400FFF73BF818B906F16400FFF7ED
:104D200024F8306D00220F2104F025FA0FF24C31E7
:104D300000F069F80420FEF78DF853E000F0B2F8B7
:104D40000FF2443100F05FF8B07C02280AD00FF275
:104D5000443100F058F80020FFF746FF0420FDF72B
:104D600097FF3FE0747D0120002CB0743AD0E0073B
:104D70000DD506F120010420FDF7E4FCB18B4FF6C0
:104D8000FD700140B183F08A40F00200F082A0077C
:104D900006D506F12C01042005F076FB00F024F87E
:104DA000600706D506F13B01052005F06DFB00F01C
:104DB0001BF806F11C023021802002F0D0FF18B150
:104DC0000FF27820FEF7ABFE002070750AE000F0CD
:104DD00069F8306D01220A2104F0CDF90FF2C021EB
:104DE00000F011F835747FBDB18B4FF6FB700140B8
:104DF000B183F08A40F00400F08270471D214FF427
:104E0000427004F019BD2046FEF789BE0A460146ED
:104E100002202AE02DE9F04104460D4600262E4FDF
:104E200016E0386D0122214604F0A5F92F4A1068DA
:104E300044F62061B1FBF0F84046FBF7DFFB386D2C
:104E40000022214604F097F94046FBF7D7FB761C79
:104E5000F0B2A842E5D3BDE8F08100001E494A8BBC
:104E600010434883C86CFEF737BF70B50D46042168
:104E7000164684B00446ADF80210032208200192C1
:104E8000ADF80000684617490A68904748B9029A89
:104E90003AB11470557096700F48C16C406DFEF7B2
:104EA000AAFF7FBD80B5FBF783FC00F07BFEBDE869
:104EB000014005F00DBC0000042902D0112902D0E8
:104EC000704705F0BCBB00F0B5BE034A50730E211D
:104ED00040F2073004F0B0BC48070020F025002065
:104EE000FCCC00009C0B0020E007002020D7000035
:104EF000436F6E74726F6C6C65725F53656E736F27
:104F000072436F6E74726F6C6C6572496E69742057
:104F10004661696C65642E0A0D00000050494E5FC1
:104F20006F70656E204661696C65642E0A0D000025
:104F300073656C66546573744D6170205061737352
:104F40002E0A0D0073656C66546573744D61702094
:104F50004661696C656428476F74203A307825781B
:104F6000292E0A0D000000004669675465737452CB
:104F70006573756C74203A20307825303478200AB7
:104F80000D0000004469646E742066696E642043FD
:104F9000616C6962726174696F6E20646174612012
:104FA000696E20466C6173682C204D6179206361C5
:104FB000757365206F6666736574206572726F72B3
:104FC0002E0A0D004C43443A25730A0D00000000E0
:104FD000436F6E74726F6C6C65722053746172747F
:104FE0000000000053656E736F7220436F6E747221
:104FF0006F6C6C6572204F766572666C6F7720659A
:1050000072726F7220686173206F6363757272656C
:1050100064210D0A00000000436F6E74726F6C6CA7
:1050200065725F5265616443616C69627261746943
:105030006F6E204572726F720A0D0000436F6E74BE
:10504000726F6C6C65725F53746F726543616C69EB
:1050500062726174696F6E204572726F722E0A0DF2
:1050600000000000496E697469616C697A656400CA
:105070004164766572746973696E6700436F6E6E22
:10508000656374656400000057616974696E672E1A
:105090002E2E0000506F776572206F66662E00001E
:1050A0004572726F72000000467265652057726922
:1050B00074650000434332363530204672656557CB
:1050C00072697465000000004E2E412E0000000041
:1050D000312E302E3120284D617920203120323080
:1050E0003138290053504945204C4142000000000E
:1050F00050434220322E30000F0880860A088086F6
:10510000042007C01408C080112007C0FF00000061
:10511000E0B50821ADF800100422ADF8022001909E
:10512000684635490A68904708B100200EBD0298CC
:105130000EBD38B5314D324C28788000FFF7E8FFBE
:10514000206028788000FFF7E3FF21686060002975
:1051500018BF002801D1132032BD4FF6FF75284635
:1051600002F082F86168284602F07EF804F120001F
:1051700001B0BDE830400FF248131022072102F0C1
:10518000D4BA204A116819B900B1106000207047E4
:10519000112070473EB50B4611460FF26D05184CB5
:1051A00010B103280CD01CE00C2B18D10C2204F1F8
:1051B000080002F009FE00F016F804F108010AE008
:1051C0000C2B0CD10C2204F1140002F0FDFD00F0B8
:1051D0000AF804F11401206802F060F83EBD1820BE
:1051E0003EBD02203EBD07210091FF2002950190A7
:1051F00004F12003002270479C0B0020C40B002008
:10520000E00C00206C340020F8B50D460026287A0A
:10521000C10617461C4601D50820F2BD069808B104
:105220000B20F2BD6946284602F021FE012802D17A
:1052300026800120F2BDBDF800004AF63D21401A4B
:1052400001D0401E07D10C2020800C22E96838468E
:1052500002F0BAFD01E026800A263046F2BD2DE9B3
:10526000F0410D4684B00446287A00278106164690
:10527000984648BF08201FD402A9284602F0F7FD2F
:10528000012819D0BDF8080042F60211401A05D0D5
:1052900048F23B11401A01280DD90BE00A98009002
:1052A00001210191434632462946204602F062F828
:1052B000074600E00A27384604B0BDE8F081000048
:1052C000095200005F52000000000000F0B40246E6
:1052D000106895681318506803EB5004C00721D577
:1052E0004D441FE0F0BC02F10C00704713F8017B45
:1052F00005F8017B491EF9D1A0B1B60813F8011BCE
:1053000006F00306032E08BF13F8016B01EB06211C
:105310004942801C294405D011F8016B05F8016B46
:10532000401EF9D1A342DDD013F8016B16F0030142
:1053300004BF13F8011BC91C30090F28DAD113F878
:10534000010B0F30D6E70000FF2212EAD05C1DBF30
:1053500012EAD153944593422BE09C44D30780EA50
:1053600001021A4043EA002043EA0121A1FB003078
:10537000C04238BF40007CF17F010BDBFE294ADAD6
:105380005B0842EAC15153EA006373F1004C51EBF0
:1053900010207047D1F1080CDCF120012FDB5B08F5
:1053A00010FA01F10B4320FA0CF073F10041504167
:1053B000704794451CBF02EAD153934280EA010230
:1053C00002F000421DD0400019D0490017D05BB94F
:1053D000634514D00902B1FA81F39940BCEB030C88
:1053E000C00140F00040C1E70002B0FA80FC10FAB2
:1053F0000CF0B3EB0C0CC90141F00041B6E7100012
:10540000704740000AD0490008D010F1807F94BF57
:1054100011F1807F02E042F0FF407047D0437047B7
:105420000022FAF749BE000090EA010F41F106831D
:1054300081F00041421A3CBF801A89184FF0004C9D
:10544000C0F3C752FF2A24D0C1F3C75313B3D21AF3
:10545000D2F1190327DD4CEA01214CFA03F321EACA
:105460000303D140C20D4CEA0020401834BF20EAAB
:105470000C004CEA5000D20553EA006373EB0C0CAD
:1054800052EB1020420012F1807F38BF7047C00DF0
:10549000C0057047490212BF9A4200EB5120F8E75D
:1054A000D2F11703D9D570474FF0807C1CEB400F29
:1054B00094BF1CEB410F05E040EA010C1CEB0C0F04
:1054C00001D28142704718BF8842704770B44FF0D4
:1054D000004591EA030F41F11B856B40841A71EB83
:1054E000030604D26E40001BB141121973414FF400
:1054F000001C1CEB410F34BF7CEB430682E00C0D1B
:10550000A4EB1356362E7BDC012E45EAC32341DC87
:1055100043EA525312BFD20292025B08240545EAC5
:10552000C12141EA5051D2EBC020994125D407D185
:10553000B0FA80F610FA06F162D00020203608E0BA
:10554000B1FA81F6B140C6F1200220FA02F211430D
:10555000B0404FEAF474B4EB465434F001064FEA1D
:1055600074040AD8D6F50016760D04F00044F04015
:1055700061FA06F25040F1404840C00A40EA41500A
:1055800021F0004128BF5FEA500550F1000044EBD4
:10559000D12135E0DB0A45EAC121C90AB6F120056F
:1055A0000EDD42EA0242120CC5F1200603FA06F6AD
:1055B000EB4042EA06056D42984161F100010DE0C1
:1055C00062FA06F5F240554063FA06FC82EA0C02E4
:1055D000F3405A406D42904161EB030111F4801F8A
:1055E00005D1641E620502D06D004041494121F49D
:1055F0008011430875F1004350F1000041EB045164
:1056000070BC70471CEB410F15D223F0004352EAE7
:1056100043060BD04FEA4C0CBCEB410F04D80C0DE9
:10562000661E342EB7DDEBE7801A994150EA410639
:1056300008BF0021E4E708BF1CEB430F28BF6FF051
:105640000001DDE701F000428B1AA3F16051B1F5D2
:10565000801F0ADBB1F17F6F1FD242EAC102C10095
:1056600071F1004142EB507070470B15C3F1090313
:10567000212B10D2890241EA905180020128494130
:1056800041F0004121FA03F0C3F12003994071F188
:10569000004150417047100070476FF0000013EB5D
:1056A000103F5CBF000E42EAC05070474FF0807C54
:1056B0001CEB400F94BF1CEB410F05E040EA010CCE
:1056C0001CEB0C0F01D28842704718BF8142704713
:1056D00010B5FF2313EAD0541DBF13EAD1529C42E8
:1056E0009A4239E0A41ADA0780EA0103134042EA39
:1056F000012142EA0020421A3CBF641E01EB420233
:10570000090AB2FBF1FE01FB1E221202B2FBF1F00C
:1057100001FB10226EF30F201202B2FBF1FE4EEAE3
:1057200000207F3406DDFE2C24DA53EA500050EBD3
:10573000C45010BDD4F1020401FB1E2240F0807160
:10574000192C1DDC21FA04F0C4F12004A1401143FE
:1057500071F10042584110BD9C421ABF03EAD15278
:105760009A420FE080EA010E0EF00043400004D0A0
:10577000490016D143F0FF4010BD490008BFD34394
:10578000180010BD9C4205D1D21AF7D001F000419B
:10579000484010BD4A0212BF0846484000F0004091
:1057A00010BD4AB90902B1FA81F2914044B1A4187E
:1057B000C00140F000409EE7C90141F00041524263
:1057C0000002B0FA80F4A040141B94E700280AD02D
:1057D000B0FA80F18840D1F19D01C905020672F14D
:1057E000004241EB102070472DE9F04C0446580070
:1057F0004015401C83B00D4643D068004015401C46
:105800003FD0C80F1ABF25F0004508260026D80F44
:105810001CBF23F0004386F0060619460027B94254
:1058200007DA4FF0004BB81A6BEB0101CDE900012C
:1058300001E0CDE900212946B942204604DA4FF0C3
:10584000004B381A6BEB0101DDE900AB8B4509DC3D
:1058500001DB824506D21046194622462B4601F04E
:105860002BFA3DE023F0004B0020002122F000073E
:105870008B4508BF874235D02046294601F01CFAE7
:1058800030E048004015401C04D1090302D02046F6
:1058900029462FE058004015401C04D1190302D0BE
:1058A0001046194626E058004015401C09D119033E
:1058B00007D168004015401C03D1290308BF0C49DB
:1058C00001D000200021EE0F18BF0826DA0F18BF04
:1058D00086F006066B005B155B1C03D12A0301D121
:1058E00086F00206324603B0BDE8F04C04F024BF57
:1058F0000000F03F03B0BDE8F08C00002DE9704CD3
:10590000044648004015401C84B00D4601D10903EF
:1059100024D125F000430020002124F000028B4216
:1059200008BF82421AD0E80F1ABF25F000450826AA
:10593000002629460022914204DA4FF00043101B52
:1059400063EB01014FF079539342BCBF4FF000402D
:1059500060EB03039942924603DA2EBB20462946A8
:1059600067E0DFF8D4B00020594622462B4601F00C
:10597000C7FACDE9000100225B4620462946FFF721
:10598000A5FDDDE9002301F0C5F801F039FBCDE903
:1059900002012A492A4851450ADA4FF00043BAEB7E
:1059A000000063EB010103E085F00041204640E088
:1059B000CDE9000129465145204605DA4FF0004364
:1059C000BAEB000063EB0101DDE900238B4207DB4A
:1059D00001DC824204D3DDE90223204629461AE095
:1059E000D345BCBF4FF0004161EB0B0B294651453D
:1059F000204605DA4FF00043BAEB000063EB0101EB
:105A00008B4510DB01DC82450DD3DDE9020186F018
:105A1000020622462B4601F04FF9324604B0BDE89B
:105A2000704C04F089BEAFF300804FF0FF306FF090
:105A3000004104B0BDE8708C0000F03F9EA0E63F3E
:105A4000CD3B7F661CB504F0ADFCDFF89C4904F14A
:105A5000AC0004F0CFFC0020019000904FF47A736A
:105A600064220FF2953104F18800FEF759F9012202
:105A70006421022000F062F9FCF7ADFDA08204F180
:105A800068020F21042004F0BFFC04F178020F210A
:105A9000052004F0B9FCBDE8134083E038B5DFF819
:105AA0004849012804F1880506D0022835D0042889
:105AB00041D0052849D031BDFCF78DFD38B9FF2014
:105AC000207001222178012000F038F931BD2078C2
:105AD000FF28F6D06946012004F0D6FC9DF80000AE
