:10000000584400202DD1000001CA011001CA01107E
:1000100001CA011001CA011001CA011001CA011070
:1000200001CA011001CA011001CA011001CA011060
:1000300001CA011001CA01103FCA0110C0F3C75123
:1000400081B1FF2906D0C110400721F0E04101F144
:100050006051704741020CBF40F4E0016FF0004175
:100060000020704700F0004100020AD0B0FA80FC86
:1000700000FA0CF001F16051A1EB0C5101EBD02121
:1000800040057047C0F3C7517E390EDDC217D1F16C
:10009000200106DD000240F00040C84010445040FE
:1000A0007047D04380F00040704700207047000048
:1000B00062F30F2262F31F4200B500BF13009646A1
:1000C0009446103928BFA0E80C50FAD85FEA417C6A
:1000D00028BF0CC048BF40F8042BC90728BF20F830
:1000E000022B48BF00F8012B00BD0000006801078B
:0E00F00001D50420704700F0030070477047F0
:100100003C0000000000000000000000340100007E
:1001100000000000000000000100000000000000DE
:1001200000000000000000000000000001000000CE
:100130000000000008000000000000003400000083
:100140000000000000000000680100000000000046
:10015000000000000100000000000000010000009D
:100160000000000000000000080000000000000087
:1001700030000000000000000000000098010000B6
:10018000040000000000000001000000FFFFFFFF6E
:10019000FF00000001000000080000000000000057
:1001A0002C0000000000000000000000C40100005E
:1001B000040000000000000001000000FFFFFFFF3E
:1001C000FFFFFFFF080000000000000034050000F2
:1001D000E401000099A1011095A70110A5C201102A
:1001E00009B2011045B80110000000000000000035
:1001F0002E000000280000000000000000000000A9
:10020000140200000000000000000000FFFFFFFFDC
:1002100000000000080000000000000030050000A1
:100220003002000069C201106DC101101FC201102F
:1002300095BA01100000000000000000300000002E
:10024000300500005402000075C20110A9B601106B
:100250009DBF011049B60110000000000000000021
:100260003100000024000000000000000000000039
:1002700080020000000000000000000000000000FC
:100280000800000000000000240000000000000042
:1002900000000000A40200000000000000000000B8
:1002A0000000000008000000000000002400000022
:1002B0000000000000000000C80200000000000074
:1002C0000100000000000000080000000000000025
:1002D00000000000D00D002004000000000000001D
:1002E000000000002000000070010000300000004D
:1002F0001C020000080E00200400000000000000A6
:10030000000000000C000000300400001800000095
:1003100040020000100E0020040000000000000059
:100320000000000024000000480400001800000045
:1003300000000000500E002004000000000000003B
:100340000000000010000000A00100002C000000D0
:10035000CC010000580E0020040000000000000046
:1003600000000000200000006402000024000000E3
:10037000FFFFFFFF780E00200400000000000000D7
:100380000000000028000000880200002400000097
:10039000FFFFFFFF800E00200400000000000000AF
:1003A00000000000580000003C0100003400000084
:1003B000FFFFFFFF880E0020040000000000000087
:1003C00000000000100000006004000018000000A1
:1003D000FFFFFFFF900E002004000000000000005F
:1003E000000000001C000000AC020000240000001F
:1003F000FFFFFFFF980E0020040000000000000037
:100400000000000038000000F40100002800000097
:10041000FFFFFFFF000F00200400000000000000AD
:100420000000000054000000000100003C0000003B
:100430001800000000000000000000004004000060
:10044000080000000000000018000000000000008C
:100450000000000058040000080000000000000038
:100460001800000000000000000000007004000000
:1004700008000000000000000200000088D1000019
:03048000FF7F00FB
:100484000100000000000C0000000D00320000001C
:1004940002000000D80D002000020000FDCE000084
:1004A40001CA011000000000000000000800000064
:1004B40000002000180E002001000000600E002043
:1004C4000800000000000000000000000000000020
:1004D400000000000000000001000000A00E002049
:1004E4000600000001000000080F002000000000CA
:0C04F400000000000002000000000000FA
:0F0502002A0001002500300031002E0001000109
:100512000040040000006CD1000000000000000058
:100522000000000001000000030087C4011038052C
:10053200000038050000000000008000000080007C
:10054200000000000000600E00209F8100002000DB
:10055200000044D1000060CF00000DC30110C3377A
:100562000000C537000099C801109BC801100000A7
:10057200000082040000D0CC0000E8CC0000B8CC1F
:0B05820000000800090001000000015B
:10059000000000000000000000000000000000005B
:1005A000A532000005330000853100002F33000024
:1005B000ED310000A13100002D3200007133000048
:1005C0001D8100009B8400009F8400000800000043
:1005D0002400000018000000280000002000000097
:1005E0003C0000000C00000034000000DFF800F0C8
:1005F000D9C10110DFF800F025B10110DFF800F0DB
:100600006DA90110DFF800F0D9B6011000B58FB068
:1006100008233C2200216846FFF7E8FFDFF830049A
:1006200000F1EC0107914FF4167201210892069136
:1006300000236A460FF2C5119C30FFF7DBFF0FB0B5
:1006400000BD10B5012886B0DFF8044404D00228AC
:1006500064D004286FD089E001F0FAFDC00609D407
:10066000FF206075002020750122617D012000F0CF
:10067000D9F97BE000202075607DFF28F4D004A923
:10068000012001F09FFE9DF8100058B90FF2E00024
:1006900003F085F804F1780003F0C0F9002003F0BE
:1006A000A2FA35E080282FD0002003F09CFA002029
:1006B00003F079FD7F21002003F030FB9DF810004E
:1006C000C0F3410003F0A9FB9DF81000C0F3C10086
:1006D00003F0FCFB0020A065E06520666066A06674
:1006E000E0666063A063E063012104F19C0001F017
:1006F000F3FF04F1780003F078F99DF8100041064B
:1007000006D50121217503E0607D08B10121E17565
:100710009DF81000802829D0607527E004A901F019
:1007200051FE9DF8101001EB810189B204F17800AF
:1007300003F076F91AE004F1280101F043FE206B82
:10074000FFF77CFCCDE90201E06AFFF777FCCDE919
:100750000001A06AFFF772FC02460B460FF2200070
:1007600003F01DF801210E2004F090F906B010BD31
:10077000414852532053746F702E0A0D0000000040
:10078000476F7420426F617264204D61672043613E
:100790006C6962726174696F6E2044617461203AA1
:1007A0002025662C2025662C2025660A0D000000D9
:1007B00010B50FF23800DFF8144D02F0F0FF002101
:1007C00061751422002000F02DF9617D01220120C5
:1007D00000F028F90020A07503F0DBF903F0F6F92A
:1007E00000206063A063E063E07410BD4148525391
:1007F0002052657365742E0A0D0000002DE9F04348
:1008000089B002A800210022002380E80E00DFF852
:10081000C01C082401250A68ADF81440ADF8165034
:1008200005A8904701F062FD04F0C3FA884CDFF898
:10083000A47CDFF83C8D04F55675284601F07EFD5A
:10084000284604F0DEFA0020019000904FF47A73FD
:100850001A460FF2F11104F1780003F0A1F8FFF746
:10086000A7FF01226421022000F0DCF804F19C05BE
:1008700000F0CFF80020608204F551794FF4F07059
:10088000FFF7BCFE02AE0CE004F1780003F0BFF805
:1008900018B904F1780003F0A8F84FF47A70FFF764
:1008A000ADFEA07D00285ED0029801F0C9FAFFF7E6
:1008B000E9FB20804146706804F086FBFFF7E2FB0D
:1008C00060804146B06804F07FFBFFF7DBFBA0804F
:1008D000A21DA06D00900C21BDF80000E080BDF9C4
:1008E00002002081E06D00F08CF8206E00F081F8AD
:1008F000002004F08FFA206C0090A21DBDF80000CB
:10090000E0800C21BDF902002081606C00F079F8D4
:10091000A06C00F06EF8032004F07CFA207D38B95A
:10092000606B00F05EF8A06B00F06BF8E06B06E027
:10093000E06C00F056F8206D00F063F8606D00F098
:1009400058F83888810703D5E07C40F04000E07417
:1009500022461421002001F0FBFCE07C00F0FE00A8
:10096000E0740021A175E07D20B10021E175616393
:10097000A163E16303F022F918B3002003F0B1F999
:10098000C0071ED5607D00B34946002003F0E2FA9F
:1009900004F24A31002003F080FA04F5547100207B
:1009A00003F05AFC48B1022803D0002003F0FBFBFF
:1009B00007E06420FFF722FE03E002A9484600F0AA
:1009C00049F8607D00287FF45FAF04F1780003F000
:1009D0001EF818B104F1780003F020F800F019F8BF
:1009E0005FE70090BDF80000E080BDF902002081C3
:1009F00070470090BDF80000E081BDF90200208240
:100A000070470090BDF800006081BDF90200A08130
:100A100070474FF0FF31284601F05EBE01460C20C2
:100A200004F034B830B5154685B004460A46294668
:100A30006846FFF73DFB6A462946204601F088FCE0
:100A400005B030BDDFF8841A0120887570470000BA
:100A5000540200202DE9F04F97B0054689460CA8B6
:100A6000242104F01DFBFFF7CDFD0A900CACB5F975
:100A70000000DFF8586A03F0D1FA0C904FF000083C
:100A8000B5F9020003F0CAFA6060B5F9040003F09A
:100A9000C5FAA060B5F9060003F0A2FAE060B5F966
:100AA000080003F09DFA2061B5F90A0003F098FAF6
:100AB0006061B5F90E0003F0E1FAA061B5F90C0030
:100AC00003F0DCFAE061B5F9100003F0D7FADFF8C3
:100AD000A41A04F079FA2062B16AA06904F0E4FA79
:100AE0000546E069F16AA56104F0DEFA0746206A6E
:100AF000316BE76104F0D8FAF56437652062706500
:100B0000E1686569276901F083F901F08DF901F069
:100B100043F900F065FD01F03CF901F0ACFB00F099
:100B200005FD09900C99A568676801F071F901F05D
:100B30007BF901F031F900F053FD01F02AF901F0E1
:100B40009AFB0546DFF8300A01F052F90746DFF854
:100B50002C0A01F04DF900F0E9FC1590DFF8201A9D
:100B6000DFF8205AAA6D384604F0DEFA98BF4FF03D
:100B70007E5700F0D7FC0AD2FFF760FADFF8082AA8
:100B8000DFF8083A04F0E2FA04F09CFB024638462B
:100B9000114604F0CBFB38BF3A46AA65104601F077
:100BA000F8F800F0CBFC08902F790999D4F808A048
:100BB000D4F804B0781C287101F02AF900900C993F
:100BC00001F026F901F0E2F801F03DF901F0DEF85C
:100BD00001F025F901F0D4F801F04DFB00F0A6FC7E
:100BE00005F14C0141F827000321287990FBF1F130
:100BF00001EB4101401A2871002705F14C00DFF894
:100C0000901950F8270004F0A3FB01F012F97F1CA3
:100C1000032F8046F1DB0A98696CCDF82C80401ACE
:100C2000263004F013FCDFF86C19DFF86C8904F04F
:100C30008FFB30674F46206AD4F80CA0DFF85C9930
:100C40000490E0690390A0690290606901902069B6
:100C50000090A068FFF7F2F900F0CDFC04F032FB41
:100C600083466068FFF7EAF900F0C5FC04F02AFB50
:100C700005900C98FFF7E2F900F040FC04F022FB2D
:100C8000059953465A4600F0CBFCFFF7BBFC68645D
:100C90004FF0804AD6F81880D6F820B0D6F81C90CD
:100CA00001F0CDF800F053FC01F070F801F0CBF842
:100CB00001F086F800F046FC01F082F8FFF7BEF97B
:100CC000CDE90001484601F0A7F88146706A01F0BD
:100CD000B7F801F07CF801F0A4F8FFF7AFF9DDE90F
:100CE000002304F0C1FBDFF8B828DFF8B83804F0BF
:100CF0002DFA04F0E7FA3860B169306A04F064F95B
:100D00008046F169706A04F05FF90146404604F0DC
:100D1000CBF901F086F8FFF791F904F02FFC04F00D
:100D2000D1FA7860D6F81880D6F82090D6F81CB0A2
:100D300001F085F801F087F801F042F800F007FCB7
:100D400001F03EF800F0FEFB01F020F8FFF776F925
:100D5000CDE9000101F05FF88046706A01F050F8BB
:100D600001F067F801F05DF8FFF768F9DDE90023AD
:100D700004F07AFB04F0A6FAB8608246FFF75EF949
:100D800004F0B0FE804678688946FFF757F90246BE
:100D90000B46404629F0004104F0A6FE04F092FA0A
:100DA00078608346FFF74AF904F09CFE00F02EFCC1
:100DB000424629F0004304F097FE04F083FAB8603D
:100DC000DFF8E417386804F0AFF90AD8FFF736F90E
:100DD000DFF8CC27DFF8D43704F0B8F904F072FA62
:100DE00038603868DFF8C887DFF8C897FFF726F95A
:100DF00000F001FC04F066FA8246C7F800A05846ED
:100E0000FFF71CF900F0F7FB04F05CFA8346B868C2
:100E1000C7F804B0FFF712F900F0EDFB04F052FA46
:100E2000B860A1680C9AE368079105925246616820
:100E30000691216A0491E1690391A16902916169B6
:100E4000019121690091594604F0F0FF1598FFF7D0
:100E5000F5F8894607460999DFF8180705F0EAFB17
:100E6000FFF7ECF821F0004100F058FB4FF0804212
:100E7000DFF8443705F050FC21D2697914290DDDE3
:100E8000B07C58B90FF2506002F089FC0A98A8644F
:100E90000120B0740020B065F06530666879642880
:100EA000B8BF401C14DBB07C022814D00FF23460B1
:100EB00002F075FC0220B0740120F07509E0B07CEE
:100EC00028B10FF22C6002F06AFC0020B074002000
:100ED0006871B07C022800F0768211A9029110A8F6
:100EE0000FA90190009162692169E068DFF8CC7672
:100EF000012300F0ADFF0DA90CAA0EA801910092EC
:100F0000029063692269E168012000F0E5FFA068B2
:100F1000FFF794F8DFF8A826DFF8A83604F016F9F2
:100F200004F0D0F9394602460C98DFF8343EA2604E
:100F300004F0FCF905D2194604F0F6F89CBF002035
:100F40000C90606800F0EFFA05D2194604F0ECF856
:100F50009CBF0020606000F0E5FA05D2194604F05D
:100F6000E3F89CBF0020A0600C990898DFF8F48D8E
:100F7000DFF8F49D04F028F8A96B05F05BFB00F0A6
:100F8000DDFA834661680898C4F80CB004F01CF8D8
:100F9000E96B05F04FFB00F0D1FA8246A168089892
:100FA000C4F810A004F010F8296C05F043FB00F021
:100FB000C5FA07466761C5F838B0C5F83CA02F648C
:100FC0005846FFF73BF800F016FB04F07BF90C9055
:100FD00000F01EFB00F00FFB04F074F9606038466F
:100FE000FFF72CF800F007FB04F06CF9A06000207C
:100FF00030647064B064B16D376ED6F85CA000F0F8
:1010000007FF00F00CFF00F0BBFE00F00DFF00F04A
:10101000C3FE01F030F90290B07C002840F043811B
:101020006F690C98DFF844ADDFF844BDFFF706F8B0
:1010300000F0F1FA00F090FA00F0C6FA04F042F97C
:10104000E0606068FEF7FAFFCDE90001686AFEF72C
:10105000F5FF00F081FA00F0B7FA04F033F92061EF
:10106000A068FEF7EBFFCDE90001686BFEF7E6FF35
:1010700052465B4604F038FD00F0A6FA04F022F96F
:1010800060613946384603F09FFF696A00F0BFFE91
:1010900000F07FFE696B00F0BAFE00F07AFE01F00E
:1010A000EAF8074602994FF07E5004F051F980F0BB
:1010B0000040FEF7C3FF04F005F9DFF8081E0091B9
:1010C00083463846FEF7BAFF00F018FA02460B4690
:1010D0000020DFF8F41D05F037FB04F0F3F8009969
:1010E00000235A4600F0C9FFDFF8E01D03F06CFF53
:1010F00007466969E06805F09DFA00F097FE00F088
:101100001DFAE060696A206905F094FA00F08EFE2D
:1011100000F014FA2061696B606905F08BFA00F049
:1011200085FE00F00BFA6061E0680F993064206979
:1011300070646069B06400F0FEF9B16D05F07AFA90
:10114000B0652169306FDFF8889D03F03DFFF16DD8
:1011500005F070FA83466169306FC6F85CB003F041
:1011600033FF316E05F066FA0746706E3766FEF79C
:1011700065FFCDE90001B06DFEF760FF00F03BFABE
:1011800000F0C8F904F09EF87066B06EFEF756FFE6
:10119000CDE900015846FEF751FF00F02CFA00F0AF
:1011A000B9F904F08FF8B066F06EFEF747FF00F073
:1011B00032FA00F020FA00F0ADF904F083F80021D3
:1011C0008246E068DFF80C9DC6F86CA003F0ACFF27
:1011D0004FF0333803D2B06D04F0A8F807D3E068BD
:1011E00004F0A4F80AD2B06D03F09EFF06D2FEF719
:1011F00025FF00F000FA04F065F803E0B06D716EB1
:1012000003F052FFB0650021206903F08DFF03D287
:10121000584604F08BF807D3206904F087F80AD207
:10122000584603F081FF06D2FEF708FF00F0E3F90D
:1012300004F048F802E0B16E00F0BFFDF065002157
:10124000606903F071FF03D2384604F06FF807D3EA
:10125000606904F06BF80AD2384603F065FF06D2E5
:10126000FEF7ECFE00F0C7F904F02CF803E0384676
:10127000514603F019FF3066B07CA0B9B16D00F0A3
:101280005AF9716B05F0D6F97063F16D00F053F9FE
:10129000B16B05F0CFF9B063316E00F04CF9F16B32
:1012A00005F0C8F9F06305F1080228780C9942F8B6
:1012B0002010401C287000F025F92870002700201D
:1012C00068616869FEF7BAFE804605F1080000F023
:1012D00098F900F047F9424600F021F903F0F2FFD7
:1012E0007F1C032F6861ECDB05F1180268786168E8
:1012F00042F82010401C687000F004F96870002764
:1013000000206862686AFEF799FE804605F11800C1
:1013100000F077F900F026F9424600F000F903F0FA
:10132000D1FF7F1C032F6862ECDB05F12802A8784F
:10133000A16842F82010401CA87000F0E3F8A870E3
:10134000002400206863686BFEF778FE074605F10D
:101350002800894650F82400FEF770FE00F002F9DC
:1013600000F0DCF803F0AEFF641C032C6863EADBDA
:101370004FF082410B9803F0D9FF09D2A87970B9D8
:101380000121A971F07C40F00100F074B17506E014
:10139000DFF8501D03F0C8FE9CBF0020A871F07C50
:1013A00001061AD4706F4FF07E5103F0BFFF14D2C4
:1013B000F07C40F08000F0740FF6685002F0EFF916
:1013C0000120B07509E00020029001900090626950
:1013D0002169E068002300F03BFDB16D346EF56DCE
:1013E00000F016FD00F0FCF800F0D3FC05462046A6
:1013F00000F03CFE00F0E8FC00F03DFF00F096F845
:10140000DFF8E41C776E03F08FFE044639D84FF006
:10141000785000F02BFEFEF711FEDFF8D02CDFF83D
:10142000D03C04F061FBD6F858A004460D4600F00D
:10143000EFF800F0EBF800F0D8F800F0CBF803F08C
:1014400041FFB065D6F85CA000F0E2F800F0DEF8ED
:1014500000F0CBF800F0BEF803F034FFF065D6F8EA
:1014600060A000F0D5F800F0D1F800F0BEF800F070
:10147000B1F803F027FF3066DFF8784CDFF8785CCE
:1014800008E04FF07E5103F051FF1BD2DFF86C4CA7
:10149000DFF86C5C3846FEF7D1FD00F0A6F803F0EB
:1014A00011FF7066B06EFEF7C9FD00F09EF803F004
:1014B00009FFB066F06EFEF7C1FD00F096F803F08C
:1014C00001FFF06617B0BDE8F08F00005402002065
:1014D0009C0B00205E0700205374656164792E0A1E
:1014E0000D000000536C6565702E0A0D00000000B1
:1014F0004D6F76696E672E0A0D00000042464B461E
:1015000004F0F2BA0321C0B290FBF1F101EB41010A
:10151000401A7047DDE9002303F018BE3A464B46F7
:1015200003F014BE1046394603F000BF01464FF0E9
:101530007E5003F00DBF306F03F046BD4FF07C517D
:1015400003F042BD0090716A084603F03DBD009073
:101550004946484603F038BD02460B4650465946B8
:1015600004F0C2BA0022DFF89C3B05F0EDB80000A1
:101570000000C842000080BF00007A430000FA4328
:101580000100803FB0050020FCA9F1D24D62503F20
:10159000000040400050C347399D52A246DF913FB2
:1015A000182D4454FB210940DB0F4940FB2119C091
:1015B000F8C1631ADCA54C40E17AB43F6F12833A5C
:1015C0003D0AD7A3703DF2BF02460B46DDE900019C
:1015D00005F0DEB902460B464046494605F0D8B94B
:1015E00007462846294603F0EFBC02460B46204634
:1015F000294604F079BA02460B464046494604F0B3
:1016000073BA894650F82700FEF718BD8046894610
:101610005046FEF713BDCDE900013846FEF70EBD7A
:101620002DE9F04F05469BB0DFF8DC0A249E259F8C
:10163000446ADFF8D8BA8946816903919246C16944
:1016400002919846016A0298019100F0D1FB80F066
:1016500000400090494600F0D7FB00F0B1FB00903D
:10166000514600F0BAFB00F0ABFB00F0D5FB0E904A
:10167000294600F0BAFB009000F0C5FB00F086FBA5
:101680000090494600F0A9FB00F09AFB00F0C4FB73
:101690000D90494600F0A9FB0090514600F0CCFBAC
:1016A00000F08EFB0090294600F097FB00F06EFBE7
:1016B00000F0B2FB0C9000F097FB8246029800F01D
:1016C0009FFB00F069FB8146019800F091FB014609
:1016D000484603F0E9FC00F09FFB0B9000214046D8
:1016E00005F0C8F908D1304605F0C4F904D13846F0
:1016F00005F0C0F900F0E582DDF8A090279DDDF847
:1017000098A000F09CFB8346304600F0B3FC00F04C
:1017100037FB834600F089FB00F032FB00F0ABFDA5
:10172000834600F078FB18905946304603F04CFC95
:1017300024905946384603F047FC2590514600F066
:1017400050FB0646FFF74DFF00F01DFB064600F07C
:1017500056FB00F018FB00F08EFD0646504600F0E8
:1017600089FC26903146284603F02EFC054600F001
:1017700080FC8146039900F03EFB0646269800F067
:1017800079FC08902946304603F01EFC824630461C
:1017900000F036FB8346029900F02DFB07462698A1
:1017A00000F044FB17960A978046019900F023FB4E
:1017B0000746099700F058FC1690314600F024FBCC
:1017C00015902146384603F0FFFB1990039900F06D
:1017D0001FFB0690039900F02FFB1090039900F077
:1017E00013FB0F90214600F000FB1390029900F0CC
:1017F0000FFB0490029900F007FB1290214600F0C5
:101800001BFB0590019900F003FB0646019800F0D0
:101810002DFC1190214600F0E0FA07462699069823
:1018200003F0D2FB009000F0DBFA00F0C9FA009060
:10183000594600F0E9FA00F0A9FA009026990498B8
:1018400003F0C2FB00F0A2FA0090294600F0C2FAB1
:10185000019903F0B9FB00F099FA0090494600F0B5
:10186000B9FA00F003FC00F091FA00903146269896
:1018700003F0AAFB00F0A4FA00903946269803F082
:10188000A3FB00F09DFA07902146089803F09CFB0B
:1018900000902946069803F097FB00F077FA009035
:1018A000594600F0C9FA00F08BFA8346019800F01F
:1018B000C7FA00F065FA8346049800F099FA00F040
:1018C0007BFA8346284600F0D5FB00F059FA8346A0
:1018D000099800F095FA00F0C9FB00F051FA834630
:1018E000284600F0A3FA00F067FA0799834600F053
:1018F0008FFA00F0A8FA00F049FAFEF79FFB05F016
:10190000C7F803F0DFFC8346029800F08AFA8246AB
:10191000089900F079FA00F046FA8246069800F03D
:101920006FFA00F039FA8246404600F09FFB00F063
:1019300033FA8246049800F063FA00F034FA8246E3
:10194000099800F055FA00F091FB00F025FA824664
:1019500000F08FFB00F027FA8246484600F066FA56
:1019600000F01AFA82464FF0804000F055FA1490C9
:10197000514600F040FA80460F99059804F05AFE4F
:1019800000F04AFA00904FF07C50049903F08CFB71
:10199000314603F089FB00F044FA00F0F7F94946BC
:1019A00003F082FB0890139900F0FAF900F034FA82
:1019B00081461099119804F03DFE00F032FA00F0D3
:1019C00006FA294603F070FB079031464FF07C5031
:1019D00003F06AFB394603F067FB00F01DFA054689
:1019E00005980F9903F060FB00F01BFA00F0ECF98A
:1019F00006904FF08040059903F0E6FA07461598E7
:101A0000394603F051FB189904F014FE13904FF07F
:101A10008040109903F0D8FA199904F00BFE24992C
:101A200003F042FB0590594600F0EEF90546029896
:101A300000F0F7F9129000F0E6F91190059900F026
:101A4000C9F981461399099803F0BEFA00F0BFF96D
:101A500081462698069903F027FB119903F0B4FA02
:101A600000F0B5F98146584600F000FB00F097F908
:101A700000F0F7FA00F0ABF98146089800F0B8F9E9
:101A800000F0A5F981464FF0804000F0F3FA0646D9
:101A9000049900F0B0F900F0DBFA0146304603F09B
:101AA00003FB259904F0C6FD10903846159903F004
:101AB000FBFA189903F0F8FA0F9000F095F90490EA
:101AC00000F08EF982460F99169803F07DFA0746CA
:101AD0000599179803F078FA00F05BF907464FF084
:101AE0008146029800F0C6FA109903F06DFA00F0F2
:101AF00050F9074600F05CF900F093F900F049F95D
:101B00000746049800F060F900F0ABFA00F041F9E4
:101B10000546584600F0AAFA0746029800F090F9E8
:101B200000F09BFA089903F04FFA00F04DF90546D2
:101B3000039800F071F90746029800F06DF98346AA
:101B40000599169803F040FA00901399179803F03E
:101B50003BFA00F01BF90090314600F055F910995E
:101B600003F032FA00F012F90090149900F04CF9E9
:101B7000049980F0004003F097FA00F018F900F0A3
:101B800079FA00F003F90646584600F005F900F02E
:101B900068FA00F0F8F80646019800F051F900F0F4
:101BA0005CFA089903F010FA00F0EDF882460F99FC
:101BB00000F010F906460599099803F005FA00F0BF
:101BC000E2F88046149800F051FA00F0E8F800F0CE
:101BD000EEF800F04FFA00F02CF90646119839465D
:101BE00003F062FA0799DFF8287503F0EDF900F0C9
:101BF000CAF80646089800F00FF900F0C4F88046CD
:101C000000F0FDF80646FFF7ECFC00F0BCF80646D5
:101C100000F006F900F0B7F8064600F010F900F001
:101C2000B2F800F028FB064600F023FA00F0FEF8B8
:101C300001460E9803F038FA0E903146284603F01C
:101C4000C3F900F0F3F801460D9803F02DFA0D905A
:101C5000314600F0C6F800F0E9F801460C9803F0B0
:101C600023FA0C903146404603F0AEF900F0DEF85E
:101C700001460B9803F018FA0B900E98FEF7DEF968
:101C8000024621F0004300208F4904F081FE054602
:101C90000D980E46FEF7D2F900F06CF805460C9848
:101CA0000E46FEF7CBF900F065F805460B980E4698
:101CB000FEF7C4F900F05EF803F004FBDFF8481407
:101CC0004867DFF84404066F0E9800F0D3F90399D3
:101CD00004F0B0FC05460D9800F0CCF9029904F030
:101CE000A9FC07460C9800F0C5F9019904F0A2FC84
:101CF00082460B9800F0BEF900F0A7F90446FFF702
:101D000070FC064600F091F800F03DF8064600F041
:101D100087F800F038F80646204600F0A7F900F0F2
:101D200032F800F0A8FA0646284600F0A3F9DFF8DA
:101D3000D8138861384600F09DF9DFF8CC23D061D4
:101D4000504600F097F9DFF8C0130862204600F013
:101D500091F9DFF8B42350621BB0BDE8F08F0000AA
:101D60006E1283BA9A99999999992340B81E85EB76
:101D700051B8DE3F21F000412A46334603F0E6B970
:101D8000594604F057BC314604F054BC009904F0A5
:101D900051BC394604F04EBC514604F04BBC0146E0
:101DA000129803F081B90146504603F07DB906460A
:101DB0000698269903F078B90146584603F074B99D
:101DC0000146009803F070B9294604F033BC494637
:101DD00004F030BC0A9803F0F7B8204603F0F4B8DA
:101DE0002146504603F0F0B85146039803F0ECB892
:101DF000294603F0E9B84FF0804003F0E5B84846C3
:101E0000494603F0E1B85146019803F0DDB80746B2
:101E1000084603F0D9B84046594603F0D5B8834682
:101E20005046514603F0D0B882463846394603F052
:101E3000CBB8414604F0FEBB029803F0C5B840465B
:101E4000414603F0C1B800905946584603F0BCB86B
:101E50002DE9F041032BA8BF022302DA002B48BF73
:101E60000123AC4FD7F824C0069EBCEB030348BF48
:101E7000DB1C002E1CBF079D002D4FF00C0E0ED05A
:101E8000089C64B10EFB03F357F80380C6F800808A
:101E90003E1DF6582E6007F10805EB5823600EFB37
:101EA0000CF3F850381DC15007F108000CF1010186
:101EB000C250032091FBF0F000EB4000081A78625A
:101EC000BDE8F081CDCCCC3F0000F03F0000A04049
:101ED0009999993F3333D33F2DE9F14F8A4FD7F882
:101EE0001CB0D7F818A00C468AB015461E465046BE
:101EF000FFF792FF8046386AFFF793FF8146786AC2
:101F0000FFF78FFF82465846FFF786FF0890594635
:101F1000386A03F059F804905946786A03F054F887
:101F20000390396AFFF774FF8346396A786A03F0D1
:101F30004BF80290796AFFF76BFF01909DF828003B
:101F400058B17548FFF77CFF80467348FFF758FF8C
:101F500081467148FFF765FF824607944FF0804441
:101F6000149F05960695584600F080F8054605989A
:101F700000F07CF800902146069803F025F806460C
:101F80004FF07E50294603F08FF88346019800F009
:101F90006DF8FFF711FF00F064F883460498FFF72F
:101FA000FBFE00F067F8FFF7EBFE83460398494617
:101FB00003F07AF8009903F007F8FFF7E1FE3860C4
:101FC0002146089803F000F800F042F80746079809
:101FD00000F04CF883460498514603F065F8FFF78B
:101FE0001BFF8246019800F041F800F036F8069990
:101FF00002F0EAFFFFF7D0FE04460298FFF719FF50
:10200000009902F0E1FF00F020F8159908604946B8
:10201000039804F00FFBFFF7FFFE044602984146C9
:1020200003F042F800F026F800F00FF804463846B6
:10203000294603F039F8059902F0C6FF00F005F8CB
:10204000169908600BB0BDE8F08F214604F0F2BA93
:1020500001464FF07E5003F027B80146384603F0A2
:1020600023B8079902F0B0BF4FF08040214602F03C
:10207000ABBF4846314602F0A7BF2DE9F0420C46FF
:102080001D46114603F010F806462046FDF7D6FF20
:1020900002460B462148224904F056FB0746894672
:1020A0001D48FFF7E7FFFFF7E5FF0646FFF7DCFFF8
:1020B000FFF7DCFF0146304603F04AF9FDF7BEFFAB
:1020C00004F060FD3A46FFF71AFA06460F46284626
:1020D000FDF7B4FF32463B4603F038F8BDE8F04266
:1020E00003F0F0B80100C84118B7D1382D431CEBFC
:1020F000E2363A3FAE47E17A14AEEF3F0AD7A3701B
:102100003D0AEF3F00000840540200208FC2F53E18
:102110009A99193FD0320020000080BF2BF697DD3E
:102120009387D93F52656164792E0A0D0000000043
:1021300001B513460A460121684604F06BFD02BD55
:1021400038B55A4B1870581C002404E011F8015B94
:1021500000F8015B641CE5B29542F7D3521CD1B282
:10216000BDE83440184604F037BD2DE9F84F074666
:102170004F4C0020207060804FF4807801F026FDE5
:1021800001F0F3FCF8064FF0010922D5002001F020
:1021900000FF18B1207840F0100020700125E8B24F
:1021A00001F0F7FE80B16E1E608809FA06F108435F
:1021B000608045F08000C0B201F0EBFE20B1608885
:1021C00008FA06F6064366806D1C062DE7DB01F073
:1021D000CCFCB80639D5002002F013F818B12078ED
:1021E00040F02000207001254FF6FF770FF2C80B5A
:1021F0006E1E608809FA06FA10EA0A0F20D0E8B2CB
:1022000001F0FFFF40B92946584601F0C8FA60883E
:1022100087EA0A010840608008FA06F660883042C2
:102220000ED045F08000C0B201F0EBFF40B9294666
:102230000FF29C0001F0B3FA60887E400640668091
:102240006D1C062DD4DB01F090FC2078BDE8F28FE8
:1022500017480078704716484088704730B500220C
:1022600006E08418835C65788554921C6370D2B252
:102270008A42F6DB30BD10B501460E4CA4EB61047A
:102280004FF07C5002F0A0FE214602F09DFE214658
:1022900002F09AFE01464FF07F5002F005FF214602
:1022A000BDE8104002F090BE000000008433002022
:1022B00060340020DF59375F4465766963655B25CC
:1022C000645D204D616720646561642E0A0D000025
:1022D0004465766963655B25645D2D32204D6167D9
:1022E00020646561642E0A0D0000000010B584B002
:1022F0000820ADF800000421ADF802109048914C80
:1023000001788900019168468F490A689047002842
:1023100014BF00200298A060010008BF13200BD05A
:102320004FF6FF7004F0E8FC0FF2202310220A2180
:1023300004F12C0004F041FF04B010BD814A516843
:1023400019B900B15060002070471120704700009B
:102350003EB50B460025114604281A46794C2ED866
:10236000DFE800F0031A1F2D2400142B25D104F1FF
:102370000C0005F071FA0FF285000290FF210A228D
:102380000191009204F12C03A068002204F10C01D9
:1023900004F0CCFC054613E0012B0ED10878207028
:1023A0000EE0012B09D10878607009E00C2B04D1F4
:1023B00004F1200005F050FA02E0182500E00225A3
:1023C00028463EBD10B500240B4604285D4912D8AE
:1023D000DFE800F0030608110B0014220C3106E0C0
:1023E000087800E04878187006E00C222031184682
:1023F00005F032FA00E00224204610BDF8B50D4683
:102400000026287AC10617461C4601D50820F2BDD1
:10241000069808B10B20F2BD6946284605F06FFA10
:10242000012802D126800120F2BDBDF800004AF645
:102430003121401A05D0401E012806D9801E0AD03D
:1024400011E014202080142208E001202080E86898
:102450000178397009E00C2121800C22E9683846A6
:1024600005F0FAF901E026800A263046F2BD2DE992
:10247000FE430E468046307A0024810691461F4670
:1024800048BF08202BD402A9304605F038FA0128AD
:1024900025D0BDF808100A982A4D42F60212891A72
:1024A00041D048F22F12891A18D0491E04D0491E73
:1024B00017D0491E25D041E040BB012F24D1F1683F
:1024C00099F800000870F068A84207D101226868F6
:1024D00000281FBF01680029104688472046BDE834
:1024E000FE8398B9012F0FD199F8000008B9802414
:1024F000F4E7F1680870691CF0688842EED10222A6
:10250000E5E718B90C2F03D00D24E7E70B24E5E726
:10251000F06805F120018842E0D10C22494605F01F
:102520009BF90422D3E70121019100903B464A46E2
:102530003146404604F066FC0446CFE70A24CDE766
:10254000C40B00200C0600209C0B0020FD23000083
:102550006F24000000000000DFF800F013C101103C
:10256000DFF800F0F5C00110DFF800F049BA011003
:10257000DFF800F025C20110DFF800F0C1C2011041
:10258000DFF800F0E3BF0110DFF800F0B5C1011083
:10259000DFF800F0D5C00110DFF800F095C00110A1
:1025A000DFF800F00DA80110DFF800F0BDBE01104B
:1025B000DFF800F021C10110DFF800F02DBF01109D
:1025C000DFF800F0E1B50110DFF800F0D5C201102E
:1025D000DFF800F0D9C20110DFF800F0F1C50110FA
:1025E000DFF8DC00007D704738B5DFF8DC00DFF88D
:1025F000D4500068EFF3118480F31188A86800219B
:10260000FFF7CAFF6969081AA969814238BF00202B
:1026100084F3118832BD00002DE9F041DFF8A800F5
:10262000DFF8A0400768EFF3118887F31188A068EE
:102630000121FFF7B1FF0121A1830021E183656939
:1026400021682268461B801A691A884204D2002039
:10265000A08388F311882AE088F31188002005E020
:102660004519361A29460120FFF79AFF8642F7D20C
:10267000EFF3118887F31188E18B012903D12946F3
:102680000020FFF78DFFA16910F1010F08BF084678
:1026900003D0801B814238BF08464119FFF784FFF1
:1026A000012020840020A083256088F31188BDE8E4
:1026B000F08101617047808A7047FFF765BF0000B5
:1026C000A401002078010020ACD100000446DFF80E
:1026D000CC000068704700002DE9F84F04460D4615
:1026E000FFF73EFF0646FFF7F2FFEFF3118780F397
:1026F0001188D4F80880A84502D187F3118847E0F3
:10270000002DDFF8A49007D5DFF8C40000684FF073
:10271000000A00EB090B06E0012000FA05FAD9F8DF
:10272000180000EBC50B207D012822D12046FFF7C1
:102730003FFF206CFFF710FF28B1D9F80400E168D3
:102740008843C9F80400D9F81000A04207D1C9F89D
:1027500014B02146DBF80000FFF7AFFF03E021468D
:102760005846FFF711FFD9F804004AEA0000C9F8FB
:102770000400A560C4F80CA0C4F840B0002D44BF0C
:102780000020C9F814000120A9F8080087F3118877
:102790003046FFF7E9FE4046BDE8F28FACD10000BD
:1027A000DFF83010096870470001002010280ED3B0
:1027B000A0F11002DFF82010520901EB820110385D
:1027C000012200F01F0002FA00F0C1F880027047F9
:1027D000E8050000ACD1000000E000E005F0A6B87C
:1027E00080B5002301223421DFF8E80905F05CFB05
:1027F00000B10120C0B202BDDFF8BC1A0A6800288F
:1028000012BF42F00100500840000860704700000D
:102810007047FEE710B582B0042005F079FB02286E
:1028200018BF03280DD1032000901C234FF0405205
:102830000021DFF8A00905F014FBBDE816400420D4
:1028400066E0DFF89419DFF8940A09680C18DFF8DD
:102850008C19DFF88C0A0968B0FBF1F12046FFF70C
:102860008BFE2046BDE81640FFF78ABE80B5DFF834
:1028700070090078DFF86C0901688908890041F067
:102880000101016005F051FB05F0DBFBDFF8581991
:10289000002008600220DFF88C190968C9688847A1
:1028A000DFF8540A016849084900016000F017FA8E
:1028B000042000F00FF900F0B2BC00000022012952
:1028C00004D1012807D1DFF8600903E0012802D113
:1028D000DFF82C0A026810467047DFF8000A00791A
:1028E0007047000005F036BB10B5DFF83C160968EC
:1028F000EFF3118481F31188DFF8E019C988012012
:10290000012908BFFFF76CFF84F3118810BD000098
:1029100030B5DFF81416DFF888390A68EFF3118153
:1029200082F31188B0FA80F2C2F11F02D25CB0FAD1
:1029300080F4C4F11F04551EE55405D1DFF89C292D
:10294000136823EA0000106081F3118830BD000095
:102950002DE9F041FFF724FFEFF3118481F3118893
:10296000DFF88019425C531E435444D1DFF87819D4
:10297000DFF8788901EB80052E786F88300618D54E
:10298000D8F80010096A38468847D8F80010896AD4
:1029900038468847D8F80010096B38468847DFF872
:1029A000501901200860DFF84C0900688007FAD54B
:1029B00014E0700606D5DFF8B01951F82710002092
:1029C00088470BE0D8F80010896938468847D8F85E
:1029D0000010496B384688470228F8D106F03F00BE
:1029E0003F2818BFFFF7B4FF687800F03F003F288A
:1029F00018BFFFF7ADFF84F31188BDE8F08110B573
:102A000008B1140001D1032010BD8160C2600361D0
:102A10000146DFF8E828DFF84C0912681018FFF7C4
:102A2000CBFD002010BD0000F8B50446DFF8F80427
:102A3000DFF8B0180068EFF3118580F31188625C4D
:102A4000531C6354002A3ED1DFF89C1801EB840725
:102A5000387800F03F003F2818BFFFF7E5FF78788F
:102A600000F03F003F2818BFFFF7DEFF7E88387870
:102A7000DFF87878010613D53968C9693046884788
:102A80003968496A304688473968C96A3046884794
:102A900000F038F8DFF85C0800688007FAD512E02B
:102AA000400606D5DFF8C01851F8261001208847E7
:102AB00009E039684969304688473968496B3046CA
:102AC00088470128F9D185F311882046BDE8F240F6
:102AD00005F0D0BCDFF850140A68EFF3118182F3DF
:102AE0001188DFF8F827136803431360B0FA80F009
:102AF000C0F11F00DFF8A827835C5B1C835481F3BF
:102B000011887047DFF8E81701200860704700005F
:102B10002DE9F04F83B04FF0000800210128C14695
:102B20008A4618BF022412D1DFF8FC03DFF834789C
:102B30000268EFF3118082F311883A79012A06BF07
:102B400002223A71012180F3118809B10624BDE007
:102B5000FFF706FD0090012000F0E6F8040002D027
:102B600001203871AFE0FFF713FDDFF8281801905E
:102B7000C1F80090012005F0CBF9012804D1002014
:102B800005F058FC4FF00108DFF8E047DFF8545734
:102B9000216889680020884700F0A1F8687C08B1A6
:102BA0004FF00109287C08B149F00209E87B08B11F
:102BB00049F00409E87ADFF8306718B1A16AF08DAE
:102BC000096B8847A87A18B1A16A708D096B88478C
:102BD000FFF798FF49F02000A16A89698847012022
:102BE000FFF70AFE3878C00748BF4FF0010A12D439
:102BF000DFF89807FDF77AFA8346BBF1040FF7D0A8
:102C000000F067F88008800008600321A26CDFF8FC
:102C10007C0752689047002005F066FC00F05FF8E2
:102C2000A06A806B8047BAF1000F0AD1A26CDFF86E
:102C30005C0752685946904700F04BF840F003009B
:102C400008600120216889688847DFF84407006828
:102C50008006FAD5B8F1000F1CBF012005F0EAFB91
:102C6000A16A496948468847A16A496B484688472E
:102C70000128F9D1E87A18B1A16AF08DC96A8847AC
:102C8000A87A18B1A16A708DC96A8847FFF73AFF20
:102C90000020FFF7B1FD03203871042000F044F854
:102CA000DFF8F0160120086000F019F805F02AFDA1
:102CB000082000F039F80446012038710198FFF728
:102CC0007FFC05F0AAFC0098FFF74EFC2046BDE80B
:102CD000FE8FDFF8D006DFF8CC1600687047DFF80B
:102CE000A80600687047000038B58F48DFF87456B2
:102CF0000068EFF3118480F31188E888012803D17C
:102D000005F07CF90020E88084F3118831BD0000D3
:102D100010B5FFF745FDEFF3118481F31188FFF73C
:102D200047FC84F3118810BD38B500F02AF8081864
:102D3000FFF712FC002540B9204600F008F820B14A
:102D4000DFF86806006880470225284632BD70B566
:102D500000F017F80D182846FFF736FC0646B06855
:102D6000204206D03169F26820469047C0B201285F
:102D700006D03046FFF72CFC0646AE42EFD10020CD
:102D800070BDDFF8781509680446DFF8D80570478C
:102D900030BF704770B505F0B1FCDFF840552E68C4
:102DA00006F00C000C284BD0700727D4FFF71CFC52
:102DB000044600210120FFF781FDA0421ED2DFF86A
:102DC000C00300684519DFF814040668DFF8D80569
:102DD0000068B0FBF6F0211A2846FFF7CDFB284625
:102DE000FFF7CEFB4FF47A70B0FBF6F20021012022
:102DF000FFF78EFE2846FFF7BBFB23E030071FD40A
:102E0000DFF8F404DFF8E444DFF87C55F1060168EC
:102E10005ABF4908490041F001010160DFF884050B
:102E2000016841F003010160202021688969884719
:102E300028682068806B804701202860286801E0AE
:102E4000FFF7A6FF05F05EFCBDE8704005F010BC82
:102E500010B50C1805F052FC401E8041C00FDFF881
:102E600060150A68002AFCD0246801220A6008B1B3
:102E700005F048FC204610BD80B50420FFF72AFE6F
:102E80000820FFF727FE0E20FFF7CEFDDFF8200514
:102E9000DFF820150068C0F3815003280CBF012023
:102EA00000200880DFF8100502680AB1012002BD89
:102EB000DFF8103540221A600122C261002048600C
:102EC00002BD10B5DFF85C13DFF8F04482B009688A
:102ED0000968202088470F202060072341F61D50F5
:102EE00060604FF4C0720220009000F0C9F8DFF873
:102EF000D8040121016001688907FCD50121216105
:102F0000DFF8B0442188012907D1002101610220A6
:102F1000202100F091F8012004E00121002000F0C0
:102F20008BF80220606013BDACD100002DE9F041A8
:102F3000DFF89804DFF87C4482B0016842688A4375
:102F4000426001616068002804BFBDE8F341FFF7FB
:102F5000B8BF0128DFF878141AD102206060086831
:102F60004BF2F52148436188000A11B100216180CC
:102F700006E0DFF860140968090210EB1120400830
:102F8000DFF854140860000C4860012088600CE0F1
:102F900002280FD10868B0F5C06F02D10020606030
:102FA00045E00321616000F06FF80121BDE8FC41BC
:102FB000002041E003283DD1002060600868A0F5B2
:102FC000C065A06800F0B2F80646284600F0AEF8EA
:102FD00086422CDAA669284600F0ACF88019A06178
:102FE000E56860697B4E85420ED0A769A7F11000A5
:102FF00000F09CF880462069103800F097F8804572
:1030000002DABFB200970BE0ADB2009508234FF48F
:103010007F423021304604F024FF206980B20090C6
:1030200012234FF4F8020421304604F01AFFBDE8E1
:10303000F3418AE0BDE8F38170B50D46DFF89C43AB
:1030400082B0032121600021DFF894633160316890
:103050008907FCD480B200900523602200F010F8AC
:103060000120306030688007FCD5A5610020206019
:103070000821DFF85003C16001600120206073BDAA
:103080000021544804F0EDBE70B50646514C82B0A4
:1030900030212046FFF7DCFEDFF81853C0F307208D
:1030A000E86004212046FFF7D3FEC0F38440286186
:1030B000A6F5C060A8602E6900F03CF88019A861F0
:1030C000A969E868022909DA401E6FF03F039842B7
:1030D000B8BF184610310BD5002109E01E2908DBC6
:1030E000401C4028A8BF3F2010392029A8BF1F211D
:1030F000A9616861082380B200904FF47F423021BB
:1031000000F011F80120009011234FF4003200F07C
:1031100009F8A86980B2009012234FF4F80200F079
:1031200001F873BD0421204604F09BBE002848BF6F
:103130004042704700284CBF6FF00101022101EBB3
:103140004000032190FBF1F0704780B5DFF8780272
:103150000021016001688907FCD400210160416001
:103160000120DFF8541208600E20FFF7F1FB082061
:10317000FFF7CEFBBDE802400420FFF7C9BB00000B
:1031800090D1000010B504460020D4E90A2347F688
:10319000906105F0BFFA012928BF4FF0FF3010BD44
:1031A00010B50C4605F02EFB011D201AB0F1004FA2
:1031B00005D8081BB0F1004F38BF8C4200D20C4636
:1031C000DFF820221268526A2146BDE81040012033
:1031D0001047000000A00C4094D10000B0D10000C6
:1031E0007034002004400340401009402DE9F041B4
:1031F00080460A46D8E90A01D8E90C45A0FB0267D7
:1032000001FB0277A6196F41340C002244EA074102
:103210004046FFF7C5FFC8E90E67BDE8F0814FF0F3
:10322000FF3002BDA0010010A0D10000F8B5054696
:10323000DFF8B801DFF8B8610068DFF8B871EFF3C4
:10324000118480F31188306840F0800030600120E4
:10325000B96849688847F96A096A14208847286963
:10326000B0F5802F34BF0421010CBA68526A0120E6
:1032700090473A681268232100209047B968C969CD
:1032800001208847306820F4E02040F4803030602E
:10329000306840F00100306084F31188F1BD000017
:1032A00034340020DFF85401036840680022002114
:1032B00010185941704700000C200840DFF8241115
:1032C000DFF8240110B5096844684968012088477F
:1032D0006069A169BDE8104008470000A40F002004
:1032E000A0860100D433002000CD0000B8010010FA
:1032F00028200860282008408C21084098D1000030
:10330000A4D10000F8B504460D46FFF7CBFFD4E981
:103310000A6732463B4605F0FDF93DB1A6FB0023A6
:1033200006FB013307FB0033C4E90C23F2BD38B5BB
:10333000DFF8BC40DFF8C050206840084000206043
:10334000206840F0800020600120E062E06A296887
:10335000496801208847696A096A14208847E06A39
:1033600031BD0000A40F0020C40D0020900100100A
:1033700080B500F004F8000C40EA014002BDDFF81F
:10338000800000688EE700002C20094000400340C8
:10339000141009400C40094009B9DFF86810FFF724
:1033A0001BB9000024220840A8D100009CD10000D5
:1033B000B43F0050880F002004800C400C400C40AB
:1033C00000800C402C500C4034600C4028500C40C5
:1033D00008400C40102009403C600C4000400C406C
:1033E00038600C408C010010E4010020ACD10000DA
:1033F00000200940840100108C01001008200940C1
:10340000EC010020A0010000DFF8FC14096821B1E4
:103410000A898242FAD1084670470020704700BFEF
:1034200013B5044605F03FF818B1002000F002F88B
:1034300006E008E0009001AB22464FF0FF317047F4
:1034400000F00DF816BD4FF0FF3016BD00F007F884
:103450000EBD08B582B00023009302ABF6E777B546
:103460008DB01C461498ADF8180000250F9828B9A7
:103470002FE10EAA0DA800F07BF96D1C00F034F9C5
:10348000080000F020812529F3D100F02DF92D2925
:1034900005D10120ADF8060000F026F902E0002079
:1034A000ADF80600302904D10120049000F01CF989
:1034B00001E000200490002000904FF0FF300290C7
:1034C0000A202A2918D12168216051F8042B216093
:1034D000009200F01AF9009A002A11D50122ADF8E5
:1034E0000620009A524200920AE0009A00FB021164
:1034F0003039009100F009F9A1F130020A2AF4D321
:103500002E291DD1002102910F990F9A0978521C82
:103510002A290F9210D100F0F2F80291002944BF3D
:103520000020029000F0E0F80AE0029A00FB02118D
:103530003039029100F0E9F8A1F130020A2AF4D3FF
:10354000049808B1009804906C2918BF4C2905D143
:103550000120ADF8040000F0C7F802E00020ADF84B
:10356000040008A807900CA8059000200390642987
:1035700018BF69290DD1BDF818000028FFD000F050
:10358000B8F86FF009030298049A8242B8BF049019
:1035900019E00A2375291FBF1023782908236F29F2
:1035A00003D1BDF8180038B906E0702913D104938F
:1035B00020682060016814E000F09BF8049A0298EB
:1035C0008242B8BF0490049A059800F0A4F80790CE
:1035D0000599081A2FE0632919D120682060016835
:1035E0000FE0001D206010230598082200F093F8DA
:1035F000401E079040200799087005980799401AC7
:1036000019E0001D206007980170012013E0732964
:1036100013D100F074F8079111B90FF2BC000790B4
:10362000079805F001F90390029810F1010F1ED0E0
:10363000039988421BDA039019E00F98401E0F90FF
:103640000E98022813D3029810F1010F02D00E99A0
:10365000884201D30E9800E0401CDFF8B46236685F
:1036600002906B4622460FA90DA8B0474519009855
:103670000399401A0090BDF8060038B902E000F046
:103680002FF86D1C0098401E0090F8D50398411E3D
:10369000039150B10798401C07900EAA10F8011D25
:1036A0000DA800F065F86D1CF0E7BDF806000028D5
:1036B0003FF4E4AE0098401E00903FF5DFAE00F00E
:1036C0000FF86D1CF6E70D9810B10D9900200870E9
:1036D000284610B070BD0000286E756C6C29000083
:1036E0000EAA20210DA843E00F9810F8011B0F909F
:1036F0007047206820600168001D206070472068C6
:10370000206050F8041B206070470F990F9A0978C9
:10371000521C0F927047F0B500240025002B44BFC7
:103720005B42002902D54942521E2D25B1FBF3F61A
:103730000FF2280703FB1611641CC95D00F8011D78
:1037400031460029F2D19442BEBF302100F8011D5C
:10375000641CF8DB0DB100F8015DF0BD303132338F
:1037600034353637383961626364656600000000BD
:1037700010B50C46116802290BD3491E116001686F
:1037800019B14A1C02600C7010BD04F08CFE00B12F
:1037900000E010BD2046BDE8104004F082BE0EB42B
:1037A00000B501A9FFF73BFE5DF810FBDFF86411DF
:1037B000096808470000DFF8600100680047012041
:1037C0007047FEE7704710B50446606808B90120ED
:1037D00010BD0B460146206848A200F077F8A168AA
:1037E0004118A16061680129A4BF081A6060002027
:1037F00010BD00003EB50D4642490988144681427D
:10380000034628BF0FF21C1210D24049098881429A
:1038100007D3FFF7F9FD21464268284600F056F825
:103820003EBD3549098831B90FF2041221462846B8
:1038300000F04CF83EBD394B0095002C48BF47F6D0
:10384000FF740021029101946A461B68344998472D
:1038500002983EBD2DE9F843170048BF47F6FF77B1
:1038600004468846002664B3208818B13A46FFF71C
:10387000C1FF0646B91B012922DB208820B120A206
:10388000404600F023F88619A068C8B1656875B194
:10389000284604F0C9FFA7EB0609401D814506DB59
:1038A0002B460FF2A002494600F00EF88619B91B0C
:1038B000122905DBA3680FF2940200F005F88619BF
:1038C0003046BDE8F28300004046FFE708B478B513
:1038D00004001ABF2668002E00260D4605AB3046B0
:1038E000FFF7B7FD854238BF681E16B12168411841
:1038F000216072BC5DF808FB8A050000257300009A
:103900003A2000001205000014100020800400007E
:10391000BCD10000B4D10000B8D10000C0D100007B
:10392000C73700007B6D6F64756C652325647D006F
:103930007B6D6F64756C652D726F70653A25787D4F
:1039400000000000222573222C2000006C696E65A7
:103950002025643A20000000DFF800F041AC01109F
:10396000DFF800F085C10110DFF800F079B5011033
:10397000DFF800F0F5B80110DFF800F0A9C1011080
:1039800000B583B00821ADF800100522ADF8022083
:10399000019000F001F807BD68464F490A681047DA
:1039A0002DE9F04389B08046894617461D46109C94
:1039B000119E0823242200216846FFF7D1FF4749C2
:1039C00006964FF47A700A68B0FBF2F0454305950D
:1039D0004743ADF810406B463A4649464046FFF72C
:1039E000C3FF404609B0BDE8F083FEF7C9BD38B556
:1039F00004460D46FEF75FFE10B12046FEF7B8FD07
:103A000000F027F82046BDE83240FEF7B9BD80B58A
:103A1000FEF751FE00B10120C0B202BDFEF7A8BD05
:103A200070B504460D46FEF746FE20B12046FEF76F
:103A30009FFD012600E0002600F00BF829462046F5
:103A4000FEF737FE26B12046BDE87040FEF798BD70
:103A500070BD224A10684FF47A71B1FBF0F0454313
:103A600029462046FEF788BD10B504460021FFF721
:103A70007FFF204610BD70B50C460421164684B069
:103A80000546ADF802100C2208200192ADF80000A6
:103A9000FFF782FF58B9029949B18E602846FEF7B8
:103AA00073FD14B12046FFF757FF012003E03046B5
:103AB000FFF766FF002004B070BD10B50446FEF7A6
:103AC0004BFD38B92046FFF757FF8468FFF758FFD2
:103AD000204610BD002010BD9C0B0020B0D100007E
:103AE00070B5054605F00F04062C15DA14B96821E7
:103AF000012013E0DFF86068B07FA04207D000F03B
:103B000044F848B100F02CF8B47703F0B2F8AC42B6
:103B100014BF6921682100E0D7E00020BDE87040B3
:103B200003F085B810B500F00F04062C14DA20005D
:103B300002D10C2101200BE000F027F860B100F069
:103B40000FF8DFF81408847703F093F80C210020B5
:103B5000BDE8104003F06BB803F08BF8002010BDF7
:103B60000120A040C0B203F045B810B5DFF8E84727
:103B7000A17F49B100F009F810B1002003F03AF834
:103B800003F077F80020A07710BD7021002003F02B
:103B90004EB880B5DFF8C407006801220C2105F09B
:103BA00032F8DFF8BC27DFF8BC171068B1FBF0F083
:103BB000FCF724FDBDE80240002014E080B50C2095
:103BC00005F037F8012818BF002002BD10B5DFF856
:103BD0008C47211D04F10C0004F084FF20600020BC
:103BE000BDE81040FFE770B5054605F00F04AC4294
:103BF0001CBFA41DE4B2FFF773FF002856D0DFF806
:103C000058670020B07731193055087301228020A1
:103C1000707706F11D016B20FEF792FA3CB9002087
:103C200000F04CF8052000F042F8002006E00420E7
:103C300000F044F8062000F03AF8042070770122E2
:103C400006F11D011920FEF77BFA03F012F8284651
:103C500000F09FF9040028D02846FFF741FF00B983
:103C600033E0707EC000B076012206F11A011C20FC
:103C7000FEF766FAF07EC0003077012206F11C01E3
:103C80001B20FEF75DFA02F0F4FFDFF8D4160A6895
:103C90004FF4FA6000F0DCFA284600F03BFA2846C0
:103CA00000F081FA284600F0FCF9204670BD7077DC
:103CB000012206F11D011D20FEF742BA7077012294
:103CC00006F11D011A20FEF73BBA02F0D2FF0020D8
:103CD00070BD3F206077012204F11D016C20FEF7CA
:103CE0002FBA10B582B0044600208DF80000FFF70F
:103CF00065FF18B902F0BDFF002016BD00F043F9C2
:103D000048B1012269463A20FEF712FA08B98DF847
:103D1000000002F0AEFF9DF8000016BD2DE9F04D49
:103D200082B08A468046FFF749FF08F00F05002859
:103D30002F4642D0062F40DABE1DF6B2474518BFC7
:103D40003746DFF81446E05DE8B9BAF1000F1AD043
:103D5000AB46C34518BFB346FFF730FF88B14046B6
:103D6000FFF7BEFE78B100F0B3F950B1FFF7B1FF35
:103D7000002104F80B1020B100F043F808B100F066
:103D800046F802F076FF04F807A0E05D002833D083
:103D9000454518BF35464046615DC9436177FFF729
:103DA0009FFE60B3FFF797FF02F063FF655DAD090B
:103DB000FFF704FF05F0010510B902F05AFF1EE0FD
:103DC0000121404600F08CF9C8B14046FFF7AAFE39
:103DD00058B1002D19BF16208DF8000000218DF874
:103DE000001000F0B3FA02F044FF5FEA080006D0CA
:103DF000002100F075F902E0404600F052F9BDE8FC
:103E0000F38D012204F11A011C20FEF799B9012259
:103E100004F11D013A20FEF78BB9F8B5DFF83875CB
:103E20000546787E01260124A84201D10120F2BD79
:103E3000E800B876FFF7C2FE18B902F01AFF0020BA
:103E4000F2BD00F028F80028F9D0012207F11A018C
:103E50001C20FEF775F900F063F8002CEFD07D769A
:103E60000124204600F005F8641C062CF9DB3046DE
:103E7000F2BD10B500F02AF900B96DE600F083F844
:103E800040B10122DFF8E0141C20FEF759F900F0E0
:103E90005EF8204610BD002022E638B504460D46E7
:103EA000FFF78CFE00B970E000F06DF868B10622F3
:103EB00029463B20FEF73CF900F049F8200003D0EA
:103EC00006212846FEF7CAF9204632BDF8B5DFF8CC
:103ED00088740546F87E01260124A84201D10120FC
:103EE000F2BDFFF76BFE18B902F0C3FE0020F2BD71
:103EF000FFF7D1FF98B1E8003877012207F11C01E4
:103F00001B20FEF71DF900F00BF804B1FD7600242C
:103F1000204600F00AF8641C062CF9DB3046F2BD9E
:103F200008B90026002402F0A4BE10B500F0CEF8B7
:103F300000B911E600F027F840B10122DFF82C1497
:103F40001B20FEF7FDF800F002F8204610BD0446E5
:103F500002F08FBE38B504460D46FFF72FFE00B9BC
:103F600013E000F010F868B1062229464320FEF75E
:103F7000DFF8FFF7ECFF200003D006212846FEF70C
:103F80006DF9204632BD2046AAE502F072FE0020FF
:103F900032BD10B500F09AF8C0B1FFF7F4FFC8B118
:103FA000DFF8B443207E40B1002121764CF250303E
:103FB000DFF8AC130A6800F04BF900F00DF875203B
:103FC000FEF7B6F810B1607F712800D0C4E502F0AA
:103FD00050FE012010BD6077012204F11D017047E1
:103FE00080B504F085FEDFF87023537E032B13D8D1
:103FF000DFE803F002060A0E0022DFF874330AE05D
:104000000022DFF8703306E00022DFF86C3302E0B4
:1040100000224FF07D5339E0002002BD80B5DFF86B
:104020003823D37E032B27D8DFE803F0020A121AC5
:1040300004F05EFE00F030F80022DFF8403316E0B6
:1040400004F056FE00F028F80022DFF834330EE0CA
:1040500004F04EFE00F020F80022DFF8283306E0DE
:1040600004F046FE00F018F80022DFF81C3301F0DF
:104070003BFD01F027F90146084602BD80B504F07A
:1040800037FE00F009F80022DFF8003301F02CFDC4
:10409000BDE8044001F016B900224FF07C5301F056
:1040A00023BD10B500F012F858B1062C09DAFFF75D
:1040B0006AFF50B1A84CFFF70CFE10B14F2000F082
:1040C00008F8BDE8104002F0D4BD10BD044675E507
:1040D00009206077012204F11D016B20FEF730B842
:1040E00010B50C4600F00F01062900DB34E5FFF7A0
:1040F000F7FC60B1202004B12220974948770122C3
:104100001D313720FEF71CF8FFF721FF00E00024E7
:10411000204610BDF8B5FFF7D9FF04F00F0618B917
:10412000BDE8F14002F0A5BD00F066F8002829D0F6
:10413000A6421CBFB61DF6B200F05BF8F0B1864D8A
:10414000934F0F20687700F020F800F07DF80322ED
:1041500039461020FDF7ECFF60B1387805EB4601D9
:104160008030088407EB4600797880318180B97807
:104170008031818300F00FF802F07BFD2046BDE81E
:10418000F4403CE0F1BD16216977012205F11D01E3
:104190000A20FDF7D5BF01206877012205F11D0136
:1041A0000B20FDF7CDBF70B5FFF790FF04F00F06B1
:1041B00018B9BDE8704002F05CBDA6421CBFB61D38
:1041C000F6B200F019F898B100F013F858B1624D4A
:1041D000FFF7E1FF00F038F8A85D410601D5FFF7D1
:1041E000D2FF02F046FD200002D0BDE8704006E09C
:1041F00070BD2046FFF796BC0121204670E70021E4
:104200006EE738B5FFF762FFA0B1FFF7F5FFD0B159
:10421000FFF7EFFF5249504D00F017F8FF20687785
:10422000012205F11D010020FDF782FF10B1687F1A
:10423000482800D0A9E602F01CFD20001CBF002188
:10424000FFF74EFF012032BD45490A6842F2107067
:10425000B0FBF2F0FCF7D2B92DE9F041804608F04E
:104260000F04062C84B00F460ADA44451CBFA41D77
:10427000E4B2394D2E1906203073FFF79FFC18B9B0
:1042800002F0F7FC00205EE0002030735FEA0800D7
:104290000AD00121FFF724FF10B90520307301E097
:1042A000307B08B101204EE04046FFF73BFC012285
:1042B00069460220FDF73CFF002835D09DF800003C
:1042C000C1072FD5072201A90320FDF731FF38B31D
:1042D00001A881790A0720D4BDF80410398005EBC4
:1042E0004405B0F902207A80B0F90410B980B7F91A
:1042F0000030B5F9200043431B123B80244B1D1DA9
:1043000035F91400424312127A8003EB4402B2F9E9
:104310001C0041430912B98008E00321317305E014
:10432000042002E0022000E00120307316208DF806
:10433000000000F00BF802F09CFC1CB1002140468C
:10434000FFF7CEFE307B04B0BDE8F0810122694664
:104350000A20FDF7F5BE0000700D0020A80D00201A
:10436000B0D10000A08601008A0D00208C0D002035
:104370000000103F0000203F0000303F00406F4031
:1043800000407F4000408F4000409F4000C0B2404E
:104390007032002000B58FB008233C22002168460F
:1043A000FCF724F9DFF8B40700F1500107914FF44E
:1043B000407201210892069100236A460FF20131F2
:1043C000FCF718F90FB000BD30B585B002F054FC11
:1043D00004F0A0FC04F020FD04F08BFD0FF2C940B6
:1043E000DFF8744704F07DFD0FF2C14004F07DFD5D
:1043F000DFF86C0704F0F2FD30B94FF4804004F0B0
:1044000048FF0120E07403E00FF26470FFF7C7F982
:104410000FF6641104F1580004F064FB206518B92C
:104420000FF27870FFF7BBF96FF07E006074012126
:104430000020A074ADF802100820DFF828170A68E1
:10444000ADF8000068469047BDF80400208302984C
:10445000E06404F18800FFF707FB60650021042099
:104460000190009100234FF47A720FF2716104F110
:104470006400FFF795FA01211F2002F0C5FF00211B
:10448000ADF80C1001208DF801008DF80000082116
:10449000ADF80A104FF44870ADF808000021ADF8EF
:1044A00006106420ADF804000121ADF802100DF1F2
:1044B000010240F2053004F007FF03AA022140F296
:1044C000063004F001FFDFF8A02600F0D7FA2246FC
:1044D0000E2140F2073004F0F7FE6A4601214FF446
:1044E000447004F0F1FE0DF10A02022140F2113095
:1044F00004F0EAFE02AA022140F2123004F0E4FEC7
:104500000DF10602022140F2133004F0DDFE01AA93
:1045100002214FF4457004F0D7FE0DF10202022192
:1045200040F20F3004F0D0FE0FF2FC720A2100209E
:1045300002F063FEA021062002F066FFA021072002
:1045400002F062FFA021082002F05EFFA0210920F6
:1045500002F05AFF4FF0FF3002F04CFE4FF0FF30F8
:1045600002F028FE05F054FBFF22302104F11C006C
:10457000FBF79EFD04F11C023021802003F022F99C
:1045800048B10FF21470FFF70AF904F11C02302150
:10459000802003F02CF9002060750B2003F0FEF85A
:1045A0000FF290721121012005F03AFB0FF298757D
:1045B0002A460521022005F033FB2A460521052065
:1045C00005F02EFB0FF288721421032005F028FB62
:1045D0000FF29C720821042005F022FB0FF2847276
:1045E0000921062005F01CFB012000F03DF93020D8
:1045F000FDF7BBFD0546302D08D105210F2000F049
:1046000049FA0FF2AC50FFF7CAF808E00A210A2075
:1046100000F040FA29460FF2AC50FFF7C0F8FDF762
:104620001AFE01460FF2C050FFF7B9F8A08B4FF603
:10463000FF71884204D10FF2CC50FFF7B0F827E0A9
:1046400080070CD404F120020C210420FDF780FE29
:104650000420FBF7F6FFE08A40F00200E082207FB2
:10466000410715D404F12C020F21042005F014FC9D
:1046700004F13B020F21052005F00EFC042001F09F
:1046800031FB052001F02EFBE08A40F00400E082BF
:1046900005F01CFD01F0FAFA04F1940004F0E3FFC8
:1046A000002002F04BFD208BC0B202F044FD206DD3
:1046B0000FF2854104F0C7FA05B030BD00000000DC
:1046C0002DE9F04184B0FFF77FFE0FF284510FF225
:1046D00074500FF29055DFF88C74DFF87C64FFF7AC
:1046E0005EF84FF6FF780FE00221002004F039FD5C
:1046F0000221002004F04AFD0221002004F0FFFC0A
:104700000028F1D104F0E6FC0820ADF800000A21F1
:10471000ADF802104FF0FF300190684639688847C5
:10472000002862D109210820ADF80210ADF8000080
:10473000684639688847BDF80610029C80BBBDF802
:104740000400102804BF328B914216D120789128A2
:1047500007D0B02802BF217904F1080002F007FF5A
:104760000BE060780E2802BFA18841F2054081422B
:1047700003D1A06890F9031071748CB10820ADF8D2
:104780000000032106E0607800F098F80820ADF8FA
:1047900000000521ADF80210019468463968884789
:1047A000706DFDF7D9FEE0B9706DFFF786F9040072
:1047B000F6D020780128E6D00228E7D16178A078E9
:1047C0000C290BD0E2D30E2901D004D3DEE7717D92
:1047D00008437075DAE701F085FAD7E7FBF731FF98
:1047E000D4E705F08FFC01F057FB718B480727D504
:1047F0004FF6FB7001407183307C062812BF0228FF
:1048000006F16400FFF7F1F8307C06280ED1022192
:10481000B174ADF80080694640F20E3004F094FEA9
:10482000BDF80000404518BF02F067FF307C022849
:1048300005D10321B1740F20012100F02BF9307D47
:10484000718B08077FF560AF4FF6F77001407183F9
:1048500004F039FC04F033FCC0F30020002802D03F
:104860002846FEF79CFF47E710B5BB4C0100206DC2
:104870000FD00122142104F0C6F90120BB49207594
:104880000A68BDE810404CF25030B0FBF2F0FBF784
:10489000B5BE0022142104F0B6F90020207510BD29
:1048A00001460022012020E170470000AA48418B08
:1048B00041F008014183C06CFFF74EB87FB5054653
:1048C000401E07280FF27C34A34E00F2CB80DFE8B5
:1048D00000F0044BC975755FC9BE05210F2000F0BB
:1048E000D9F802A94FF4417004F02EFE02A94A78CB
:1048F0009DF808008DF801208DF8000000208A78CE
:104900008DF8022000228DF804208DF803204A79CA
:104910008DF807200A79C9788DF806208DF80510E2
:104920006A46082105F07CF99DF808109DF80800FA
:104930008D4ACB0801EB13731B09A1EB031100098E
:10494000D17490740A28ACBF572130210818907494
:10495000D07C0A28ACBF572130210818D07400F051
:104960008DF80FF280317BE006F16400FFF74FF81D
:1049700018B906F16400FFF738F8307D10B901204E
:10498000FFF772FF002000F0E0F80FF2643167E0FB
:1049900006F16400FFF73BF818B906F16400FFF771
:1049A00024F8306D00220F2104F02DF90FF24C3164
:1049B00000F069F80420FEF78DF853E000F0B2F83B
:1049C0000FF2443100F05FF8B07C02280AD00FF2F9
:1049D000443100F058F80020FFF746FF0420FDF7AF
:1049E00097FF3FE0747D0120002CB0743AD0E007BF
:1049F0000DD506F120010420FDF7E4FCB18B4FF644
:104A0000FD700140B183F08A40F00200F082A007FF
:104A100006D506F12C01042005F07EFA00F024F8FA
:104A2000600706D506F13B01052005F075FA00F098
:104A30001BF806F11C023021802002F0D8FE18B1CC
:104A40000FF27820FEF7ABFE002070750AE000F050
:104A500069F8306D01220A2104F0D5F80FF2C02167
:104A600000F011F835747FBDB18B4FF6FB7001403B
:104A7000B183F08A40F00400F08270471D214FF4AA
:104A8000427004F021BC2046FEF789BE0A4601466A
:104A900002202AE02DE9F04104460D4600262E4F63
:104AA00016E0386D0122214604F0ADF82F4A106857
:104AB00044F62061B1FBF0F84046FBF79FFD386DEE
:104AC0000022214604F09FF84046FBF797FD761C34
:104AD000F0B2A842E5D3BDE8F08100001E494A8B40
:104AE00010434883C86CFEF737BF70B50D460421EC
:104AF000164684B00446ADF8021003220820019245
:104B0000ADF80000684617490A68904748B9029A0C
:104B10003AB11470557096700F48C16C406DFEF735
:104B2000AAFF7FBD80B5FBF743FE01F03FF9BDE86A
:104B3000014005F015BB0000042902D0112902D064
:104B4000704705F0C4BA01F080B9034A50730E21D2
:104B500040F2073004F0B8BB48070020F0250020E1
:104B60008CC700009C0B0020E0070020B0D10000A3
:104B7000436F6E74726F6C6C65725F53656E736FAA
:104B800072436F6E74726F6C6C6572496E697420DB
:104B90004661696C65642E0A0D00000050494E5F45
:104BA0006F70656E204661696C65642E0A0D0000A9
:104BB00073656C66546573744D61702050617373D6
:104BC0002E0A0D0073656C66546573744D61702018
:104BD0004661696C656428476F74203A307825789F
:104BE000292E0A0D0000000046696754657374524F
:104BF0006573756C74203A20307825303478200A3B
:104C00000D0000004469646E742066696E64204380
:104C1000616C6962726174696F6E20646174612095
:104C2000696E20466C6173682C204D617920636148
:104C3000757365206F6666736574206572726F7236
:104C40002E0A0D004C43443A25730A0D0000000063
:104C5000436F6E74726F6C6C657220537461727402
:104C60000000000053656E736F7220436F6E7472A4
:104C70006F6C6C6572204F766572666C6F7720651D
:104C800072726F7220686173206F636375727265F0
:104C900064210D0A00000000436F6E74726F6C6C2B
:104CA00065725F5265616443616C696272617469C7
:104CB0006F6E204572726F720A0D0000436F6E7442
:104CC000726F6C6C65725F53746F726543616C696F
:104CD00062726174696F6E204572726F722E0A0D76
:104CE00000000000496E697469616C697A6564004E
:104CF0004164766572746973696E6700436F6E6EA6
:104D0000656374656400000057616974696E672E9D
:104D10002E2E0000506F776572206F66662E0000A1
:104D20004572726F720000004672656520577269A5
:104D3000746500004343323635302046726565574E
:104D400072697465000000004E2E412E00000000C4
:104D5000312E302E3120284D6179203231203230F1
:104D60003138290053504945204C41420000000091
:104D700050434220322E30000F0880860A08808679
:104D8000042007C01408C080112007C0FF000000E5
:104D9000E0B50821ADF800100422ADF80220019022
:104DA000684635490A68904708B100200EBD029850
:104DB0000EBD38B5314D324C28788000FFF7E8FF42
:104DC000206028788000FFF7E3FF216860600029F9
:104DD00018BF002801D1132032BD4FF6FF752846B9
:104DE00001F08AFF6168284601F086FF04F1200087
:104DF00001B0BDE830400FF248131022072102F045
:104E0000DCB9204A116819B900B110600020704760
:104E1000112070473EB50B4611460FF26D05184C38
:104E200010B103280CD01CE00C2B18D10C2204F17B
:104E3000080002F011FD00F016F804F108010AE084
:104E40000C2B0CD10C2204F1140002F005FD00F033
:104E50000AF804F11401206801F068FF3EBD182033
:104E60003EBD02203EBD07210091FF20029501902A
:104E700004F12003002270479C0B0020C40B00208B
:104E8000E00C002058340020F8B50D460026287AA2
:104E9000C10617461C4601D50820F2BD069808B188
:104EA0000B20F2BD6946284602F029FD012802D1F7
:104EB00026800120F2BDBDF800004AF63D21401ACF
:104EC00001D0401E07D10C2020800C22E968384612
:104ED00002F0C2FC01E026800A263046F2BD2DE930
:104EE000F0410D4684B00446287A00278106164614
:104EF000984648BF08201FD402A9284602F0FFFCAC
:104F0000012819D0BDF8080042F60211401A05D058
:104F100048F23B11401A01280DD90BE00A98009085
:104F200001210191434632462946204601F06AFF9D
:104F3000074600E00A27384604B0BDE8F0810000CB
:104F4000894E0000DF4E000000000000F0B4024671
:104F5000106895681318506803EB5004C00721D5FA
:104F60004D441FE0F0BC02F10C00704713F8017BC8
:104F700005F8017B491EF9D1A0B1B60813F8011B51
:104F800006F00306032E08BF13F8016B01EB0621A0
:104F90004942801C294405D011F8016B05F8016BCA
:104FA000401EF9D1A342DDD013F8016B16F00301C6
:104FB00004BF13F8011BC91C30090F28DAD113F8FC
:104FC000010B0F30D6E70000FF2212EAD05C1DBFB4
:104FD00012EAD153944593422BE09C44D30780EAD4
:104FE00001021A4043EA002043EA0121A1FB0030FC
:104FF000C04238BF40007CF17F010BDBFE294ADA5A
:105000005B0842EAC15153EA006373F1004C51EB73
:1050100010207047D1F1080CDCF120012FDB5B0878
:1050200010FA01F10B4320FA0CF073F100415041EA
:10503000704794451CBF02EAD153934280EA0102B3
:1050400002F000421DD0400019D0490017D05BB9D2
:10505000634514D00902B1FA81F39940BCEB030C0B
:10506000C00140F00040C1E70002B0FA80FC10FA35
:105070000CF0B3EB0C0CC90141F00041B6E7100095
:10508000704740000AD0490008D010F1807F94BFDB
:1050900011F1807F02E042F0FF407047D04370473B
:1050A0000022FBF709B8000090EA010F41F1C88225
:1050B00081F00041421A3CBF801A89184FF0004C21
:1050C000C0F3C752FF2A24D0C1F3C75313B3D21A77
:1050D000D2F1190327DD4CEA01214CFA03F321EA4E
:1050E0000303D140C20D4CEA0020401834BF20EA2F
:1050F0000C004CEA5000D20553EA006373EB0C0C31
:1051000052EB1020420012F1807F38BF7047C00D73
:10511000C0057047490212BF9A4200EB5120F8E7E0
:10512000D2F11703D9D570474FF0807C1CEB400FAC
:1051300094BF1CEB410F05E040EA010C1CEB0C0F87
:1051400001D28142704718BF8842704770B44FF057
:10515000004591EA030F41F123846B40841A71EBFF
:10516000030604D26E40001BB141121973414FF483
:10517000001C1CEB410F34BF7CEB430682E00C0D9E
:10518000A4EB1356362E7BDC012E45EAC32341DC0B
:1051900043EA525312BFD20292025B08240545EA49
:1051A000C12141EA5051D2EBC020994125D407D109
:1051B000B0FA80F610FA06F162D00020203608E03E
:1051C000B1FA81F6B140C6F1200220FA02F2114391
:1051D000B0404FEAF474B4EB465434F001064FEAA1
:1051E00074040AD8D6F50016760D04F00044F04099
:1051F00061FA06F25040F1404840C00A40EA41508E
:1052000021F0004128BF5FEA500550F1000044EB57
:10521000D12135E0DB0A45EAC121C90AB6F12005F2
:105220000EDD42EA0242120CC5F1200603FA06F630
:10523000EB4042EA06056D42984161F100010DE044
:1052400062FA06F5F240554063FA06FC82EA0C0267
:10525000F3405A406D42904161EB030111F4801F0D
:1052600005D1641E620502D06D004041494121F420
:105270008011430875F1004350F1000041EB0451E7
:1052800070BC70471CEB410F15D223F0004352EA6B
:1052900043060BD04FEA4C0CBCEB410F04D80C0D6D
:1052A000661E342EB7DDEBE7801A994150EA4106BD
:1052B00008BF0021E4E708BF1CEB430F28BF6FF0D5
:1052C0000001DDE701F000428B1AA3F16051B1F556
:1052D000801F0ADBB1F17F6F1FD242EAC102C10019
:1052E00071F1004142EB507070470B15C3F1090397
:1052F000212B10D2890241EA9051800201284941B4
:1053000041F0004121FA03F0C3F12003994071F10B
:10531000004150417047100070476FF0000013EBE0
:10532000103F5CBF000E42EAC05070474FF0807CD7
:105330001CEB400F94BF1CEB410F05E040EA010C51
:105340001CEB0C0F01D28842704718BF8142704796
:1053500010B5FF2313EAD0541DBF13EAD1529C426B
:105360009A4239E0A41ADA0780EA0103134042EABC
:10537000012142EA0020421A3CBF641E01EB4202B6
:10538000090AB2FBF1FE01FB1E221202B2FBF1F090
:1053900001FB10226EF30F201202B2FBF1FE4EEA67
:1053A00000207F3406DDFE2C24DA53EA500050EB57
:1053B000C45010BDD4F1020401FB1E2240F08071E4
:1053C000192C1DDC21FA04F0C4F12004A140114382
:1053D00071F10042584110BD9C421ABF03EAD152FC
:1053E0009A420FE080EA010E0EF00043400004D024
:1053F000490016D143F0FF4010BD490008BFD34318
:10540000180010BD9C4205D1D21AF7D001F000411E
:10541000484010BD4A0212BF0846484000F0004014
:1054200010BD4AB90902B1FA81F2914044B1A41801
:10543000C00140F000409EE7C90141F000415242E6
:105440000002B0FA80F4A040141B94E700280AD0B0
:10545000B0FA80F18840D1F19D01C905020672F1D0
:10546000004241EB102070472DE9F04C04465800F3
:105470004015401C83B00D4643D068004015401CC9
:105480003FD0C80F1ABF25F0004508260026D80FC8
:105490001CBF23F0004386F0060619460027B942D8
:1054A00007DA4FF0004BB81A6BEB0101CDE90001B0
:1054B00001E0CDE900212946B942204604DA4FF047
:1054C000004B381A6BEB0101DDE900AB8B4509DCC1
:1054D00001DB824506D21046194622462B4601F0D2
:1054E00033F93DE023F0004B0020002122F00007BB
:1054F0008B4508BF874235D02046294601F024F964
:1055000030E048004015401C04D1090302D0204679
:1055100029462FE058004015401C04D1190302D041
:105520001046194626E058004015401C09D11903C1
:1055300007D168004015401C03D1290308BF0C495E
:1055400001D000200021EE0F18BF0826DA0F18BF87
:1055500086F006066B005B155B1C03D12A0301D1A4
:1055600086F00206324603B0BDE8F04C04F02CBED3
:105570000000F03F03B0BDE8F08C00002DE9704C56
:10558000044648004015401C84B00D4601D1090373
:1055900024D125F000430020002124F000028B429A
:1055A00008BF82421AD0E80F1ABF25F0004508262E
:1055B000002629460022914204DA4FF00043101BD6
:1055C00063EB01014FF079539342BCBF4FF00040B1
:1055D00060EB03039942924603DA2EBB204629462C
:1055E00067E0DFF8D4B00020594622462B4601F090
:1055F000CFF9CDE9000100225B4620462946FFF79E
:10560000A5FDDDE9002300F06FFA01F041FACDE9D4
:1056100002012A492A4851450ADA4FF00043BAEB01
:10562000000063EB010103E085F00041204640E00B
:10563000CDE9000129465145204605DA4FF00043E7
:10564000BAEB000063EB0101DDE900238B4207DBCD
:1056500001DC824204D3DDE90223204629461AE018
:10566000D345BCBF4FF0004161EB0B0B29465145C0
:10567000204605DA4FF00043BAEB000063EB01016E
:105680008B4510DB01DC82450DD3DDE9020186F09C
:10569000020622462B4601F057F8324604B0BDE818
:1056A000704C04F091BDAFF300804FF0FF306FF00D
:1056B000004104B0BDE8708C0000F03F9EA0E63FC2
:1056C000CD3B7F662DE9F04D04460D469046DFF850
:1056D0008803DFF8881322462B4600F005FA0F46B0
:1056E00027F00041DFF87823DFF8783301F014F871
:1056F000064662D2DFF8703307F000410B43002208
:105700003946FFF723FD04F087FE5FEA000A51D017
:1057100003F0EEFA0022D54B00F0E6F906460F46FC
:105720004FF0A040D24932463B4600F0DDF9024638
:105730000B462046294601F02BF904460D464FF052
:10574000C040CC4932463B4600F0CEF902460B46FB
:105750002046294601F01CF904460D464FF0005042
:10576000C54932463B4600F0BFF902460B4620468B
:10577000294601F00DF904460D460020BF49324686
:105780003B4600F0B1F902460B462046294601F09F
:10579000FFF804460D464FF00050B94932463B46EB
:1057A00000F0A2F902460B462046294601F0F0F827
:1057B00004460D460AF00300ACE068004015401CAA
:1057C0000CD168004015401C02D1290340F04081F3
:1057D0004FF0FF306FF00041BDE8F08D25F0004143
:1057E000002224F00000914208BF904206D1B8F197
:1057F000000F00F02D810024A24D29E139469A4B7B
:1058000007F0004730463B43FFF7A0FC0F46490036
:10581000064641EAD071400000220023994208BFA9
:10582000904217D040F23342A2EB5150352804DBAE
:1058300006F0000607F000470CE0202803DD2038C2
:10584000C740874000E001D1002603E00128A4BF43
:10585000C640864027F0004126F00000994208BF6C
:10586000984251D00020814932463B4600F03CF935
:1058700082468B464FF0A0407D4952465B4600F081
:1058800033F902460B462046294601F081F80446CA
:105890000D464FF0C040774952465B4600F024F970
:1058A00002460B462046294601F072F804460D4692
:1058B0004FF00050704952465B4600F015F9024621
:1058C0000B462046294601F063F804460D460020A9
:1058D0006A4952465B4600F007F902460B462046ED
:1058E000294601F055F804460D464FF00050644932
:1058F00052465B4600F0F8F802460B462046294621
:1059000001F046F804460D463046394604F084FD61
:1059100000F0030025F0004100229142804404DAA7
:105920004FF00043101B63EB01014FF0795393429A
:10593000BCBF4FF0004767EB0303994208F0010A30
:1059400005DABAF1000F7BD000244E4D78E02246F4
:105950002B462046294600F0C7F8BAF1000F06464C
:105960000F4631D04848494932463B4600F0BCF822
:10597000474A484BFFF7EAFB32463B4600F0B4F893
:10598000454A464BFFF7E2FB32463B4600F0ACF897
:10599000434A444BFFF7DAFB32463B4600F0A4F89B
:1059A000414A424BFFF7D2FB32463B4600F09CF89F
:1059B0006FF051023E4BFFF7C9FB32463B4600F009
:1059C00093F800222F4B37E032463B4620462946CB
:1059D00000F08AF882468B463648374932463B46C5
:1059E00000F082F8354A364BFFF7B0FB32463B46B3
:1059F00000F07AF8334A344BFFF7A8FB32463B46B7
:105A000000F072F8314A324BFFF7A0FB32463B46BA
:105A100000F06AF82F4A304BFFF798FB32463B46BE
:105A200000F062F82D4A2E4BFFF790FB52465B4682
:105A300000F05AF822462B46FFF788FB04460D4635
:105A40005FEA887004D585F000412046BDE8F08DFE
:105A500020462946BDE8F08D83C8C96D305FE43F1C
:105A60000000A0FFFFFFDF410000E03F0000303EEC
:105A7000FB21B941B410114026A6513E5C14D33C21
:105A80009A833B3B0000F03F09260A1039BA213EB9
:105A90003BA861C6F97D92BE63AC30909F01FA3E8F
:105AA000F6FB51166CC156BFB10255555555A53F71
:105AB000FFFFDFBFB08F2FC310D8E53D8F0C73A160
:105AC000E1E55ABE4DADE44FE31DC73E3EE3B519D7
:105AD000A0012ABFFAF010111111813F425555550E
