:10000000584400207DC3000001CA011001CA01103C
:1000100001CA011001CA011001CA011001CA011070
:1000200001CA011001CA011001CA011001CA011060
:1000300001CA011001CA01103FCA0110C0F3C75123
:100040007E390EDDC217D1F1200106DD000240F03D
:100050000040C840104450407047D04380F00040FA
:10006000704700207047F0B4024610689568131876
:10007000506803EB5004C00721D54D441FE0F0BC8D
:1000800002F10C00704713F8017B05F8017B491E53
:10009000F9D1A0B1B60813F8011B06F00306032E30
:1000A00008BF13F8016B01EB06214942801C29446B
:1000B00005D011F8016B05F8016B401EF9D1A34280
:1000C000DDD013F8016B16F0030104BF13F8011B18
:1000D000C91C30090F28DAD113F8010B0F30D6E70D
:1000E00000280AD0B0FA80F18840D1F19D01C905FD
:0E00F000020672F1004241EB1020704770478B
:100100003C0000000000000000000000340100007E
:1001100000000000000000000100000000000000DE
:1001200000000000000000000000000001000000CE
:100130000000000008000000000000003400000083
:100140000000000000000000680100000000000046
:10015000000000000100000000000000010000009D
:100160000000000000000000080000000000000087
:1001700030000000000000000000000098010000B6
:10018000040000000000000001000000FFFFFFFF6E
:10019000FF00000001000000080000000000000057
:1001A0002C0000000000000000000000C40100005E
:1001B000040000000000000001000000FFFFFFFF3E
:1001C000FFFFFFFF080000000000000034050000F2
:1001D000E401000099A1011095A70110A5C201102A
:1001E00009B2011045B80110000000000000000035
:1001F0002E000000280000000000000000000000A9
:10020000140200000000000000000000FFFFFFFFDC
:1002100000000000080000000000000030050000A1
:100220003002000069C201106DC101101FC201102F
:1002300095BA01100000000000000000300000002E
:10024000300500005402000075C20110A9B601106B
:100250009DBF011049B60110000000000000000021
:100260003100000024000000000000000000000039
:1002700080020000000000000000000000000000FC
:100280000800000000000000240000000000000042
:1002900000000000A40200000000000000000000B8
:1002A0000000000008000000000000002400000022
:1002B0000000000000000000C80200000000000074
:1002C0000100000000000000080000000000000025
:1002D00000000000A00E002004000000000000004C
:1002E000000000002000000070010000300000004D
:1002F0001C020000D80E00200400000000000000D6
:10030000000000000C000000300400001800000095
:1003100040020000E00E0020040000000000000089
:100320000000000024000000480400001800000045
:1003300000000000200F002004000000000000006A
:100340000000000010000000A00100002C000000D0
:10035000CC010000280F0020040000000000000075
:1003600000000000200000006402000024000000E3
:10037000FFFFFFFF480F0020040000000000000006
:100380000000000028000000880200002400000097
:10039000FFFFFFFF500F00200400000000000000DE
:1003A00000000000580000003C0100003400000084
:1003B000FFFFFFFF580F00200400000000000000B6
:1003C00000000000100000006004000018000000A1
:1003D000FFFFFFFF600F002004000000000000008E
:1003E000000000001C000000AC020000240000001F
:1003F000FFFFFFFF680F0020040000000000000066
:100400000000000038000000F40100002800000097
:10041000FFFFFFFFD00F00200400000000000000DD
:100420000000000054000000000100003C0000003B
:100430001800000000000000000000004004000060
:10044000080000000000000018000000000000008C
:100450000000000058040000080000000000000038
:100460001800000000000000000000007004000000
:10047000080000000000000002000000D8C30000D7
:03048000FF7F00FB
:100484000100000000000C0000000D00320000001C
:1004940002000000A80E0020000200004DC1000070
:1004A40001CA011000000000000000000800000064
:1004B40000002000E80E002001000000300F0020A2
:1004C4000800000000000000000000000000000020
:1004D400000000000000000001000000700F002078
:1004E4000600000001000000D80F002000000000FA
:0C04F400000000000002000000000000FA
:0F0502002A0001002500300031002E0001000109
:10051200004004000000BCC3000000000000000016
:100522000000000001000000030087C4011038052C
:10053200000038050000000000008000000080007C
:10054200000000000000300F00206777000020004C
:10055200000094C30000B0C100000DC301107B393C
:1005620000007D39000099C801109BC801100000ED
:1005720000008204000020BF000038BF000008BF56
:0B05820000000800090001000000015B
:10059000000000000000000000000000000000005B
:1005A0005D340000BD3400003D330000E73400003E
:1005B000A533000059330000E53300002935000061
:1005C000E5760000637A0000677A0000080000000A
:1005D0002400000018000000280000002000000097
:1005E0003C0000000C00000034000000DFF800F0C8
:1005F00041AC0110DFF800F0D9B601101CB501F0D4
:100600009DFDDFF8EC4B04F1AC0001F0BFFD0020D4
:10061000019000904FF47A7364220FF2953104F147
:10062000880001F00BFF01226421022000F062F932
:1006300002F037F8A08204F168020F21042001F0D3
:10064000AFFD04F178020F21052001F0A9FDBDE8FE
:10065000134083E038B5DFF8984B012804F1880592
:1006600006D0022834D0042840D0052848D031BD17
:1006700002F017F830B9FF2020700122217800F035
:10068000ABF831BD2078FF28F7D06946012001F092
:10069000C7FD9DF8000060B9284601F00DFF0C224F
:1006A0000021002000F026F900F094F80120A0714C
:1006B0000AE00320A0719DF80000800900F001000D
:1006C0006071284601F0DFFE9DF80000207031BD0A
:1006D000694601F0A5FD9DF800100A20414391FBF9
:1006E000F0F189B2284601F0E9FE31BD04F168015C
:1006F00001F096FD0FF2240003F02DF9022108E02D
:1007000004F1780101F08CFD0FF2300003F023F9C1
:1007100004210E2003F084FD31BD0000476F7420DA
:100720004D61672043616C2064617461732053657F
:100730006374696F6E20312E0A0D0000476F7420BC
:100740004D61672043616C2064617461732053655F
:100750006374696F6E20322E0A0D00002DE9F84394
:10076000DFF88C4A002020700C22002100F0C2F833
:1007700000F030F80020A070607004F18805284671
:1007800001F093FE10B1284601F096FE0020A07102
:1007900003F036FFE0B100270FF610280FF61426FD
:1007A000F55DA08A05420CD018F80790484603F082
:1007B0003CFFA08A10EA052F1CBF49F0800003F01F
:1007C00034FF7F1C052FEBDB03F0F1FE002060827D
:1007D000BDE8F1832178012201208BE0DFF8101AB7
:1007E000087910B901220A710871704770B5DFF8F5
:1007F000004A658A4FF6FE600540FFF7FBFE06469D
:10080000112004F0B3FC80B9DFF8E8090168711A1F
:1008100042F21172914207D344F6206245F001057D
:10082000914238BF45F480750660B4F91200A842C1
:1008300002D065820120A07070BDF8B500F068F8A4
:10084000DFF8AC59A878002848D00021A970DFF85B
:10085000A8190878F8B90024DFF8A06905EB04109E
:10086000406AFFF7EBFBC7B2182060433044406991
:10087000FFF7E4FBC0B205F1080140EA072021F8C8
:100880001400641C052CE9DB05F108020C21002092
:1008900001F086FC22E00024DFF86469E0B23084D5
:1008A00004EB4400304490F90010C27B42EA01227C
:1008B0007284641C90F90110027C42EA0122B28425
:1008C00006F1200290F90210407C40EA0120F084F9
:1008D0000C21002001F064FC052CDFDB687820B1DE
:1008E00000216970BDE8F1407AE0F1BD01460D20BC
:1008F00003F096BC3EB5154604460A4629466846AE
:1009000004F0C6FC6A462946204601F049FC37BD82
:100910002DE9F843DFF8D878F87858BB0121F97051
:10092000B879C10724D500250FF680080FF6840694
:10093000745DB88A044214D018F80590484603F054
:1009400074FEB879810703D57F21484603F008FF7C
:10095000B88A10EA042F04D07F2149F0800003F008
:10096000FFFE6D1C052DE3DB03F021FE0020B871B6
:100970000020F8706946012004F014FD3878A8B111
:1009800003F03EFE00281CBF9DF80000002803D1A4
:10099000FFF7E4FE002009E007F18804204601F09B
:1009A00084FD10B9204601F06EFD0120BDE8F28300
:1009B00080B5FFF7ADFF90B1DFF83408C18A491C5C
:1009C000012289B242700B29A4BF00218270C1822A
:1009D000DFF830080068BDE80240FFF707BE01BD40
:1009E0002DE9F04F95B000248DF81C40FFF702FE72
:1009F0000E90DFF8FC170879002840F0FD80DFF842
:100A0000F027DFF8F8580121117110710894DFF810
:100A1000E0170878002800F0DD80002208990FF226
:100A20008C700F92425C08990FF288708DF81E202E
:100A30009046425CDFF8B8178DF81D2010468A8A70
:100A4000104251D04FF0000957E00899DFF8B8077D
:100A5000415C089BDFF8A42718204343D718DFF830
:100A6000A80747F82190491C089A8154C9B2052269
:100A700091FBF2F202EB8202891A089A815400215A
:100A800079610026786904F057FD824657F8260000
:100A90008B4604F051FD0022DFF8703704F070FD42
:100AA00052465B4604F090FE04F04AFF761C042E8A
:100AB0007861E7DDDFF85807089910F8110004F0B5
:100AC00073FF00F0C9FBFFF7B9FA00B2002848BF76
:100AD00040421F28DFF81817A8BF8DF81C809DF82A
:100AE0001D008A8A12EA002F6ED001200F904FF06D
:100AF00000099DF81E0040F08008404603F013FEF8
:100B0000C0070BD50DF14601404604F0C7F8002898
:100B100075D002281CBF404604F067F89DF81C0001
:100B200000F101080F9800288FD00898DFF8E4162C
:100B3000DFF8BC26085C089909010091571807EBFB
:100B40008001401CC1F818900026089ADFF8C416EE
:100B50008854C0B2032290FBF2F202EB4202801AE8
:100B6000089A885400207862786A04F0E5FC8B4685
:100B700082460099DFF8A006014451F8260004F0EF
:100B8000DBFC0022DFF8943604F0FAFC52465B46A8
:100B900004F01AFE04F0D4FE761C032E7862E3DB28
:100BA000DFF86C06089930F91100001204F0FCFE21
:100BB00000F052FBFFF742FA00B2002848BF404263
:100BC0001F28A8BF8DF81C800898401C0428089096
:100BD0007FF71DAFDFF818064179012903D1DFF84F
:100BE0001026002050719DF81C0018B1DFF8002677
:100BF0000121917003F0DBFC15B0BDE8F08F10A966
:100C0000404603F06CFE0028DED013A9404603F0F6
:100C1000C3FE0028D8D0BDF9400003F003FF0D90BB
:100C2000BDF9420003F0FEFE0C90BDF9440003F054
:100C3000F9FE0B90BDF9480003F042FF0646BDF9EE
:100C4000460003F03DFF8146BDF94A0003F038FF3E
:100C5000DFF8CC1504F0BAFE0746BDF94C0003F0EE
:100C6000FFFE0A90BDF94E0003F0FAFE0990BDF9AF
:100C7000500003F0F5FE089ADFF87415834602EB86
:100C800042020F9801EB020A80B99AF9680004F059
:100C90008BFE01F01DFA06469AF9690004F084FE05
:100CA00000F0DAFA81469AF96A000FE09AF97800C2
:100CB00004F07AFE01F00CFA06469AF9790004F085
:100CC00073FE00F0C9FA81469AF97A0004F06CFECE
:100CD00001F006FADFF820158246087800B308997B
:100CE0000F9800B1491DDFF8182501EB4101571895
:100CF000304604F021FC04F0D5FE04F0FFFE38700D
:100D0000484604F019FC04F0CDFE04F0F7FE7870BC
:100D1000504604F011FC04F0C5FE04F0EFFEB8707C
:100D2000B8F1010F43D100F05FFA116B00F058FAEF
:100D300000F052FA2866CDF810A0012000F09CFACD
:100D400000F044FA04F0FCFD00F076FA00F03EFA00
:100D500004F0F6FD00F06CFA00F038FA04F0F0FD53
:100D600000F030FAFFF746FCDFF89C4420632C6863
:100D700000F066FA0746686800F057FA01F0B0F92B
:100D80000746A86800F051FA01F0AAF90746E8689A
:100D900000F04BFA01F035F904F0CEFBCDE900018B
:100DA000686800F03FFA0446A868E96817E1B8F1FE
:100DB000020F43D100F018FA516B00F011FA00F065
:100DC0000BFA6866CDF810A0022000F055FA00F08A
:100DD000FDF904F0B5FD00F02FFA00F0F7F904F08A
:100DE000AFFD00F025FA00F0F1F904F0A9FD00F0E4
:100DF000E9F9FFF7FFFBDFF8104460632C6900F0AE
:100E00001FFA0746686900F010FA01F069F9074611
:100E1000A86900F00AFA01F063F90746E86900F0F2
:100E200004FA01F0EEF804F087FBCDE900016869EF
:100E300000F0F8F90446A869E969D0E0B8F1030FB9
:100E400042D100F0D1F9916B00F0CAF900F0C4F979
:100E5000A866CDF810A0032000F00EFA00F0B6F955
:100E600004F06EFD00F0E8F900F0B0F904F068FD60
:100E700000F0DEF900F0AAF904F062FD00F0A2F93A
:100E8000FFF7B8FBE04CA0632C6A00F0D9F90746E5
:100E9000686A00F0CAF901F023F90746A86A00F071
:100EA000C4F901F01DF90746E86A00F0BEF901F047
:100EB000A8F804F041FBCDE90001686A00F0B2F93E
:100EC0000446A86AE96A8AE0B8F1040F42D100F04A
:100ED0008BF9D16B00F084F900F07EF9E866CDF86B
:100EE00010A0042000F0C8F900F070F904F028FD0B
:100EF00000F0A2F900F06AF904F022FD00F098F980
:100F000000F064F904F01CFD00F05CF9FFF772FBDF
:100F1000BD4CE0632C6B00F093F90746686B00F062
:100F200084F901F0DDF80746A86B00F07EF901F0C6
:100F3000D7F80746E86B00F078F901F062F804F0A2
:100F4000FBFACDE90001686B00F06CF90446A86B70
:100F5000E96B44E0B8F1050F53D100F045F9116C8D
:100F600000F03EF900F038F92867CDF810A0052010
:100F700000F082F900F02AF904F0E2FC00F05CF9DC
:100F800000F024F904F0DCFC00F052F900F01EF946
:100F900004F0D6FC00F016F9FFF72CFB9A4C206405
:100FA0002C6C00F04DF90746686C00F03EF901F03A
:100FB00097F80746A86C00F038F901F091F8074659
:100FC000E86C00F032F901F01CF804F0B5FACDE954
:100FD0000001686C00F026F90446A86CE96C04F086
:100FE000F5FC214604F0A8FD4FF0804104F0EEFC32
:100FF00004F0A2FADDE9002304F010FE04F0A0FCE6
:101000000446B8F1810F29D100F0EEF8516C00F0E0
:10101000E7F800F0E1F86867CDF810A0812000F053
:101020001FF900F0D3F804F08BFC00F011F900F088
:10103000CDF804F085FC00F007F900F0C7F804F0E3
:101040007FFC00F0BBF8FFF7D5FA6F494864EE6DFE
:10105000AC6DD5F85480D5F8509058E0B8F1820FB7
:1010600029D100F0C1F8916C00F0BAF800F0B4F8A2
:10107000A867CDF810A0822000F0F2F800F0A6F8E2
:1010800004F05EFC00F0E4F800F0A0F804F058FC76
:1010900000F0DAF800F09AF804F052FC00F08EF854
:1010A000FFF7A8FA58498C69D1F81480D1F810904C
:1010B0008864CE692BE0B8F1830F55D100F094F825
:1010C000D16C00F08DF800F087F8E867CDF810A03B
:1010D000832000F0C5F800F079F804F031FC00F04E
:1010E000B7F800F073F804F02BFC00F0ADF800F056
:1010F0006DF804F025FC00F061F8FFF77BFA424937
:101100008C6AD1F82480D1F82090C864CE6A484611
:1011100000F0C1FF0746404600F0B8FF00F0E0FFD6
:10112000074600F08DF800F0DBFF00F0A8FF00F0AC
:1011300068FF04F001FA07468B46484600F0A6FF18
:101140008046204600F09DFF414604F0F5FC4FF03C
:10115000804104F03BFC04F0EFF93A465B4604F0B2
:101160005DFD04F0EDFB0446204604F0E5F9DFF8F0
:10117000502EDFF8503E04F0DBFD04F0E1FB0446A6
:1011800003E0DFF8441E04F0D7FCDFF8401E04F053
:10119000A1FEF6D9DFF8381E04F0AEFE04D2DFF867
:1011A000341E04F0C9FCF5E78146B7E401020304EC
:1011B0000500000001020408100000003B46324612
:1011C000214665E0069923463A4661E0DFF8082E9D
:1011D000DFF8083E04F0ACBDDFF8041E04F09EBE4C
:1011E000401A2630FEF77CBF074A0E987047000071
:1011F000E8090020F8340020680200208C3100202B
:101200007433002094070020980A00200000144046
:10121000F0090020A00A0020000A00200000084079
:10122000000080BF214604F0D1BB014604F0CEBBD4
:1012300006900A9804F080B90746099804F07CB932
:101240002046214604F0C2BB04460A9804F074B953
:101250000646099804F070B90146484604F0DCBE21
:101260000590CDF80C9002960B980C990190009186
:1012700058460D9F04F060B90590CDF80C90029689
:101280000B9801900C98009058460D9C04F054B9AE
:101290002DE9F04FBBB00024499D009413941294A3
:1012A000119401941E941D941C941B940894009412
:1012B000139412940794029408940794229421940E
:1012C00020941A94199411941894179401940F94DB
:1012D0000E9416940D9415940B940A9414941094EF
:1012E000012D0995054C0BD1256806956668059674
:1012F000A5680395E6680496256E58E0E80A002084
:10130000022D09D12569069566690596A56903959B
:10131000E6690496656E4AE0032D09D1256A0695B3
:10132000666A0596A56A0395E66A0496A56E3EE090
:10133000042D09D1256B0695666B0596A56B039563
:10134000E66B0496E56E32E0052D09D1256C069515
:10135000666C0596A56C0395E66C0496256F26E0F1
:10136000812D09D1256D0695666D0596A56D0395B0
:10137000E66D0496656F1AE0822D0BD1DFF8645C90
:101380002E6906966E690596AE690396EE69049617
:10139000A56F0CE0832D0BD1DFF8485C2E6A069612
:1013A0006E6A0596AE6A0396EE6A0496E56F0C9532
:1013B000459D449E019089460599039F9B46904612
:1013C00004F004FB80F0004000904946384604F0E9
:1013D000FDFA01460098DFF810AC04F01DFE074648
:1013E000049800F053FE00F07BFE00F03AFE1E90E1
:1013F0000699039F00F032FE00F08FFE00F04EFED3
:101400000746049800F047FE00F06AFE00F029FE4F
:101410001D9049460698059F04F0D8FA00F07DFE1D
:1014200000F05AFE049900F018FE00F0EAFD00F00A
:1014300018FE1C9041460698059F04F0C7FA8046A6
:10144000384600F028FE414604F076FB039900F090
:1014500004FE00F045FE00F004FE1B9000215846FB
:1014600004F01AFE08D1304604F016FE04D12846D6
:1014700004F012FE00F0FA84DDF82081DDF81C9102
:10148000DDF818A1584600F0DEFD00F0F8FD00F090
:10149000B8FD07462846294604F098FA00F0B1FD49
:1014A00001F00FF90090594600F0CAFD1F90314637
:1014B00000F0C6FD4490294600F0C2FD459051461B
:1014C000504604F083FA0546484600F0E4FD00F07B
:1014D00010FE0546404600F0D9FD00F00AFE01F07E
:1014E000F0F80090514600F0ABFD4690494600F000
:1014F000A7FD4790414600F0A3FD489000F0BAFDDB
:10150000469904F063FA139000F0B4FD479904F093
:101510005DFA129000F0AEFD489904F057FA07907A
:1015200000F07DFD469904F051FA029000F0A2FD12
:10153000209000F074FD1A9000F07DFD19904FF09E
:101540008040049904F042FA119000F093FD00F0FD
:1015500074FD189000F06FFD049904F037FA1790AD
:101560000699069804F032FA01900699059804F05D
:101570002DFA0F90069900F04FFD0E90069900F09D
:1015800057FD16900599059804F020FA0D900599DD
:1015900000F042FD1590059900F04AFD0B9003996B
:1015A00000F03AFD0A90039900F042FD149004996E
:1015B00000F03EFD10900198129D04992291079E23
:1015C00003992191DDF834B0DDF868800399089122
:1015D000DDF86890DDF810A00A9F469904F0F6F94E
:1015E00000902946229804F0F1F900F075FD0546B7
:1015F000219800F046FD00F07CFD0546469800F07D
:1016000022FD00F076FD00F03FFD089904F0DEF9C0
:1016100000F06FFD0546489800F03DFD00F021FD0B
:1016200000F067FD05464698394604F0CFF900F012
:1016300063FD469900F0F8FC00F05EFD08901398F9
:101640000499019D079E059A2192DDF808B0039A3E
:101650000792DDF83480DDF82890DDF864A0049F5F
:1016600004F0B4F900902946479804F0AFF900F06F
:1016700015FD0546219800F004FD00F03DFD0546EE
:10168000079800F0E0FC00F034FD00F0FDFC00F0F5
:1016900033FD00F0FEFC00F02CFD0546489800F0FC
:1016A000E0FC394604F092F900F023FD479900F080
:1016B000BBFC00F021FD009008990898009D04F003
:1016C00085F906460098294604F080F9314604F071
:1016D00033FA03F031FF04F0EDFC04F031F9089027
:1016E000139D0398079012990598019EDDF808B0A4
:1016F000049A0192DDF83480DDF86490DDF810A0E2
:101700000A9F04F063F900902946079804F05EF9F7
:1017100000F0E2FC0546489800F0B3FC00F0E9FC5C
:101720000546019800F08FFC00F0E3FC0546489860
:1017300000F0ACFC00F0E0FC00F0ABFC00F091FC31
:1017400000F0D7FC05464898394604F03FF900F010
:10175000D3FC489900F068FC00F0CBFC07904FF0F8
:101760008040089904F032F922904FF080400799A8
:1017700004F02CF92190199834900B993391189812
:1017800032901A9902910F9817990091079A319205
:1017900003990191089A30920A992F91109A2E92EA
:1017A00007992D910B9A2C920E992B91089A2A92B7
:1017B00004992991079D05992891089A2792159EC9
:1017C000DDF858B007992691DDF83C8014992591F1
:1017D000DDF8209003992491089A2392DDF838A02F
:1017E0000B99139100F032FC00F058FC00F062FC01
:1017F000029904F0EBF800F083FC339904F0E6F86A
:101800000146329804F008FC1F9904F095F93499C8
:1018100004F0DCF800F042FC0290319900F01EFC6C
:1018200000F072FC2F9904F0F7FB2E9904F0F4FB02
:101830000146309804F0CAF800902B992C9804F0D7
:10184000EBFB01462D9804F0C1F800F027FC01469F
:10185000469804F0E1FB00F00AFC00F0CFFB00909A
:101860002946289804F0B2F805462A99299804F0E8
:10187000ADF800F041FC05463046594604F0CCFB7B
:10188000279904F0A3F806462598414604F054F938
:10189000269904F09BF8314604F04EF900F007FC5D
:1018A000294604F093F800F0F9FB0546249800F06F
:1018B000F2FB0646139800F09BFB239904F086F890
:1018C00000F0FBFB00F0F0FB129904F07FF800F051
:1018D00092FB00F0E6FB00F0D4FB00F00AFC139052
:1018E00011983A900B9818990091209A39920F9973
:1018F0003891179A0292059901910D9A37920A9997
:101900003691079A359204993491089A33920A993C
:101910003291109A3192079930910B9A2F920E9929
:101920002E91089A2D9203992C91079A2B92069941
:101930002A91089A2992159D169E07992891DDF8FB
:101940003CB014992791DDF8208004992691DDF8A8
:10195000849005992591089A2492DDF838A00B9976
:10196000239100F073FB009904F056FB1F9904F0DB
:1019700053FB3A9904F02AF800F0C2FB389904F0BE
:1019800025F800F03BFB00F095FB399904F01EF8B8
:1019900000F084FB00F068FB00F0CAFB00F0C2FB23
:1019A00000F091FB00F098FB0146459804F0C4F864
:1019B00000F05DFB00F022FB00F029FB00F0A4FB2F
:1019C000329904F029FB319904F026FB0146339843
:1019D00003F0FCFF00902E992F9804F01DFB0146A8
:1019E000309803F0F3FF00F059FB469904F014FB24
:1019F00000F03DFB00F002FB01902D992C9803F0C4
:101A0000E5FF00F085FB00F049FB0090314600F057
:101A100074FB299903F0DAFF0546279800F0EBFAEA
:101A2000289903F0D3FF00F064FB00F040FB00991D
:101A300003F0CCFF019904F07FF80546269800F0EA
:101A400025FB0646259800F026FB00F041FB0646E4
:101A5000239800F0CDFA249903F0B8FF00F02DFB95
:101A600000F022FB129903F0B1FF00F0C4FA00F07D
:101A700018FB00F006FB00F03CFB129020983A9017
:101A80000B99399118983890119902910F981799DC
:101A90000091039A01920D9937910A9A36922299F0
:101AA0003591039A349207993391069A32920899A4
:101AB00031910A9A309210992F91079A2E920B9990
:101AC0002D910E9A2C9208992B91059A2A9207999A
:101AD0002991049A289208992791159A2692169D81
:101AE000079925910F9E14992491DDF820B006994D
:101AF0002391DDF8848003992191089A2092DDF8E2
:101B000038900B9911914FF08041DDF81CA000F046
:101B1000A1FA00F0C3FA00F0CDFA029903F056FFE3
:101B200000F0EEFA399903F051FF0146389804F0BD
:101B300073FA1F9904F000F83A9903F047FF00F098
:101B4000ADFA00F091FA00F0F3FA00F0EBFA00F0D1
:101B5000BAFA00F0C1FA0146459803F0EDFF00F033
:101B600086FA00F04BFA00F052FA80F00040009044
:101B70003399329803F02AFF00F0AEFA00F0C4FA6D
:101B8000309904F049FA2F9904F046FA0146319849
:101B900003F01CFF00902C992D9804F03DFA0146AB
:101BA0002E9803F013FF00F079FA469904F034FA06
:101BB00000F05DFA00F022FA01902B992A9803F0C8
:101BC00005FF00902999289803F000FF00F066FABD
:101BD00000902946269804F01FFA279903F0F6FE94
:101BE00005462498314603F0A7FF259903F0EEFE41
:101BF00000F07FFA00F05BFA009903F0E7FE01992C
:101C000003F09AFF0546239800F01DFA0646219836
:101C100000F03CFA00F05CFA06461198494603F0E1
:101C20008BFF209903F0D2FE00F047FA00F03CFA57
:101C300000F017FA00F0DFF900F033FA00F021FAB3
:101C400000F057FA11901A982E900B98189900915D
:101C5000199A2D920F992C91179A029222992B91F1
:101C6000049A2A9207992991059A01920899289134
:101C70000A9A279210992691079A25920B992491F6
:101C80000E9A239208992291069A219207992091FF
:101C9000039A1A9208991991159A18921699179100
:101CA000079A15920F9D14991091089E05990F910E
:101CB0004FF08041DDF820B0DDF83880DDF82C9061
:101CC000DDF81CA000F0C6F9009904F0A5F91F99F1
:101CD00004F0A2F92E9903F079FE00F011FA2C9984
:101CE00003F074FE00F08AF900F0E4F92D9903F096
:101CF0006DFE00F0D3F90290299900F0AFF900F0E1
:101D000007FA00F0E9F900F0FFF9279904F084F9E7
:101D1000269904F081F90146289803F057FE0090B7
:101D20002399249804F078F90146259803F04EFE93
:101D300000F0B4F9469904F06FF900F098F900F05A
:101D40005DF9029020991A9803F040FE00902299C4
:101D5000219803F03BFE00F0BFF901901799189805
:101D600004F05AF90146199803F030FE0090294614
:101D7000109803F0E1FE0146159803F027FE00F0ED
:101D80008DF900F094F900F072F900F037F905468A
:101D90000F9800F076F906464046494603F0CCFE1F
:101DA00000F051F900F089F900F07EF900F059F9DE
:101DB00000F021F900F075F900F063F900F099F9ED
:101DC000019013991398129D129E119FDDF8448083
:101DD000DDF8049003F0FAFD00F086F900F008F950
:101DE0000546384600F052F900F083F9054601989F
:101DF00000F051F900F07DF900F063FC00900099CB
:101E0000139803F0E3FD13900099129803F0DEFDA0
:101E1000129000991198754D03F0D8FD119000991A
:101E200000F01CF901902946139803F0CFFD0146FC
:101E30001E9804F0F1F81E902946129803F0C6FD92
:101E400001461D9804F0E8F81D902946119803F00A
:101E5000BDFD01461C9804F0DFF81C90294600F0F7
:101E6000FDF801461B9804F0D7F81B901E9900F06E
:101E7000CBF8069903F060FE06901D9900F0C4F8B7
:101E8000059903F059FE05901C9900F0BDF80399DF
:101E900003F052FE03901B9900F0B6F8049903F08A
:101EA0004BFE049006990698059D059E039FDDF85C
:101EB0000C80DDF8109003F089FD00F015F900F0BA
:101EC00097F80546384600F0E1F800F012F90546AB
:101ED000049800F0E0F800F00CF900F0F2FB00903C
:101EE0000099069803F072FD06900099059803F09A
:101EF0006DFD0590009900F08FF80390009900F0B7
:101F000097F804900998012808D10699216005984E
:101F100060600398A0600498E0604DE0022808D15A
:101F200006992161059860610398A0610498E061B9
:101F300042E0032808D1069921620598606203985F
:101F4000A0620498E06237E0042808D10699216372
:101F5000059860630398A0630498E0632CE005286B
:101F600008D106992164059860640398A0640498D8
:101F7000E06421E0812808D1069921650598606513
:101F80000398A0650498E06516E0822809D10699B7
:101F90001448016105994161039981610499C16106
:101FA0000AE0832808D106980E490862059848621D
:101FB000039888620498C8623BB0BDE8F08F0000C7
:101FC000F8C1631ADCA54C400000B4C301003443DF
:101FD000000034C30000B443399D52A246DF913F54
:101FE0000050C347980A00208FC2F53E9A99193FC6
:101FF000514603F0A1BD594603F09EBD029903F07E
:102000009BBD394603F098BD0C9803F0DFBC0290ED
:102010003599349803F0DABC039803F0D7BC4FF03D
:102020008040059903F0D2BC0546109803F0CEBC61
:10203000049803F0CBBC4FF08040039903F0C6BC7A
:10204000009803F0C3BC594603F0C0BC4FF0804178
:10205000079A12920D9F03F0B9BC0746019803F04E
:10206000B5BC514603F0B2BC02904FF081400199DB
:1020700003F0ACBC4FF08040069903F0A7BC0746C4
:102080003046314603F0A2BC05464798414603F06E
:102090009DBC05464798494603F098BC009903F05B
:1020A0004BBD489903F0B8BF0A9903F0B5BF4799F3
:1020B00003F0B2BF449903F0AFBF83464FF07C50AA
:1020C000394603F0A9BF01464FF07E5003F0A4BF8C
:1020D0000146304603F0A0BF0146009803F09CBFC4
:1020E0000146384603F098BF82462846314603F041
:1020F0006DBC294603F020BD0146284603F08CBF85
:1021000000904FF08040704701904FF07C50704736
:1021100000902B992A9803F059BC0090414638460C
:1021200003F054BC00904FF08040379903F04EBC50
:1021300001904FF08040369903F048BC10B584B050
:102140000820ADF800000421ADF802109848994C21
:10215000017889000191684697490A6890470028EC
:1021600014BF00200298A060010008BF13200BD00C
:102170004FF6FF7004F018F80FF24C2310220C21D8
:1021800004F1380004F071FA04B010BD894A5168B6
:1021900019B900B15060002070471120704700004D
:1021A0003EB50B460025114605281A46814C33D80A
:1021B000DFE800F0031A1F3224290C2B2AD104F186
:1021C0000C0004F0A1FD0FF299000290FF210C22F7
:1021D0000191009204F13803A068002204F10C017F
:1021E00003F0FCFF054618E0012B13D1087820709E
:1021F00013E0012B0ED1087860700EE00F2B09D18F
:1022000004F1180003E00F2B04D104F1280004F0BE
:102210007BFD02E0182500E0022528463EBD0000B7
:1022200010B500240B460528624915D8DFE800F0F8
:10223000030608140B0E0C220C3109E0087800E0AC
:102240004878187009E00F22183101E00F22283178
:10225000184604F059FD00E00224204610BD00009D
:10226000F8B50D460026287AC10617461C4601D54A
:102270000820F2BD069808B10B20F2BD6946284639
:1022800004F095FD012802D126800120F2BDBDF8A1
:1022900000004AF63621401A07D0401E012806D910
:1022A000801E0AD0401E0CD013E00C200AE0012052
:1022B0002080E868017839700DE00F2121800F221D
:1022C00002E00F2020800246E968384604F01CFD39
:1022D00001E026800A263046F2BD2DE9FE430E4677
:1022E0008146307A0024810690461F4648BF082068
:1022F0002DD402A9304604F05AFD012827D0BDF89C
:1023000008100A982B4D42F60212891A43D048F25F
:102310003412891A1AD0491E06D0491E19D0491EF6
:1023200027D0491E2CD041E078BB012F2BD1F1687A
:1023300098F800000870F068A84207D10122686888
:1023400000281FBF01680029104688472046BDE8C5
:10235000FE83D0B9012F16D198F8000008B9802467
:10236000F4E7F1680870691CF0688842EED1022237
:10237000E5E750B90F2F06D100F020F80422DEE780
:1023800018B90F2F03D00D24E0E70B24DEE700F08F
:1023900015F80522D3E70121019100903B46424602
:1023A0003146484603F086FF0446CFE70A24CDE7CE
:1023B000940C0020680B00206C0C0020F0680F22A9
:1023C000414604F0A1BC000061220000DB220000B5
:1023D00000000000DFF800F013C10110DFF800F08A
:1023E00085C10110DFF800F025C20110DFF800F010
:1023F000C1C20110DFF800F0E3BF0110DFF800F008
:1024000079B50110DFF800F0F5B80110DFF800F041
:10241000B5C10110DFF800F0A9C1011000B583B00B
:102420000821ADF800100522ADF80220019000F05F
:1024300001F807BD68464F490A6810472DE9F04387
:1024400089B08046894617461D46109C119E082378
:10245000242200216846FFF7C1FF474906964FF442
:102460007A700A68B0FBF2F0454305954743ADF832
:1024700010406B463A4649464046FFF7BFFF40468C
:1024800009B0BDE8F083FFF7B5BF38B504460D4687
:1024900000F0EDF910B12046FFF7A4FF00F027F897
:1024A0002046BDE83240FFF7A5BF80B500F0DFF958
:1024B00000B10120C0B202BDFFF794BF70B5044661
:1024C0000D4600F0D4F920B12046FFF78BFF01261E
:1024D00000E0002600F00BF82946204600F0C5F980
:1024E00026B12046BDE87040FFF784BF70BD224A88
:1024F00010684FF47A71B1FBF0F04543294620464D
:10250000FFF774BF10B504460021FFF77BFF20469C
:1025100010BD70B50C460421164684B00546ADF8D2
:1025200002100C2208200192ADF80000FFF782FF94
:1025300058B9029949B18E602846FFF767FF14B178
:102540002046FEF753F8012003E03046FFF766FF10
:10255000002004B070BD10B50446FFF73BFF38B94A
:102560002046FFF757FF8468FFF758FF204610BD4D
:10257000002010BD6C0C002000C4000001B5134603
:102580000A460121684604F04BFC02BD38B55A4B9F
:102590001870581C002404E011F8015B00F8015B7E
:1025A000641CE5B29542F7D3521CD1B2BDE8344069
:1025B000184604F017BC2DE9F84F07464F4C002091
:1025C000207060804FF4807802F022F801F0EFFF75
:1025D000F8064FF0010922D5002002F0FCF918B1ED
:1025E000207840F0100020700125E8B202F0F3F9E5
:1025F00080B16E1E608809FA06F10843608045F0DC
:102600008000C0B202F0E7F920B1608808FA06F64F
:10261000064366806D1C062DE7DB01F0C8FFB80697
:1026200039D5002002F00FFB18B1207840F02000CF
:10263000207001254FF6FF770FF2C80B6E1E6088E1
:1026400009FA06FA10EA0A0F20D0E8B202F0FBFA03
:1026500040B92946584601F07EF9608887EA0A01A8
:102660000840608008FA06F6608830420ED045F0D7
:102670008000C0B202F0E7FA40B929460FF29C0090
:1026800001F069F960887E40064066806D1C062D69
:10269000D4DB01F08CFF2078BDE8F28F174800787A
:1026A000704716484088704730B5002206E084180D
:1026B000835C65788554921C6370D2B28A42F6DBE3
:1026C00030BD10B501460E4CA4EB61044FF07C50B8
:1026D00003F07CF9214603F079F9214603F076F9FD
:1026E00001464FF07F5003F097FC2146BDE81040B3
:1026F00003F06CB9000000005434002014350020B1
:10270000DF59375F4465766963655B25645D204DFD
:10271000616720646561642E0A0D00004465766976
:1027200063655B25645D2D32204D616720646561C2
:10273000642E0A0D00000000DFF800F0F5C0011063
:10274000DFF800F049BA0110DFF800F0D5C0011041
:10275000DFF800F095C00110DFF800F00DA80110BF
:10276000DFF800F0BDBE0110DFF800F021C101105C
:10277000DFF800F02DBF0110DFF800F0E1B5011027
:10278000DFF800F0D5C20110DFF800F0D9C2011067
:10279000DFF800F0F1C50110DFF8DC00007D7047C4
:1027A00038B5DFF8DC00DFF8D4500068EFF31184AF
:1027B00080F31188A8680021FFF7CAFF6969081A29
:1027C000A969814238BF002084F3118832BD00001E
:1027D0002DE9F041DFF8A800DFF8A0400768EFF32B
:1027E000118887F31188A0680121FFF7B1FF01214B
:1027F000A1830021E183656921682268461B801A54
:10280000691A884204D20020A08388F311882AE044
:1028100088F31188002005E04519361A2946012061
:10282000FFF79AFF8642F7D2EFF3118887F31188FA
:10283000E18B012903D129460020FFF78DFFA16913
:1028400010F1010F08BF084603D0801B814238BF3A
:1028500008464119FFF784FF012020840020A0834F
:10286000256088F31188BDE8F08101617047808A96
:102870007047FFF7CBBD0000A401002078010020C5
:10288000FCC300000446DFF8CC000068704700007D
:102890002DE9F84F04460D46FFF74EFF0646FFF7B9
:1028A000F2FFEFF3118780F31188D4F80880A84570
:1028B00002D187F3118847E0002DDFF8A49007D5F7
:1028C000DFF8C40000684FF0000A00EB090B06E0D7
:1028D000012000FA05FAD9F8180000EBC50B207D9D
:1028E000012822D12046FFF73FFF206CFFF772FD41
:1028F00028B1D9F80400E1688843C9F80400D9F880
:102900001000A04207D1C9F814B02146DBF800003E
:10291000FFF7AFFF03E021465846FFF777FDD9F8F0
:1029200004004AEA0000C9F80400A560C4F80CA03D
:10293000C4F840B0002D44BF0020C9F814000120A5
:10294000A9F8080087F311883046FFF7F9FE4046E2
:10295000BDE8F28FFCC30000DFF830100968704753
:102960000001002010280ED3A0F11002DFF8201083
:10297000520901EB82011038012200F01F0002FA17
:1029800000F0C1F880027047E8050000FCC30000B9
:1029900000E000E004F0B6BA80B500230122342143
:1029A000DFF8E80904F06CFD00B10120C0B202BDFF
:1029B000DFF8BC1A0A68002812BF42F00100500874
:1029C00040000860704700007047FEE710B582B015
:1029D000042004F089FD022818BF03280DD103202C
:1029E00000901C234FF040520021DFF8A00904F0B2
:1029F00024FDBDE81640042066E0DFF89419DFF8F6
:102A0000940A09680C18DFF88C19DFF88C0A096839
:102A1000B0FBF1F12046FFF7E9FC2046BDE8164087
:102A2000FFF7E8BC80B5DFF870090078DFF86C09C3
:102A300001688908890041F00101016004F061FD2D
:102A400004F0EBFDDFF85819002008600220DFF8E1
:102A50008C190968C9688847DFF8540A0168490871
:102A60004900016000F017FA042000F00FF900F0AF
:102A7000B2BC00000022012904D1012807D1DFF8EF
:102A8000600903E0012802D1DFF82C0A0268104631
:102A90007047DFF8000A00797047000004F046BD77
:102AA00010B5DFF83C160968EFF3118481F3118843
:102AB000DFF8E019C9880120012908BFFFF76CFF82
:102AC00084F3118810BD000030B5DFF81416DFF86C
:102AD00088390A68EFF3118182F31188B0FA80F225
:102AE000C2F11F02D25CB0FA80F4C4F11F04551E7B
:102AF000E55405D1DFF89C29136823EA0000106033
:102B000081F3118830BD00002DE9F041FFF724FF6B
:102B1000EFF3118481F31188DFF88019425C531EB2
:102B2000435444D1DFF87819DFF8788901EB800548
:102B30002E786F88300618D5D8F80010096A384604
:102B40008847D8F80010896A38468847D8F80010B6
:102B5000096B38468847DFF8501901200860DFF814
:102B60004C0900688007FAD514E0700606D5DFF836
:102B7000B01951F82710002088470BE0D8F8001052
:102B8000896938468847D8F80010496B3846884725
:102B90000228F8D106F03F003F2818BFFFF7B4FF26
:102BA000687800F03F003F2818BFFFF7ADFF84F3BF
:102BB0001188BDE8F08110B508B1140001D10320DF
:102BC00010BD8160C26003610146DFF8E828DFF8CC
:102BD0004C0912681018FFF7CBFD002010BD000053
:102BE000F8B50446DFF8F804DFF8B0180068EFF332
:102BF000118580F31188625C531C6354002A3ED116
:102C0000DFF89C1801EB8407387800F03F003F287C
:102C100018BFFFF7E5FF787800F03F003F2818BFA6
:102C2000FFF7DEFF7E883878DFF87878010613D565
:102C30003968C969304688473968496A30468847E3
:102C40003968C96A3046884700F038F8DFF85C0810
:102C500000688007FAD512E0400606D5DFF8C018F4
:102C600051F826100120884709E039684969304643
:102C700088473968496B304688470128F9D185F380
:102C800011882046BDE8F24004F0D8BEDFF85014A9
:102C90000A68EFF3118182F31188DFF8F8271368CF
:102CA00003431360B0FA80F0C0F11F00DFF8A827DB
:102CB000835C5B1C835481F311887047DFF8E8174D
:102CC00001200860704700002DE9F04F83B04FF0FD
:102CD000000800210128C1468A4618BF022412D1EB
:102CE000DFF8FC03DFF834780268EFF3118082F339
:102CF00011883A79012A06BF02223A71012180F334
:102D0000118809B10624BDE0FFF716FD00900120EF
:102D100000F0E6F8040002D001203871AFE0FFF7C0
:102D200013FDDFF828180190C1F80090012004F08D
:102D3000DBFB012804D1002004F060FE4FF0010805
:102D4000DFF8E047DFF8545721688968002088479A
:102D500000F0A1F8687C08B14FF00109287C08B1A7
:102D600049F00209E87B08B149F00409E87ADFF884
:102D7000306718B1A16AF08D096B8847A87A18B13D
:102D8000A16A708D096B8847FFF798FF49F0200012
:102D9000A16A896988470120FFF70AFE3878C007D1
:102DA00048BF4FF0010A12D4DFF8980704F080FE04
:102DB0008346BBF1040FF7D000F067F8800880006D
:102DC00008600321A26CDFF87C075268904700205E
:102DD00004F076FE00F05FF8A06A806B8047BAF1DD
:102DE000000F0AD1A26CDFF85C0752685946904781
:102DF00000F04BF840F0030008600120216889686A
:102E00008847DFF8440700688006FAD5B8F1000F5C
:102E10001CBF012004F0F2FDA16A496948468847B9
:102E2000A16A496B484688470128F9D1E87A18B168
:102E3000A16AF08DC96A8847A87A18B1A16A708D15
:102E4000C96A8847FFF73AFF0020FFF7B1FD03206A
:102E50003871042000F044F8DFF8F0160120086013
:102E600000F019F804F03AFF082000F039F80446A1
:102E7000012038710198FFF77FFC04F0BAFE00983A
:102E8000FFF75EFC2046BDE8FE8FDFF8D006DFF8D6
:102E9000CC1600687047DFF8A8060068704700008D
:102EA00038B58F48DFF874560068EFF3118480F36B
:102EB0001188E888012803D104F08CFB0020E88009
:102EC00084F3118831BD000010B5FFF745FDEFF325
:102ED000118481F31188FFF747FC84F3118810BD3A
:102EE00038B500F02AF80818FFF774FA002540B941
:102EF000204600F008F820B1DFF868060068804737
:102F00000225284632BD70B500F017F80D18284686
:102F1000FFF736FC0646B068204206D03169F268F9
:102F200020469047C0B2012806D03046FFF72CFC5F
:102F30000646AE42EFD1002070BDDFF87815096873
:102F40000446DFF8D805704730BF704770B504F00D
:102F5000C1FEDFF840552E6806F00C000C284BD05F
:102F6000700727D4FFF71CFC044600210120FFF75F
:102F700081FDA0421ED2DFF8C00300684519DFF8CA
:102F800014040668DFF8D8050068B0FBF6F0211AD3
:102F90002846FFF72BFA2846FFF72CFA4FF47A70F1
:102FA000B0FBF6F200210120FFF78EFE2846FFF766
:102FB00019FA23E030071FD4DFF8F404DFF8E44403
:102FC000DFF87C55F10601685ABF4908490041F015
:102FD00001010160DFF88405016841F0030101602F
:102FE000202021688969884728682068806B80478D
:102FF00001202860286801E0FFF7A6FF04F06EFEBC
:10300000BDE8704004F020BE10B50C1804F062FE5C
:10301000401E8041C00FDFF860150A68002AFCD00E
:10302000246801220A6008B104F058FE204610BD51
:1030300080B50420FFF72AFE0820FFF727FE0E20A8
:10304000FFF7CEFDDFF82005DFF820150068C0F39C
:10305000815003280CBF012000200880DFF81005F4
:1030600002680AB1012002BDDFF8103540221A6063
:103070000122C2610020486002BD10B5DFF85C1378
:10308000DFF8F04482B009680968202088470F20E3
:103090002060072341F61D5060604FF4C07202208B
:1030A000009000F0C9F8DFF8D80401210160016840
:1030B0008907FCD501212161DFF8B044218801296D
:1030C00007D1002101610220202100F091F80120A8
:1030D00004E00121002000F08BF80220606013BDA5
:1030E000FCC300002DE9F041DFF89804DFF87C44D0
:1030F00082B0016842688A434260016160680028CA
:1031000004BFBDE8F341FFF7B8BF0128DFF878142A
:103110001AD10220606008684BF2F52148436188AB
:10312000000A11B10021618006E0DFF8601409682F
:10313000090210EB11204008DFF854140860000C5D
:103140004860012088600CE002280FD10868B0F5C3
:10315000C06F02D10020606045E00321616000F093
:103160006FF80121BDE8FC41002041E003283DD17A
:10317000002060600868A0F5C065A06800F0B2F8A3
:103180000646284600F0AEF886422CDAA6692846A4
:1031900000F0ACF88019A061E56860697B4E85425B
:1031A0000ED0A769A7F1100000F09CF880462069B6
:1031B000103800F097F8804502DABFB200970BE0B4
:1031C000ADB2009508234FF47F423021304604F021
:1031D00034F9206980B2009012234FF4F8020421E0
:1031E000304604F02AF9BDE8F3418AE0BDE8F381F6
:1031F00070B50D46DFF89C4382B0032121600021A9
:10320000DFF89463316031688907FCD480B20090A4
:103210000523602200F010F801203060306880073C
:10322000FCD5A561002020600821DFF85003C160B3
:1032300001600120206073BD0021544804F0FDB8F6
:1032400070B50646514C82B030212046FFF7DCFEB7
:10325000DFF81853C0F30720E86004212046FFF789
:10326000D3FEC0F384402861A6F5C060A8602E6933
:1032700000F03CF88019A861A969E868022909DA18
:10328000401E6FF03F039842B8BF184610310BD56F
:10329000002109E01E2908DB401C4028A8BF3F2070
:1032A00010392029A8BF1F21A9616861082380B2B5
:1032B00000904FF47F42302100F011F8012000907F
:1032C00011234FF4003200F009F8A86980B2009091
:1032D00012234FF4F80200F001F873BD04212046D8
:1032E00004F0ABB8002848BF4042704700284CBFEC
:1032F0006FF00101022101EB4000032190FBF1F08E
:10330000704780B5DFF87802002101600168890705
:10331000FCD40021016041600120DFF854120860F4
:103320000E20FFF7F1FB0820FFF7CEFBBDE80240BF
:103330000420FFF7C9BB0000E0C3000010B504463D
:103340000020D4E90A2347F6906104F0CFFC01295C
:1033500028BF4FF0FF3010BD10B50C4604F03EFD05
:10336000011D201AB0F1004F05D8081BB0F1004F25
:1033700038BF8C4200D20C46DFF820221268526A15
:103380002146BDE8104001201047000000A00C407D
:10339000E4C3000000C400002435002004400340C2
:1033A000401009402DE9F04180460A46D8E90A015B
:1033B000D8E90C45A0FB026701FB0277A6196F4113
:1033C000340C002244EA07414046FFF7C5FFC8E934
:1033D0000E67BDE8F0814FF0FF3002BDA001001084
:1033E000F0C30000F8B50546DFF8B801DFF8B861B2
:1033F0000068DFF8B871EFF3118480F3118830684A
:1034000040F0800030600120B96849688847F96A57
:10341000096A142088472869B0F5802F34BF042139
:10342000010CBA68526A012090473A681268232159
:1034300000209047B968C96901208847306820F4A6
:10344000E02040F480303060306840F001003060AF
:1034500084F31188F1BD0000E8340020DFF8540146
:10346000036840680022002110185941704700008D
:103470000C200840DFF82411DFF8240110B509689A
:1034800044684968012088476069A169BDE8104027
:103490000847000074100020A08601008834002036
:1034A00050BF0000B8010010282008602820084004
:1034B0008C210840E8C30000F4C30000F8B50446BE
:1034C0000D46FFF7CBFFD4E90A6732463B4604F0CE
:1034D0000DFC3DB1A6FB002306FB013307FB0033C7
:1034E000C4E90C23F2BD38B5DFF8BC40DFF8C050AA
:1034F0002068400840002060206840F08000206084
:103500000120E062E06A2968496801208847696A09
:10351000096A14208847E06A31BD00007410002059
:10352000940E00209001001080B500F004F8000C0B
:1035300040EA014002BDDFF8800000688EE700002D
:103540002C20094000400340141009400C40094061
:1035500009B9DFF86810FFF71BB900002422084002
:10356000F8C30000ECC30000B43F00505810002026
:1035700004800C400C400C4000800C402C500C404F
:1035800034600C4028500C4008400C40102009408A
:103590003C600C4000400C4038600C408C01001036
:1035A000E4010020FCC30000002009408401001059
:1035B0008C01001008200940EC010020A00100004F
:1035C000DFF8FC14096821B10A898242FAD1084661
:1035D00070470020704700BF13B5044604F047FA57
:1035E00018B1002000F002F806E008E0009001ABFE
:1035F00022464FF0FF31704700F00DF816BD4FF036
:10360000FF3016BD00F007F80EBD08B582B00023EC
:10361000009302ABF6E777B58DB01C461498ADF871
:10362000180000250F9828B92FE10EAA0DA800F068
:103630007BF96D1C00F034F9080000F02081252989
:10364000F3D100F02DF92D2905D10120ADF80600A8
:1036500000F026F902E00020ADF80600302904D180
:103660000120049000F01CF901E0002004900020EB
:1036700000904FF0FF3002900A202A2918D12168CB
:10368000216051F8042B2160009200F01AF9009A91
:10369000002A11D50122ADF80620009A524200926C
:1036A0000AE0009A00FB02113039009100F009F99C
:1036B000A1F130020A2AF4D32E291DD10021029152
:1036C0000F990F9A0978521C2A290F9210D100F0F5
:1036D000F2F80291002944BF0020029000F0E0F8C7
:1036E0000AE0029A00FB02113039029100F0E9F879
:1036F000A1F130020A2AF4D3049808B1009804908A
:103700006C2918BF4C2905D10120ADF8040000F048
:10371000C7F802E00020ADF8040008A807900CA844
:10372000059000200390642918BF69290DD1BDF8C8
:1037300018000028FFD000F0B8F86FF009030298D5
:10374000049A8242B8BF049019E00A2375291FBF6A
:103750001023782908236F2903D1BDF8180038B940
:1037600006E0702913D1049320682060016814E0FA
:1037700000F09BF8049A02988242B8BF0490049A21
:10378000059800F0A4F807900599081A2FE063291E
:1037900019D12068206001680FE0001D206010230F
:1037A0000598082200F093F8401E079040200799E2
:1037B000087005980799401A19E0001D20600798C5
:1037C0000170012013E0732913D100F074F8079100
:1037D00011B90FF2BC000790079804F011FB039099
:1037E000029810F1010F1ED0039988421BDA039052
:1037F00019E00F98401E0F900E98022813D30298DC
:1038000010F1010F02D00E99884201D30E9800E00A
:10381000401CDFF8B462366802906B4622460FA95E
:103820000DA8B047451900980399401A0090BDF8BB
:10383000060038B902E000F02FF86D1C0098401E19
:103840000090F8D50398411E039150B10798401C91
:1038500007900EAA10F8011D0DA800F065F86D1C68
:10386000F0E7BDF8060000283FF4E4AE0098401EE3
:1038700000903FF5DFAE00F00FF86D1CF6E70D98F5
:1038800010B10D9900200870284610B070BD0000DE
:10389000286E756C6C2900000EAA20210DA843E04B
:1038A0000F9810F8011B0F90704720682060016886
:1038B000001D206070472068206050F8041B2060C5
:1038C00070470F990F9A0978521C0F927047F0B504
:1038D00000240025002B44BF5B42002902D5494249
:1038E000521E2D25B1FBF3F60FF2280703FB16112C
:1038F000641CC95D00F8011D31460029F2D19442D3
:10390000BEBF302100F8011D641CF8DB0DB100F8CA
:10391000015DF0BD303132333435363738396162CC
:10392000636465660000000010B50C46116802294A
:103930000BD3491E1160016819B14A1C02600C705A
:1039400010BD04F094F800B100E010BD2046BDE8C1
:10395000104004F08AB80EB400B501A9FFF73BFE91
:103960005DF810FBDFF86411096808470000DFF814
:1039700060010068004701207047FEE7704710B5FE
:103980000446606808B9012010BD0B460146206856
:1039900048A200F077F8A1684118A1606168012988
:1039A000A4BF081A6060002010BD00003EB50D469F
:1039B0004249098814468142034628BF0FF21C126F
:1039C00010D240490988814207D3FFF7F9FD21460B
:1039D0004268284600F056F83EBD3549098831B99D
:1039E0000FF204122146284600F04CF83EBD394B38
:1039F0000095002C48BF47F6FF7400210291019406
:103A00006A461B683449984702983EBD2DE9F84341
:103A1000170048BF47F6FF7704468846002664B380
:103A2000208818B13A46FFF7C1FF0646B91B0129A5
:103A300022DB208820B120A2404600F023F886191E
:103A4000A068C8B1656875B1284604F0D9F9A7EB3C
:103A50000609401D814506DB2B460FF2A0024946B0
:103A600000F00EF88619B91B122905DBA3680FF2C6
:103A7000940200F005F886193046BDE8F283000094
:103A80004046FFE708B478B504001ABF2668002E48
:103A900000260D4605AB3046FFF7B7FD854238BF1F
:103AA000681E16B121684118216072BC5DF808FBE0
:103AB0008A050000257300003A200000120500006E
:103AC000E4100020800400000CC4000004C40000C6
:103AD00008C4000010C400007F3900007B6D6F64D3
:103AE000756C652325647D007B6D6F64756C652D39
:103AF000726F70653A25787D0000000022257322E0
:103B00002C2000006C696E652025643A20000000BE
:103B1000DFF800F0D9C10110DFF800F025B1011085
:103B2000DFF800F06DA9011000B58FB008233C222A
:103B300000216846FFF7ECFFDFF8B40700F1500101
:103B400007914FF4407201210892069100236A46C2
:103B50000FF20131FFF7E0FF0FB000BD30B585B0C7
:103B600003F090F904F068F904F0E8F904F053FA6E
:103B70000FF2C940DFF8744704F045FA0FF2C14074
:103B800004F045FADFF86C0704F0BAFA30B94FF4E4
:103B9000804004F010FC0120E07403E00FF2647038
:103BA000FFF7D9FE0FF6641104F1580001F06AFA2C
:103BB000206518B90FF27870FFF7CDFE6FF07E0028
:103BC000607401210020A074ADF802100820DFF815
:103BD00028170A68ADF8000068469047BDF8040051
:103BE00020830298E06404F18800FEF78BFC606596
:103BF000002104200190009100234FF47A720FF20B
:103C0000716104F16400FEF719FC01211F2002F02C
:103C100053FE0021ADF80C1001208DF801008DF845
:103C200000000821ADF80A104FF44870ADF8080004
:103C30000021ADF806106420ADF804000121ADF8B4
:103C400002100DF1010240F2053004F0CFFB03AA8F
:103C5000022140F2063004F0C9FBDFF8A02600F094
:103C6000D7FA22460E2140F2073004F0BFFB6A4625
:103C700001214FF4447004F0B9FB0DF10A02022156
:103C800040F2113004F0B2FB02AA022140F21230DD
:103C900004F0ACFB0DF10602022140F2133004F0F7
:103CA000A5FB01AA02214FF4457004F09FFB0DF122
:103CB0000202022140F20F3004F098FB0FF2FC7276
:103CC0000A21002002F0F1FCA021062002F0F4FD00
:103CD000A021072002F0F0FDA021082002F0ECFD59
:103CE000A021092002F0E8FD4FF0FF3002F0DAFCDD
:103CF0004FF0FF3002F0B6FC05F01CF8FF22302137
:103D000004F11C0001F0C4FA04F11C0230218020EF
:103D100002F0B0FF48B10FF21470FFF71CFE04F17F
:103D20001C023021802002F0BAFF002060750B20B9
:103D300002F08CFF0FF290721121012005F002F8C1
:103D40000FF298752A460521022004F0FBFF2A464F
:103D50000521052004F0F6FF0FF2887214210320DC
:103D600004F0F0FF0FF29C720821042004F0EAFF37
:103D70000FF284720921062004F0E4FF012000F014
:103D80003DF93020FEF717FC0546302D08D10521FE
:103D90000F2000F049FA0FF2AC50FFF7DCFD08E00D
:103DA0000A210A2000F040FA29460FF2AC50FFF732
:103DB000D2FDFEF776FC01460FF2C050FFF7CBFDB7
:103DC000A08B4FF6FF71884204D10FF2CC50FFF761
:103DD000C2FD27E080070CD404F120020C2104204E
:103DE00001F0A6FA042008F030FBE08A40F002005F
:103DF000E082207F410715D404F12C020F2104201A
:103E0000FEF7CEF904F13B020F210520FEF7C8F9B9
:103E10000420FCF71FFC0520FCF71CFCE08A40F0A6
:103E20000400E08205F098F8FCF7E8FB04F1940048
:103E300004F0ABFC002002F0D9FB208BC0B202F0F2
:103E4000D2FB206D0FF2854101F0CDF905B030BDF8
:103E5000000000002DE9F04184B0FFF77FFE0FF273
:103E600084510FF274500FF29055DFF88C74DFF824
:103E70007C64FFF770FD4FF6FF780FE00221002011
:103E800004F001FA0221002004F012FA02210020BD
:103E900004F0C7F90028F1D104F0AEF90820ADF81C
:103EA00000000A21ADF802104FF0FF300190684683
:103EB00039688847002862D109210820ADF802102E
:103EC000ADF80000684639688847BDF80610029CC6
:103ED00080BBBDF80400102804BF328B914216D17C
:103EE0002078912807D0B02802BF217904F108007A
:103EF00002F095FD0BE060780E2802BFA18841F228
:103F00000540814203D1A06890F9031071748CB10F
:103F10000820ADF80000032106E0607800F098F872
:103F20000820ADF800000521ADF8021001946846A4
:103F300039688847706DFEF74DFAE0B9706DFEF78D
:103F40000AFB0400F6D020780128E6D00228E7D149
:103F50006178A0780C290BD0E2D30E2901D004D3CC
:103F6000DEE7717D08437075DAE7FCF773FBD7E78E
:103F700008F06BFAD4E705F00BF8FCF75EFC718BE8
:103F8000480727D54FF6FB7001407183307C062827
:103F900012BF022806F16400FEF775FA307C06288D
:103FA0000ED10221B174ADF80080694640F20E30A6
:103FB00004F05CFBBDF80000404518BF02F0F5FDC1
:103FC000307C022805D10321B1740F20012100F0BB
:103FD0002BF9307D718B08077FF560AF4FF6F770D6
:103FE0000140718304F001F904F0FBF8C0F30020F4
:103FF000002802D02846FFF7AEFC47E710B5BB4CBF
:104000000100206D0FD00122142101F0CCF8012015
:10401000BB4920750A68BDE810404CF25030B0FB37
:10402000F2F0FFF77DBD0022142101F0BCF8002062
:10403000207510BD01460022012020E170470000DC
:10404000AA48418B41F008014183C06CFCF7CEBA0D
:104050007FB50546401E07280FF27C34A34E00F2C0
:10406000CB80DFE800F0044BC975755FC9BE052140
:104070000F2000F0D9F802A94FF4417004F0F6FACD
:1040800002A94A789DF808008DF801208DF80000FB
:1040900000208A788DF8022000228DF804208DF807
:1040A00003204A798DF807200A79C9788DF806200F
:1040B0008DF805106A46082104F044FE9DF80810AA
:1040C0009DF808008D4ACB0801EB13731B09A1EB87
:1040D00003110009D17490740A28ACBF5721302114
:1040E00008189074D07C0A28ACBF572130210818DA
:1040F000D07400F08DF80FF280317BE006F164009F
:10410000FEF7D3F918B906F16400FEF7BCF9307D6B
:1041100010B90120FFF772FF002000F0E0F80FF265
:10412000643167E006F16400FEF7BFF918B906F1E3
:104130006400FEF7A8F9306D00220F2101F033F87A
:104140000FF24C3100F069F80420FEF79FFD53E0B8
:1041500000F0B2F80FF2443100F05FF8B07C0228B2
:104160000AD00FF2443100F058F80020FFF746FF64
:104170000420FEF7A9FC3FE0747D0120002CB07400
:104180003AD0E0070DD506F12001042001F00AF92C
:10419000B18B4FF6FD700140B183F08A40F0020010
:1041A000F082A00706D506F12C010420FEF738F8AE
:1041B00000F024F8600706D506F13B010520FEF764
:1041C0002FF800F01BF806F11C023021802002F0CD
:1041D00066FD18B10FF27820FFF7BDFB0020707567
:1041E0000AE000F069F8306D01220A2100F0DBFFDF
:1041F0000FF2C02100F011F835747FBDB18B4FF67E
:10420000FB700140B183F08A40F00400F0827047F7
:104210001D214FF4427004F0E9B82046FFF79BBB24
:104220000A46014602202AE02DE9F04104460D46E7
:1042300000262E4F16E0386D0122214600F0B3FF14
:104240002F4A106844F62061B1FBF0F84046FFF7B2
:1042500067FC386D0022214600F0A5FF4046FFF7BD
:104260005FFC761CF0B2A842E5D3BDE8F081000007
:104270001E494A8B10434883C86CFCF7B7B970B528
:104280000D460421164684B00446ADF80210032200
:1042900008200192ADF80000684617490A68904767
:1042A00048B9029A3AB11470557096700F48C16CB3
:1042B000406DFEF72EF97FBD80B508F07DF9FCF763
:1042C0004DFABDE8014004F091BE0000042902D07F
:1042D000112902D0704704F040BEFCF787BA034AA8
:1042E00050730E2140F2073004F080B848070020D8
:1042F000C0260020DCB900006C0C0020E007002084
:1043000000C40000436F6E74726F6C6C65725F5313
:10431000656E736F72436F6E74726F6C6C65724909
:104320006E6974204661696C65642E0A0D00000098
:1043300050494E5F6F70656E204661696C65642EF2
:104340000A0D000073656C66546573744D617020CE
:10435000506173732E0A0D0073656C665465737437
:104360004D6170204661696C656428476F74203A1E
:1043700030782578292E0A0D000000004669675420
:10438000657374526573756C74203A2030782530EB
:104390003478200A0D0000004469646E7420666958
:1043A0006E642043616C6962726174696F6E20642F
:1043B00061746120696E20466C6173682C204D61C8
:1043C00079206361757365206F6666736574206517
:1043D00072726F722E0A0D004C43443A25730A0D17
:1043E00000000000436F6E74726F6C6C6572205336
:1043F000746172740000000053656E736F72204325
:104400006F6E74726F6C6C6572204F766572666C3D
:104410006F77206572726F7220686173206F6363BB
:104420007572726564210D0A00000000436F6E749E
:10443000726F6C6C65725F5265616443616C696236
:10444000726174696F6E204572726F720A0D00009E
:10445000436F6E74726F6C6C65725F53746F7265CC
:1044600043616C6962726174696F6E204572726F2C
:10447000722E0A0D00000000496E697469616C6952
:104480007A6564004164766572746973696E670069
:10449000436F6E6E656374656400000057616974F4
:1044A000696E672E2E2E0000506F776572206F6642
:1044B000662E00004572726F7200000046726565DC
:1044C0002057726974650000434332363530204608
:1044D0007265655772697465000000004E2E412EAA
:1044E00000000000312E302E3120284D617920202F
:1044F000382032303138290053504945204C414250
:104500000000000050434220322E30000F08808609
:104510000A088086042007C01408C080112007C044
:10452000FF00000070B5054605F00F04062C15DAF3
:1045300014B96821012013E0DFF86068B07FA04261
:1045400007D000F044F848B100F02CF8B47702F03E
:1045500096FCAC4214BF6921682100E0D7E000203E
:10456000BDE8704002F069BC10B500F00F04062CE5
:1045700014DA200002D10C2101200BE000F027F812
:1045800060B100F00FF8DFF81408847702F077FCD0
:104590000C210020BDE8104002F04FBC02F06FFC7F
:1045A000002010BD0120A040C0B202F029BC10B50F
:1045B000DFF8E847A17F49B100F009F810B1002009
:1045C00002F01EFC02F05BFC0020A07710BD702101
:1045D000002002F032BC80B5DFF8C4070068012279
:1045E0000C2100F0E0FDDFF8BC27DFF8BC171068F5
:1045F000B1FBF0F0FFF794FABDE80240002014E0B0
:1046000080B50C2000F0E5FD012818BF002002BD98
:1046100010B5DFF88C47211D04F10C0000F032FDCD
:1046200020600020BDE81040FFE770B5054605F0AA
:104630000F04AC421CBFA41DE4B2FFF773FF0028B7
:1046400056D0DFF858670020B0773119305508731D
:1046500001228020707706F11D016B20FDF796FF87
:104660003CB9002000F04CF8052000F042F8002092
:1046700006E0042000F044F8062000F03AF8042098
:104680007077012206F11D011920FDF77FFF02F06E
:10469000F6FB284600F09FF9040028D02846FFF7D3
:1046A00041FF00B933E0707EC000B076012206F110
:1046B0001A011C20FDF76AFFF07EC000307701224E
:1046C00006F11C011B20FDF761FF02F0D8FBDFF8AB
:1046D000D4160A684FF4FA6000F0DCFA284600F0BD
:1046E0003BFA284600F081FA284600F0FCF9204603
:1046F00070BD7077012206F11D011D20FDF746BF38
:104700007077012206F11D011A20FDF73FBF02F06C
:10471000B6FB002070BD3F206077012204F11D012F
:104720006C20FDF733BF10B582B0044600208DF831
:104730000000FFF765FF18B902F0A1FB002016BDCD
:1047400000F043F948B1012269463A20FDF716FF0F
:1047500008B98DF8000002F092FB9DF8000016BD2C
:104760002DE9F04D82B08A468046FFF749FF08F0F8
:104770000F0500282F4642D0062F40DABE1DF6B2A4
:10478000474518BF3746DFF81446E05DE8B9BAF18F
:10479000000F1AD0AB46C34518BFB346FFF730FF32
:1047A00088B14046FFF7BEFE78B100F0B3F950B1D2
:1047B000FFF7B1FF002104F80B1020B100F043F81F
:1047C00008B100F046F802F05AFB04F807A0E05DDB
:1047D000002833D0454518BF35464046615DC94382
:1047E0006177FFF79FFE60B3FFF797FF02F047FB8B
:1047F000655DAD09FFF704FF05F0010510B902F092
:104800003EFB1EE00121404600F08CF9C8B1404655
:10481000FFF7AAFE58B1002D19BF16208DF8000031
:1048200000218DF8001000F0B3FA02F028FB5FEAD7
:10483000080006D0002100F075F902E0404600F0C3
:1048400052F9BDE8F38D012204F11A011C20FDF795
:104850009DBE012204F11D013A20FDF78FBEF8B57F
:10486000DFF838750546787E01260124A84201D17B
:104870000120F2BDE800B876FFF7C2FE18B902F0D9
:10488000FEFA0020F2BD00F028F80028F9D001223D
:1048900007F11A011C20FDF779FE00F063F8002CE7
:1048A000EFD07D760124204600F005F8641C062C2C
:1048B000F9DB3046F2BD10B500F02AF900B96DE61B
:1048C00000F083F840B10122DFF8E0141C20FDF76E
:1048D0005DFE00F05EF8204610BD002022E638B5EF
:1048E00004460D46FFF78CFE00B970E000F06DF84D
:1048F00068B1062229463B20FDF740FE00F049F84A
:10490000200003D006212846FDF7CEFE204632BD0A
:10491000F8B5DFF888740546F87E01260124A84220
:1049200001D10120F2BDFFF76BFE18B902F0A7FA22
:104930000020F2BDFFF7D1FF98B1E80038770122DF
:1049400007F11C011B20FDF721FE00F00BF804B15C
:10495000FD760024204600F00AF8641C062CF9DBE2
:104960003046F2BD08B90026002402F088BA10B51E
:1049700000F0CEF800B911E600F027F840B10122AE
:10498000DFF82C141B20FDF701FE00F002F8204692
:1049900010BD044602F073BA38B504460D46FFF761
:1049A0002FFE00B913E000F010F868B10622294686
:1049B0004320FDF7E3FDFFF7ECFF200003D00621C5
:1049C0002846FDF771FE204632BD2046AAE502F0DA
:1049D00056FA002032BD10B500F09AF8C0B1FFF7CA
:1049E000F4FFC8B1DFF8B443207E40B10021217646
:1049F0004CF25030DFF8AC130A6800F04BF900F0CD
:104A00000DF87520FDF7BAFD10B1607F712800D058
:104A1000C4E502F034FA012010BD6077012204F1F0
:104A20001D01704780B504F015FBDFF87023537E3D
:104A3000032B13D8DFE803F002060A0E0022DFF88A
:104A400074330AE00022DFF8703306E00022DFF85A
:104A50006C3302E000224FF07D5339E0002002BDAC
:104A600080B5DFF83823D37E032B27D8DFE803F0A7
:104A7000020A121A04F0EEFA00F030F80022DFF811
:104A8000403316E004F0E6FA00F028F80022DFF8E0
:104A900034330EE004F0DEFA00F020F80022DFF8F4
:104AA000283306E004F0D6FA00F018F80022DFF808
:104AB0001C3301F03DF900F043FF0146084602BDFA
:104AC00080B504F0C7FA00F009F80022DFF80033DF
:104AD00001F02EF9BDE8044000F032BF00224FF093
:104AE0007C5301F025B910B500F012F858B1062C2E
:104AF00009DAFFF76AFF50B1A84CFFF70CFE10B1BE
:104B00004F2000F008F8BDE8104002F0B8B910BD21
:104B1000044675E509206077012204F11D016B2030
:104B2000FDF734BD10B50C4600F00F01062900DB7F
:104B300034E5FFF7F7FC60B1202004B1222097494B
:104B4000487701221D313720FDF720FDFFF721FFB7
:104B500000E00024204610BDF8B5FFF7D9FF04F0AF
:104B60000F0618B9BDE8F14002F089B900F066F807
:104B7000002829D0A6421CBFB61DF6B200F05BF893
:104B8000F0B1864D934F0F20687700F020F800F0C9
:104B90007DF8032239461020FDF7F0FC60B138782B
:104BA00005EB46018030088407EB460079788031B8
:104BB0008180B9788031818300F00FF802F05FF9CD
:104BC0002046BDE8F4403CE0F1BD162169770122A2
:104BD00005F11D010A20FDF7D9BC012068770122EB
:104BE00005F11D010B20FDF7D1BC70B5FFF790FF5B
:104BF00004F00F0618B9BDE8704002F040B9A642B3
:104C00001CBFB61DF6B200F019F898B100F013F809
:104C100058B1624DFFF7E1FF00F038F8A85D41069A
:104C200001D5FFF7D2FF02F02AF9200002D0BDE83B
:104C3000704006E070BD2046FFF796BC012120467B
:104C400070E700216EE738B5FFF762FFA0B1FFF70C
:104C5000F5FFD0B1FFF7EFFF5249504D00F017F8C4
:104C6000FF206877012205F11D010020FDF786FC79
:104C700010B1687F482800D0A9E602F000F92000B2
:104C80001CBF0021FFF74EFF012032BD45490A68D5
:104C900042F21070B0FBF2F0FEF742BF2DE9F04196
:104CA000804608F00F04062C84B00F460ADA44450B
:104CB0001CBFA41DE4B2394D2E1906203073FFF736
:104CC0009FFC18B902F0DBF800205EE00020307392
:104CD0005FEA08000AD00121FFF724FF10B9052080
:104CE000307301E0307B08B101204EE04046FFF711
:104CF0003BFC012269460220FDF740FC002835D02C
:104D00009DF80000C1072FD5072201A90320FDF758
:104D100035FC38B301A881790A0720D4BDF8041006
:104D2000398005EB4405B0F902207A80B0F904100F
:104D3000B980B7F90030B5F9200043431B123B801E
:104D4000244B1D1D35F91400424312127A8003EBE7
:104D50004402B2F91C0041430912B98008E0032162
:104D6000317305E0042002E0022000E001203073EE
:104D700016208DF8000000F00BF802F080F81CB14E
:104D800000214046FFF7CEFE307B04B0BDE8F08145
:104D9000012269460A20FDF7F9BB0000400E002001
:104DA000780E002000C40000A08601005A0E0020EA
:104DB0005C0E00200000103F0000203F0000303F4C
:104DC00000406F4000407F4000408F4000409F40C7
:104DD00000C0B24040330020DFF800F049C10110AC
:104DE000DFF800F019C20110DFF800F0CDA00110CB
:104DF000DFF800F0C1C10110DFF800F009B70110C1
:104E0000DFF800F03DC10110DFF800F029AF01101C
:104E100090FAA0F0B0FA80F0704780B5DFF828145F
:104E20000868FFF7F5FF0122DFF8201482400A60CE
:104E30000121DFF81C241160DFF818140A68904281
:104E40000BD201EB80014A683AB11368190004D013
:104E5000C1B21046BDE80440184701BDF8B5DFF8FF
:104E6000F8230C00E5B202EB850244BF84F0204435
:104E700084F4C0441368DFF8E41300EA040784EA0A
:104E8000030683430F4006403B4300F4E021360E07
:104E9000B1F5E02F06F0010602D1DE0105D411E0E4
:104EA00010F4E02F08BF002E0CD003F4E021B1F580
:104EB000A02F04D0B1F5C02F04D1052100E00621B8
:104EC00061F312434102136007D505F18042A10D41
:104ED00002F5083201F001011170000212D5FFF74E
:104EE0007BFFDFF87C130A68012303FA05F5230230
:104EF0004CBF2B460023AA431A430A60BDE8F24088
:104F0000FFF76EBFF1BDDFF8502302EB80020029EE
:104F1000106848BF0021800901F03F0141EA80117B
:104F2000116070472DE9F04F97B0824604F0AEF85B
:104F30000025012804D104F09FF8022808BF0125AC
:104F4000DFF82003C1680126C1F38151012904D192
:104F50000068000E06FA00F00543DFF80C13DFF8D6
:104F60000C030A780168DFF8EC72C1F34600386080
:104F700004F08CF8012802D13868401C38603C6885
:104F8000DFF8EC8224B1FF222146404600F080F990
:104F9000002000215AF8212002F0FF03FF2B33D01C
:104FA000A3424AD225FA02FC5FEACC7C5FBF06FA34
:104FB00002F2104308F80310491CEBD53DE02AFA31
:104FC00006F0C00759BF06F0FF0141F4C04118F8D0
:104FD000060054F820104846FFF740FF4FF0FF311D
:104FE000F0B2FFF790FF0020CBF80400761C386881
:104FF000864224D225FA06F0C00707EB860BDED5E1
:105000000421CBF80410F1E7544682460920FDF74D
:10501000E7FDC7F8804008232422002101A8FFF7FC
:10502000E7FE8DF81C6001AA012107F1A000FFF73F
:10503000E3FE0026DFF83C92D9E702201FE00823B8
:10504000302200210AA8FFF7DBFE002000900AAB07
:10505000DFF82422102107F18400FFF7D5FEDFF8E6
:105060001C02DFF81C22016821F47C5141F400513C
:1050700001600120DFF80C1208601060002017B0FA
:10508000BDE8F08F2DE9F042DFF8C85107460C4625
:1050900005F1A0094FF0FF314846FFF7A5FE0021BA
:1050A00064BB002038607860B860002604B31BE061
:1050B0002A68904227D22A1D52F82000002808BFF3
:1050C000491C1BD01FE0291D012241F8207002FA63
:1050D00000F0796808437860384654F82620DFF8F5
:1050E000941100F084F8761C14F82600FF28EAD109
:1050F0004846FBF77BFA3846BDE8F08214F82100F9
:10510000FF28D5D1CDE70027F2E710B50C46F0B166
:10511000416821FA04F2D20719D50122A240914335
:10512000416000204B490A1D42F824005048025DAE
:105130005048FF2A0EBF44F02041D1F8801051F8AA
:105140002210FFF78BFE4FF0FF31204673E0022064
:1051500010BD10B5044605E0FFF75AFEC1B2204667
:10516000FFF7D3FF60680028F6D110BD014646481E
:1051700031E038B50C46374915460A68944204D2E6
:1051800001EB84014A68824201D0022032BDFFF760
:1051900023FE33490A680123A3409A4305FA04F425
:1051A00014430C604BE010B52A4B1C68A14204D29A
:1051B00003EB81035C68844201D0022010BD01F141
:1051C0008041100001F5083118BF0120087000204F
:1051D00010BD01462D480068C84000F0010070472E
:1051E00001600020704700B1FAE70220704738B52F
:1051F000184C25680B46114601F0FF02AA4204D262
:1052000004EB82025468844201D0022032BD184669
:10521000FFF724FE002032BD0B4610B511460D4AA3
:105220001468A34204D202EB83025468844201D082
:10523000022010BD1846FFF766FE002010BDFFF7E4
:10524000CFFD002032BD0000E0200240E0200260DF
:1052500080E200E0B02F002000100840007F077FB0
:10526000D0200240A83F0050243500208012084082
:1052700034340020007FC7671B4E00000030094017
:10528000080009400C400940C02002408020024034
:1052900062F30F2262F31F4200B500BF130096466F
:1052A0009446103928BFA0E80C50FAD85FEA417C38
:1052B00028BF0CC048BF40F8042BC90728BF20F8FE
:1052C000022B48BF00F8012B00BD000010B584B0D0
:1052D0000820ADF800000421ADF802109048914C70
:1052E00001788900019168468F490A689047002833
:1052F00014BF00200298A060010008BF13200BD04B
:105300004FF6FF7000F050FF0FF2202310220A2109
:1053100004F12C0001F0A9F904B010BD814A5168D4
:1053200019B900B15060002070471120704700008B
:105330003EB50B460025114604281A46794C2ED856
:10534000DFE800F0031A1F2D2400142B25D104F1EF
:105350000C0001F0D9FC0FF285000290FF210A2217
:105360000191009204F12C03A068002204F10C01C9
:1053700000F034FF054613E0012B0ED108782070B1
:105380000EE0012B09D10878607009E00C2B04D1E4
:1053900004F1200001F0B8FC02E0182500E002252D
:1053A00028463EBD10B500240B4604285D4912D89E
:1053B000DFE800F0030608110B0014220C3106E0B0
:1053C000087800E04878187006E00C222031184672
:1053D00001F09AFC00E00224204610BDF8B50D460D
:1053E0000026287AC10617461C4601D50820F2BDC2
:1053F000069808B10B20F2BD6946284601F0D7FC9B
:10540000012802D126800120F2BDBDF800004AF635
:105410003121401A05D0401E012806D9801E0AD02D
:1054200011E014202080142208E001202080E86888
:105430000178397009E00C2121800C22E968384696
:1054400001F062FC01E026800A263046F2BD2DE91B
:10545000FE430E468046307A0024810691461F4660
:1054600048BF08202BD402A9304601F0A0FC012837
:1054700025D0BDF808100A982A4D42F60212891A62
:1054800041D048F22F12891A18D0491E04D0491E63
:1054900017D0491E25D041E040BB012F24D1F1682F
:1054A00099F800000870F068A84207D101226868E6
:1054B00000281FBF01680029104688472046BDE824
:1054C000FE8398B9012F0FD199F8000008B9802404
:1054D000F4E7F1680870691CF0688842EED1022296
:1054E000E5E718B90C2F03D00D24E7E70B24E5E717
:1054F000F06805F120018842E0D10C22494601F014
:1055000003FC0422D3E70121019100903B464A4667
:105510003146404600F0CEFE0446CFE70A24CDE7F0
:10552000940C00200C0600206C0C0020DD530000C1
:105530004F54000000000000C0F3C75181B1FF29A3
:1055400006D0C110400721F0E04101F160517047E1
:1055500041020CBF40F4E0016FF0004100207047B1
:1055600000F0004100020AD0B0FA80FC00FA0CF012
:1055700001F16051A1EB0C5101EBD02140057047C6
:10558000F0B540F2FF7581EA030C0CF0004C15EA0F
:1055900011541DBF15EA1357AC42AF42E5E0BC41C0
:1055A000C1F31301C3F31303801A994143F4801329
:1055B00004D2641E4000494180185941C90241EAA1
:1055C0005051B1FBF3F603FB1611A2FB0675D7EBA6
:1055D000C020A94102D2761E80185941C90241EA71
:1055E0005051B1FBF3FE03FB1E11A2FB0E75D7EB6E
:1055F000C020A94103D2AEF1010E801859418902A1
:1056000041EA9051760546EA8E2EB1FBF3F603FB94
:105610001611A2FB0675D7EB8020A94102D2761E97
:1056200080185941C90241EA50514EEA060EB1FBB9
:10563000F3F603FB1611A2FB0675D7EBC020A941B8
:1056400002D2761E80185941C90241EA5051B1FB7D
:10565000F3F703FB1711A2FB0735D3EBC020A941D9
:1056600067F100070CBF004247F0010766F3D5273A
:105670004FEA1E31B80814F5806412DDBD0775F1DC
:10568000004250EB0E5051EB045111F5801F5CBFEE
:1056900041EA0C01F0BD4CF07F6141F0E041002097
:1056A000F0BDBD076D0840EA0E5041F48011D4F101
:1056B0000104B4F120060ADAC4F120060200E04039
:1056C00001FA06F3E1401843B24015430EE0342CD2
:1056D00013DCC6F1200445EA40056D0820FA06F205
:1056E000154321FA06F0A1400D43002175F1004257
:1056F00050F1000051EB0C01F0BD00205FEA0C01FD
:10570000F0BDCFB992185B41B3FA83F704BFB2FA88
:1057100082F6BF190B3FB7F120062FBF02FA06F33E
:10572000BB40C7F1200622FA06F638BF3343BA4021
:105730001CB1E419641E33E77F4231F00041B1FA35
:1057400081F404BFB0FA80F6A4190B3CB4F1200632
:105750002FBF00FA06F1A140C4F1200620FA06F698
:1057600038BF3143A0403C1B1AE7AC421ABF05EAE0
:105770001357AF4212E050EA41061CBF52EA4306FB
:10578000BFE750EA4107304661461CBF41EA055178
:10579000F0BD52EA430C08BFC143F0BD00204FF4F6
:1057A000001616EB410F98BF16EB430F08BF16EB20
:1057B000410F24BFC14305E016EB430F0CBF614608
:1057C0004CEA0551F0BD000070B44FF0004591EA7D
:1057D000030F43F1C5846B40841A71EB030604D2B6
:1057E0006E40001BB141121973414FF4001C1CEBB9
:1057F000410F34BF7CEB430682E00C0DA4EB135643
:10580000362E7BDC012E45EAC32341DC43EA5253AA
:1058100012BFD20292025B08240545EAC12141EA87
:105820005051D2EBC020994125D407D1B0FA80F66F
:1058300010FA06F162D00020203608E0B1FA81F6B5
:10584000B140C6F1200220FA02F21143B0404FEA03
:10585000F474B4EB465434F001064FEA74040AD8E9
:10586000D6F50016760D04F00044F04061FA06F219
:105870005040F1404840C00A40EA415021F0004108
:1058800028BF5FEA500550F1000044EBD12135E01C
:10589000DB0A45EAC121C90AB6F120050EDD42EA5C
:1058A0000242120CC5F1200603FA06F6EB4042EA6A
:1058B00006056D42984161F100010DE062FA06F5BE
:1058C000F240554063FA06FC82EA0C02F3405A406B
:1058D0006D42904161EB030111F4801F05D1641EFC
:1058E000620502D06D004041494121F48011430816
:1058F00075F1004350F1000041EB045170BC70475A
:105900001CEB410F15D223F0004352EA43060BD0A3
:105910004FEA4C0CBCEB410F04D80C0D661E342E24
:10592000B7DDEBE7801A994150EA410608BF002134
:10593000E4E708BF1CEB430F28BF6FF00001DDE771
:1059400001F000428B1AA3F16051B1F5801F0ADB10
:10595000B1F17F6F1FD242EAC102C10071F1004173
:1059600042EB507070470B15C3F10903212B10D285
:10597000890241EA905180020128494141F00041E9
:1059800021FA03F0C3F12003994071F10041504125
:105990007047100070476FF0000013EB103F5CBFC2
:1059A000000E42EAC0507047C2175040801AB0FA49
:1059B00080F10AD08840D1F19D01D20742EAC1515D
:1059C000020672F1004241EB10207047FF2212EAFA
:1059D000D05C1DBF12EAD153944593422BE09C4406
:1059E000D30780EA01021A4043EA002043EA01217A
:1059F000A1FB0030C04238BF40007CF17F010BDBCF
:105A0000FE294ADA5B0842EAC15153EA006373F1A6
:105A1000004C51EB10207047D1F1080CDCF1200153
:105A20002FDB5B0810FA01F10B4320FA0CF073F145
:105A300000415041704794451CBF02EAD153934244
:105A400080EA010202F000421DD0400019D0490056
:105A500017D05BB9634514D00902B1FA81F39940BC
:105A6000BCEB030CC00140F00040C1E70002B0FAFB
:105A700080FC10FA0CF0B3EB0C0CC90141F00041B2
:105A8000B6E71000704740000AD0490008D010F176
:105A9000807F94BF11F1807F02E042F0FF407047A9
:105AA000D043704740F2FF7C1CEA115240F2FE33B3
:105AB000D21A18DD352A20DAB2F1150309DA6FEAB5
:105AC0004C53D340094201D5401E5941002099430F
:105AD00070476FF00002DA40094202D5801851F198
