:10F0000038B504460D460EF0F7FE08482168016049
:10F0100061684160A16881600EF062FD0DF03BFA0D
:10F020002846BDE8324002F025BE00BF3C48002023
:10F03000DFF800F0A1940010DFF800F0C1D8001054
:10F04000DFF800F03DAC0010DFF800F0F58B0010A9
:10F05000DFF800F00D720010DFF800F08D6700108F
:10F06000DFF800F0BD800010DFF800F0C987001065
:10F07000DFF800F0EDAB0010DFF800F0F5D800107D
:10F08000DFF800F06D550010DFF800F02187001068
:10F09000DFF800F041870010DFF800F0198700105A
:10F0A000DFF800F049550010DFF800F065B90010F6
:10F0B000DFF800F029840010DFF800F0C9D8001054
:10F0C000DFF800F06DD20010DFF800F0F57D0010E1
:10F0D0002DE9F843099D002600274FF6FF7835F803
:10F0E000174044451CBF761CF6B27F1C062FF6DB8A
:10F0F00000270DE00CF1010C5FFA8CFCE646B645EA
:10F1000005DA35F8179035F81EE0F145F2D1E7B28F
:10F11000B74208DA35F81740444504D0A14202D37B
:10F120007C1CA446E8E7B7420DD176B1884202D0F4
:10F130004BB1994207D308981146FFF7ADFF47F648
:10F14000FF71884201DB012000E00020BDE8F2836E
:10F150002DE9F843DFF88C0CDFF88C9C017899F8E6
:10F160000000884200F0868000204FF4907301E098
:10F17000401CC0B288427DDAD9F8042003FB002885
:10F1800008F104063278002AF2D1DFF8601C096821
:10F19000B0700122327001EB8011002208F161048D
:10F1A000727001206071E072B280F280307388F872
:10F1B000392008F18E007261327672830270E27734
:10F1C000002301F12602FF25937508F1E80780234B
:10F1D000E37400236375A37615707B76BB76FB76AC
:10F1E0003B77FB833B8488F80B31037108F1E30024
:10F1F0000370437008F587703B607B60BB723B73A4
:10F200003B727B73038043808380C38047F230501E
:10F2100008600B714B718D7193729373D373137478
:10F2200053749374D374FF22042108F1770000F023
:10F23000AFFF25706570A570E5701F20207100205C
:10F24000DFF87C1C421800EB0803527883F8F920A1
:10F25000401C0828F6DB0020387499F80000401C98
:10F2600089F80000C0B2012804BFB07889F8020014
:10F27000404600E00020BDE8F28310B5DFF8404CC6
:10F280000821601C00F0B8FF607840F01F0060703B
:10F2900010BD70B504460920FFF702FFE8B100F089
:10F2A000A9F800F03CF806F8010B04F1F901DFF8C9
:10F2B000140C0078082818BF0E2030700822701C2B
:10F2C00000F0DFFF94F8920008B100F01DFF01F09C
:10F2D00067FD00F042F89847012070BD70B5044604
:10F2E0000920FFF7DDFEC8B100F084F800F017F840
:10F2F00030700822092006F8010F04F1F901701C92
:10F3000000F0BFFF94F8920008B100F0FDFE01F09C
:10F3100047FD00F022F8984700F03FF870BD0A3032
:10F32000C0B2E880002105F10806296029716971E1
:10F330000320704738B504460120FFF7B1FE58B1ED
:10F3400000F02FF8122000F023F801F029FD00F062
:10F3500004F8984700F021F832BDDFF8443D1B69FE
:10F36000DB6C0246A06E2946704738B50446012082
:10F37000FFF796FE58B100F014F8132000F008F8DB
:10F3800001F00EFDFFF7E9FF984700F006F832BDE7
:10F3900003F8010F2046FFF787BE0020E08301201D
:10F3A0007047A0F10905002028602871687105F1F7
:10F3B00008030620E880012203201870032170470B
:10F3C00070B504461820FFF76BFE002811D000F03E
:10F3D00011F800F061F80F2000F035F810B1182294
:10F3E00000F094FE01F0DCFC00F025F89847FFF7F0
:10F3F000D4FF70BDA0F1090594F8920000B104207B
:10F40000704770B504461820FFF74AFE002811D057
:10F41000FFF7F0FF00F040F8102000F014F810B1F2
:10F42000182200F073FE01F0BBFC00F004F89847CE
:10F43000FFF7B3FF70BDDFF8EC3C1B69DB6C0246E5
:10F4400030682946704703F8010F308C5870308CB3
:10F45000000A9870308CD870308C000A1871708C4B
:10F460005871708C000A9871B08CD871B08C597238
:10F47000000A18729972FF20187358739873D87322
:10F48000187458749874D874187558759875D87518
:10F49000D97294F8920070471930C0B2E880002108
:10F4A00005F108032960297169710320187004F1BE
:10F4B0006806704770B504460320FFF7F1FD98B366
:10F4C000A51DDFF828192A780968A0F1090694F823
:10F4D000920001EB821100B10420001DC0B2F08047
:10F4E000002206F108033260327172710320187035
:10F4F000112003F8010F01F12400017859704078C0
:10F50000987094F8920010B1032200F0FFFD01F012
:10F5100047FCDFF8103C1B69DB6C0246A06E3146ED
:10F52000984700202883012070BDF8B505460E4697
:10F53000DFF8F44BDFF8687B08E0007A03281CBF93
:10F54000481C20703969A86E496D88473969A86ED2
:10F55000096E8847217810B10279032AEDD0DFF8CF
:10F56000CC0B00781C2814DA99B1DFF8C40B0078B2
:10F57000814205D2012E0CD1DFF8B80B007840B1E2
:10F58000A879ADF80000ADF8021000F076F8002080
:10F590002070F1BD2DE9F8430446DFF85008A17949
:10F5A0000068DFF8FC7A00EB811600F0EAFB804689
:10F5B000002001F067FCB079DFF86C6B01F0A5FD6D
:10F5C000A06E00B306E0007A00F051F83969A06E31
:10F5D000496D88473969A06E096E88470028F2D1C5
:10F5E0003969A06E496E8847054606E0287A00F022
:10F5F0003EF8284601F023FE2D68002DF6D139692A
:10F60000A06E096D8847206FA0B13969096E8847DF
:10F610000546A946D9F8080020B101F010FE0020E7
:10F62000C9F80800D9F80090A945F3D13969206FCD
:10F63000096D8847DFF8F40A00781C2808DA30786A
:10F6400040B1A179ADF80010ADF8020000F015F856
:10F65000002030702046FFF72BFD2046FFF708FD05
:10F66000DFF8D41A096840468847BDE8F1830328CB
:10F6700002D03078401C307070470DF1020200A9B2
:10F68000012001F0CDBE70B5044600F07AFB04F114
:10F690007601FF234A79521E4A71D2B20AB94B70E1
:10F6A00008E0002215197735521C6E782E70032A57
:10F6B000F8DB0B7100220A70BDE87040DFF8781AA1
:10F6C0000968084738B50446DFF8700A00680D4637
:10F6D0008047002204F176010A704D704A790AB918
:10F6E00001224A71BDE83440E8E72DE9F0470546BC
:10F6F0000C464FF49078DFF848AA0027012624E052
:10F7000006EB0509DAF80400715D19F8012C08FB15
:10F71000010108FB020009680068496840688968BF
:10F720008068FFF7C9FC01280ED119F8010C715D42
:10F73000484009F8010C3746715D4840705519F88A
:10F74000011C484009F8010C761CA642D8DBFCB22B
:10F75000002CD2D1BDE8F0872DE9FE4F0446DFF83A
:10F760008C0600688946A17900EB811A20684768F9
:10F77000B8684946FFF7A0FC002840F0CE8020681A
:10F7800001694846FFF778FC04F18006804630782E
:10F79000002804F12E0540F6C41B68D0218970882A
:10F7A000FFF77AFC02903078029902280CBFBAF871
:10F7B0002A00A888484301900BFB00F000902068C5
:10F7C0000099006909184846FFF776FC00284ED0DA
:10F7D00000983289A8EB00010BFB02F3B1FBF3F0B8
:10F7E00003FB101101B1401C02FB00F12289029BB6
:10F7F0009A1880186081F2880198101801EB0009AE
:10F800003078012844D104F184012046FFF73CFC04
:10F810007089E189608400202077E083608908187E
:10F82000A081A9883089884202BFB1892A89914282
:10F8300002BF7189EA88914208D0B1890909009113
:10F8400042087389A179002001F072FDA888AAF806
:10F850002A00307928703089A8807089E880B089C2
:10F8600028812046FFF714FC0220307010E0A888A1
:10F870000BFB00F1B8FBF1F290B201FB128109B170
:10F88000401C80B2218941186181A98801FB00F9DF
:10F89000206801690BFB0911B9600278802A06D142
:10F8A000C160A9883A69091F0BFB01F15161017818
:10F8B00040292BD1618A01FB09F14FF4C872B1FBD9
:10F8C000F2F1491CC4F818906161BA68511AB96024
:10F8D0006269DAF82C1001EB42013A695161DFF8F4
:10F8E000641832780968022A07D1A2792E7801EBD0
:10F8F000421253690BFB06335361A279DFF8483893
:10F9000001EB4211AA880BFB0232CA61B96881601F
:10F91000E87AA872204600F01DFB6189A089FFF7F4
:10F92000BBFBAAF82800E18981423CBF0120AAF86C
:10F930002800BDE8F78F2DE9FE4FFFF77DFB4FF064
:10F94000000900F6C4140026DFF80058DFF89874A8
:10F95000DFF890844FF4907A11E078680AFB060093
:10F96000417951B12A68817909F8021009F1010140
:10F970005FFA81F92146FFF7EFFE761CF6B298F8A0
:10F9800000008642E9DB787881451CBF822000F0C8
:10F99000C1FB7878012812D1002601E0761CF6B26E
:10F9A00098F80000864207DA78680AFB0600417979
:10F9B0000029F3D08079A0E0822000F0ABFB7978B9
:10F9C0002868FFF792FE29687B680A780AFB0232F2
:10F9D000002012685468A668012202E0521C6046AA
:10F9E000D2B24A4500F1010C07DA545C0AFB043438
:10F9F00024686468A468A642F0D0C0B200281ABF88
:10FA00005FFA8CF000280B78DFF8E08312D00B78D7
:10FA100001220DE0565CD8F800E00EEB86140EEBE8
:10FA2000831E248DBEF828E0744538BF3346521C2F
:10FA30008242EFDBDFF8184723704FF6FF7000F0CB
:10FA40005EF801900026786821780AFB010040F6F4
:10FA5000C411006840680290019840084843009033
:10FA60001AE0786821780AFB010001680A78802A88
:10FA700003D1DBF81030009A5A610978402909D186
:10FA8000DFF8C0168079096801EB4010009901F594
:10FA9000A061C161761CF6B24E452DDA2868217846
:10FAA000305C8142F6D07A68D8F8001001EB801102
:10FAB0000AFB00F08318DB89098D4FEA530C8C4553
:10FAC00002D2591A8945E5DA8058D0F804B0029A72
:10FAD0000198DBF80810926800EBD070401040F6F7
:10FAE000C413A1F6C41103FB0020FFF7E5FA0028B8
:10FAF000B7D02868305C20702078BDE8FE8FF0B564
:10FB00004FF6FF710C460023B74A03E0A64298BFA8
:10FB100034465B1CB34D2D78DBB2AB4216D2556830
:10FB20004FF4907606FB03556E79002EF1D005F167
:10FB300080068C42377804D1002F0CBF6C8E34893C
:10FB4000E7E7002F14BF36896E8EDFE7A04288BF3B
:10FB50002046F0BD2DE9F8430446884616460027A6
:10FB60000FE02A46414600F08CFB3846471CC3B2E2
:10FB700003B101232A4649462046FFF775FAA844F7
:10FB8000761BB6B276B11C2EACBF1B25F5B228464B
:10FB9000FFF74EFA5FEA0009E3D18120FFF754FA3C
:10FBA000072000E00020BDE8F2832DE9F04D8E4FE4
:10FBB000DFF8A065DFF8A0A50C46154679684FF47C
:10FBC000907282B002FB0018307801289B4602D068
:10FBD000022830D068E0B068BBF1020F04D100F019
:10FBE00070F80020B06029E07388B188EA1891426B
:10FBF00005DA00F066F80020B0608B2052E02A465B
:10FC00002146181800F03DFB70882818708080B2DB
:10FC1000B288904248D198F87400802817BF812894
:10FC20007F209AF80010401A00F043F80020B080BE
:10FC30007080022033E0BBF1020F35D1042DB8BF34
:10FC40008C202FDB21786078091D41EA0020DFF845
:10FC5000DC14B08080B20978814238BF8A2021D379
:10FC6000A84238BF8B201DD3FFF70AFAB060C0B19D
:10FC70002A46214600F005FBB28895420BD198F840
:10FC80007400802817BF81287F209AF80010401A3E
:10FC900000F00FF808E0708828187080012030709C
:10FCA00002E08120FFF7D0F92046BDE8F64D01F0D3
:10FCB000C6BA40B200905B46B168B878D2B201F0E3
:10FCC00003BD0021B18071800221317001F0B7BA0B
:10FCD0002DE9F84304462068007840284FD1E08B96
:10FCE00000284CD0DFF874040078012847D100F0D8
:10FCF00047FF00F046F80546FFF79EF9618E40F693
:10FD0000C418891C08FB0109DFF834242068A17994
:10FD10009278476891422CD1B8684946FFF7CCF9F0
:10FD200048B3FFF78DF9064640F20240FFF790F91D
:10FD3000304601F0A7F831694846FFF79DF9618E1A
:10FD400008FB01F2B0FBF2F0228980B282186281D6
:10FD500048432268126908FB0020B86004F13800AB
:10FD600041780170204600F0F5F8304601F08AFD38
:10FD700001E00069B8602846BDE8F4439EE4BDE8B0
:10FD8000F183DFF8B8030068004770B50446A07936
:10FD9000FFF762F920BB1548A179006800EB8115D7
:10FDA000FFF7EFFF06466879012803D1A07901F03B
:10FDB000A6FB07E0287928B90120287112212046E6
:10FDC000FFF74EF9687980F001006871AB1D286873
:10FDD00042082146DFF8880301F05BF930466BE406
:10FDE00070BD0000BC4C0020B04C00200448002036
:10FDF00030B587B040F60200ADF800000020ADF845
:10FE0000020001900290ADF80C0001208DF80D0069
:10FE10000020ADF80E00D34CD34D2088D34A127881
:10FE2000ADF8100002EB4202E86A816809685118D7
:10FE3000B1F80110ADF812109949406809690590B0
:10FE400000A8C9698847012807BFBDF80200B0F5BE
:10FE5000806F892000F05EF9E868C54A4188127811
:10FE6000114321800078BC49800643BFC148006827
:10FE7000400A0020087007B030BD10B582B00446BB
:10FE80001020ADF8000004EB4401B748C06A806858
:10FE9000006808188249B0F801000969ADF802004D
:10FEA00000A889698847B148047013BDAE48AF49BE
:10FEB000C06A80680978006801EB41010856704704
:10FEC000D04E0020B84C002030B50A7902F01F0255
:10FED0000A71002280F83A200023545C24FA03F5CA
:10FEE000EC070BD590F83A502D1803EBC20485F8B7
:10FEF0003C4090F83A40641C80F83A405B1C082B68
:10FF0000EBDB521C052AE7DB30BD10B500F13802EF
:10FF10005378D47801FB0431252391FBF3F3252496
:10FF200004FB131111700023117800E05B1C94781E
:10FF3000DBB2A34206D21C1894F83C40A142F5D192
:10FF4000084610BD91FBF4F204FB1211081890F85A
:10FF50003C0010BD70B5044604F1380004F18E0673
:10FF60000178417060892189FFF796F8054630785D
:10FF7000012801BF70882189491C884206D104F1FB
:10FF800061012046FFF7A0FF00203070294620467F
:10FF9000FFF7BBFF21684968887370BD2DE9F44FF6
:10FFA000674E8046707800280D4658D0B8F1800F13
:10FFB00055D17148817C012914BF0429012707D03C
:10FFC00000294CD1007D022818BF032847D1002703
:10FFD0000024DFF8A891DFF8A8A1DFF8A8B11DE0A0
:10FFE0009DF800108A4202BF01792A78914213D10C
:10FFF00041796A78914202BF8179AA7891420BD106
:020000040001F9
:10000000C179EA78914202BF017A2A79914202BF0E
:10001000407A6979884220D0641CE4B29BF80000E1
:1000200084421CDADAF8000000EB841170684FF4A7
:10003000907202FB04004279002AEDD0006800783B
:100040004045E9D101F13000002F0278C8D13431A8
:100050004846FFF735F81028DEDA012000E00020DE
:10006000BDE8F28F38B500F1F103474C1D7A6D07FA
:100070000AD5434B85791B6803EB851303F8241FCE
:100080005A70FFF717FA02E01A70FFF71DF830B93F
:100090002078BDE834404FF4804100F03CBA31BDD7
:1000A0002C4F002070B504460220FEF7F9FF50B334
:1000B000FFF7A0F9C01CC0B2E880002105F10803D9
:1000C00029602971697103201870022003F8010F5B
:1000D00094F80C01587094F8920010B1022200F0CC
:1000E00015F800F05DFE0F4B1B69DB6C04F1680630
:1000F000024630682946984704F10E00002101822B
:100100000088F082012070BD334609220321204679
:10011000FEF7CABF80B5FEF797FF1C4900200870A4
:1001200001BD00002C4F0020BA4C0020F8470020F1
:10013000874C0020884C0020444800204048002084
:10014000B04C00209C480020F0DDFFFF0848002054
:10015000B848002014470020C04C0020BB4C0020B1
:100160008BFD0000944C002028DD0100B94C0020DC
:10017000F947002080130050EC4900208C4A0020F1
:1001800004480020BC4C0020844C0020B84C0020C7
:1001900062F30F2262F31F42401810F0030308D0ED
:1001A000C91A1FD3DB0748BF00F8012D28BF20F86C
:1001B000022D130030B414461546103928BF20E92B
:1001C0003C00FAD8490728BF20E90C0048BF40F896
:1001D000042D890028BF20F8022D48BF00F8012D0A
:1001E00030BC7047C91818BF00F8012DCB0728BFD5
:1001F00000F8012D704747AE0022FFF7CDBF000089
:1002000000B583B00821ADF800100B22ADF8022034
:1002100001906846DFF8E0160A6890470EBD30B5D9
:1002200085B00824ADF806108DF80820ADF804005C
:100230000625DFF8C4160A680393ADF80040ADF850
:1002400002506846904705B030BD0C2180B500F0E3
:1002500001F802BDADF802100820DFF89C160A680C
:10026000ADF800006846104700B5122183B000F0D9
:10027000EFF9DFF884160A68904701980EBD01F087
:1002800013BB03E011F8013B00F8013B13465A1E73
:10029000002BF7D1704711444B1E03E013F80119EE
:1002A00000F8011B11464A1E0029F7D1704770B5AE
:1002B00005460E46B0B201F013FB040003D03246EF
:1002C0002946FFF7DEFF204670BD10B513465A1EC3
:1002D0003BB110F8013B11F8014BA342F6D00020CE
:1002E00010BD012010BD10B5044610460A46014657
:1002F0002046FFF74DFF204610BD01F013BB10B59F
:10030000DFF8F825DFF8F835D26A11541C780019A7
:10031000115410BD10B5DFF8E425DFF8E445D36AC9
:1003200022788018195410BD10B5040001D10020A6
:1003300010BD04F10C0080B201F0D2FA28B1002106
:1003400001600481FF2181720C3010BD80B508B9B5
:10035000052002BD10F8021CFF2901D0042002BDB7
:100360000C3801F0C9FA002002BD38B50C46010670
:1003700021D5DFF888150A78FF2A08BF4D7805D007
:10038000CB6ADFF87C5529788A189D5CFF2D02D155
:10039000FFF75BFF0DE000F0A1F9FF2104F8021C5C
:1003A0002346014600222846FFF739FF40B100F0FE
:1003B0003AF8012032BD2146BDE83840002200E075
:1003C00032BD70B50C000646154616D0300648BF43
:1003D000FFF73BFFDFF828150A78964203D300F0B9
:1003E00022F8032070BDA4F10C010868002804BFA6
:1003F0008A7AFF2A03D000F016F8052070BD8E72AD
:10040000012DDFF8F804214603D10C3000F059F833
:1004100002E00C3000F03DF84FF40041304600F0AF
:100420007AF8002070BD204690E72DE9F04105469E
:10043000DFF8D004DFF8C474016888478046F868A4
:100440000026002458B110F8021CA94202D01CB9A1
:10045000064601E0BCB9044650F80C0CF2E74FF434
:100460000041284600F0A8F82CB13246214607F199
:100470000C0000F033F8DFF890140A68404690470B
:100480002046BDE8F0814FF40041284600F043F8D3
:10049000EBE738B500F00FF8002145F80C1C226896
:1004A00012B9256006E00A4652F80C1C0029FAD160
:1004B00042F80C5C0CE00446DFF848040D46016885
:1004C000084738B5FFF7F7FF216845F80C1C256091
:1004D000DFF834140A68BDE83240104770B50446AE
:1004E000DFF820040E46016882B015468847A6F161
:1004F0000C0123680A689E420CBF226045F80C2C50
:1005000000220A60FF228A7202B0BDE87040DFF864
:10051000F8130A6810472DE9F0418046DFF8E00340
:10052000DFF8D86305785FEA08600F462AD5042013
:10053000FFF7FAFE040008BF042037D04FF6FF7023
:1005400020806780A4F10C073078FF280FBF7678F1
:10055000F16A2D184E5DFF2E04D1FFF764FFFFF7FF
:1005600074FE0DE0404600F0B9F8FF21B972234651
:10057000014600223046FFF752FEB8B1FFF753FFA5
:10058000012013E0A84510D200F012F8DFF87C1328
:10059000096831F81820174321F8187000F028F87E
:1005A0007069FFF72DFE002000E00320BDE8F08118
:1005B000DFF850030168084738B50D46DFF84013EF
:1005C0000A789042044610D2DFF838030268904758
:1005D000DFF83813096831F8142022EA050521F8FC
:1005E000145000F005F8002032BD032032BD08464B
:1005F000DFF814130A68104730B5C04C0020E060E3
:1006000083B001F099F901F0A8FABD4805786800B7
:1006100001F066F9E0626A00FF21FFF764FE08223C
:10062000FF21201DFFF75FFE01F0EAFAFFF71CFE35
:10063000A061142100F046F90198E061152100F055
:1006400007F8296888470198801E206200203EBD77
:100650000820ADF80210ADF800006846704730B5CC
:1006600085B00820ADF80000012001901B21A34DAA
:10067000A14CA86AADF8021004900FF27901686AE3
:10068000039102906846216888470299696208B11F
:10069000FFF7DBFD00F050F80820ADF800000A215C
:1006A000ADF802104FF0FF3001906846216888478E
:1006B000F0E780B50021914A0A441379FF2B08D056
:1006C000834207D0491C0829F5D3FFF7BEFDFF2060
:1006D00002BD107141F08001C8B202BD10B580F0BA
:1006E0008004082CA8BFFFF7B0FD8448204400799F
:1006F00010BD000038B50446FFF75AFF05467F4895
:10070000816A8C4204BF4069FFF77AFD7E490A681E
:100710002846E0E610B50446608850B9E088FFF747
:10072000C8FFFF28207202D16FF0030010BD002027
:1007300010BD6FF0010010BD2DE9F04786B001F04B
:10074000E6F96E4EFFF790FDF769D6F818800024A1
:100750008246B7F57A7FAAEB080515D0A7FB0501FD
:100760004FF47A72002301F0B9FAC24605460246F8
:100770000B464FF47A78A8FB020108FB03113A46B6
:10078000002301F0ABFA8244C6F818A0284601F015
:100790001DFB3069002800D0804782E06D1C8D422F
:1007A0007DD2F06A405D9042F8D1EDB2FF2D76D057
:1007B00017F8080CFFF77DFF17F8061C012908BF82
:1007C000387002D0022908BFB87039462846FFF7B2
:1007D000CCFD66E04D4F3868E4B230F8140018B92B
:1007E000641CE0B28842F5D3E0B28842DFF8188199
:1007F000DFF810911DD2D9F8000080473968E4B2C3
:1008000031F814A0002200F058F8414A34705146E3
:1008100052F82420204690478246FF203070D9F8B5
:1008200000008047396831F814204AEA020200F0DB
:1008300044F801F06CF9044614F1010F2CD004B90E
:10084000344C306AA04238BF0446D9F800008047D3
:1008500007460820ADF800001C21706AADF80210B0
:100860000190684629688847B06A401C0821B06238
:10087000ADF80010049013222749706A039102908A
:10088000ADF8022001946846296888470298706292
:100890003846D8F80010884706B0BDE8F087FFF763
:1008A000D4FC072100F00EF81549BDF80620029F80
:1008B000097800288ED1002571E721F81420D8F896
:1008C000001008470820ADF80210ADF80000684697
:1008D000094D2968084710B548B1002300E05B1CAA
:1008E000DCB2944205D2DBB2C45C8C42F7D000206B
:1008F00010BD012010BD00003C4800205C440020D9
:1009000044DE010040480020444800207448002094
:1009100020DE01008EC2F528F5060100DFF800F0A8
:10092000C9B40010DFF800F0B1AD001010B586B00A
:100930001C460823ADF8003001901B23ADF80230AF
:10094000039104922068DFF830160968029000A82D
:1009500088470299216006B010BD00B583B000F051
:1009600019F88DF80400172105E000B583B000F0F8
:1009700011F801901E21ADF8021000A8DFF8F8155B
:10098000096888470EBD00B583B000F003F80190F8
:100990001F21F0E70821ADF80010704700B583B0C3
:1009A00000F0FAF9212000F00AF89DF804000EBDCD
:1009B00080B500F0F1F9262000F001F802BDDFF863
:1009C000B8150968ADF8020000A80847DFF8AC05C3
:1009D00001F0EFBADFF8A80540F6020101804FF4FC
:1009E00001620021418041608160017301214173F6
:1009F00000218173DFF88C150A8048600022DFF83F
:100A00007C054A808A608A8108614A61704710B516
:100A1000DFF8740586B00021C160C160016001602B
:100A2000DFF85C45207E032805D11020FFF7ABFFDF
:100A30000020FFF792FFFFF7B1FF0028FBD0FFF780
:100A4000B7FF00F060F940F60A0000F06AF9206B89
:100A50000490002000F05DF9607E012803D10020A1
:100A6000607600F05DFAFEF7E7FA2062207E01284A
:100A700005D11020FFF787FF0020FFF76EFF002051
:100A8000207606B00120A07610BD2DE9F843DFF8EE
:100A9000FC44DFF8FC5420688047074600F080F9EA
:100AA000032803D029683846884732E02968DFF8F0
:100AB000D064307E012802D13846884758E00120B2
:100AC0003076384688470020DFF8C874DFF8C8144D
:100AD000DFF8C884DFF8C89470637861F86040F28A
:100AE000FF700860FFF71EFF002038613861F86171
:100AF000F861EFF3118080060DD502203076DFF823
:100B00007C0401F056FAFFF773F900F034F8FFF7B0
:100B10007EFF00202DE000207080DFF88824DFF8C1
:100B2000880400883082DFF88404C06A8168127803
:100B3000096802EB42025118B1F801107182406855
:100B400070611020FFF711FF0120FFF706FF00F092
:100B500012F8386860B920688047716B41B9DFF8D6
:100B600050147163DFF81C1439602968884778686D
:100B70000120BDE8F28300224946404601F0A1B9B8
:100B800038B5EFF311808006DFF8F4431BD5A07E63
:100B900003282AD1207E012810D103202076606B03
:100BA000010022D0DFF8E0130A689207FAD56FF04F
:100BB00003020A6080470020606316E0022020766E
:100BC000FFF763FF11E0DFF8C403006880470546C4
:100BD000A07E032804D1207E012818BFFFF755FF0F
:100BE000DFF8AC13096828468847A07E0128FCD1AD
:100BF000BDE8314081E138B5DFF89003DFF8B45348
:100C0000006880470446287820B10020FFF7A5FE41
:100C1000002028702046BDE83440DFF874130968CE
:100C20000847DFF87403016821F0020141F4007104
:100C300001600321DFF88003816041F230014161EE
:100C40000121C160502141610121C1604FF4CA619D
:100C500041610121C16001607047F0B500F087F982
:100C6000CB4E85B08047044600206863A87E0328E9
:100C700044D0FEF7E1F9296AFEF7FEF9E969401868
:100C8000696AE861814208D3CC480088B0F5006FFA
:100C90001CBF40F20241884224D12F6B01F03DF984
:100CA0000020E86100F02FF840F6090000F039F864
:100CB00000F02FF80498696A286387422CBF381A1D
:100CC000C01B0328A7BFBE48401801F59C40203038
:100CD0000028BC4948BF0020884268620ADBBA4845
:100CE000686207E0B9480021C160416081608160AD
:100CF00001600160FFF795FF0320A8762046316868
:100D0000884705B0F0BDB248016841F002010160BA
:100D100070478DF80C0001208DF80D0000A801F03F
:100D200061B9ADF800000020ADF80200019002901A
:100D300070473EB501F0F1F8A649012008604FF474
:100D40004220FFF712FE00F0D8F8FFF743FEFFF74E
:100D500025FE0028FBD0A04D894CFFF729FE2D6809
:100D60000FF26111642004F12C030022B0FBF5F0B6
:100D7000FFF7DCFD00F010F81820ADF802007E4906
:100D80000FF265100968019004F13800029000A884
:100D900088470320A07637BD0820ADF800007047D3
:100DA00010B57A480068804775498C7E7849096893
:100DB0008847204610BDFEB50446714D606800218D
:100DC000A962017B01F00F0102294CD18068A0606B
:100DD00040F61D47814800780938052832D3FEF7D0
:100DE0002FF906001CBFB068002835D0FEF724F9A3
:100DF0000146B068FEF740F9A0F5C871784A914203
:100E000020D28608BE421FD3FFF7C6FF2720ADF8C9
:100E100002004FF47A70B6FBF0F000F04DF8029843
:100E20000FF2A101301A6F4EF668C838801B6A4E67
:100E3000366805F12C030022B0FBF6F0FFF776FDD3
:100E4000AC6209E0642600E036B1606801F0B1F8F8
:100E500000F053F8BE4214D3FFF7A2FF032810D0CE
:100E6000FFF7C9FEF7BDFFF79BFF032808BFFFF799
:100E700087FEFEF7E1F8A060606801F09AF800F0E4
:100E80003CF8F7BD30B505464048006883B0804760
:100E900004463B48816AA94207D1FFF77BFD1C212C
:100EA000ADF80210C06A00F007F800F001F837BD95
:100EB00037490968204608472F490968019000A86A
:100EC0000847704700B583B0FFF766FF2220FFF7A1
:100ED00076FD00280CBF01980020032814BF0128CC
:100EE00000F028F807BD0000052808BFFFF7CDBDBA
:100EF000022808BFFFF7B1BE704738B52348244D1C
:100F00000068804704462B48017821B9012101700F
:100F10000120FFF722FD29682046BDE8344008473C
:100F200080B5FEF78DF820B1BDE80240406801F0C1
:100F300040B801BD38B5FEF783F8B8B100F017F836
:100F40008047044601206876FFF72AFF032808D06F
:100F500000200F496876204609688847FFF7E0FFC0
:100F600001E0FFF7A5FFBDE83140C6E731BD074806
:100F7000034D0068704700003C48002001010E044A
:100F8000D84600201448002010100440404800209B
:100F9000444800200010044000000460020000806B
:100FA00000048000B94C0020944C002028DD010092
:100FB0000F0A0100B7480020004104400A4F0020FA
:100FC000E0B1FFFF01350C0000350C0008100440B3
:100FD00000200940D021084078440020B84C00206F
:100FE000711EA107A846002080B54FF48030FFF79E
:100FF000BCFCBDE80140FFF791BC4FF48030C2E477
:1010000010B57D4B1C88FF2C07D118807822BDE8D5
:1010100010400021181DFFF766B910BD2DE9F04101
:1010200006460C46200448BF84F400402FD420001C
:101030002CD072480168884727468046002524FA4C
:1010400005F0C00708D46D1C0F2DF8DB6C490A6849
:1010500040469047B8B21AE06748021D0088801BDE
:10106000C0EB0010281802EBC0070120396800FA15
:1010700005F509B178688847A9B2304600F0CCFC84
:1010800008B93860786085EA0407DFE70020BDE82A
:10109000F08110B582B00024FFE7009400F05FF803
:1010A00016BD2DE9F04706465448554D8A4601685D
:1010B00082B088470F2E804621DA4F4C04EBC601E0
:1010C0004868E0B10F2196FBF1F9C9EB09172088B8
:1010D0000121F71B01FA07F74844B9B2C0B200F08A
:1010E0009BFC60B1208881445246B9B25FFA89F016
:1010F00000F04FFC296840468847002003E029683B
:10110000404688470220BDE8F687F8B507463B48C9
:101110003B4D016888470F2F04461BDA364A02EB25
:10112000C7067068B0B10F2197FBF1F0C0EB00115A
:10113000128801237F1A03FA07F71018B9B2C0B258
:1011400000F052FC00207060B0602046296888479B
:101150000020F2BD2968204688470220F2BD2DE913
:10116000F84F80462548264C8A46016815461E469B
:10117000884783465FEA080004D1216858468847BB
:1011800002202AE00A99DFF8709000958DF8281067
:10119000002509EBC5077868C0B99DF82820012A09
:1011A0000CBF184B184B0F2095FBF0F0C0EB001E46
:1011B0004FF0010CA5EB0E01009A0CFA01F1B9F801
:1011C00000C0604489B2C0B2984740B16D1C0F2D79
:1011D000DFDB2168584688470820BDE8F28FC7F852
:1011E0000480C7F808A006B13570216858468847C2
:1011F0000020F2E7000000008C440020404800205E
:1012000044480020B11901009319010070B505464A
:101210002F4801688847064605F1080080B200F0B3
:101220005FFB040005D02B48A580016821600460A5
:10123000083429490A6830469047204670BD70B589
:1012400004462348016882B08847224A0546106850
:10125000002101E00146006870B100F108039C42E2
:1012600022BF86889B19A342F4D3036800290CBFD0
:1012700013600B6000F040FB284602B0BDE87040F0
:1012800015490A68104738B504460D4600F00FF8B6
:1012900058B16D42611900F10803994222BF80885C
:1012A0001818884201D3084632BD204632BD014697
:1012B00081B00848006838B100F10802914222BFAD
:1012C0008388D2188A42F5D301B07047000000002D
:1012D000404800207048002044480020DFF800F01B
:1012E000818C0010DFF8BC039021017088214170CF
:1012F000012181700221C1700021017180214171A1
:10130000002181712021C1710021DFF89C0301813E
:10131000802181720021C172C1603F2101700021D2
:101320004170418041603F20DFF8801308707047B2
:101330002DE9F843804600F072F91D4637D5DA48AA
:101340000078400733D500F064F998B10C20FEF71F
:10135000EBFF60B39121017080F803803E21417062
:10136000868003218170C78005814481014699F8F8
:1013700000001BE01520FEF7D7FFC0B100F055F9C3
:1013800081F804803E224A704E710A228A70CF7121
:101390000322CA70320A8A713A0A0A724D722A0A04
:1013A0008A72CC72220A0A7300F0A5F847E1BDE800
:1013B000F183F8B500F0DBF80D4616462FD5BA4894
:1013C000007800072BD51720FEF7AEFF070026D0C8
:1013D000012038700822FF20787007F1080078603B
:1013E0000420796808703E20796848700C2079687C
:1013F000887004207968C8707868047178684571CD
:10140000280A7968887131467868C01DFEF739FF6F
:101410003946BDE8F440A6480078FEF7A6BFF1BD06
:10142000F8B5A44E074630780C46154620B3B800F0
:101430000C3080B2FEF778FF00284FD09021017069
:1014400087701321417000F10C01416000EB4701EE
:101450000C31816000210AE0436834F8112023F840
:101460001120836835F8112023F81120491CB94256
:10147000F2DB014630782DE0B800461C06F10B0087
:10148000C0B2FEF751FF48B301210170FF21417046
:1014900000F1080141600421426811701321426883
:1014A000517041688E704168CF7000210EE000F0ED
:1014B0001CF8137100F019F81B0A537100F00FF8B3
:1014C000937100F00CF81B0AD371491CB942EEDB92
:1014D00000F011F8BDE8F440FEF747BFF1BD4268E7
:1014E00035F8113002EB81027047426834F8113050
:1014F00002EB8102704701466D480078704738B5AD
:1015000000F035F832D56848807A00062ED56A4D4D
:10151000287858B10620FEF707FF38B390210170F4
:10152000448057214170014628781BE00D20FEF7CA
:10153000FBFE01001AD001200870FF20487001F165
:101540000800486004204A68107057204A685070AC
:1015500002204A6890704868C470200A4A68107176
:1015600053480078BDE83440FEF7FFBE31BD044665
:101570004C48C079800670472DE9F843054600F0D5
:101580004EF8984603D548480078800605D428468A
:10159000BDE8F4431A2101F03FBC00F03AF8B0B1C5
:1015A0000E20FEF7C1FE002831D091210170858008
:1015B0003E214170C6800621817007810021C170E3
:1015C000A0F80A808481014699F800001EE01620E8
:1015D000FEF7AAFED8B100F028F80D713E224A703D
:1015E0008E710B228A700F720622CA7081F80A80EF
:1015F0002A0A4A710C73320ACA713A0A4A724FEACD
:101600001822CA72220A4A73FFF775FF17E0BDE875
:10161000F183DFF8A490089C99F8000070472148F6
:10162000C07980060E4617467047012101700422DA
:10163000FF21417000F1080141600A707047BDE868
:10164000F443FEF792BE2DE9F0411B4F0446387873
:101650000D469046E0B119480078C8B905F10C0074
:1016600080B2FEF761FE06001AD0912030702A4643
:10167000FF207070B570B48006F10C00B060414678
:10168000FEF7FFFD38783146BDE8F041FEF76DBE4C
:1016900043462A462146BDE8F041FF20FFF71EBE23
:1016A000BDE8F081004F00202C480020084F0020AA
:1016B000B0480020B3480020B2480020284F002046
:1016C000DFF800F0D55800102DE9F843044624480F
:1016D000007801280F461546994608D1214801880F
:1016E000491E018089B211B90120FFF7E9FFDFF837
:1016F000788098F80000FF2678B10C20FEF714FEE1
:1017000048B3902101704670022101714480C58068
:101710008760014698F8000019E00820FEF704FEF3
:10172000010018D0012008704E70781F4860022216
:10173000027048684470200A4A6840EA09109070B4
:101740004868C57000204A68107108480078BDE8F4
:10175000F443FEF70ABE3846BDE8F243FFF76FBD1B
:10176000244F0020264F0020B3480020B04800201E
:1017700070B50021FF224A484A4B09E018248668C8
:101780004C43A61900257570491C85686255C9B27D
:101790001C78A41CA142F1DB002182700180416011
:1017A00070BD10B500233E4A9168182404FB031154
:1017B0004C78D4B90C78FF2C02D05468A14214D0D4
:1017C000087000234B604B6101234B705378034337
:1017D000537013785B1C1370DBB2012B1CBF802885
:1017E000402800D15160084610BD2E4909785B1C85
:1017F000DBB2891C8B42D7DB002010BD10B5284A14
:101800009268002118234B439C5C844202D19818B3
:10181000407810BD00F017F8F4DB002010BD10B5C3
:101820001F4A9268002118234B439C5C844202BFEC
:101830009B185B78012B01D1012010BD00F003F84B
:10184000F1DB002010BD174B1B78491CC9B29B1C53
:101850009942704710B512498B68002218215143F4
:10186000CC5C844202BFC9184C78012C01D10846D7
:1018700010BD0C490978521CD2B2891C8A42EDDB9A
:10188000002010BD10B504460548446060690100A1
:1018900018BF80472046BDE81040FFF78CBA000013
:1018A000F44E0020BC4C002000F10103810704D05D
:1018B00010F8011B89B18107FAD10268B2F1013138
:1018C000914311F0803F04BF50F8042FF6E710F861
:1018D000011B11B110F8011BFBE7C01A7047000093
:1018E000E0B50821ADF80010042200F00EF808B1B0
:1018F00000200EBD02980EBD00B583B00821ADF8E2
:101900000010052200F001F807BDADF8022001909B
:10191000684601490A6810473C480020DFF800F09B
:101920000158001080B502216846FFF7F7FFBDF8A7
:10193000000002BD704770477C4900204860704736
:1019400070B504460D46164600F018F808B146601A
:1019500070BD1020FFF7C4FF78B184720581466026
:1019600000210160C16071490A6812B9086070BD48
:101970000A4611680029FBD1106070BD02466B4811
:10198000006828B103898B4204BF837A9342F7D160
:101990007047F8B500F022F800F01BF864490A68B7
:1019A0000446384690470CB10020F2BD0820F2BD35
:1019B000F8B500F013F800F00CF804005C4918BF0B
:1019C000E6600A68384690470CB10020F2BD082056
:1019D000F2BD0746324629462046B1E7044655483F
:1019E0000D4601681646084770B5044651480D4635
:1019F00001688847064629462046FFF7BFFF4C4945
:101A000004001CBF002020810A68304690470CB1BA
:101A1000002070BD062070BDF8B5054645480E464D
:101A200001688847074631462846FFF7A7FF00248C
:101A300000B144683E490A68384690472046F2BDE6
:101A40002DE9F047DFF8EC80384FDFF8E4900446EA
:101A5000D8F8000082B08047796861187960D9F8B9
:101A6000001088473E68002E4FD000250094D8F81B
:101A7000000080478246BDF802000024002804BF11
:101A80009DF80100002807D130799DF80020904290
:101A900002D3801A307106E07068009981423ABF23
:101AA000401A70607460B08860B9F18861B9F068FC
:101AB00000281CBF318900290AD0B07AFEF72BFD1F
:101AC000F0687060B08808B9F18809B1308930B920
:101AD0003068002D0CBF38602860344600E0354681
:101AE0003668D9F800105046884764B1A1880029AB
:101AF00004BFE088002803D12189A07AFEF70BFDFE
:101B00002046FFF7F9FE002EB1D1BDE8F387074864
:101B1000016841B108484A680968824298BF104686
:101B20000029F8D170470020704700005C48002071
:101B300044480020404800208EC2F52800B583B0FC
:101B40000821ADF800101722ADF802208DF804002E
:101B500068461A490A6890470EBD1948002141801D
:101B6000012101707047F8B50D4616490A78904278
:101B7000044601D30320F2BD114E3078E8B112497A
:101B8000086880470746012000FA04F4708845B9C8
:101B900020EA0404748058B154B90020FFF7CEFF46
:101BA00006E010B90120FFF7C9FF70880443748074
:101BB000384606490A6890470020F2BD3C4800209C
:101BC0007848002044DE01004048002044480020BE
:101BD00030B585B01446029108221D46ADF80020AC
:101BE000002337490A68ADF80400ADF802306846B2
:101BF0009047BDF80C1021800499296005B030BDD4
:101C00001CB51220FFF76CFE2E490860122200213D
:101C1000FEF769FB002000F09FFA012001F0CCFAEA
:101C20000220FFF7EDF9032001F014FB042001F07E
:101C3000ACFD052001F0EAFE062001F089FF072037
:101C400002F0E2F8082003F06FF901AB6A460021C8
:101C50001020FFF7BDFFBDF800100820FEF74FFB76
:101C60000024BDF800102046FEF754FB641C082C2D
:101C7000F7DB13BD10B582B003F0CEFD124B134A53
:101C800013495020FFF7A4FF48B10C21ADF8021012
:101C900008200B490A68ADF80000684690470D48D7
:101CA00002689047044603F0E1FFFEF7A5FC0A49ED
:101CB0000A6820469047FEF7D2FC002016BD0000BF
:101CC0003C4800207448002070440020A4480020B4
:101CD0001507010040480020444800201B4213D152
:101CE000094236D12AB18446B0FBF2F002FB10C2A1
:101CF000704703F0DBBFFCD30022002370470B00CA
:101D00000200002100207047904271EB030CF6D3D3
:101D100070B5B1FA81F4B3FA83F52C1BA340C4F17A
:101D2000200532FA05F63343A2405FF00046E64054
:101D300002E05B085FEA3202841A71EB030524BFFC
:101D4000204629467641F4D302000B0030000021E2
:101D500070BD012ACFD970B5140C20D0B1FA81F42E
:101D6000B2FA82F5C4F120046419B4F12006D6D386
:101D7000B2405FF00044F440002502E052085FEA00
:101D80003303C61A71EB020E24BF3046714664411C
:101D90006D41F3D302000B002000290070BD0C46FA
:101DA000B1FBF2F102FB11452D0445EA1045B5FBEC
:101DB000F2F402FB145580B240EA0545B5FBF2F09F
:101DC00002FB105240EA044070BD000070B5134D94
:101DD00013490446286820F0020028600A689047EA
:101DE000104A1368E318B3F57A7F0AD34FF47A7177
:101DF000B3FBF1F65168711851604FF47A7101FB31
:101E00001633094913600A6890472046FFF718FE09
:101E1000286840F00200286070BD000010E000E07B
:101E200040480020544800204448002000B583B0BA
:101E30000821ADF800100D2205E000B583B008219F
:101E4000ADF800100E22ADF80220019068469A49C4
:101E50000A6890470EBD1FB5029103920823964968
:101E60000A680190ADF800302824ADF802406846B9
:101E7000904704B010BD10B5904C20698168884728
:101E800000208F49002241F82020401C0428FADB62
:101E90002069016B80221220FFF7DDFF2069C16AF3
:101EA00080221920FFF7D7FF2069416B80221A207A
:101EB000FFF7D1FF2069816ABDE8104080221B2016
:101EC000C9E7F8B504467F480D46016816468847BD
:101ED0007A4907460869816888477B48C168A143F9
:101EE000C1602C43C1682943C16081680C43846090
:101EF00001680E4306601B20FFF798FF1920FFF7CB
:101F000095FF1220FFF792FF1A20FFF78FFF00F0D6
:101F10004DF83846BDE8F240104710B500F0A3F880
:101F200004461920FFF789FF1220FFF786FF1A20C9
:101F3000FFF783FF1B20FFF780FF64480021C1608B
:101F400041608160816001600160204600F02EF8F0
:101F5000BDE81040104780B500F085F85B490022CD
:101F60008A608A600A600A6002E0DB4313601360E3
:101F700057490A68BDE80240104738B5044600F0EA
:101F800072F805461A20FFF758FF504800214160BB
:101F90000160016041680C4344601A20FFF746FF6E
:101FA00000F004F82846BDE83240104748490A6866
:101FB000704738B5474C0546206808B1FF2032BD50
:101FC00040490868804701462560E0690028FCD048
:101FD0000022E2610846E261FFF7E8FF904760688F
:101FE000C0B232BD70B53B4C0546206808B1FF2039
:101FF00070BD3449086880476269E3680146002083
:102000006061E0602560E0690028FCD00026E661A0
:10201000E807E6610CD42888050509D56068012821
:1020200006D12569A807FCD56FF003002061206167
:10203000D04320612061D843A060A060626108465F
:102040002349E3600A6890476068C0B270BD80B5FC
:102050001B48406830B900F006F81F4A5368916881
:102060008B4382E70DE017480168084780B51448A4
:10207000806830B9FFF7F7FF174A536891680B4043
:1020800073E7BDE80240004780B50D48C06838B925
:10209000FFF7E9FF0D494A68D2430A600A6067E723
:1020A000EFE70E480021016001600548006801006B
:1020B00018BF0047704700003C4800202C4F00200C
:1020C000EC4F0020404800200C1004400810044051
:1020D0004448002000100440101004401C1004402C
:1020E000DFF800F001720010DFF800F021AD001001
:1020F000DFF800F06DAD0010DFF800F0B5D800108B
:10210000DFF800F01DB50010DFF800F0AD8E001014
:10211000DFF800F089D10010DFF800F01957001047
:10212000DFF800F061840010DFF800F02D8A001065
:10213000DFF800F069720010DFF800F07194001011
:10214000DFF800F0E5730010DFF800F035A30010B1
:10215000DFF800F0E1AC00102DE9F84FDFF82C4B70
:10216000DFF82C5B2070072100206861DFF8240B6A
:1021700001700D2141804FF404718180DFF89C0BC8
:10218000DFF89C1BA9618A7E0270FF2ACB7E437018
:1021900008BFFF2B0E7F86704F7FC77091F81EC05F
:1021A00080F804C0C97F417116D1FF2E08BFFF2FF0
:1021B00012D1BCF1FF0F08BFFF290DD1DFF8641B5E
:1021C0000A7802704A7842708A788270CA78C2703F
:1021D0000A79027149794171DFF84C1B0278DFF806
:1021E000288CDFF8287CDFF844EB0A7042784A70CC
:1021F00082788A70C278CA7002790A714079DFF8F1
:10220000582C4871FF21DFF8280B01704170817054
:10221000C17001714171101D017141718171C171F4
:1022200001724172002101708172A021818103211C
:1022300081730721C173002101742821418201218A
:1022400001750021817502F15A0100224A700122B4
:102250000A7042750020DFF8781B0880D8F82C300F
:10226000DFF8AC1B58780870197839709A782A70A2
:102270009E683679761E8EF80060DB78DFF8946B06
:102280006B704FF4967333801B261B2392FBF3F382
:1022900006FB132202B10122D218504328814FF0CD
:1022A000180A881C0AFB00F080B2FFF719FBDFF860
:1022B000AC6BB060002800F09C803878002800F0FB
:1022C0009B804FF49071484380B2FFF709FBDFF821
:1022D000909BC9F8040008B9B06888E0387880019C
:1022E000FFF7FEFAE86020B900F0D8F8D9F804004A
:1022F0007DE03878FFF7F4FA286128B900F0CEF8CD
:1023000000F0CFF8E86872E038780AFB00F0FFF7D9
:10231000E7FADFF850ABCAF8000038B900F0BEF8B1
:1023200000F0BFF800F0B7F8286960E03878DFF80F
:1023300038BB4001FFF7D4FACBF8000050B900F0E9
:10234000ADF800F0AEF800F0A6F800F09DF8DAF86D
:1023500000004CE038780001FFF7C2FADFF8D81B24
:10236000086060B900F09AF800F09BF800F093F86C
:1023700000F08AF800F08BF8DBF8000037E03878DE
:102380000001FFF7ADFADFF8C01B086080B900F06C
:1023900085F800F086F800F07EF800F075F800F09F
:1023A00076F8DBF80000FFF7A7FADFF88C0B1DE0EA
:1023B000387830214843FFF793FADFF8901B086024
:1023C000D0B900F06BF800F06CF800F064F800F0A1
:1023D0005BF800F05CF8DBF80000FFF78DFADFF83F
:1023E000580B0068FFF788FADFF85C0B0068FFF70E
:1023F00083FA4FF4804142E000F0FFF90746FEF710
:1024000098FCFFF76DFEDFF8480B00690068804715
:10241000FFF76AFEFFF76CFEDFF8380B0021016062
:102420000160C160C160FEF7D1FA03F041FCDFF842
:10243000281B40F2FF700860FCF7FEFD0646FCF723
:10244000FBFD864208BFFFF757FED8F80C006978FD
:1024500000880843DFF8041B08803846DFF8CC1CEE
:10246000096888470C21DFF8C80CFFF749FE20787F
:102470000021FFF778FB00F09BF84FF40051207823
:10248000BDE8F44FFEF747B82869FFF735BADAF828
:102490000000FFF731BAE868FFF72EBAB068FFF71F
:1024A0002BBAD9F80400FFF727BA10B50C46E0079D
:1024B00086B013D5FCF7C4FD38B100218160DFF888
:1024C000A00A0068010018BF8047DFF8C007007845
:1024D0000021FFF748FB84F001005DE0A00707D56D
:1024E00000F05CF83C20FFF70FFE84F0020053E0A0
:1024F0006107DFF89C0723D5DFF86429017952686A
:10250000C0684FF4907303FB012200EB8110911D12
:1025100012F82C3F049353891B0903938B8B02936E
:10252000D2885208019200F134020092012290F800
:10253000303009780020FFF7E7FD84F004002BE03D
:10254000210607D500F02AF83B20FFF7DDFD84F0D7
:10255000800021E0A10508D5DFF8D80B016841F023
:102560000041016084F4007016E0610504D5FFF7B6
:10257000E1F984F480600FE0610405D58120FCF767
:1025800063FD84F4804007E0A10443BF4FF0FF31B6
:10259000416184F40050002006B010BD002004907A
:1025A00003900290019000900146002301227047A1
:1025B000F8B5FEF7E5FADFF8800BDFF8A4680068ED
:1025C000DFF84878804704460020FEF75BFC40F2C5
:1025D0000140FCF73DFDDFF878090069C0688047DD
:1025E000FFF782FDDFF82008DFF8501BC06A806823
:1025F000407908700025FDF7FBFBDFF8440BFFF77F
:1026000087FDFEF78BF9FFF787FDDFF8380B002118
:102610000170017141718171C171017241720022B9
:10262000DFF8340800F10E010A70A0224A80072268
:102630004A7103220A7100220A738A7200F8592F24
:102640000122CA720021427081700BE070684FF461
:10265000907101FB05004179012908BFFCF79AFF41
:102660006D1CEDB238788542F0DBFFF759FDFFF7BE
:102670007FF8FCF702FEDFF8D01A00200870DFF8C0
:10268000CC1A08700120DFF8C81A08700020DFF8A3
:10269000C41A08700120DFF8C01A08700020DFF8A3
:1026A000BC1A0870DFF8B81A0870DFF8B81A08808A
:1026B000DFF8B41A0870FEF79EFA00F099F80020CF
:1026C000F2BD2DE9F0411446DFF8405708B12A78F1
:1026D0000270DFF88C8711B198F801000870002CA7
:1026E0003DD0002600271CE0C9B2DBB2085502F13C
:1026F000300001791955591C427900F033F882797C
:1027000000F030F8C27900F02DF8027A00F02AF8D3
:10271000427A00F027F80078C9B24E1C08557F1C99
:10272000FFB2287887421ADA3846FCF795FC002871
:10273000F5D1D8F804004FF49071F6B201FB070010
:10274000DFF84C15C968375501EB8712006800782F
:10275000711C4B1C80280CBF00200120C4E7002006
:10276000BDE8F081C9B20A55491C704738B5044626
:102770000D46FCF771FC48B9DFF81405C068A101EB
:1027800008580A21B0FBF1F02880002032BD38B58E
:1027900005460C46FCF760FC48BBDFF8D009DFF8C3
:1027A000F0244068D26800F050F8811D0B7802EBED
:1027B00083153CB1CB8D898D5B1C4900E2005943E8
:1027C0008A4201D2122032BD0A216143296090F869
:1027D000920058B100F011F8044600206871286892
:1027E0004108A879FEF75DFC00F002F8002032BD38
:1027F000DFF83819096820460847DFF83C09006807
:10280000004738B50C00054601D1122032BDFCF757
:1028100023FCB0B900F016F801680978402901D00E
:102820000C2032BD00210A5D431A491C102983F88F
:10283000E220F8DB012180F8E4100521FCF742FFDB
:10284000002032BDDFF8240940684FF4907101FB8D
:102850000500704710B50446FCF7FEFBA0B900F078
:10286000C8FA402901D00C2010BD00F1F0010A780F
:10287000012A03D106220A77022102E006224A70C9
:102880000D21FCF71FFF002010BD10B50446FCF71A
:10289000E3FBF0B900F02EFC00F1F8010A78022AFF
:1028A00006D1817900F1F9020020FEF782FD0FE0E8
:1028B00002681278802A08BF082107D0402A07D171
:1028C0004978090701D4112010BD0E21FCF7C8FB7F
:1028D000002010BD10B5040001D1122010BDDFF89A
:1028E0008005407808B10C2010BDFCF7C6FC2078AC
:1028F000DFF87C1800F01F0020704A781040487004
:10290000002010BD38B50D00044606D0DFF8F804ED
:10291000C06A80680079844201D3122032BDFEF77C
:102920003FFA032803D02046FDF7A7FA02E0DFF8BC
:102930000C08047001202870002032BDDFF8C81494
:10294000C96A89680979884201D312207047DFF883
:10295000DC1308700020704710B5140019D011B1B5
:10296000012908D015E0FDF7A1FA10F1800F2070C1
:102970000DD1302010BDDFF89004C06A8068016876
:10298000007900EB4000401810F8030C2070002084
:1029900010BD122010BD2DE9F0410C0082B0074699
:1029A00090461D4627D0BA4E3078404528D3384649
:1029B000FCF752FB002847D100F0C0FA01FB0707E3
:1029C00003F002FC1B2298FBF2F21B2303FB128391
:1029D00003B10123318910181818814204DA01204B
:1029E000FFF7A2FB07202FE030781C2814DA002D17
:1029F00018BF012D01D0122026E0B8F11C0F04DB16
:102A00008A20FCF721FB30201EE02B46424621465F
:102A10003846FCF729FB13E0424621463846FDF7CD
:102A200099F888B92046FEF70AFCB879ADF800009D
:102A30000DF102020120ADF8020000A9FEF7F0FC42
:102A40003846FDF745F90020BDE8F68170B5064629
:102A5000282E01DB122070BDDFF80C47207808B16A
:102A6000212070BDFEF78CF8DFF8E45428698068F7
:102A70008047700000F6621189B20020FFF758FB12
:102A8000DFF8F00640F60701018040600021418038
:102A90008160017B01F060010173417B01F0F00175
:102AA00041F00201417302218173DFF8CC1601610C
:102AB00000214161C17B01F0F00141F00101C173CE
:102AC0000C212170296989698847002070BD2DE992
:102AD000F04104460D46282CB8BF262D16460FDAC5
:102AE000002E18BF012E0DD0022E18BF032E09D0C4
:102AF000042E18BF052E05D0062E18BF072E01D0B4
:102B000012205BE0DFF8608698F8000008B1212011
:102B100054E0FEF735F8DFF86476DFF8641641F626
:102B20000A0038800022002078807F60B860387BFF
:102B300000F060003873787B00F0F00040F0020095
:102B4000787360006630B8738020F873DFF834065D
:102B5000386179610280857040F6C4124260C670A7
:102B6000027A02F0FE02027200224272C260C27A4F
:102B700002F0F00242F00102C2720020088000213F
:102B8000DFF804068180C180047080214570867062
:102B900001726648DFF8B8430078FDF76EF9092046
:102BA00088F8000000222369DFF8E0055B68002157
:102BB000984721698969384688470020BDE8F08137
:102BC00070B50446282C01DB122070BDDFF8985543
:102BD000287808B1212070BDFDF7D2FFDFF89C6591
:102BE000DFF8AC15766041F6090030807161002095
:102BF0007080B0600022307B00F060003073707B2A
:102C000000F0F00040F00200707360006630B073B6
:102C10008020F073DFF87C05306102600F220271C2
:102C200001224271DFF850258260552202734273FF
:102C3000827300220261C27B02F0F00242F00102C4
:102C4000C27300200880488088800022802088711C
:102C5000002088600021DFF830054170FF2181707D
:102C6000047000218180C1808021B94C01720A204A
:102C7000287000212369DFF814055B6898472169F3
:102C8000896930468847002070BD0000844C0020D0
:102C9000F84700208C4C002070B5DFF8CC44207839
:102CA000092818BF0A2801D0212070BD40F2024037
:102CB000FCF7CEF92078DFF8D01409280BD1DFF823
:102CC000C00400888880DFF874040078FDF7D5F828
:102CD0000021002017E00A2817D1DFF8B424538818
:102CE00010889688CB801D1875198D809279802A5E
:102CF00018BF812A0FBF7F22DFF89C3493F9003080
:102D0000D21A0A720121FFF717FAFFF7EDF9002036
:102D10002070FDF770FF002070BD00006C4C00209B
:102D2000B63F0050E81200507C4C0020854C00203B
:102D3000744C002038B5DFF83044207808B12120E9
:102D400032BDFDF71DFFDFF83454DFF83424297B52
:102D50006D6001F0E00141F08501297341F60A0040
:102D6000697B288001F0F00141F0020169730020C5
:102D70006621A97368808021E97340F6C410DFF8EA
:102D80000414A86029616A6148600123087A0B80F5
:102D900000F0FE0008722523C87A8B7000F0F00066
:102DA000002340F00100CB704B72CB60C8721380DF
:102DB0000D2020700022664CDFF8E00323695B6879
:102DC000114698472169896928468847002032BD05
:102DD000984C002010B50446FCF73EF940B900F0CD
:102DE00008F880290CBF00211021FCF76BFC0020A3
:102DF00010BDDFF8780340684FF4907101FB0400C8
:102E0000016809787047000028DD0100BC4C0020F3
:102E10008B4C0020964C002038B505460C46FCF73C
:102E20001BF9B8B9FFF70EFD00F1F9010A78520756
:102E300003D40F220A75072109E0DFF86413C9687B
:102E400001EB85110F2201F8242F4C701121FCF7A2
:102E500039FC002032BD0000EC490020F44E002077
:102E6000B04C0020984800209C4800202DE9F041FB
:102E700080460D4640F67B40A91F164681423CBF66
:102E8000B11F81421F4611D2AE420FD3B7F5FA7F70
:102E90000CDA069CA4F10A0140F6774291423FBF4A
:102EA000781C71004843B0EBC40F01D3122040E0FE
:102EB0004046FCF7D1F800283BD100F03FF801FB79
:102EC0000800B749C96800F1770201EB881113794E
:102ED0002BB11378002B1CBF0F2B102B02D0527A72
:102EE000012A01D13A2024E002681278402A05D153
:102EF00090F8F920920758BF11201AD500F18202EC
:102F00008D81CE810F824C820223937000239380A7
:102F1000838ED680DB1D1380178154810122CA71F4
:102F200090F8F910890754BF00210F21FCF798F899
:102F30000020BDE8F08100000C4F00208B48406865
:102F40004FF49071704700001C4F0020104F00207C
:102F50002C4F00201010044000000460944C00200E
:102F6000C44C0020F8B5804C2178092918BF0A29E3
:102F700067D00B291CBF0C290D2962D0894DA97C73
:102F8000002918BF012904D003291CBF02290429E4
:102F90000ED12A79002A18BF012A09D1032918BFA6
:102FA000022902D12B8AA02B77DB002847D00128E9
:102FB00073D1A87B012844D000291CBF0129042912
:102FC00012D179480078002867D068494978814251
:102FD00001D10920F2BD5B480278011D8020FCF779
:102FE000DDFF08B10B20F2BD0120FEF7DAFB2860FF
:102FF00000260120A873FDF7C3FDFFF7A1F86B4879
:10300000182101FB0607387B40F080003873A87C4C
:10301000012807D026B9FCF70FF800F5C87000E0CA
:103020000020B860761C032EE9DB207828B9A97C43
:103030005F48085C2070FFF787F80020F2BDA87B8E
:1030400008B92120F2BDFFF7D8FB0646FFF780F84C
:10305000012804D0FBF7F4FF2968884207D1FDF767
:103060008FFD40F20240FBF7F3FF012700E000274D
:103070000020A8732868FDF705FF2846FBF7F8FF36
:10308000207810B9FDF7B7FD02E00FB1FFF75CF84B
:103090002649096830468847CFE71220F2BD0178FB
:1030A00041F08F010170C17841F02001C1700179B8
:1030B00041F0C0010171417941F001014171817814
:1030C00041F0300181700020704710B127494978E4
:1030D00001700020704770B504460D461646FBF798
:1030E000BBFF30B900F006F800F58E700570468021
:1030F000002070BD1D4840684FF4907101FB040032
:1031000070472C4B10B1012803D00CE0198000202F
:103110007047188810701888000A50704720907007
:10312000AE20D070F3E71220704700004448002022
:10313000E84E00200400094040480020B94C00201F
:103140008C4A00209C4C0020864C0020BA4C002069
:10315000874C0020884C0020BB4C0020894C00206C
:103160008A4C0020BE4C0020B84C0020B04C0020FF
:10317000D04E0020404E002029417671284E00207C
:10318000204F0020A84E0020DC4E002002000080CE
:10319000C44E0020844E0020C04C0020010000805E
:1031A000F8470020EC490020BC4C0020244C0020B3
:1031B000C0D90010984C002010B504001E480470BF
:1031C00000201E49087000201D49087000201D497C
:1031D000087000201C49087000201C490870FEF788
:1031E00081F800201A49087010BD70B504000D0068
:1031F000280416D510480078FDF717F90600002EB0
:103200000BD03078032802D03078012802D1F06842
:10321000FEF715F83000FDF799F895F4004080B2FC
:1032200000E0002070BD064908707047054908702D
:103230007047054908707047B0480020B148002029
:10324000B2480020B3480020B4480020B548002010
:10325000284F002010B5DFF82844207103F032F821
:1032600030220021DFF81C04FDF73DF8207860B122
:103270000001FEF735FB206138B1627821782272B7
:10328000E1718A000021FDF72EF8DFF8FC13207AA7
:103290000978081860710006000DFEF721FBE06058
:1032A00088B161790A010021FDF71DF80020FF2295
:1032B0006179C0B288423FBFE16801EB00114A72F8
:1032C000401CF5D301E0607120722079FFF7AEFF5A
:1032D000BDE810400FF2814003F01AB870B50C46FB
:1032E0002004DFF89C5324D52879FDF79EF80600CA
:1032F0001CD03078902816D17078132810D1002077
:1033000005E0B26832F810205118A971401CB2785B
:10331000A979C0B29042F4D329B100F01AF802E0C2
:10332000304600F01AF83046FDF710F884F40040FB
:1033300070BDE0070BD503F08AF900281CBFA879FF
:10334000002801D000F005F884F0010070BD0020D5
:1033500070BD28790121FDF7DEB830B5054687B08C
:103360006C88294601A803F081FB0299002952D0FC
:10337000BDF80400052831D1BDF80C0004284CDB51
:1033800000A803F0C7F8BDF80200182819DABDF844
:103390000C10001D814210D19DF80000C00702985A
:1033A00005D5021D00A9204600F041F804E0021DE9
:1033B00000A9204600F0C8F878B3204603F02EFF9D
:1033C0002BE00120ADF810001720ADF8120004AA80
:1033D0009DF80110204604F031F91EE004281CBFBE
:1033E0000628072811D1A7490C2202FB001030F84B
:1033F000301D91B1807801AA214603F059FC60B9D3
:10340000BDF80400042810D00BE001A9204603F009
:103410000CFA10B909E0012803D1A86808B1FDF73A
:103420000EFF0121204604F03CF907B030BD2DE924
:10343000F0410E460446707888B0904603F028FEAE
:10344000012705007AD0002028713078012806D0A5
:1034500007285BD0132869D015281ED06EE000F035
:103460006FF803F053FB8046284603F033FE3378B1
:10347000152B18BF072B08D002A801904246002048
:1034800000902146287A03F035FC17B1284603F056
:103490004EFD404608B0BDE8F081287802284DD1A5
:1034A00000F04EF803F0B5FB5FEA0008DCD1BDF890
:1034B0001000002120BBBDF808004038402817D27A
:1034C000BDF80A001728A4BFBDF80C0017280FDBB1
:1034D000E868BDF80E200280BDF808204280BDF8E3
:1034E0000A208280BDF80C20C2802F70002707E0E0
:1034F000E968BDF808004880688804F06CF802218B
:10350000BDF81020284603F01CFCADE728780328FE
:1035100014D100F015F803F0B3FB5FEA0008A3D163
:1035200001220021284603F02DFC9DE7287804287D
:1035300004D100F005F803F03CFB94E70020A9E774
:103540007288414602A87047F0B589B0054600244C
:103550000E4611463078062812D0122872D0142850
:1035600002D016283BD081E0728800A803F02EFB21
:10357000040004D1717800AA284600F089F87CE0A4
:10358000728802A803F06AFB040076D1BDF8080037
:1035900003F031FD070018D0BDF80800ADF80400B5
:1035A00001ABBDF80A00ADF80600072137480090CE
:1035B0002846727803F003F802220021384603F00F
:1035C000E1FB384603F0B3FC57E00220ADF8000001
:1035D000BDF80800ADF80200BDF80A002FE07288BF
:1035E00002A803F060FB040047D1BDF8081028468C
:1035F00003F016FDD8B1C168BDF80A300A884FF64D
:10360000FF75ED1A95420EDB9818088080B20028ED
:103610001CBFC868002830D01948817969B3007987
:10362000FFF798FE29E0032103F0C6FD25E0022004
:10363000ADF800000020ADF80200BDF80800ADF8BC
:10364000040015E0728802A803F096FA040014D171
:103650000C48818989B102A9019100227178807B8F
:1036600000912946337803F045FB06E0ADF80040B1
:10367000717800AA284603F0E1FF204609B0F0BDAA
:10368000C4460020A047002068470020676C010066
:10369000FEB5164604467088403840280D464BD289
:1036A000B0881728A4BFF188172941DB88423FD38F
:1036B00000200090308803F089FC070031D003F02F
:1036C00067FC397A88422AD200AB3A46FF2120466D
:1036D00003F0DCFB18BB0098C06831890180718859
:1036E0004180B1888180F188C180B9880181FB68FF
:1036F000180012D0324629462046984702464FF617
:10370000FF7082420ED10099062008701E21009899
:103710000571009803F0D4FCF7BD002202E00422FA
:1037200000E00222009B2946204603F00AF9F7BD7B
:103730000020ADF8040008E00220ADF804000020ED
:10374000ADF806007088ADF8080001AA29462046A9
:1037500003F074FFF7BD000010B504464FF6FE708D
:1037600084420ED0012906D002290AD10121204627
:1037700002F052FE28B92046BDE81040002103F0B7
:103780004EBD10BD9A494870704710B5984C2070D6
:10379000FFF749FD2078BDE81040052103F0CEBDBC
:1037A0007CB5934D28780C46210419D5FCF73DFED5
:1037B000060084F4004411D000F057F858B930786E
:1037C000A22806BF8B4800786878FF2803D03146CE
:1037D000FCF7CBFD02E03046FCF7B8FD204676BD95
:1037E000E10709D5A86820B1416808001CBF002086
:1037F000884784F0010076BDA10709D5686820B12B
:10380000416808001CBF0120884784F0020076BD93
:10381000610726D5784E3188E9B1481E308080B2E4
:10382000E0B903F077FF48B1744901200870686877
:1038300020B1416808001CBF0120884704F02EF920
:1038400000A904F05FF900A804F099F81D2003F026
:10385000B3FF308002E00421FEF7C6F884F00400D4
:1038600076BD002076BD02F0EEBD38B502780124A9
:10387000912A4FF6FF7103D0A22A00F0928096E0C1
:1038800042785B4B052A4DD00E2A04D00F2A4CD02B
:103890003E2A6DD08BE0828841F20905511B32D05F
:1038A00040F6F975491B34D0C91E36D0491E09D0DF
:1038B000891E022906D9C91E1BD0491E15D0891E92
:1038C00008D074E05968002972D009680A006FD0E6
:1038D00088476AE04A490968002969D04B6819009D
:1038E00066D0014642F20E0040E081680978002966
:1038F0005ED0996800295BD00B68190058D001464A
:103900001046984751E08068411C007803F0FBFFA7
:103910004BE0806804F013F847E08068007804F01A
:103920006CF845E004F01EFE42E0828842F20D058C
:10393000531B13D09B1F02D09B1F0FD037E0314B7E
:103940001B888B420AD03049096889B30A68110084
:103950002ED0014642F21300904726E0284909681C
:1039600031B34B68190023D00146104698471CE03C
:10397000817801290BD002290CD0032904D0062913
:1039800015D104F0E2FD13E0024680880BE004F05C
:1039900084FD0DE0996859B149680A0008D088474C
:1039A00006E00246408800F005F8044600E00024E6
:1039B000204632BD70B50C46154602F03EFD01268C
:1039C000042804D11048006858B1026803E00C488C
:1039D000006830B14268100003D029462046904765
:1039E0000646304670BD024948607047000000003E
:1039F000BC450020404500204445002043450020B0
:103A000020450020144500208048002010B53C4C83
:103A10002070FFF70EFC2078062103F08FFCBDE834
:103A20001040384802F074BC38B50C46200416D556
:103A300033480078FCF7F9FC05000DD000F01FF8C2
:103A400038B931480078FF2803D02946FCF78DFCAF
:103A500002E02846FCF77AFC84F4004032BDE0071F
:103A600004D505F05FF884F0010032BDA00704D54D
:103A700005F023F984F0020032BD002032BD38B5D4
:103A8000044601252078922802D0A0282CD033E0CB
:103A900060780E2802D03E280BD02DE0A08842F29C
:103AA0001801884228D1A068411C007804F06AF807
:103AB00018E0A078052806D008281DD1A179A08893
:103AC00005F0A6F80EE0A08802F0B7FC042814D197
:103AD0000E48006888B1836818000ED0E289A0887B
:103AE000A11D9847054608E0204605F01DF8A0688E
:103AF00018B1FDF7A4FB00E00025284632BD000008
:103B0000B64800200D8B0100BD4500204C48002028
:103B1000814908607047814908707047032290FB13
:103B2000F2F080B203F0A0BD0178B02904BF417863
:103B300000290CD10179122903D1417C012906D138
:103B400001E01B2903D14088012103F0AABD704781
:103B500080B5734A5070042172480078401C107080
:103B6000507803F0EBFBBDE8014005F0F5BA38B53D
:103B70000C46200411D56A484078FCF756FC050035
:103B800008D02878A02804BF284600F008F8284666
:103B9000FCF7DCFB84F4004032BD002032BD30B5C0
:103BA00087B0044601208DF8000001A9204605F0E9
:103BB000F9FF05002AD19DF806105748C9070AD514
:103BC0004368180005D0608800AA01A998470546F7
:103BD0001CE006251AE00368180006D0608800AAD9
:103BE00001A99847050001D110E006259DF80500C0
:103BF00060B99DF806008DF810008DF81450002073
:103C0000ADF8120004A9608806F0A1F99DF8000043
:103C100000281EBFA0680028FDF711FB45B99DF8DC
:103C20000600122806BF9DF8051001291B2803D0A5
:103C30006088012103F035FD07B030BD2DE9F0416A
:103C40000446FF2C0D46164698461FD02020FCF750
:103C50006BFB070018D0B02038707E707D8087F82D
:103C60000480069929B1182207F10800FCF709FB26
:103C700004E0182207F10800FCF735FB394620461E
:103C8000FCF773FB002002E0132000E00220BDE8F7
:103C9000F08110B54FF47A746243BDE81040FDF72F
:103CA000F8B910B504001EBF2078FF28FE2803D005
:103CB000FDF72BFAFF20207010BD80B5009313464E
:103CC0000A46014615480078FFF7B8FF02BD30B537
:103CD00083B004460D4606F00AF950B901A80090D9
:103CE000ADF804507F230D48007800222146FFF7ED
:103CF000A5FF37BD00B583B07E238DF804108DF885
:103D0000052001A900910022014604480078FFF730
:103D100095FF07BD000000006448002028470020F0
:103D2000A848002068470020052923D006291BD079
:103D3000072918BF09291DD00B2918BF0D2919D033
:103D40000E2913D00F291CBF1129122912D01629B0
:103D500018BF17290CD01B2918BF1D290AD05229BA
:103D600018BFD22906D007E0C068704700687047C6
:103D700080687047406870470020704770B505291B
:103D800014461D4616D0062912D0092918BF11293C
:103D900010D0122912D0162918BF17290CD01B29B0
:103DA00018BF1D290AD0522918BFD22906D007E012
:103DB000072606E0022604E0052602E0032600E0CE
:103DC00001264FF6FF72944203D106F0A5F8841B3A
:103DD00002E0D22908BF0C34301980B203F094FA03
:103DE00038B105B12C807142BDE8704009B2FDF7D1
:103DF0004ABA70BD80B5FFF797FF00281CBFBDE829
:103E00000240FDF71CBA01BD70B5DFF8704CDFF859
:103E1000705C20762878C000FDF762FDE06148B351
:103E200028788000FDF75CFD0100616204D1E06943
:103E3000BDE87040FDF760BD4FF6FF76304606F0F6
:103E400079F9E169002006E021F8306001EBC00358
:103E500000225A60401C2A789042F5DB052000F0D1
:103E6000AEF8207E05F017FABDE87040DFF8140CBC
:103E700002F04EBA70BD38B50C46200418D5DFF8F4
:103E8000FC0B007EFCF7D1FA05000ED02878B02894
:103E900008D1284600F001F920B1297905F1080080
:103EA000FFF7A8FF2846FCF751FA84F4004032BD22
:103EB000002032BD7CB504001D460CD0ADF80010CA
:103EC0008DF80220019400A805F079F9060019D1B7
:103ED000C5B164890CB9022614E00C20FDF700FD81
:103EE00008B913260EE00021016084808560DFF8A8
:103EF000981B0A6812B9086004E00A461168002994
:103F0000FBD11060304676BD30B50D46DFF8781B2A
:103F10000446086883B0002201E00246006890B1C0
:103F20008388A342F9D10368002A0CBF0B60136099
:103F3000FDF7E2FC00A9204605F08DF910B90DB19E
:103F4000019929603EBD01203EBD70B558BB0129D5
:103F500027D1DFF8280BC16900230C2601E05B1C88
:103F6000DBB2DFF81C4B2478A34216DA31F8334079
:103F70004FF6FF75AC42F2D0002400E0641C457E91
:103F8000E4B2AC42EBD201EBC3056D6806FB04550D
:103F90002D88002DF2D0012070BDBDE87040107852
:103FA0000DE0182070BD022070BD0022002803BF64
:103FB000DFF8C80A407E08700222104670472DE9DB
:103FC000F843DFF8B87A0446002078760C25F869C3
:103FD000DFF8AC6A406805FB04F868B1FDF78CFCBB
:103FE0000020002204E0F96901EBC001401C4A6096
:103FF000C0B231788842F6D3307808FB00F080B246
:10400000FDF76EFC5FEA000927D0307808FB00F26C
:1040100000214846FCF767F900200FE0516805FBD6
:104020000CF34FF0000E23F801E059180CF1010CCD
:10403000C1F808E0A445F1DBC144401C3178C0B2AE
:10404000884207D2F96901EBC0024FF0000CC2F8B8
:104050000490EFE77C76002000E01320BDE8F283B7
:1040600001460020C90706D50FF20C03DFF8F80C53
:10407000102204211EE7704700000000994A010049
:1040800000000000DFF8001A096821B18A88824226
:10409000FAD188687047002070472DE9F04387B057
:1040A00004460020ADF8100001208DF81200DFF862
:1040B000CC59286A38B903F005FBFDF711FC00283C
:1040C000286200F0E480182200212846FCF70BF952
:1040D0002079022800F1010804F108074FF6FF7962
:1040E00017D006282CD008282FD00A2832D00C2828
:1040F00055D00E2800F08880102800F08A80122801
:1041000000F08C80162800F09080182800F0948031
:10411000BAE003F0D7FA28802946608805F020FF2E
:1041200000283988288804D0814228BF0146298088
:104130009DE0814228BF01466088FFF7C8FDA3E0EB
:1041400004A9204600F0ADF87AE004A9204600F06A
:104150002FF975E000F0A0F8060050D0608805AB9C
:104160004A460B21FFF70AFE03006B6023D020793B
:10417000BDF81620039000953146BDF8140000F0FC
:10418000A1F900F026FA060004D16088294605F05E
:1041900031FF29E0162E686808BF00262BE000F0EA
:1041A0007BF806002BD0608805AB4A460D21FFF74F
:1041B000E5FD686020B93888ADF81000112643E0AD
:1041C0002179BDF8162003910346BDF81410029121
:1041D000798801910095314600F0FBF9060006D17F
:1041E0006088294605F014FF002840D129E0162EEA
:1041F000686808BF0026FDF722F80EB921E0012605
:104200003888ADF810001CE004A9204600F05EF9E3
:1042100016E004A9204600F0E3F911E00DF11202C6
:1042200004A9204600F07EFA0AE00DF1120204A96A
:10423000204600F0BFFA03E004A9204600F028FB66
:10424000064696B1162E12D0607814280DD020792B
:1042500028702946BDF8100068802E71608805F02E
:1042600076FE10B14FF0010801E0162E0CD16088E7
:104270002B465FFA88F21621FFF71FFD20B15FFA87
:1042800088F12846FFF7B6FD2046FFF74DFC9DF864
:10429000120007B0BDE8F08338880DF1160105F073
:1042A000A9B82DE9FA4786B0044604F1080500F0E4
:1042B00034FA05906A1D0DF1120000902B7969887F
:1042C000288805F069F8002780464FF0FF0AB8F10A
:1042D000000F5BD009E0BDF810300B54BDF81000A2
:1042E000716892B2000A5054571C0598BFB2401F23
:1042F00087424BDA2079BDF8122003904FF0000975
:104300000598CDF80490C01F80B20290414600F09D
:104310005CF9002802BF728B2889904214D1316A5F
:10432000E868FBF7D2FF78B1706858B900F048F937
:104330000721FFF723FD706020B9069928880880BF
:10434000112032E0B8F80A90BDF81220698804AB59
:10435000404605F073F8B9F1000F8046B7D0706899
:1043600007F80090781C726880B24FEA29218154C6
:10437000411C4A1C7068B8F1000F89B2ABD101F83A
:1043800000A092B2706802F800A0571CBFB247B1FB
:10439000B80830803146608805F006FE28B1162046
:1043A00003E00699288808800A2008B0BDE8F08755
:1043B0002DE9F04F89B0044604F1080005908A46C3
:1043C00006886088DFF8B45605F0A6FD0790002740
:1043D000001FB84606904FF6FF7900E0761C06985D
:1043E000B84257DB04A80090059803794188421D24
:1043F000B0B204F0D1FF5FEA000B4BD0BBF80A600B
:10440000BDF810209BF80810608804F048FF5FEAB0
:1044100000083FD100F0DFF859460798001F00F070
:1044200050F805F11A0000902B6A00F0D2F85FEA0C
:1044300000082FD17FB9608800234A460921FFF781
:104440009DFC686018B9AAF80060112036E0688BFE
:10445000801C688004E0698B6888891C88421AD1B6
:10446000698B0698C919884214DB6968BBF80A0091
:104470007854BBF80A106A6800F049F968686A8BDA
:10448000296ABFB23818FBF7FCFE688BC7194E4586
:10449000BFB2A3D157B1688897FBF0F028802946B6
:1044A000608805F091FD48B1162007E0B8F1000FD3
:1044B00008BF4FF00A08AAF80060404609B0BDE8FE
:1044C000F08F80B202900020019070472DE9F04FEC
:1044D00085B00D46044604F108066088DFF89C7537
:1044E00005F01AFD4FF0000BA0F10108A0F1010A40
:1044F00016E039887A8B084612189245BCBFA8EBA3
:10450000010179837B687A8B396AC018FBF7B9FEA1
:104510003888798B081838800BF101001FFA80FB6E
:10452000B0888345BCBF3888504537DA306810F80A
:104530001B2000EB4B0004A9407802EB002080B266
:1045400004F058FF01000BD14FF0010900F02EF8E4
:10455000786808B1FCF773FE484605B0BDE8F08FF7
:1045600000F039F81FFA88F0FFF7ACFF07F11A00E6
:1045700000903B6A00F02DF85FEA0009E6D1786808
:104580000028B6D100F01CF80F21FFF7F7FB002838
:104590007860AED100F00AF81120DEE76088394675
:1045A00005F044FD0028D8D01620D6E7306810F872
:1045B0001B1000EB4B00407801EB00202880704777
:1045C000608800234FF6FF72704706F11A000090D2
:1045D000336A608878E22079BDF810200390704734
:1045E0002DE9F04786B08846044604F1080900F03A
:1045F00094F8059009F1050204A8009099F8043098
:10460000B9F80210B9F8000004F0C6FE0027BA4657
:1046100005460FE07268FF21B95480B27268815478
:10462000471C7068728B316ABFB23818FBF729FEDD
:10463000708BC719BFB2BDB1BDF81020297A608850
:1046400004F02DFE5FEA000A0BD1FFF7C4FF2946F4
:104650000598801FFFF735FFFFF7B7FF5FEA000AF5
:1046600010D06889A8F80000002F43D0708897FB0D
:10467000F0F030803146608805F0E7FC002843D038
:10468000162041E07FB9FFF79BFF1121FFF776FB72
:10469000706020B96889A8F80000112034E0708BA0
:1046A000001D708009E0708B7188021D9142DDD180
:1046B0000599891FC0198142D8DB716868897854CF
:1046C0006989726800F023F8BDF81020B9F802106B
:1046D0000DF11203284604F0B1FE0546781C002DAA
:1046E000BFB297D07268BDF81210B954BDF812105D
:1046F000090A92E7B9F80000A8F80000BAF1000F23
:1047000008BF4FF00A0A504606B0BDE8F087781C93
:1047100080B2090A8154471C70476088DFF85C63E7
:1047200005F0FABB2DE9F041044604F1080784B016
:104730000D463888904602A904F05CFE06002FD092
:10474000307A80060BD5BDF8080000F09FF9030011
:104750000BD06088122231469847060021D1787A22
:10476000002814BF5220207901E00E2619E00190A4
:10477000002000907B887A683988608800F09EFA73
:10478000060007D1787A70B9608805F06FFC50B1E7
:1047900016200CE0162E04D1002688F8006002E0F6
:1047A000012638882880787A00B10026304604B087
:1047B000BDE8F0812DE9F843894690460121044681
:1047C00004F10806608801F027FE002718B91420BC
:1047D00060700E205AE0308800A904F00BFE05003E
:1047E0004FD0287A80060BD5BDF8000000F04EF9B6
:1047F000030015D06088122229469847070041D14E
:104800006588284600F006F9010006D14FF6FF70D2
:1048100000F000F9010030D00D800022974D02E039
:104820000E272FE0521C687ED2B2824225D2486801
:104830000C2303FB02000388002BF3D10C2231462A
:10484000FBF71FFD002088F800000C2231462846A7
:10485000FBF717FDB288608800231721FFF78EFA57
:10486000A86060B1B288B168FBF70BFD608829468B
:1048700005F002FC48B1162008E0092702E01127E4
:1048800000E001273088A9F800003846BDE8F2832F
:104890002DE9F04383B089460027044604F108055A
:1048A000608800F0B7F85FEA00084AD0287801284D
:1048B00043D14146284600F050F8A0B1D8F8045042
:1048C0001820019068880090AB88AA6829886088C1
:1048D00000F0F4F90746162F02D10020A8602CE062
:1048E0005FB3288827E000250EE0019070880090D3
:1048F000B388B268608800F0E1F90746162F17D137
:104900000020B0606D1CEDB25C48407E854214DA38
:10491000D8F804100C2202FB05121646318861B14A
:104920006B1C83421DBF9089002816201820DCE7ED
:10493000002FE7D03088A9F80000404600F07DF84D
:104940002FB9608805F0A5FB20B1162003E0162FD3
:1049500008BF00273846BDE8FE832DE9F84F0C4616
:10496000002100250E464FF00C0B44480EE0994202
:1049700002BFBCF8027093B2BB4224D1BCF8043031
:104980005D19ADB29A18761C92B2F6B2437E9E4281
:104990000EDA63680BFB063CBCF8003043B100291B
:1049A000E5D1BCF80450BCF802201946AA18EAE781
:1049B000022E2CDB28004FF0000904D0FCF726FC67
:1049C0005FEA000801D1002022E0CA4619E00BFB93
:1049D0000A07B96859B1BA8809EB0800FBF751FC1E
:1049E000B88848441FFA80F9B868FCF728FCBAF187
:1049F000000F04D00C2200213846FBF774FC0AF1AA
:104A0000010AB2456068E2DBC0F8088085800120B9
:104A1000BDE8F28F194AD269002100E0491C184B09
:104A20001B78C9B2994206D232F831308342F5D1AF
:104A300002EBC10070470020704770B504460025A6
:104A40000BE0B06808B1FCF7FAFB0C2200213046FD
:104A5000FBF749FC002030806D1C0848407EEDB219
:104A6000854206D260680C2101FB050630880028CB
:104A7000E7D14FF6FF70208070BD0000D0470020C6
:104A8000684700206D4D01008C48002080B5FFF77D
:104A9000F9FA00B1806802BD30B583B00C78022C01
:104AA00010D14C682578647805EB0424A4B242F652
:104AB0000215AC4206D102240194069C009405F034
:104AC00053FB3EBD01203EBD2DE9FE4F0D46804605
:104AD000287AC00693461E464FF0000A0CD5584669
